{"abi":[{"type":"function","name":"CALL_ASSUMPTIONS_ENCODING_LENGTH","inputs":[],"outputs":[{"name":"","type":"uint256","internalType":"uint256"}],"stateMutability":"view"},{"type":"function","name":"ETH_WORD_SIZE","inputs":[],"outputs":[{"name":"","type":"uint256","internalType":"uint256"}],"stateMutability":"view"},{"type":"function","name":"FUNCTION_SELECTOR_ENCODING_LENGTH","inputs":[],"outputs":[{"name":"","type":"uint256","internalType":"uint256"}],"stateMutability":"view"},{"type":"function","name":"PROVER_CONTRACT_ADDRESS_ENCODING_LENGTH","inputs":[],"outputs":[{"name":"","type":"uint256","internalType":"uint256"}],"stateMutability":"view"},{"type":"function","name":"SETTLE_BLOCK_HASH_ENCODING_LENGTH","inputs":[],"outputs":[{"name":"","type":"uint256","internalType":"uint256"}],"stateMutability":"view"},{"type":"function","name":"SETTLE_BLOCK_NUMBER_ENCODING_LENGTH","inputs":[],"outputs":[{"name":"","type":"uint256","internalType":"uint256"}],"stateMutability":"view"},{"type":"function","name":"SETTLE_CHAIN_ID_ENCODING_LENGTH","inputs":[],"outputs":[{"name":"","type":"uint256","internalType":"uint256"}],"stateMutability":"view"}],"bytecode":{"object":"0x6080806040523460185760c5908161001d823930815050f35b5f80fdfe608060405260043610156010575f80fd5b5f3560e01c806304ac6e5d14607b5780631edbf9a914605e57806332d628cd14605e57806354ff28501460625780637475d58c14605e578063a4e0c57514605e5763d8c17a0714605e575f80fd5b607b565b5f366003190112607757602060405160a08152f35b5f80fd5b5f3660031901126077576020604051818152f3fea26469706673582212200c4337ded6bdf3d545bd84291d6f5eafeb146a625deccb8e4e01619d388dbb5e64736f6c63430008190033","linkReferences":{}},"methodIdentifiers":{"CALL_ASSUMPTIONS_ENCODING_LENGTH()":"54ff2850","ETH_WORD_SIZE()":"d8c17a07","FUNCTION_SELECTOR_ENCODING_LENGTH()":"a4e0c575","PROVER_CONTRACT_ADDRESS_ENCODING_LENGTH()":"32d628cd","SETTLE_BLOCK_HASH_ENCODING_LENGTH()":"7475d58c","SETTLE_BLOCK_NUMBER_ENCODING_LENGTH()":"1edbf9a9","SETTLE_CHAIN_ID_ENCODING_LENGTH()":"04ac6e5d"},"id":52}