{"abi":[{"type":"function","name":"RISC0_CALL_GUEST_ID","inputs":[],"outputs":[{"name":"","type":"bytes32","internalType":"bytes32"}],"stateMutability":"view"}],"bytecode":{"object":"0x60808060405234601757608f9081601c823930815050f35b5f80fdfe60808060405260043610156011575f80fd5b5f3560e01c63d7b00be9146023575f80fd5b5f366003190112605557807fb4248e4b5d3298922937afd56d86ac391f3ac2ea06f9764b30e92d377afaf51d60209252f35b5f80fdfea26469706673582212202469a8e683046bbb03aa0150796a25d774ba96f83e9bad4bf052d9bed4cb4f3c64736f6c63430008190033","linkReferences":{}},"methodIdentifiers":{"RISC0_CALL_GUEST_ID()":"d7b00be9"},"id":53}