{"abi":[{"type":"constructor","inputs":[{"name":"root","type":"bytes32","internalType":"bytes32"},{"name":"l2BlockNumber","type":"uint256","internalType":"uint256"}],"stateMutability":"nonpayable"},{"type":"function","name":"anchors","inputs":[{"name":"","type":"uint32","internalType":"uint32"}],"outputs":[{"name":"root","type":"bytes32","internalType":"bytes32"},{"name":"l2BlockNumber","type":"uint256","internalType":"uint256"}],"stateMutability":"view"}],"bytecode":{"object":"0x608034609a5761013a906001600160401b03601f38849003908101601f19168301908282118483101760865780849160409687948552833981010312609a576020825192015160015f55835192848401928484109084111760865760019285528352602083019081525f805281602052835f20925183555191015551609b908161009f8239f35b634e487b7160e01b5f52604160045260245ffd5b5f80fdfe60808060405260043610156011575f80fd5b5f3560e01c637258a807146023575f80fd5b3460615760203660031901126061576004359063ffffffff82168092036061576040915f526001602052815f20600181549101549082526020820152f35b5f80fdfea26469706673582212200cc00c99b1990a7bbacaa466f1f49fb0d5b46de7d87d232d271a740525f1791e64736f6c63430008190033","linkReferences":{}},"methodIdentifiers":{"anchors(uint32)":"7258a807"},"id":75}