{"abi":[{"type":"constructor","inputs":[{"name":"_fakeProofVerifier","type":"address","internalType":"contract FakeProofVerifier"},{"name":"_groth16ProofVerifier","type":"address","internalType":"contract Groth16ProofVerifier"}],"stateMutability":"nonpayable"},{"type":"function","name":"FAKE_PROOF_VERIFIER","inputs":[],"outputs":[{"name":"","type":"address","internalType":"contract FakeProofVerifier"}],"stateMutability":"view"},{"type":"function","name":"GROTH16_PROOF_VERIFIER","inputs":[],"outputs":[{"name":"","type":"address","internalType":"contract Groth16ProofVerifier"}],"stateMutability":"view"},{"type":"function","name":"imageIdRepository","inputs":[],"outputs":[{"name":"","type":"address","internalType":"contract IImageIdRepository"}],"stateMutability":"view"},{"type":"function","name":"verify","inputs":[{"name":"proof","type":"tuple","internalType":"struct Proof","components":[{"name":"seal","type":"tuple","internalType":"struct Seal","components":[{"name":"verifierSelector","type":"bytes4","internalType":"bytes4"},{"name":"seal","type":"bytes32[8]","internalType":"bytes32[8]"},{"name":"mode","type":"uint8","internalType":"enum ProofMode"}]},{"name":"callGuestId","type":"bytes32","internalType":"bytes32"},{"name":"length","type":"uint256","internalType":"uint256"},{"name":"callAssumptions","type":"tuple","internalType":"struct CallAssumptions","components":[{"name":"proverContractAddress","type":"address","internalType":"address"},{"name":"functionSelector","type":"bytes4","internalType":"bytes4"},{"name":"settleChainId","type":"uint256","internalType":"uint256"},{"name":"settleBlockNumber","type":"uint256","internalType":"uint256"},{"name":"settleBlockHash","type":"bytes32","internalType":"bytes32"}]}]},{"name":"journalHash","type":"bytes32","internalType":"bytes32"},{"name":"expectedProver","type":"address","internalType":"address"},{"name":"expectedSelector","type":"bytes4","internalType":"bytes4"}],"outputs":[],"stateMutability":"view"}],"bytecode":{"object":"0x60c06040908082523461018457818161073f80380380916100208285610188565b8339810103126101845780516001600160a01b03918282168083036101845760208092015193808516918286036101845786518481600481631feb379160e11b978882525afa93841561017a5785915f9561015b575b50600489518094819382525afa80156101515782915f91610124575b50169116036100d5575060805260a0525161056090816101df82396080518181816061015261010b015260a0518181816101b40152818161028901526103500152f35b60849084519062461bcd60e51b825260048201526024808201527f5665726966696572732073686f756c64207573652073616d65207265706f7369604482015263746f727960e01b6064820152fd5b6101449150853d871161014a575b61013c8183610188565b8101906101bf565b5f610092565b503d610132565b87513d5f823e3d90fd5b610173919550823d841161014a5761013c8183610188565b935f610076565b88513d5f823e3d90fd5b5f80fd5b601f909101601f19168101906001600160401b038211908210176101ab57604052565b634e487b7160e01b5f52604160045260245ffd5b9081602091031261018457516001600160a01b0381168103610184579056fe6080604081815260049182361015610015575f80fd5b5f925f3560e01c91826319f9dd0a1461033e575081633fd66f221461025a578163c4fa74e514610094575063d06da6821461004e575f80fd5b34610090578160031936011261009057517f00000000000000000000000000000000000000000000000000000000000000006001600160a01b03168152602090f35b5080fd5b83833461023057366003190161028081126102305761022013610230576001600160a01b03926102243591906102443585811681036102305761026435936001600160e01b031985168503610230576100f46100ef366103a7565b610506565b9660028810156102475760018798145f14610187577f00000000000000000000000000000000000000000000000000000000000000001690813b1561018357869361015286519788958694859463c4fa74e560e01b86528501610449565b03915afa90811561017a575061016757505080f35b6101709061037f565b6101775780f35b80fd5b513d84823e3d90fd5b8680fd5b9091929394955061019a6100ef366103a7565b600281101561023457156101b2575b50505050505080f35b7f00000000000000000000000000000000000000000000000000000000000000001690813b15610230575f936101fb86519788958694859463c4fa74e560e01b86528501610449565b03915afa9081156102275750610216575b80808080806101a9565b610220915061037f565b5f8161020c565b513d5f823e3d90fd5b5f80fd5b602185634e487b7160e01b5f525260245ffd5b602184634e487b7160e01b5f525260245ffd5b905034610230575f366003190112610230578151631feb379160e11b81526001600160a01b03929060208184817f000000000000000000000000000000000000000000000000000000000000000088165afa928315610334575f936102c6575b60208486855191168152f35b909192506020903d60201161032c575b601f8201601f191683019067ffffffffffffffff8211848310176103195750602091839185528101031261023057519180831683036102305791906020846102ba565b604190634e487b7160e01b5f525260245ffd5b3d91506102d6565b82513d5f823e3d90fd5b34610230575f366003190112610230577f00000000000000000000000000000000000000000000000000000000000000006001600160a01b03168152602090f35b67ffffffffffffffff811161039357604052565b634e487b7160e01b5f52604160045260245ffd5b906101406003198301126102305760405167ffffffffffffffff92606082018481118382101761039357604052819360043563ffffffff60e01b81168103610230578352816043121561023057604051906101008201908111828210176103935760405280610124928311610230576024905b8382106104395750506020830152359060028210156102305760400152565b813581526020918201910161041a565b6102808101949390926001600160e01b0319919060043583811690819003610230578552610100602460208701376101243560028110156102305761012086015261014435610140860152610164356101608601526001600160a01b03906101843582811690819003610230576101808701526101a4359484861680960361023057610260956101a08801526101c4356101c08801526101e4356101e0880152610204356102008801526102208701521661024085015216910152565b6040015160028110156105165790565b634e487b7160e01b5f52602160045260245ffdfea264697066735822122003beb97762b8461bac8b9782e66a46dddba229abc20aeb0c8f4f90688a733fb264736f6c63430008190033","linkReferences":{}},"methodIdentifiers":{"FAKE_PROOF_VERIFIER()":"d06da682","GROTH16_PROOF_VERIFIER()":"19f9dd0a","imageIdRepository()":"3fd66f22","verify(((bytes4,bytes32[8],uint8),bytes32,uint256,(address,bytes4,uint256,uint256,bytes32)),bytes32,address,bytes4)":"c4fa74e5"},"id":68}