{"abi":[{"type":"function","name":"ETH_WORD_SIZE","inputs":[],"outputs":[{"name":"","type":"uint256","internalType":"uint256"}],"stateMutability":"view"},{"type":"function","name":"FAKE_SEAL_LENGTH","inputs":[],"outputs":[{"name":"","type":"uint256","internalType":"uint256"}],"stateMutability":"view"},{"type":"function","name":"GROTH16_SEAL_LENGTH","inputs":[],"outputs":[{"name":"","type":"uint256","internalType":"uint256"}],"stateMutability":"view"},{"type":"function","name":"PROOF_MODE_ENCODING_LENGTH","inputs":[],"outputs":[{"name":"","type":"uint256","internalType":"uint256"}],"stateMutability":"view"},{"type":"function","name":"SEAL_BYTES_ENCODING_LENGTH","inputs":[],"outputs":[{"name":"","type":"uint256","internalType":"uint256"}],"stateMutability":"view"},{"type":"function","name":"SEAL_ENCODING_LENGTH","inputs":[],"outputs":[{"name":"","type":"uint256","internalType":"uint256"}],"stateMutability":"view"},{"type":"function","name":"VERIFIER_SELECTOR_ENCODING_LENGTH","inputs":[],"outputs":[{"name":"","type":"uint256","internalType":"uint256"}],"stateMutability":"view"},{"type":"function","name":"VERIFIER_SELECTOR_LENGTH","inputs":[],"outputs":[{"name":"","type":"uint256","internalType":"uint256"}],"stateMutability":"view"}],"bytecode":{"object":"0x60808060405234601957610127908161001e823930815050f35b5f80fdfe60808060405260043610156011575f80fd5b5f3560e01c90816343e656f01460c9575080636b1a676e1460b3578063702c261514609a578063be7acbcf14609e578063cb7138ed14609a578063d8c17a0714609a578063db3e68bf1460855763e336381d14606b575f80fd5b5f36600319011260815760206040516101008152f35b5f80fd5b5f366003190112608157602060405160048152f35b60dd565b5f366003190112608157602060405160248152f35b5f36600319011260815760206040516101408152f35b5f3660031901126081578061010460209252f35b5f3660031901126081576020604051818152f3fea26469706673582212201a8e176d84cb71a69988a7ae0a4e2cce97c000fdf3ee8efc8e737988b414c2f664736f6c63430008190033","linkReferences":{}},"methodIdentifiers":{"ETH_WORD_SIZE()":"d8c17a07","FAKE_SEAL_LENGTH()":"be7acbcf","GROTH16_SEAL_LENGTH()":"43e656f0","PROOF_MODE_ENCODING_LENGTH()":"cb7138ed","SEAL_BYTES_ENCODING_LENGTH()":"e336381d","SEAL_ENCODING_LENGTH()":"6b1a676e","VERIFIER_SELECTOR_ENCODING_LENGTH()":"702c2615","VERIFIER_SELECTOR_LENGTH()":"db3e68bf"},"id":59}