{"abi":[{"type":"constructor","inputs":[{"name":"control_root","type":"bytes32","internalType":"bytes32"},{"name":"bn254_control_id","type":"bytes32","internalType":"bytes32"}],"stateMutability":"nonpayable"},{"type":"function","name":"BN254_CONTROL_ID","inputs":[],"outputs":[{"name":"","type":"bytes32","internalType":"bytes32"}],"stateMutability":"view"},{"type":"function","name":"CONTROL_ROOT_0","inputs":[],"outputs":[{"name":"","type":"bytes16","internalType":"bytes16"}],"stateMutability":"view"},{"type":"function","name":"CONTROL_ROOT_1","inputs":[],"outputs":[{"name":"","type":"bytes16","internalType":"bytes16"}],"stateMutability":"view"},{"type":"function","name":"SELECTOR","inputs":[],"outputs":[{"name":"","type":"bytes4","internalType":"bytes4"}],"stateMutability":"view"},{"type":"function","name":"VERSION","inputs":[],"outputs":[{"name":"","type":"string","internalType":"string"}],"stateMutability":"view"},{"type":"function","name":"verify","inputs":[{"name":"seal","type":"bytes","internalType":"bytes"},{"name":"imageId","type":"bytes32","internalType":"bytes32"},{"name":"journalDigest","type":"bytes32","internalType":"bytes32"}],"outputs":[],"stateMutability":"view"},{"type":"function","name":"verifyIntegrity","inputs":[{"name":"receipt","type":"tuple","internalType":"struct Receipt","components":[{"name":"seal","type":"bytes","internalType":"bytes"},{"name":"claimDigest","type":"bytes32","internalType":"bytes32"}]}],"outputs":[],"stateMutability":"view"},{"type":"function","name":"verifyProof","inputs":[{"name":"_pA","type":"uint256[2]","internalType":"uint256[2]"},{"name":"_pB","type":"uint256[2][2]","internalType":"uint256[2][2]"},{"name":"_pC","type":"uint256[2]","internalType":"uint256[2]"},{"name":"_pubSignals","type":"uint256[5]","internalType":"uint256[5]"}],"outputs":[{"name":"","type":"bool","internalType":"bool"}],"stateMutability":"view"},{"type":"error","name":"SafeCastOverflowedUintDowncast","inputs":[{"name":"bits","type":"uint8","internalType":"uint8"},{"name":"value","type":"uint256","internalType":"uint256"}]},{"type":"error","name":"SelectorMismatch","inputs":[{"name":"received","type":"bytes4","internalType":"bytes4"},{"name":"expected","type":"bytes4","internalType":"bytes4"}]},{"type":"error","name":"VerificationFailed","inputs":[]}],"bytecode":{"object":"0x6101008060405234610c8a57604081611ee180380380916100208285610cc4565b833981010312610c8a5780516020918201519091600883811c7eff00ff00ff00ff00ff00ff00ff00ff00ff00ff00ff00ff00ff00ff00ff00ff169084901b7fff00ff00ff00ff00ff00ff00ff00ff00ff00ff00ff00ff00ff00ff00ff00ff001617601081811c7dffff0000ffff0000ffff0000ffff0000ffff0000ffff0000ffff0000ffff1691901b7fffff0000ffff0000ffff0000ffff0000ffff0000ffff0000ffff0000ffff0000161780821c7bffffffff00000000ffffffff00000000ffffffff00000000ffffffff16911b7fffffffff00000000ffffffff00000000ffffffff00000000ffffffff000000001617604081811c77ffffffffffffffff0000000000000000ffffffffffffffff1691901b7fffffffffffffffff0000000000000000ffffffffffffffff00000000000000001617608081811c91901b1760018060801b03199081811660a05260801b166080528060c05260205f60266040517f72697363302e47726f74683136526563656970745665726966696572506172618152656d657465727360d01b8482015260025afa15610ad7575f5190600881811c7eff00ff00ff00ff00ff00ff00ff00ff00ff00ff00ff00ff00ff00ff00ff00ff1691901b7fff00ff00ff00ff00ff00ff00ff00ff00ff00ff00ff00ff00ff00ff00ff00ff001617601081811c7dffff0000ffff0000ffff0000ffff0000ffff0000ffff0000ffff0000ffff1691901b7fffff0000ffff0000ffff0000ffff0000ffff0000ffff0000ffff0000ffff00001617602081811c7bffffffff00000000ffffffff00000000ffffffff00000000ffffffff1691901b7fffffffff00000000ffffffff00000000ffffffff00000000ffffffff000000001617604081811c77ffffffffffffffff0000000000000000ffffffffffffffff1691901b7fffffffffffffffff0000000000000000ffffffffffffffff00000000000000001617608081811c91901b17604051909160e082016001600160401b03811183821017610b1a576040526006825260c036602084013760205f604051828101907f12ac9a25dcd5e1a832a9061a082c15dd1d61aa9c4d553505739d0f5d65dc3be482527f025aa744581ebe7ad91731911c898569106ff5a2d30f3eee2b23c60ee980acd460408201526040815261037781610c8e565b604051918291518091835e8101838152039060025afa15610ad7575f5161039d83610ce7565b5260205f604051828101907f0707b920bc978c02f292fae2036e057be54294114ccc3c8769d883f688a1423f82527f2e32a094b7589554f7bc357bf63481acd2d55555c203383782a4650787ff66426040820152604081526103fe81610c8e565b604051918291518091835e8101838152039060025afa15610ad7575f5161042483610cf4565b5260205f604051828101907f0bca36e2cbe6394b3e249751853f961511011c7148e336f4fd974644850fc34782527f2ede7c9acf48cf3a3729fa3d68714e2a8435d4fa6db8f7f409c153b1fcdf9b8b60408201526040815261048581610c8e565b604051918291518091835e8101838152039060025afa15610ad7575f51825160021015610b2e57606083015260205f604051828101907f1b8af999dbfbb3927c091cc2aaf201e488cbacc3e2c6b6fb5a25f9112e04f2a782527f2b91a26aa92e1b6f5722949f192a81c850d586d81a60157f3e9cf04f679cccd660408201526040815261051181610c8e565b604051918291518091835e8101838152039060025afa15610ad7575f51825160031015610b2e57608083015260205f604051828101907f2b5f494ed674235b8ac1750bdfd5a7615f002d4a1dcefeddd06eda5a076ccd0d82527f2fe520ad2020aab9cbba817fcbb9a863b8a76ff88f14f912c5e71665b2ad5e8260408201526040815261059d81610c8e565b604051918291518091835e8101838152039060025afa15610ad7575f51825160041015610b2e5760a083015260205f604051828101907f0f1c3c0d5d9da0fa03666843cde4e82e869ba5252fce3c25d5940320b1c4d49382527f214bfcff74f425f6fe8c0d07b307482d8bc8bb2f3608f68287aa01bd0b69e80960408201526040815261062981610c8e565b604051918291518091835e8101838152039060025afa15610ad7575f51825160051015610b2e5760c083015260205f601a6040517f72697363305f67726f746831362e566572696679696e674b6579000000000000815260025afa15610ad7575f519160205f604051828101907f2d4d9aa7e302d9df41749d5507949d05dbea33fbb16c643b22f599a2be6df2e282527f14bedd503c37ceb061d8ec60209fe345ce89830a19230301f076caff004d19266040820152604081526106ec81610c8e565b604051918291518091835e8101838152039060025afa15610ad7575f519460205f604051828101907f0967032fcbf776d1afc985f88877f182d38480a653f2decaa9794cbc3bf3060c82527f0e187847ad4c798374d0d6732bf501847dd68bc0e071241e0213bc7fc13db7ab60408201527f304cfbd1e08a704a99f5e847d93f8c3caafddec46b7a0d379da69a4d112346a760608201527f1739c1b1a457a8c7313123d24d2f9192f896b7c63eea05a9d57f06547ad0cec86080820152608081526107b681610ca9565b604051918291518091835e8101838152039060025afa15610ad7575f519260205f604051828101907f198e9393920d483a7260bfb731fb5d25f1aa493335a9e71297e485b7aef312c282527f1800deef121f1e76426a00665e5c4479674322d4f75edadd46debd5cd992f6ed60408201527f090689d0585ff075ec9e99ad690c3395bc4b313370b38ef355acdadcd122975b60608201527f12c85ea5db8c6deb4aab71808dcb408fe3d1e7690c43d37b4ce6cc0166fa7daa60808201526080815261088081610ca9565b604051918291518091835e8101838152039060025afa15610ad7575f519560205f604051828101907f03b03cd5effa95ac9bee94f1f5ef907157bda4812ccf0b4c91f42bb629f83a1c82527f1aa085ff28179a12d922dba0547057ccaae94b9d69cfaa4e60401fea7f3e033360408201527f110c10134f200b19f6490846d518c9aea868366efb7228ca5c91d2940d03076260608201527f1e60f31fcbf757e837e867178318832d0b2d74d59e2fea1c7142df187d3fc6d360808201526080815261094a81610ca9565b604051918291518091835e8101838152039060025afa15610ad7575f519760205f601d6040517f72697363305f67726f746831362e566572696679696e674b65792e4943000000815260025afa15610ad7575f51965f995f9a5b8751808d1015610b5657805f19810111610b42575f198181018e830390910111610b425788518d82035f19011015610b2e578c90035f190160051b88016020015160405191906109f383610c8e565b600283526040366020850137610a0883610ce7565b52610a1282610cf4565b52604051906001600160401b036020830190811190831117610b1a57602082016040525f825280519061ffff8211610afa57604051928c60208501526040840160208351919301905f905b808210610ae25750505092610aad6002825f9560208098968782985192839101825e019061ffff60f01b9061ff0060ff8260081c169160081b161760f01b16815203601d19810184520182610cc4565b604051918183925191829101835e8101838152039060025afa15610ad75760015f519b019a6109a4565b6040513d5f823e3d90fd5b90919360208060019287518152019501920190610a5d565b6040516306dfcc6560e41b81526010600482015260248101839052604490fd5b634e487b7160e01b5f52604160045260245ffd5b634e487b7160e01b5f52603260045260245ffd5b634e487b7160e01b5f52601160045260245ffd5b50908a89604051956020870195865260408701526060860152608085015260a084015260c0830152600560f81b60e083015260c28252610100918281019080821060018060401b03831117610b1a576020935f80948460405283518091865e830191820152039060025afa15610ad7575f5160408051602081019485529081019490945260608401919091526080830152600360f81b60a08301526082825260c082016001600160401b03811183821017610b1a576020925f928260405281518091845e81018360c0820152039060025afa15610ad7575f516001600160e01b03191660e0526040516111dc9081610d0582396080518181816105c80152610ec7015260a0518181816105840152610eed015260c0518181816101620152610f25015260e05181818160ae0152610d150152f35b5f80fd5b606081019081106001600160401b03821117610b1a57604052565b60a081019081106001600160401b03821117610b1a57604052565b601f909101601f19168101906001600160401b03821190821017610b1a57604052565b805115610b2e5760200190565b805160011015610b2e576040019056fe60806040526004361015610011575f80fd5b5f3560e01c8063053c238d146100945780631599ead51461008f578063258038e21461008a57806334baeab9146100855780638989fa2e146100805780639181e4b11461007b578063ab750e75146100765763ffa1ad7414610071575f80fd5b6107c1565b6105ec565b6105a8565b610564565b6101a0565b61014b565b6100db565b346100d7575f3660031901126100d75763ffffffff60e01b7f00000000000000000000000000000000000000000000000000000000000000001660805260206080f35b5f80fd5b346100d7576003196020368201126100d7576004359067ffffffffffffffff908183116100d7576040833603918201126100d757600483013590602219018112156100d757820160048101359182116100d7576024019080360382136100d757602461014993013591610d11565b005b346100d7575f3660031901126100d75760206040517f00000000000000000000000000000000000000000000000000000000000000008152f35b906004916044116100d757565b9060c491610104116100d757565b346100d7576101a0806003193601126100d7576101bc36610185565b903660c4116100d7576101ce36610192565b366101a4116100d757604051610380810160405261010435916101f08361081e565b61012435926101fe8461081e565b610144359461020c8661081e565b610164359661021a8861081e565b610184356102278161081e565b6080860198899889987f12ac9a25dcd5e1a832a9061a082c15dd1d61aa9c4d553505739d0f5d65dc3be4895260208901967f025aa744581ebe7ad91731911c898569106ff5a2d30f3eee2b23c60ee980acd48852610285908a61084f565b61028f90896108d6565b610299908861095d565b6102a390876109e4565b6102ad9086610a6b565b803586527f30644e72e131a029b85045b68181585d97816a916871ca8d3c208c16d87cfd4760209182013581030660a086015260443560c086015260643560e086015260843561010086015260a4356101208601527f2d4d9aa7e302d9df41749d5507949d05dbea33fbb16c643b22f599a2be6df2e26101408601527f14bedd503c37ceb061d8ec60209fe345ce89830a19230301f076caff004d19266101608601527f0967032fcbf776d1afc985f88877f182d38480a653f2decaa9794cbc3bf3060c6101808601527f0e187847ad4c798374d0d6732bf501847dd68bc0e071241e0213bc7fc13db7ab918501919091527f304cfbd1e08a704a99f5e847d93f8c3caafddec46b7a0d379da69a4d112346a76101c08501527f1739c1b1a457a8c7313123d24d2f9192f896b7c63eea05a9d57f06547ad0cec86101e0850152835161020085015290516102208401527f198e9393920d483a7260bfb731fb5d25f1aa493335a9e71297e485b7aef312c26102408401527f1800deef121f1e76426a00665e5c4479674322d4f75edadd46debd5cd992f6ed6102608401527f090689d0585ff075ec9e99ad690c3395bc4b313370b38ef355acdadcd122975b6102808401527f12c85ea5db8c6deb4aab71808dcb408fe3d1e7690c43d37b4ce6cc0166fa7daa6102a084015281356102c084015201356102e08201527f03b03cd5effa95ac9bee94f1f5ef907157bda4812ccf0b4c91f42bb629f83a1c610300808301919091527f1aa085ff28179a12d922dba0547057ccaae94b9d69cfaa4e60401fea7f3e03336103208301527f110c10134f200b19f6490846d518c9aea868366efb7228ca5c91d2940d0307626103408301527f1e60f31fcbf757e837e867178318832d0b2d74d59e2fea1c7142df187d3fc6d3610360909201919091526107cf195a01926008602094fa9051165f5260205ff35b346100d7575f3660031901126100d75760206040516001600160801b03197f0000000000000000000000000000000000000000000000000000000000000000168152f35b346100d7575f3660031901126100d75760206040516001600160801b03197f0000000000000000000000000000000000000000000000000000000000000000168152f35b346100d75760603660031901126100d75767ffffffffffffffff6004358181116100d757366023820112156100d75780600401358281116100d75736602482840101116100d75760405160a08101938411818510176106fb5760805f91610149956040528281528260208201526040516106658161070f565b8381528360208201526040820152826060820152015260246106f4610688610785565b5f81525f60208201526106ac61069c610785565b60443581525f6020820152611149565b6106b4610794565b91843583527fa3acc27117418996340b84e5a90f3ef4c49d22c79e44aad822ec9c313e1eb8e2602084015260408301525f60608301526080820152611039565b9201610d11565b634e487b7160e01b5f52604160045260245ffd5b6040810190811067ffffffffffffffff8211176106fb57604052565b6060810190811067ffffffffffffffff8211176106fb57604052565b60a0810190811067ffffffffffffffff8211176106fb57604052565b90601f8019910116810190811067ffffffffffffffff8211176106fb57604052565b604051906107928261070f565b565b6040519060a0820182811067ffffffffffffffff8211176106fb57604052565b6040519061079282610747565b346100d7575f3660031901126100d7576040516107dd8161070f565b6005815260406020820191640332e302e360dc1b83528151928391602083525180918160208501528484015e5f828201840152601f01601f19168101030190f35b7f30644e72e131a029b85045b68181585d2833e84879b9709143e1f593f0000001111561084757565b5f805260205ff35b604080517f0707b920bc978c02f292fae2036e057be54294114ccc3c8769d883f688a1423f81527f2e32a094b7589554f7bc357bf63481acd2d55555c203383782a4650787ff664260208201528082019384526107cf1991816060816007865a01fa1561084757600660809260409585519052602085015160608401525a01fa1561084757565b604080517f0bca36e2cbe6394b3e249751853f961511011c7148e336f4fd974644850fc34781527f2ede7c9acf48cf3a3729fa3d68714e2a8435d4fa6db8f7f409c153b1fcdf9b8b60208201528082019384526107cf1991816060816007865a01fa1561084757600660809260409585519052602085015160608401525a01fa1561084757565b604080517f1b8af999dbfbb3927c091cc2aaf201e488cbacc3e2c6b6fb5a25f9112e04f2a781527f2b91a26aa92e1b6f5722949f192a81c850d586d81a60157f3e9cf04f679cccd660208201528082019384526107cf1991816060816007865a01fa1561084757600660809260409585519052602085015160608401525a01fa1561084757565b604080517f2b5f494ed674235b8ac1750bdfd5a7615f002d4a1dcefeddd06eda5a076ccd0d81527f2fe520ad2020aab9cbba817fcbb9a863b8a76ff88f14f912c5e71665b2ad5e8260208201528082019384526107cf1991816060816007865a01fa1561084757600660809260409585519052602085015160608401525a01fa1561084757565b604080517f0f1c3c0d5d9da0fa03666843cde4e82e869ba5252fce3c25d5940320b1c4d49381527f214bfcff74f425f6fe8c0d07b307482d8bc8bb2f3608f68287aa01bd0b69e80960208201528082019384526107cf1991816060816007865a01fa1561084757600660809260409585519052602085015160608401525a01fa1561084757565b906004116100d75790600490565b90929192836004116100d75783116100d757600401916003190190565b6001600160e01b03199035818116939260048110610b3a57505050565b60040360031b82901b16169150565b9080601f830112156100d75760405191610b628361070f565b8290604081019283116100d757905b828210610b7e5750505090565b8135815260209182019101610b71565b90610100828203126100d75760409160405192610baa8461072b565b610bb48383610b49565b845282605f830112156100d75760405190610bce8261070f565b8160c08401938585116100d757604001905b848210610c01575050506020840152610bf99190610b49565b604082015290565b60208391610c0f8885610b49565b815201910190610be0565b908160209103126100d7575180151581036100d75790565b5f915b60028310610c4257505050565b600190825181526020809101920192019190610c35565b9293949094610c6d846101a0810197610c32565b6040916040850193915f945b600280871015610cc3578590855183905f915b838310610ca9575050505060209060019201940195019492610c79565b815181528994506001929092019160209182019101610c8c565b5050949250946101009350610cdd915060c0830190610c32565b01905f915b60058310610cef57505050565b600190825181526020809101920192019190610ce2565b6040513d5f823e3d90fd5b90917f0000000000000000000000000000000000000000000000000000000000000000610d57610d4a610d448686610af2565b90610b1d565b6001600160e01b03191690565b6001600160e01b0319821603610fc5575090610eab610ea384610e9b6020958060081c9060081b907eff000000ff000000ff000000ff000000ff000000ff000000ff000000ff00007fff000000ff000000ff000000ff000000ff000000ff000000ff000000ff0000007dff000000ff000000ff000000ff000000ff000000ff000000ff000000ff0084167cff000000ff000000ff000000ff000000ff000000ff000000ff000000ff84161760101b931691161760101c177bffffffff00000000ffffffff00000000ffffffff00000000ffffffff7fffffffff00000000ffffffff00000000ffffffff00000000ffffffff000000008260201b169160201c161777ffffffffffffffff0000000000000000ffffffffffffffff80198260401b169160401c16178060801b9060801c17906001600160801b0319808360801b16921690565b969094610b00565b810190610b8e565b90610f6482519160408585015194015195610ec46107b4565b917f000000000000000000000000000000000000000000000000000000000000000060801c83527f000000000000000000000000000000000000000000000000000000000000000060801c8784015260801c604083015260801c60608201527f0000000000000000000000000000000000000000000000000000000000000000608082015260405195869485946334baeab960e01b865260048601610c59565b0381305afa908115610fc0575f91610f91575b5015610f7f57565b60405163439cc0cd60e01b8152600490fd5b610fb3915060203d602011610fb9575b610fab8183610763565b810190610c1a565b5f610f77565b503d610fa1565b610d06565b610fd2610d448585610af2565b604051632e2ce35360e21b81526001600160e01b0319918216600482015291166024820152604490fd5b6003111561100657565b634e487b7160e01b5f52602160045260245ffd5b5160038110156110065790565b805191908290602001825e015f815290565b60205f60126040517172697363302e52656365697074436c61696d60701b815260025afa15610fc0575f61113963ff00000061112d60209461111f855160608301519083519389810151604060808301519201956110c66110ba6110b48e6110a18b5161101a565b9a6110ab8c610ffc565b51015160ff1690565b60ff1690565b60181b63ff0000001690565b94604051998a9860181b16948d8901959492909160aa9794928752602087015260408601526060850152608084015263ffffffff60e01b809260e01b1660a084015260e01b1660a4820152600160fa1b60a88201520190565b03601f198101835282610763565b60405191828092611027565b039060025afa15610fc0575f5190565b60205f600c6040516b1c9a5cd8cc0b93dd5d1c1d5d60a21b815260025afa15610fc0575f61113960209282519084815191015190604051928684015260408301526060820152600160f91b60808201526062815261112d8161074756fea264697066735822122087ab246167257f412587605a3b1ea1ae7614b4c8a199785a97e13b5581f0df6064736f6c63430008190033","linkReferences":{}},"methodIdentifiers":{"BN254_CONTROL_ID()":"258038e2","CONTROL_ROOT_0()":"9181e4b1","CONTROL_ROOT_1()":"8989fa2e","SELECTOR()":"053c238d","VERSION()":"ffa1ad74","verify(bytes,bytes32,bytes32)":"ab750e75","verifyIntegrity((bytes,bytes32))":"1599ead5","verifyProof(uint256[2],uint256[2][2],uint256[2],uint256[5])":"34baeab9"},"id":50}