{"abi":[{"type":"function","name":"IS_VLAYER_TEST","inputs":[],"outputs":[{"name":"","type":"address","internalType":"address"}],"stateMutability":"view"},{"type":"function","name":"JSON_GET_BOOL","inputs":[],"outputs":[{"name":"","type":"address","internalType":"address"}],"stateMutability":"view"},{"type":"function","name":"JSON_GET_FLOAT_AS_INT","inputs":[],"outputs":[{"name":"","type":"address","internalType":"address"}],"stateMutability":"view"},{"type":"function","name":"JSON_GET_INT","inputs":[],"outputs":[{"name":"","type":"address","internalType":"address"}],"stateMutability":"view"},{"type":"function","name":"JSON_GET_STRING","inputs":[],"outputs":[{"name":"","type":"address","internalType":"address"}],"stateMutability":"view"},{"type":"function","name":"PRECOMPILES","inputs":[],"outputs":[{"name":"","type":"address","internalType":"address"}],"stateMutability":"view"},{"type":"function","name":"REGEX_CAPTURE","inputs":[],"outputs":[{"name":"","type":"address","internalType":"address"}],"stateMutability":"view"},{"type":"function","name":"REGEX_MATCH","inputs":[],"outputs":[{"name":"","type":"address","internalType":"address"}],"stateMutability":"view"},{"type":"function","name":"URL_PATTERN_TEST","inputs":[],"outputs":[{"name":"","type":"address","internalType":"address"}],"stateMutability":"view"},{"type":"function","name":"VERIFY_AND_PARSE","inputs":[],"outputs":[{"name":"","type":"address","internalType":"address"}],"stateMutability":"view"},{"type":"function","name":"VERIFY_EMAIL","inputs":[],"outputs":[{"name":"","type":"address","internalType":"address"}],"stateMutability":"view"}],"bytecode":{"object":"0x60808060405234601957610291908161001e823930815050f35b5f80fdfe60806040908082526004361015610014575f80fd5b5f3560e01c9081631662d562146102345750806339ab57521461020b5780635b561be8146101e2578063769dd05c146101b95780637d7d70de1461019057806397a28b4914610167578063a1c552651461013e578063a25e63f714610115578063e35576da146100ec578063e9df163c146100c35763f98c2b3814610097575f80fd5b5f3660031901126100bf576020905173f4e4fdca9d5d55e64525e314391996a15f7ec6008152f35b5f80fd5b505f3660031901126100bf576020905173f4e4fdca9d5d55e64525e314391996a15f7ec6038152f35b505f3660031901126100bf576020905173f4e4fdca9d5d55e64525e314391996a15f7ec61e8152f35b505f3660031901126100bf576020905173f4e4fdca9d5d55e64525e314391996a15f7ec6208152f35b505f3660031901126100bf576020905173f4e4fdca9d5d55e64525e314391996a15f7ec6118152f35b505f3660031901126100bf576020905173f4e4fdca9d5d55e64525e314391996a15f7ec6048152f35b505f3660031901126100bf576020905173f4e4fdca9d5d55e64525e314391996a15f7ec6108152f35b505f3660031901126100bf576020905173f4e4fdca9d5d55e64525e314391996a15f7ec6018152f35b505f3660031901126100bf576020905173f4e4fdca9d5d55e64525e314391996a15f7ec6008152f35b505f3660031901126100bf576020905173f4e4fdca9d5d55e64525e314391996a15f7ec6058152f35b5f3660031901126100bf578073f4e4fdca9d5d55e64525e314391996a15f7ec60260209252f3fea2646970667358221220a9bb490aedea792c129d47a17feb505e1d523c8cf30844d94946904ff205c49c64736f6c63430008190033","linkReferences":{}},"methodIdentifiers":{"IS_VLAYER_TEST()":"e35576da","JSON_GET_BOOL()":"97a28b49","JSON_GET_FLOAT_AS_INT()":"39ab5752","JSON_GET_INT()":"e9df163c","JSON_GET_STRING()":"1662d562","PRECOMPILES()":"5b561be8","REGEX_CAPTURE()":"a1c55265","REGEX_MATCH()":"7d7d70de","URL_PATTERN_TEST()":"a25e63f7","VERIFY_AND_PARSE()":"f98c2b38","VERIFY_EMAIL()":"769dd05c"},"id":55}