{"abi":[{"type":"constructor","inputs":[{"name":"_repository","type":"address","internalType":"contract IImageIdRepository"}],"stateMutability":"nonpayable"},{"type":"function","name":"IMAGE_ID_REPOSITORY","inputs":[],"outputs":[{"name":"","type":"address","internalType":"contract IImageIdRepository"}],"stateMutability":"view"},{"type":"function","name":"PROOF_MODE","inputs":[],"outputs":[{"name":"","type":"uint8","internalType":"enum ProofMode"}],"stateMutability":"view"},{"type":"function","name":"VERIFIER","inputs":[],"outputs":[{"name":"","type":"address","internalType":"contract IRiscZeroVerifier"}],"stateMutability":"view"},{"type":"function","name":"imageIdRepository","inputs":[],"outputs":[{"name":"","type":"address","internalType":"contract IImageIdRepository"}],"stateMutability":"view"},{"type":"function","name":"verify","inputs":[{"name":"proof","type":"tuple","internalType":"struct Proof","components":[{"name":"seal","type":"tuple","internalType":"struct Seal","components":[{"name":"verifierSelector","type":"bytes4","internalType":"bytes4"},{"name":"seal","type":"bytes32[8]","internalType":"bytes32[8]"},{"name":"mode","type":"uint8","internalType":"enum ProofMode"}]},{"name":"callGuestId","type":"bytes32","internalType":"bytes32"},{"name":"length","type":"uint256","internalType":"uint256"},{"name":"callAssumptions","type":"tuple","internalType":"struct CallAssumptions","components":[{"name":"proverContractAddress","type":"address","internalType":"address"},{"name":"functionSelector","type":"bytes4","internalType":"bytes4"},{"name":"settleChainId","type":"uint256","internalType":"uint256"},{"name":"settleBlockNumber","type":"uint256","internalType":"uint256"},{"name":"settleBlockHash","type":"bytes32","internalType":"bytes32"}]}]},{"name":"journalHash","type":"bytes32","internalType":"bytes32"},{"name":"expectedProver","type":"address","internalType":"address"},{"name":"expectedSelector","type":"bytes4","internalType":"bytes4"}],"outputs":[],"stateMutability":"view"}],"bytecode":{"object":"0x60e03461012f576001600160401b0390601f6128e738819003918201601f19168301918483118484101761011b5780849260209460405283398101031261012f57516001600160a01b039190828116810361012f5760c0525f60805260405190611ee18083019182118383101761011b576040918391610a0683397fa54dc85ac99f851c92d7c96d7318af41dbe7c0194edfcc37eb4d422a998c1f5681527f04446e66d300eb7fb45c9726bb53c793dda407a62e9601618bb43c5c14657ac060208201520301905ff08015610110571660a0526040516108d29081610134823960805181818160c5015261059a015260a0518181816101b701526105ef015260c05181818161017b01526106330152f35b6040513d5f823e3d90fd5b634e487b7160e01b5f52604160045260245ffd5b5f80fdfe60806040818152600480361015610014575f80fd5b5f915f3560e01c93846308c84e70146105dd575083633fd66f221461005a5783639a44ea8414610587578363c4fa74e51461005f5750505063f4cbae941461005a575f80fd5b61061e565b346102dd5736600319019161028083126102dd5761022083126102dd576001600160a01b039061024435828116908190036102dd576001600160e01b03196102643581811692908390036102dd57856100b7366106af565b5101516002811015610574577f00000000000000000000000000000000000000000000000000000000000000009060028210156105615703610529576100fc366106af565b9060608201908682515116036104f55760209383858351015116036104bf5786815101514603610489576060815101514311156104365760608151015161010081018091116104235743116103d4575160606080820151910151400361039c5782015193855194631af6c43160e01b86528486015260249483818781857f0000000000000000000000000000000000000000000000000000000000000000165afa908115610392575f91610333575b50156102f157610140907f00000000000000000000000000000000000000000000000000000000000000001696126102dd578451906101e982610662565b833590811681036102dd57815236604312156102dd57845161020a81610692565b80610124913683116102dd578487915b8483106102e157509050830152359060028210156102dd5761023f91868201526107d9565b90853b156102dd576084955f92865197888094819363ab750e7560e01b83526060898401528051918291826064860152018484015e81810183018790526101443589830152610224356044830152601f01601f191681010301915afa80156102d3576102a9578480f35b909192935067ffffffffffffffff84116102c257505052005b604190634e487b7160e01b5f52525ffd5b83513d5f823e3d90fd5b5f80fd5b823581529181019186910161021a565b855162461bcd60e51b81528085018490526017818701527f556e737570706f727465642043616c6c477565737449640000000000000000006044820152606490fd5b9050833d851161038b575b601f8101601f1916820167ffffffffffffffff81118382101761037957859183918a52810103126102dd575180151581036102dd57896101ab565b87604188634e487b7160e01b5f52525ffd5b503d61033e565b87513d5f823e3d90fd5b855162461bcd60e51b81528085018490526012602482015271092dcecc2d8d2c840c4d8dec6d640d0c2e6d60731b6044820152606490fd5b865162461bcd60e51b8152808601859052602360248201527f496e76616c696420626c6f636b206e756d6265723a20626c6f636b20746f6f206044820152621bdb1960ea1b6064820152608490fd5b601186634e487b7160e01b5f525260245ffd5b865162461bcd60e51b8152808601859052602760248201527f496e76616c696420626c6f636b206e756d6265723a20626c6f636b2066726f6d6044820152662066757475726560c81b6064820152608490fd5b865162461bcd60e51b8152808601859052601060248201526f125b9d985b1a590818da185a5b881a5960821b6044820152606490fd5b865162461bcd60e51b8152808601859052601060248201526f24b73b30b634b21039b2b632b1ba37b960811b6044820152606490fd5b865162461bcd60e51b8152602081870152600e60248201526d24b73b30b634b210383937bb32b960911b6044820152606490fd5b855162461bcd60e51b81526020818601526012602482015271496e76616c69642070726f6f66206d6f646560701b6044820152606490fd5b602186634e487b7160e01b5f525260245ffd5b602185634e487b7160e01b5f525260245ffd5b346102dd575f3660031901126102dd57517f000000000000000000000000000000000000000000000000000000000000000060028110156105ca57602092508152f35b602183634e487b7160e01b5f525260245ffd5b346102dd575f3660031901126102dd577f00000000000000000000000000000000000000000000000000000000000000006001600160a01b03168152602090f35b346102dd575f3660031901126102dd576040517f00000000000000000000000000000000000000000000000000000000000000006001600160a01b03168152602090f35b6060810190811067ffffffffffffffff82111761067e57604052565b634e487b7160e01b5f52604160045260245ffd5b610100810190811067ffffffffffffffff82111761067e57604052565b6003198101919061022083126102dd576040805167ffffffffffffffff9291608082018481118382101761067e578082526101408397126102dd576106f381610662565b6001600160e01b03199360043585811681036102dd57825280604312156102dd57825161071f81610692565b80610124918383116102dd576024905b8382106107c957505060a0860152359160028310156102dd5760a09260c0860152845261014435602085015261016435838501526101831901126102dd5780519360a085019081118582101761067e578152610184356001600160a01b03811681036102dd5784526101a43592831683036102dd5760609260208501526101c435908401526101e435828401526102043560808401520152565b813581526020918201910161072f565b6040810151600281101561088857600190810361082257506020810151519063ffffffff60e01b9051169060405191602083015260248201526024815261081f81610662565b90565b81516020928301516040516001600160e01b03199092168285015290925f602485015b600882106108755750505050506101048152610140810181811067ffffffffffffffff82111761067e5760405290565b8351815292820192908401908201610845565b634e487b7160e01b5f52602160045260245ffdfea264697066735822122042142a08835aa0c87ee29b30bc69f585fa90364eb534b2cac2e1fdfd4da0977064736f6c634300081900336101008060405234610c8a57604081611ee180380380916100208285610cc4565b833981010312610c8a5780516020918201519091600883811c7eff00ff00ff00ff00ff00ff00ff00ff00ff00ff00ff00ff00ff00ff00ff00ff169084901b7fff00ff00ff00ff00ff00ff00ff00ff00ff00ff00ff00ff00ff00ff00ff00ff001617601081811c7dffff0000ffff0000ffff0000ffff0000ffff0000ffff0000ffff0000ffff1691901b7fffff0000ffff0000ffff0000ffff0000ffff0000ffff0000ffff0000ffff0000161780821c7bffffffff00000000ffffffff00000000ffffffff00000000ffffffff16911b7fffffffff00000000ffffffff00000000ffffffff00000000ffffffff000000001617604081811c77ffffffffffffffff0000000000000000ffffffffffffffff1691901b7fffffffffffffffff0000000000000000ffffffffffffffff00000000000000001617608081811c91901b1760018060801b03199081811660a05260801b166080528060c05260205f60266040517f72697363302e47726f74683136526563656970745665726966696572506172618152656d657465727360d01b8482015260025afa15610ad7575f5190600881811c7eff00ff00ff00ff00ff00ff00ff00ff00ff00ff00ff00ff00ff00ff00ff00ff1691901b7fff00ff00ff00ff00ff00ff00ff00ff00ff00ff00ff00ff00ff00ff00ff00ff001617601081811c7dffff0000ffff0000ffff0000ffff0000ffff0000ffff0000ffff0000ffff1691901b7fffff0000ffff0000ffff0000ffff0000ffff0000ffff0000ffff0000ffff00001617602081811c7bffffffff00000000ffffffff00000000ffffffff00000000ffffffff1691901b7fffffffff00000000ffffffff00000000ffffffff00000000ffffffff000000001617604081811c77ffffffffffffffff0000000000000000ffffffffffffffff1691901b7fffffffffffffffff0000000000000000ffffffffffffffff00000000000000001617608081811c91901b17604051909160e082016001600160401b03811183821017610b1a576040526006825260c036602084013760205f604051828101907f12ac9a25dcd5e1a832a9061a082c15dd1d61aa9c4d553505739d0f5d65dc3be482527f025aa744581ebe7ad91731911c898569106ff5a2d30f3eee2b23c60ee980acd460408201526040815261037781610c8e565b604051918291518091835e8101838152039060025afa15610ad7575f5161039d83610ce7565b5260205f604051828101907f0707b920bc978c02f292fae2036e057be54294114ccc3c8769d883f688a1423f82527f2e32a094b7589554f7bc357bf63481acd2d55555c203383782a4650787ff66426040820152604081526103fe81610c8e565b604051918291518091835e8101838152039060025afa15610ad7575f5161042483610cf4565b5260205f604051828101907f0bca36e2cbe6394b3e249751853f961511011c7148e336f4fd974644850fc34782527f2ede7c9acf48cf3a3729fa3d68714e2a8435d4fa6db8f7f409c153b1fcdf9b8b60408201526040815261048581610c8e565b604051918291518091835e8101838152039060025afa15610ad7575f51825160021015610b2e57606083015260205f604051828101907f1b8af999dbfbb3927c091cc2aaf201e488cbacc3e2c6b6fb5a25f9112e04f2a782527f2b91a26aa92e1b6f5722949f192a81c850d586d81a60157f3e9cf04f679cccd660408201526040815261051181610c8e565b604051918291518091835e8101838152039060025afa15610ad7575f51825160031015610b2e57608083015260205f604051828101907f2b5f494ed674235b8ac1750bdfd5a7615f002d4a1dcefeddd06eda5a076ccd0d82527f2fe520ad2020aab9cbba817fcbb9a863b8a76ff88f14f912c5e71665b2ad5e8260408201526040815261059d81610c8e565b604051918291518091835e8101838152039060025afa15610ad7575f51825160041015610b2e5760a083015260205f604051828101907f0f1c3c0d5d9da0fa03666843cde4e82e869ba5252fce3c25d5940320b1c4d49382527f214bfcff74f425f6fe8c0d07b307482d8bc8bb2f3608f68287aa01bd0b69e80960408201526040815261062981610c8e565b604051918291518091835e8101838152039060025afa15610ad7575f51825160051015610b2e5760c083015260205f601a6040517f72697363305f67726f746831362e566572696679696e674b6579000000000000815260025afa15610ad7575f519160205f604051828101907f2d4d9aa7e302d9df41749d5507949d05dbea33fbb16c643b22f599a2be6df2e282527f14bedd503c37ceb061d8ec60209fe345ce89830a19230301f076caff004d19266040820152604081526106ec81610c8e565b604051918291518091835e8101838152039060025afa15610ad7575f519460205f604051828101907f0967032fcbf776d1afc985f88877f182d38480a653f2decaa9794cbc3bf3060c82527f0e187847ad4c798374d0d6732bf501847dd68bc0e071241e0213bc7fc13db7ab60408201527f304cfbd1e08a704a99f5e847d93f8c3caafddec46b7a0d379da69a4d112346a760608201527f1739c1b1a457a8c7313123d24d2f9192f896b7c63eea05a9d57f06547ad0cec86080820152608081526107b681610ca9565b604051918291518091835e8101838152039060025afa15610ad7575f519260205f604051828101907f198e9393920d483a7260bfb731fb5d25f1aa493335a9e71297e485b7aef312c282527f1800deef121f1e76426a00665e5c4479674322d4f75edadd46debd5cd992f6ed60408201527f090689d0585ff075ec9e99ad690c3395bc4b313370b38ef355acdadcd122975b60608201527f12c85ea5db8c6deb4aab71808dcb408fe3d1e7690c43d37b4ce6cc0166fa7daa60808201526080815261088081610ca9565b604051918291518091835e8101838152039060025afa15610ad7575f519560205f604051828101907f03b03cd5effa95ac9bee94f1f5ef907157bda4812ccf0b4c91f42bb629f83a1c82527f1aa085ff28179a12d922dba0547057ccaae94b9d69cfaa4e60401fea7f3e033360408201527f110c10134f200b19f6490846d518c9aea868366efb7228ca5c91d2940d03076260608201527f1e60f31fcbf757e837e867178318832d0b2d74d59e2fea1c7142df187d3fc6d360808201526080815261094a81610ca9565b604051918291518091835e8101838152039060025afa15610ad7575f519760205f601d6040517f72697363305f67726f746831362e566572696679696e674b65792e4943000000815260025afa15610ad7575f51965f995f9a5b8751808d1015610b5657805f19810111610b42575f198181018e830390910111610b425788518d82035f19011015610b2e578c90035f190160051b88016020015160405191906109f383610c8e565b600283526040366020850137610a0883610ce7565b52610a1282610cf4565b52604051906001600160401b036020830190811190831117610b1a57602082016040525f825280519061ffff8211610afa57604051928c60208501526040840160208351919301905f905b808210610ae25750505092610aad6002825f9560208098968782985192839101825e019061ffff60f01b9061ff0060ff8260081c169160081b161760f01b16815203601d19810184520182610cc4565b604051918183925191829101835e8101838152039060025afa15610ad75760015f519b019a6109a4565b6040513d5f823e3d90fd5b90919360208060019287518152019501920190610a5d565b6040516306dfcc6560e41b81526010600482015260248101839052604490fd5b634e487b7160e01b5f52604160045260245ffd5b634e487b7160e01b5f52603260045260245ffd5b634e487b7160e01b5f52601160045260245ffd5b50908a89604051956020870195865260408701526060860152608085015260a084015260c0830152600560f81b60e083015260c28252610100918281019080821060018060401b03831117610b1a576020935f80948460405283518091865e830191820152039060025afa15610ad7575f5160408051602081019485529081019490945260608401919091526080830152600360f81b60a08301526082825260c082016001600160401b03811183821017610b1a576020925f928260405281518091845e81018360c0820152039060025afa15610ad7575f516001600160e01b03191660e0526040516111dc9081610d0582396080518181816105c80152610ec7015260a0518181816105840152610eed015260c0518181816101620152610f25015260e05181818160ae0152610d150152f35b5f80fd5b606081019081106001600160401b03821117610b1a57604052565b60a081019081106001600160401b03821117610b1a57604052565b601f909101601f19168101906001600160401b03821190821017610b1a57604052565b805115610b2e5760200190565b805160011015610b2e576040019056fe60806040526004361015610011575f80fd5b5f3560e01c8063053c238d146100945780631599ead51461008f578063258038e21461008a57806334baeab9146100855780638989fa2e146100805780639181e4b11461007b578063ab750e75146100765763ffa1ad7414610071575f80fd5b6107c1565b6105ec565b6105a8565b610564565b6101a0565b61014b565b6100db565b346100d7575f3660031901126100d75763ffffffff60e01b7f00000000000000000000000000000000000000000000000000000000000000001660805260206080f35b5f80fd5b346100d7576003196020368201126100d7576004359067ffffffffffffffff908183116100d7576040833603918201126100d757600483013590602219018112156100d757820160048101359182116100d7576024019080360382136100d757602461014993013591610d11565b005b346100d7575f3660031901126100d75760206040517f00000000000000000000000000000000000000000000000000000000000000008152f35b906004916044116100d757565b9060c491610104116100d757565b346100d7576101a0806003193601126100d7576101bc36610185565b903660c4116100d7576101ce36610192565b366101a4116100d757604051610380810160405261010435916101f08361081e565b61012435926101fe8461081e565b610144359461020c8661081e565b610164359661021a8861081e565b610184356102278161081e565b6080860198899889987f12ac9a25dcd5e1a832a9061a082c15dd1d61aa9c4d553505739d0f5d65dc3be4895260208901967f025aa744581ebe7ad91731911c898569106ff5a2d30f3eee2b23c60ee980acd48852610285908a61084f565b61028f90896108d6565b610299908861095d565b6102a390876109e4565b6102ad9086610a6b565b803586527f30644e72e131a029b85045b68181585d97816a916871ca8d3c208c16d87cfd4760209182013581030660a086015260443560c086015260643560e086015260843561010086015260a4356101208601527f2d4d9aa7e302d9df41749d5507949d05dbea33fbb16c643b22f599a2be6df2e26101408601527f14bedd503c37ceb061d8ec60209fe345ce89830a19230301f076caff004d19266101608601527f0967032fcbf776d1afc985f88877f182d38480a653f2decaa9794cbc3bf3060c6101808601527f0e187847ad4c798374d0d6732bf501847dd68bc0e071241e0213bc7fc13db7ab918501919091527f304cfbd1e08a704a99f5e847d93f8c3caafddec46b7a0d379da69a4d112346a76101c08501527f1739c1b1a457a8c7313123d24d2f9192f896b7c63eea05a9d57f06547ad0cec86101e0850152835161020085015290516102208401527f198e9393920d483a7260bfb731fb5d25f1aa493335a9e71297e485b7aef312c26102408401527f1800deef121f1e76426a00665e5c4479674322d4f75edadd46debd5cd992f6ed6102608401527f090689d0585ff075ec9e99ad690c3395bc4b313370b38ef355acdadcd122975b6102808401527f12c85ea5db8c6deb4aab71808dcb408fe3d1e7690c43d37b4ce6cc0166fa7daa6102a084015281356102c084015201356102e08201527f03b03cd5effa95ac9bee94f1f5ef907157bda4812ccf0b4c91f42bb629f83a1c610300808301919091527f1aa085ff28179a12d922dba0547057ccaae94b9d69cfaa4e60401fea7f3e03336103208301527f110c10134f200b19f6490846d518c9aea868366efb7228ca5c91d2940d0307626103408301527f1e60f31fcbf757e837e867178318832d0b2d74d59e2fea1c7142df187d3fc6d3610360909201919091526107cf195a01926008602094fa9051165f5260205ff35b346100d7575f3660031901126100d75760206040516001600160801b03197f0000000000000000000000000000000000000000000000000000000000000000168152f35b346100d7575f3660031901126100d75760206040516001600160801b03197f0000000000000000000000000000000000000000000000000000000000000000168152f35b346100d75760603660031901126100d75767ffffffffffffffff6004358181116100d757366023820112156100d75780600401358281116100d75736602482840101116100d75760405160a08101938411818510176106fb5760805f91610149956040528281528260208201526040516106658161070f565b8381528360208201526040820152826060820152015260246106f4610688610785565b5f81525f60208201526106ac61069c610785565b60443581525f6020820152611149565b6106b4610794565b91843583527fa3acc27117418996340b84e5a90f3ef4c49d22c79e44aad822ec9c313e1eb8e2602084015260408301525f60608301526080820152611039565b9201610d11565b634e487b7160e01b5f52604160045260245ffd5b6040810190811067ffffffffffffffff8211176106fb57604052565b6060810190811067ffffffffffffffff8211176106fb57604052565b60a0810190811067ffffffffffffffff8211176106fb57604052565b90601f8019910116810190811067ffffffffffffffff8211176106fb57604052565b604051906107928261070f565b565b6040519060a0820182811067ffffffffffffffff8211176106fb57604052565b6040519061079282610747565b346100d7575f3660031901126100d7576040516107dd8161070f565b6005815260406020820191640332e302e360dc1b83528151928391602083525180918160208501528484015e5f828201840152601f01601f19168101030190f35b7f30644e72e131a029b85045b68181585d2833e84879b9709143e1f593f0000001111561084757565b5f805260205ff35b604080517f0707b920bc978c02f292fae2036e057be54294114ccc3c8769d883f688a1423f81527f2e32a094b7589554f7bc357bf63481acd2d55555c203383782a4650787ff664260208201528082019384526107cf1991816060816007865a01fa1561084757600660809260409585519052602085015160608401525a01fa1561084757565b604080517f0bca36e2cbe6394b3e249751853f961511011c7148e336f4fd974644850fc34781527f2ede7c9acf48cf3a3729fa3d68714e2a8435d4fa6db8f7f409c153b1fcdf9b8b60208201528082019384526107cf1991816060816007865a01fa1561084757600660809260409585519052602085015160608401525a01fa1561084757565b604080517f1b8af999dbfbb3927c091cc2aaf201e488cbacc3e2c6b6fb5a25f9112e04f2a781527f2b91a26aa92e1b6f5722949f192a81c850d586d81a60157f3e9cf04f679cccd660208201528082019384526107cf1991816060816007865a01fa1561084757600660809260409585519052602085015160608401525a01fa1561084757565b604080517f2b5f494ed674235b8ac1750bdfd5a7615f002d4a1dcefeddd06eda5a076ccd0d81527f2fe520ad2020aab9cbba817fcbb9a863b8a76ff88f14f912c5e71665b2ad5e8260208201528082019384526107cf1991816060816007865a01fa1561084757600660809260409585519052602085015160608401525a01fa1561084757565b604080517f0f1c3c0d5d9da0fa03666843cde4e82e869ba5252fce3c25d5940320b1c4d49381527f214bfcff74f425f6fe8c0d07b307482d8bc8bb2f3608f68287aa01bd0b69e80960208201528082019384526107cf1991816060816007865a01fa1561084757600660809260409585519052602085015160608401525a01fa1561084757565b906004116100d75790600490565b90929192836004116100d75783116100d757600401916003190190565b6001600160e01b03199035818116939260048110610b3a57505050565b60040360031b82901b16169150565b9080601f830112156100d75760405191610b628361070f565b8290604081019283116100d757905b828210610b7e5750505090565b8135815260209182019101610b71565b90610100828203126100d75760409160405192610baa8461072b565b610bb48383610b49565b845282605f830112156100d75760405190610bce8261070f565b8160c08401938585116100d757604001905b848210610c01575050506020840152610bf99190610b49565b604082015290565b60208391610c0f8885610b49565b815201910190610be0565b908160209103126100d7575180151581036100d75790565b5f915b60028310610c4257505050565b600190825181526020809101920192019190610c35565b9293949094610c6d846101a0810197610c32565b6040916040850193915f945b600280871015610cc3578590855183905f915b838310610ca9575050505060209060019201940195019492610c79565b815181528994506001929092019160209182019101610c8c565b5050949250946101009350610cdd915060c0830190610c32565b01905f915b60058310610cef57505050565b600190825181526020809101920192019190610ce2565b6040513d5f823e3d90fd5b90917f0000000000000000000000000000000000000000000000000000000000000000610d57610d4a610d448686610af2565b90610b1d565b6001600160e01b03191690565b6001600160e01b0319821603610fc5575090610eab610ea384610e9b6020958060081c9060081b907eff000000ff000000ff000000ff000000ff000000ff000000ff000000ff00007fff000000ff000000ff000000ff000000ff000000ff000000ff000000ff0000007dff000000ff000000ff000000ff000000ff000000ff000000ff000000ff0084167cff000000ff000000ff000000ff000000ff000000ff000000ff000000ff84161760101b931691161760101c177bffffffff00000000ffffffff00000000ffffffff00000000ffffffff7fffffffff00000000ffffffff00000000ffffffff00000000ffffffff000000008260201b169160201c161777ffffffffffffffff0000000000000000ffffffffffffffff80198260401b169160401c16178060801b9060801c17906001600160801b0319808360801b16921690565b969094610b00565b810190610b8e565b90610f6482519160408585015194015195610ec46107b4565b917f000000000000000000000000000000000000000000000000000000000000000060801c83527f000000000000000000000000000000000000000000000000000000000000000060801c8784015260801c604083015260801c60608201527f0000000000000000000000000000000000000000000000000000000000000000608082015260405195869485946334baeab960e01b865260048601610c59565b0381305afa908115610fc0575f91610f91575b5015610f7f57565b60405163439cc0cd60e01b8152600490fd5b610fb3915060203d602011610fb9575b610fab8183610763565b810190610c1a565b5f610f77565b503d610fa1565b610d06565b610fd2610d448585610af2565b604051632e2ce35360e21b81526001600160e01b0319918216600482015291166024820152604490fd5b6003111561100657565b634e487b7160e01b5f52602160045260245ffd5b5160038110156110065790565b805191908290602001825e015f815290565b60205f60126040517172697363302e52656365697074436c61696d60701b815260025afa15610fc0575f61113963ff00000061112d60209461111f855160608301519083519389810151604060808301519201956110c66110ba6110b48e6110a18b5161101a565b9a6110ab8c610ffc565b51015160ff1690565b60ff1690565b60181b63ff0000001690565b94604051998a9860181b16948d8901959492909160aa9794928752602087015260408601526060850152608084015263ffffffff60e01b809260e01b1660a084015260e01b1660a4820152600160fa1b60a88201520190565b03601f198101835282610763565b60405191828092611027565b039060025afa15610fc0575f5190565b60205f600c6040516b1c9a5cd8cc0b93dd5d1c1d5d60a21b815260025afa15610fc0575f61113960209282519084815191015190604051928684015260408301526060820152600160f91b60808201526062815261112d8161074756fea264697066735822122087ab246167257f412587605a3b1ea1ae7614b4c8a199785a97e13b5581f0df6064736f6c63430008190033","linkReferences":{}},"methodIdentifiers":{"IMAGE_ID_REPOSITORY()":"f4cbae94","PROOF_MODE()":"9a44ea84","VERIFIER()":"08c84e70","imageIdRepository()":"3fd66f22","verify(((bytes4,bytes32[8],uint8),bytes32,uint256,(address,bytes4,uint256,uint256,bytes32)),bytes32,address,bytes4)":"c4fa74e5"},"id":64}