{"abi":[{"type":"constructor","inputs":[{"name":"admin","type":"address","internalType":"address"}],"stateMutability":"nonpayable"},{"type":"function","name":"AAVE_POOL_ADDRESS","inputs":[],"outputs":[{"name":"","type":"address","internalType":"address"}],"stateMutability":"view"},{"type":"function","name":"ADMIN_ROLE","inputs":[],"outputs":[{"name":"","type":"bytes32","internalType":"bytes32"}],"stateMutability":"view"},{"type":"function","name":"ARB_USDC_ADDRESS","inputs":[],"outputs":[{"name":"","type":"address","internalType":"address"}],"stateMutability":"view"},{"type":"function","name":"ARB_USDT_ADDRESS","inputs":[],"outputs":[{"name":"","type":"address","internalType":"address"}],"stateMutability":"view"},{"type":"function","name":"ARB_WBTC_ADDRESS","inputs":[],"outputs":[{"name":"","type":"address","internalType":"address"}],"stateMutability":"view"},{"type":"function","name":"ARB_WETH_ADDRESS","inputs":[],"outputs":[{"name":"","type":"address","internalType":"address"}],"stateMutability":"view"},{"type":"function","name":"BASE_USDC_ADDRESS","inputs":[],"outputs":[{"name":"","type":"address","internalType":"address"}],"stateMutability":"view"},{"type":"function","name":"BASE_USDT_ADDRESS","inputs":[],"outputs":[{"name":"","type":"address","internalType":"address"}],"stateMutability":"view"},{"type":"function","name":"BASE_WBTC_ADDRESS","inputs":[],"outputs":[{"name":"","type":"address","internalType":"address"}],"stateMutability":"view"},{"type":"function","name":"BASE_WETH_ADDRESS","inputs":[],"outputs":[{"name":"","type":"address","internalType":"address"}],"stateMutability":"view"},{"type":"function","name":"COMPOUND_COMPTROLLER_ADDRESS","inputs":[],"outputs":[{"name":"","type":"address","internalType":"address"}],"stateMutability":"view"},{"type":"function","name":"COMPOUND_C_TOKEN_FACTORY_ADDRESS","inputs":[],"outputs":[{"name":"","type":"address","internalType":"address"}],"stateMutability":"view"},{"type":"function","name":"DEFAULT_ADMIN_ROLE","inputs":[],"outputs":[{"name":"","type":"bytes32","internalType":"bytes32"}],"stateMutability":"view"},{"type":"function","name":"MORPHO_LENS_ADDRESS","inputs":[],"outputs":[{"name":"","type":"address","internalType":"address"}],"stateMutability":"view"},{"type":"function","name":"MORPHO_REWARDS_DISTRIBUTOR_ADDRESS","inputs":[],"outputs":[{"name":"","type":"address","internalType":"address"}],"stateMutability":"view"},{"type":"function","name":"OP_USDC_ADDRESS","inputs":[],"outputs":[{"name":"","type":"address","internalType":"address"}],"stateMutability":"view"},{"type":"function","name":"OP_USDT_ADDRESS","inputs":[],"outputs":[{"name":"","type":"address","internalType":"address"}],"stateMutability":"view"},{"type":"function","name":"OP_WBTC_ADDRESS","inputs":[],"outputs":[{"name":"","type":"address","internalType":"address"}],"stateMutability":"view"},{"type":"function","name":"OP_WETH_ADDRESS","inputs":[],"outputs":[{"name":"","type":"address","internalType":"address"}],"stateMutability":"view"},{"type":"function","name":"PLACEHOLDER_ADDRESS","inputs":[],"outputs":[{"name":"","type":"address","internalType":"address"}],"stateMutability":"view"},{"type":"function","name":"UPDATER_ROLE","inputs":[],"outputs":[{"name":"","type":"bytes32","internalType":"bytes32"}],"stateMutability":"view"},{"type":"function","name":"USDC_ADDRESS","inputs":[],"outputs":[{"name":"","type":"address","internalType":"address"}],"stateMutability":"view"},{"type":"function","name":"USDT_ADDRESS","inputs":[],"outputs":[{"name":"","type":"address","internalType":"address"}],"stateMutability":"view"},{"type":"function","name":"WBTC_ADDRESS","inputs":[],"outputs":[{"name":"","type":"address","internalType":"address"}],"stateMutability":"view"},{"type":"function","name":"WETH_ADDRESS","inputs":[],"outputs":[{"name":"","type":"address","internalType":"address"}],"stateMutability":"view"},{"type":"function","name":"getAavePoolAddress","inputs":[{"name":"chainId","type":"uint256","internalType":"uint256"}],"outputs":[{"name":"","type":"address","internalType":"address"}],"stateMutability":"view"},{"type":"function","name":"getAddressesForChain","inputs":[{"name":"chainId","type":"uint256","internalType":"uint256"}],"outputs":[{"name":"addresses","type":"tuple","internalType":"struct IRegistry.ChainAddresses","components":[{"name":"aavePool","type":"address","internalType":"address"},{"name":"morphoLens","type":"address","internalType":"address"},{"name":"compoundComptroller","type":"address","internalType":"address"},{"name":"usdc","type":"address","internalType":"address"},{"name":"usdt","type":"address","internalType":"address"},{"name":"weth","type":"address","internalType":"address"},{"name":"wbtc","type":"address","internalType":"address"}]}],"stateMutability":"view"},{"type":"function","name":"getCompoundComptrollerAddress","inputs":[{"name":"chainId","type":"uint256","internalType":"uint256"}],"outputs":[{"name":"","type":"address","internalType":"address"}],"stateMutability":"view"},{"type":"function","name":"getMorphoLensAddress","inputs":[{"name":"chainId","type":"uint256","internalType":"uint256"}],"outputs":[{"name":"","type":"address","internalType":"address"}],"stateMutability":"view"},{"type":"function","name":"getRoleAdmin","inputs":[{"name":"role","type":"bytes32","internalType":"bytes32"}],"outputs":[{"name":"","type":"bytes32","internalType":"bytes32"}],"stateMutability":"view"},{"type":"function","name":"grantRole","inputs":[{"name":"role","type":"bytes32","internalType":"bytes32"},{"name":"account","type":"address","internalType":"address"}],"outputs":[],"stateMutability":"nonpayable"},{"type":"function","name":"hasRole","inputs":[{"name":"role","type":"bytes32","internalType":"bytes32"},{"name":"account","type":"address","internalType":"address"}],"outputs":[{"name":"","type":"bool","internalType":"bool"}],"stateMutability":"view"},{"type":"function","name":"renounceRole","inputs":[{"name":"role","type":"bytes32","internalType":"bytes32"},{"name":"callerConfirmation","type":"address","internalType":"address"}],"outputs":[],"stateMutability":"nonpayable"},{"type":"function","name":"revokeRole","inputs":[{"name":"role","type":"bytes32","internalType":"bytes32"},{"name":"account","type":"address","internalType":"address"}],"outputs":[],"stateMutability":"nonpayable"},{"type":"function","name":"supportsInterface","inputs":[{"name":"interfaceId","type":"bytes4","internalType":"bytes4"}],"outputs":[{"name":"","type":"bool","internalType":"bool"}],"stateMutability":"view"},{"type":"function","name":"updateChainAddresses","inputs":[{"name":"chainId","type":"uint256","internalType":"uint256"},{"name":"addresses","type":"tuple","internalType":"struct IRegistry.ChainAddresses","components":[{"name":"aavePool","type":"address","internalType":"address"},{"name":"morphoLens","type":"address","internalType":"address"},{"name":"compoundComptroller","type":"address","internalType":"address"},{"name":"usdc","type":"address","internalType":"address"},{"name":"usdt","type":"address","internalType":"address"},{"name":"weth","type":"address","internalType":"address"},{"name":"wbtc","type":"address","internalType":"address"}]}],"outputs":[],"stateMutability":"nonpayable"},{"type":"function","name":"updateProtocolAddresses","inputs":[{"name":"chainId","type":"uint256","internalType":"uint256"},{"name":"aavePool","type":"address","internalType":"address"},{"name":"morphoLens","type":"address","internalType":"address"},{"name":"compoundComptroller","type":"address","internalType":"address"}],"outputs":[],"stateMutability":"nonpayable"},{"type":"function","name":"updateTokenAddresses","inputs":[{"name":"chainId","type":"uint256","internalType":"uint256"},{"name":"usdc","type":"address","internalType":"address"},{"name":"usdt","type":"address","internalType":"address"},{"name":"weth","type":"address","internalType":"address"},{"name":"wbtc","type":"address","internalType":"address"}],"outputs":[],"stateMutability":"nonpayable"},{"type":"event","name":"ChainAddressesUpdated","inputs":[{"name":"chainId","type":"uint256","indexed":true,"internalType":"uint256"},{"name":"addresses","type":"tuple","indexed":false,"internalType":"struct IRegistry.ChainAddresses","components":[{"name":"aavePool","type":"address","internalType":"address"},{"name":"morphoLens","type":"address","internalType":"address"},{"name":"compoundComptroller","type":"address","internalType":"address"},{"name":"usdc","type":"address","internalType":"address"},{"name":"usdt","type":"address","internalType":"address"},{"name":"weth","type":"address","internalType":"address"},{"name":"wbtc","type":"address","internalType":"address"}]}],"anonymous":false},{"type":"event","name":"ProtocolAddressesUpdated","inputs":[{"name":"chainId","type":"uint256","indexed":true,"internalType":"uint256"},{"name":"aavePool","type":"address","indexed":false,"internalType":"address"},{"name":"morphoLens","type":"address","indexed":false,"internalType":"address"},{"name":"compoundComptroller","type":"address","indexed":false,"internalType":"address"}],"anonymous":false},{"type":"event","name":"RoleAdminChanged","inputs":[{"name":"role","type":"bytes32","indexed":true,"internalType":"bytes32"},{"name":"previousAdminRole","type":"bytes32","indexed":true,"internalType":"bytes32"},{"name":"newAdminRole","type":"bytes32","indexed":true,"internalType":"bytes32"}],"anonymous":false},{"type":"event","name":"RoleGranted","inputs":[{"name":"role","type":"bytes32","indexed":true,"internalType":"bytes32"},{"name":"account","type":"address","indexed":true,"internalType":"address"},{"name":"sender","type":"address","indexed":true,"internalType":"address"}],"anonymous":false},{"type":"event","name":"RoleRevoked","inputs":[{"name":"role","type":"bytes32","indexed":true,"internalType":"bytes32"},{"name":"account","type":"address","indexed":true,"internalType":"address"},{"name":"sender","type":"address","indexed":true,"internalType":"address"}],"anonymous":false},{"type":"event","name":"TokenAddressesUpdated","inputs":[{"name":"chainId","type":"uint256","indexed":true,"internalType":"uint256"},{"name":"usdc","type":"address","indexed":false,"internalType":"address"},{"name":"usdt","type":"address","indexed":false,"internalType":"address"},{"name":"weth","type":"address","indexed":false,"internalType":"address"},{"name":"wbtc","type":"address","indexed":false,"internalType":"address"}],"anonymous":false},{"type":"error","name":"AccessControlBadConfirmation","inputs":[]},{"type":"error","name":"AccessControlUnauthorizedAccount","inputs":[{"name":"account","type":"address","internalType":"address"},{"name":"neededRole","type":"bytes32","internalType":"bytes32"}]}],"bytecode":{"object":"0x60803461036e57601f6114dc38819003918201601f1916830192916001600160401b03841183851017610372578083926040958652833960209283918101031261036e5751906001600160a01b03808316830361036e5761008883610078730555e30da8f98308edb960aa94c0db47230d2b9c956103a5565b5061008281610411565b506104af565b506006610093610386565b73794a61358d6845594f94dc1db02a252b5b4814ad815285848201945f8652818301925f84528585606083019273a0b86991c6218b36c1d19d4a2e9eb0ce3606eb4884526080810173dac17f958d2ee523a2206206994597c13d831ec7815260a082019073c02aaa39b223fe8d0a0e5c4f27ead9083c756cc2825260c0830195732260fac5e5542a773aa44fbcfedf7c193bc2c59987526001998a5f528a8952868a5f209551169d60018060a01b03199e8f9081885416178755888d8801925116908254161790558d87600287019251169082541617905585600385019151168d82541617905584600484019151168c82541617905583600583019151168b82541617905501915116878254161790558285856101ae610386565b5f8152898582015f81528783015f81526060840190730b2c639c533813f4aa9d7837caf62653d097ff85825260808501927394b008aa00579c1307b0ef2c499ad98a8ce58e58845260a0860194887342000000000000000000000000000000000000069c8d885260c089019b7368f180fcce6836688e9084f035309e29bf0a20958d52600a5f528d525f2097511681885416178755888d8801925116908254161790558d87600287019251169082541617905585600385019151168d82541617905584600484019151168c82541617905583600583019151168b82541617905501915116878254161790556102a1610386565b925f84528184015f8152898501905f825287606087019373833589fcd6edb6e08f4c7c32d4f71b54bda02913855280608089019673fde4c96c8593536e31f229ea8f37b2ada2699bb2885260a08a0198895260c08a019d8e526121055f5252818d5f209851168b895416178855870191511689825416179055866002860191511688825416179055856003850191511687825416179055846004840191511686825416179055836005830191511685825416179055019251169082541617905551610f5490816105488239f35b5f80fd5b634e487b7160e01b5f52604160045260245ffd5b6040519060e082016001600160401b0381118382101761037257604052565b6001600160a01b03165f8181525f805160206114bc833981519152602052604090205460ff1661040c575f8181525f805160206114bc83398151915260205260408120805460ff191660011790553391905f8051602061149c8339815191528180a4600190565b505f90565b6001600160a01b03165f8181527f7d7ffb7a348e1c6a02869081a26547b49160dd3df72d1d75a570eb9b698292ec60205260409020547fa49807205ce4d355092ef5a8a18f56e8913cf4a201fbe287825b095693c21775919060ff166104a957815f525f60205260405f20815f5260205260405f20600160ff1982541617905533915f8051602061149c8339815191525f80a4600190565b50505f90565b6001600160a01b03165f8181527f738678fe42df6a4211eb7628ac9b056229141839eb4f4ef4cc249f1d36e8c92160205260409020547f73e573f9566d61418a34d5de3ff49360f9c51fec37f7486551670290f6285dab919060ff166104a957815f525f60205260405f20815f5260205260405f20600160ff1982541617905533915f8051602061149c8339815191525f80a460019056fe6080604090808252600480361015610015575f80fd5b5f3560e01c91826301ffc9a714610c3957508163040141e514610c0b57816304b55a2a14610bdd578163054d16e01461031d5781630ae66f90146105fc5781630e5378ec14610baf57816319b895911461031d578163248a9ca314610b865781632bbf62b214610a795781632bfcfa401461031d5781632f2ff15d14610a51578163347ae01b146109c757816336568abe146109835781633c667b131461095557816345f707341461092757816347e63380146108ed5781635466e24d146108bf5781635a8f943c146107585781635c2e4abb1461072a5781636b9cdef51461066957816375b238fc1461062f5781637bc5a97e146106015781638c7cbcc8146105fc5781638dc0b8541461031d57816391d14854146105b9578163a217fddf1461059f578163ab72727514610571578163bb09d9b714610543578163bc9f42a114610408578163bdd5915f146103da578163c1892058146103ac578163c23e2c8114610322578163d32e33e21461031d578163d503bf8c146102ef578163d547741f146102b4578163ec00ef5614610286578163f6821f10146101f3575063fe792ece146101c2575f80fd5b346101ef575f3660031901126101ef576020905173fde4c96c8593536e31f229ea8f37b2ada2699bb28152f35b5f80fd5b82346101ef5760203660031901126101ef57600682602093355f526001845261027d835f2091610221610d1f565b83546001600160a01b039081168083526001860154821689840152600286015482168884015260038601548216606084015292850154811660808301526005850154811660a08301529490930154841660c08401521515610d53565b51169051908152f35b82346101ef575f3660031901126101ef57602090517382af49447d8a07e3bd95bd0d56f35241523fbab18152f35b82346101ef57806003193601126101ef576102ed91356102e860016102d7610cc7565b93835f525f6020525f200154610e0f565b610eac565b005b82346101ef575f3660031901126101ef576020905173833589fcd6edb6e08f4c7c32d4f71b54bda029138152f35b610c8b565b82346101ef5760203660031901126101ef5781602092355f5260018352815f209061027d61034e610d1f565b9260018060a01b039360c085600681855416948585528280600183015416988c8701998a52816002840154168c8801528160038401541660608801528201541660808601528260058201541660a08601520154169101521515610d53565b82346101ef575f3660031901126101ef576020905173dac17f958d2ee523a2206206994597c13d831ec78152f35b82346101ef575f3660031901126101ef5760209051732260fac5e5542a773aa44fbcfedf7c193bc2c5998152f35b9050346101ef5760a03660031901126101ef57803591610426610cc7565b9061042f610cdd565b90610438610cf3565b91610441610d09565b7f73e573f9566d61418a34d5de3ff49360f9c51fec37f7486551670290f6285dab805f525f602052835f20335f5260205260ff845f205416156105255750917fc419d479522b0b46541daba43da56fe44278b2afdb2aaefcfcd266ebc765f87b95939160809593885f526001602052825f20600660018060a01b03916104cb838254161515610d53565b8280600383019916996001600160601b0360a01b998b8b82541617905582019516948589825416179055826005820197169687898254161790550191168095825416179055815194855260208501528301526060820152a2005b835163e2517d3f60e01b815233818901526024810191909152604490fd5b82346101ef575f3660031901126101ef576020905173a0b86991c6218b36c1d19d4a2e9eb0ce3606eb488152f35b82346101ef575f3660031901126101ef5760209051732f2a2543b76a4166549f7aab2e75bef0aefc5b0f8152f35b82346101ef575f3660031901126101ef57602090515f8152f35b82346101ef57806003193601126101ef576020916105d5610cc7565b90355f525f8352815f209060018060a01b03165f52825260ff815f20541690519015158152f35b610ca5565b82346101ef575f3660031901126101ef576020905173ff970a61a04b1ca14834a43f5de4533ebddb5cc88152f35b82346101ef575f3660031901126101ef57602090517fa49807205ce4d355092ef5a8a18f56e8913cf4a201fbe287825b095693c217758152f35b9050346101ef5760803660031901126101ef5760607f373b2e2dda6bd5fecbe3b049a43b4baff9d4784be9654ac4e300cc4d9652bc2e9135926106aa610cc7565b6106b2610cdd565b916106bb610cf3565b926106c4610d96565b865f526001602052815f2093845493600260018060a01b0380926106eb8289161515610d53565b1696876001600160601b0360a01b80981617815582600182019516948588825416179055019116809482541617905581519384526020840152820152a2005b82346101ef575f3660031901126101ef57602090517394b008aa00579c1307b0ef2c499ad98a8ce58e588152f35b82346101ef576101003660031901126101ef5781359160e03660231901126101ef57610782610d96565b5f8381526001602052829020916001600160a01b0360243581811693908490036101ef576001600160601b0360a01b9384865416178555600185016044358381168091036101ef5785825416179055600285016064358381168091036101ef5785825416179055600385016084358381168091036101ef578582541617905584019360a435948286168096036101ef5785858254161790556005810160c435918383168093036101ef578183876006945416179055019460e435928084168094036101ef57868460e0977feec78b8a042228c24cf2308f5e8c5799b3a49ef5e6fbc39aefd29b38c4c545e19954161790558451948161087f610cc7565b1686528161088b610cdd565b1660208701528161089a610cf3565b16908601526108a7610d09565b166060850152608084015260a083015260c0820152a2005b82346101ef575f3660031901126101ef576020905173794a61358d6845594f94dc1db02a252b5b4814ad8152f35b82346101ef575f3660031901126101ef57602090517f73e573f9566d61418a34d5de3ff49360f9c51fec37f7486551670290f6285dab8152f35b82346101ef575f3660031901126101ef5760209051730555e30da8f98308edb960aa94c0db47230d2b9c8152f35b82346101ef575f3660031901126101ef5760209051730b2c639c533813f4aa9d7837caf62653d097ff858152f35b82346101ef57806003193601126101ef5761099c610cc7565b90336001600160a01b038316036109b857506102ed9135610eac565b5163334bd91960e11b81529050fd5b82346101ef5760203660031901126101ef5781602092355f5260018352815f209061027d6109f3610d1f565b9260018060a01b039360c08560068185541694858552826001820154168b8601528280600283015416988b8701998a528160038401541660608801528201541660808601528260058201541660a08601520154169101521515610d53565b82346101ef57806003193601126101ef576102ed9135610a7460016102d7610cc7565b610e30565b9050346101ef5760203660031901126101ef57610a94610d1f565b5f8152602081015f90528281015f9052606081015f9052608081015f905260a081015f905260c0015f905280355f526001602052815f2091610ad4610d1f565b91600160a01b60019003938480948180948185541696878452828060018801541660208601908152818060028a01541691848801928352818060038c0154169660608a019788528b0154169760808101988952828060058d0154169b60a083019c8d5260060154169c60c082019d8e521515610b4f90610d53565b85519e8f9151169052511660208d01525116908a01525116606088015251166080860152511660a0840152511660c082015260e090f35b82346101ef5760203660031901126101ef57602091355f525f82526001815f2001549051908152f35b82346101ef575f3660031901126101ef576020905173fd086bc7cd5c481dcc9c85ebe478a1c0b69fcbb98152f35b82346101ef575f3660031901126101ef57602090517368f180fcce6836688e9084f035309e29bf0a20958152f35b82346101ef575f3660031901126101ef576020905173c02aaa39b223fe8d0a0e5c4f27ead9083c756cc28152f35b90346101ef5760203660031901126101ef57359063ffffffff60e01b82168092036101ef57602091637965db0b60e01b8114908115610c7a575b5015158152f35b6301ffc9a760e01b14905083610c73565b346101ef575f3660031901126101ef5760206040515f8152f35b346101ef575f3660031901126101ef576040516006602160991b018152602090f35b602435906001600160a01b03821682036101ef57565b604435906001600160a01b03821682036101ef57565b606435906001600160a01b03821682036101ef57565b608435906001600160a01b03821682036101ef57565b6040519060e0820182811067ffffffffffffffff821117610d3f57604052565b634e487b7160e01b5f52604160045260245ffd5b15610d5a57565b60405162461bcd60e51b8152602060048201526014602482015273155b9cdd5c1c1bdc9d19590818da185a5b88125160621b6044820152606490fd5b335f9081527f7d7ffb7a348e1c6a02869081a26547b49160dd3df72d1d75a570eb9b698292ec60205260409020547fa49807205ce4d355092ef5a8a18f56e8913cf4a201fbe287825b095693c217759060ff1615610df15750565b6044906040519063e2517d3f60e01b82523360048301526024820152fd5b805f525f60205260405f20335f5260205260ff60405f20541615610df15750565b90815f525f60205260405f209060018060a01b031690815f5260205260ff60405f205416155f14610ea657815f525f60205260405f20815f5260205260405f20600160ff1982541617905533917f2f8788117e7eff1d82e926ec794901d17c78024a50270940304540a733656f0d5f80a4600190565b50505f90565b90815f525f60205260405f209060018060a01b031690815f5260205260ff60405f2054165f14610ea657815f525f60205260405f20815f5260205260405f2060ff19815416905533917ff6391f5c32d9c69d2a47ea670b442974b53935d1edc7fd64eb21e047a839171b5f80a460019056fea2646970667358221220e938b7ba0741083da909e38695ef2d3bd95be9e6e54bad19ce02d48917de164a64736f6c634300081900332f8788117e7eff1d82e926ec794901d17c78024a50270940304540a733656f0dad3228b676f7d3cd4284a5443f17f1962b36e491b30a40b2405849e597ba5fb5","linkReferences":{}},"methodIdentifiers":{"AAVE_POOL_ADDRESS()":"5466e24d","ADMIN_ROLE()":"75b238fc","ARB_USDC_ADDRESS()":"7bc5a97e","ARB_USDT_ADDRESS()":"0e5378ec","ARB_WBTC_ADDRESS()":"ab727275","ARB_WETH_ADDRESS()":"ec00ef56","BASE_USDC_ADDRESS()":"d503bf8c","BASE_USDT_ADDRESS()":"fe792ece","BASE_WBTC_ADDRESS()":"45f70734","BASE_WETH_ADDRESS()":"8c7cbcc8","COMPOUND_COMPTROLLER_ADDRESS()":"d32e33e2","COMPOUND_C_TOKEN_FACTORY_ADDRESS()":"2bfcfa40","DEFAULT_ADMIN_ROLE()":"a217fddf","MORPHO_LENS_ADDRESS()":"19b89591","MORPHO_REWARDS_DISTRIBUTOR_ADDRESS()":"054d16e0","OP_USDC_ADDRESS()":"3c667b13","OP_USDT_ADDRESS()":"5c2e4abb","OP_WBTC_ADDRESS()":"04b55a2a","OP_WETH_ADDRESS()":"0ae66f90","PLACEHOLDER_ADDRESS()":"8dc0b854","UPDATER_ROLE()":"47e63380","USDC_ADDRESS()":"bb09d9b7","USDT_ADDRESS()":"c1892058","WBTC_ADDRESS()":"bdd5915f","WETH_ADDRESS()":"040141e5","getAavePoolAddress(uint256)":"f6821f10","getAddressesForChain(uint256)":"2bbf62b2","getCompoundComptrollerAddress(uint256)":"347ae01b","getMorphoLensAddress(uint256)":"c23e2c81","getRoleAdmin(bytes32)":"248a9ca3","grantRole(bytes32,address)":"2f2ff15d","hasRole(bytes32,address)":"91d14854","renounceRole(bytes32,address)":"36568abe","revokeRole(bytes32,address)":"d547741f","supportsInterface(bytes4)":"01ffc9a7","updateChainAddresses(uint256,(address,address,address,address,address,address,address))":"5a8f943c","updateProtocolAddresses(uint256,address,address,address)":"6b9cdef5","updateTokenAddresses(uint256,address,address,address,address)":"bc9f42a1"},"id":81}