{"abi":[{"type":"constructor","inputs":[{"name":"selector","type":"bytes4","internalType":"bytes4"}],"stateMutability":"nonpayable"},{"type":"function","name":"SELECTOR","inputs":[],"outputs":[{"name":"","type":"bytes4","internalType":"bytes4"}],"stateMutability":"view"},{"type":"function","name":"mockProve","inputs":[{"name":"claimDigest","type":"bytes32","internalType":"bytes32"}],"outputs":[{"name":"","type":"tuple","internalType":"struct Receipt","components":[{"name":"seal","type":"bytes","internalType":"bytes"},{"name":"claimDigest","type":"bytes32","internalType":"bytes32"}]}],"stateMutability":"view"},{"type":"function","name":"mockProve","inputs":[{"name":"imageId","type":"bytes32","internalType":"bytes32"},{"name":"journalDigest","type":"bytes32","internalType":"bytes32"}],"outputs":[{"name":"","type":"tuple","internalType":"struct Receipt","components":[{"name":"seal","type":"bytes","internalType":"bytes"},{"name":"claimDigest","type":"bytes32","internalType":"bytes32"}]}],"stateMutability":"view"},{"type":"function","name":"verify","inputs":[{"name":"seal","type":"bytes","internalType":"bytes"},{"name":"imageId","type":"bytes32","internalType":"bytes32"},{"name":"journalDigest","type":"bytes32","internalType":"bytes32"}],"outputs":[],"stateMutability":"view"},{"type":"function","name":"verifyIntegrity","inputs":[{"name":"receipt","type":"tuple","internalType":"struct Receipt","components":[{"name":"seal","type":"bytes","internalType":"bytes"},{"name":"claimDigest","type":"bytes32","internalType":"bytes32"}]}],"outputs":[],"stateMutability":"view"},{"type":"error","name":"SelectorMismatch","inputs":[{"name":"received","type":"bytes4","internalType":"bytes4"},{"name":"expected","type":"bytes4","internalType":"bytes4"}]},{"type":"error","name":"VerificationFailed","inputs":[]}],"bytecode":{"object":"0x60a034607557601f6106e838819003918201601f19168301916001600160401b03831184841017607957808492602094604052833981010312607557516001600160e01b03198116810360755760805260405161065a908161008e82396080518181816101a60152818161028401526103040152f35b5f80fd5b634e487b7160e01b5f52604160045260245ffdfe60808060405260049081361015610014575f80fd5b5f3560e01c908163053c238d14610194575080631599ead5146101285780633a115bb11461010957806366cf0e4b146100c25763ab750e7514610055575f80fd5b346100be5760603660031901126100be57803567ffffffffffffffff918282116100be57366023830112156100be578101359182116100be5736602483830101116100be576100bc9160246100b56100b06044358335610400565b61052c565b92016102ed565b005b5f80fd5b50346100be5760403660031901126100be576100f96100f46100b0610105936100e961025d565b506024359035610400565b610276565b604051918291826101d6565b0390f35b50346100be5760203660031901126100be576100f96101059135610276565b50346100be576003196020368201126100be5781359167ffffffffffffffff918284116100be576040843603918201126100be578184013590602219018112156100be578301908101359182116100be576024019080360382136100be5760246100bc930135916102ed565b346100be575f3660031901126100be577f00000000000000000000000000000000000000000000000000000000000000006001600160e01b0319168152602090f35b60208060809381845280516040838601528051938491826060880152018686015e5f84840186015201516040830152601f01601f1916010190565b6040810190811067ffffffffffffffff82111761022d57604052565b634e487b7160e01b5f52604160045260245ffd5b60a0810190811067ffffffffffffffff82111761022d57604052565b6040519061026a82610211565b5f602083606081520152565b61027e61025d565b506040517f00000000000000000000000000000000000000000000000000000000000000006001600160e01b03191660208201526024808201839052815260608101919067ffffffffffffffff83118184101761022d57608090836040526102e584610211565b808452015290565b91906004928184116100be576001600160e01b03197f00000000000000000000000000000000000000000000000000000000000000008116908235168082036103e3575050600319820167ffffffffffffffff918282116103d05760405192601b8501601f19908116603f01168401908111848210176103bd57604052818352602083019336818301116100be575f9287601c93018637830101525190209060405160208101918252602081526103a381610211565b519020036103ae5750565b60405163439cc0cd60e01b8152fd5b604187634e487b7160e01b5f525260245ffd5b604186634e487b7160e01b5f525260245ffd5b604491869160405192632e2ce35360e21b84528301526024820152fd5b9060409081519161041083610241565b5f83525f60806020948286820152835161042981610211565b838152838782015284820152826060820152015280519161044983610211565b5f83525f8484015281519061045d82610211565b81528381015f8152845f600c85516b1c9a5cd8cc0b93dd5d1c1d5d60a21b815260025afa156105225784915f91825191519051855191858301938452868301526060820152600160f91b6080820152606281526104b981610241565b8451918291518091835e8101838152039060025afa15610519577fa3acc27117418996340b84e5a90f3ef4c49d22c79e44aad822ec9c313e1eb8e25f519382519561050387610241565b86528501528301525f6060830152608082015290565b513d5f823e3d90fd5b82513d5f823e3d90fd5b60409060205f601284517172697363302e52656365697074436c61696d60701b815260025afa1561061a575f516060820151918051602082015191856080820151910192835151936003851015610606576020905101519287519660208801968752888801526060870152608086015260a085015260ff60f81b809260f81b1660c085015260f81b1660c4830152600160fa1b60c883015260aa825260e0820182811067ffffffffffffffff82111761022d576020925f9282865281518091845e81018360e0820152039060025afa1561051957505f5190565b634e487b7160e01b5f52602160045260245ffd5b50513d5f823e3d90fdfea26469706673582212206c9fb2eb22390b1b5e8d9eeefcc43b18c02d539b1e1f6c237ef9254655d5131b64736f6c63430008190033","linkReferences":{}},"methodIdentifiers":{"SELECTOR()":"053c238d","mockProve(bytes32)":"3a115bb1","mockProve(bytes32,bytes32)":"66cf0e4b","verify(bytes,bytes32,bytes32)":"ab750e75","verifyIntegrity((bytes,bytes32))":"1599ead5"},"id":51}