{"abi":[{"type":"constructor","inputs":[{"name":"_verifier","type":"address","internalType":"address"},{"name":"_registry","type":"address","internalType":"contract Registry"},{"name":"_creditScoreCalculator","type":"address","internalType":"address"},{"name":"_priceOracle","type":"address","internalType":"address"},{"name":"initialOwner","type":"address","internalType":"address"}],"stateMutability":"nonpayable"},{"type":"function","name":"acceptOwnership","inputs":[],"outputs":[],"stateMutability":"nonpayable"},{"type":"function","name":"calculateCreditScore","inputs":[{"name":"user","type":"address","internalType":"address"}],"outputs":[{"name":"score","type":"uint256","internalType":"uint256"},{"name":"tier","type":"uint8","internalType":"uint8"}],"stateMutability":"view"},{"type":"function","name":"calculateCreditScorePerProtocol","inputs":[{"name":"user","type":"address","internalType":"address"},{"name":"protocol","type":"uint8","internalType":"enum Protocol"}],"outputs":[{"name":"score","type":"uint256","internalType":"uint256"},{"name":"tier","type":"uint8","internalType":"uint8"}],"stateMutability":"view"},{"type":"function","name":"creditScoreCalculator","inputs":[],"outputs":[{"name":"","type":"address","internalType":"contract CreditModel"}],"stateMutability":"view"},{"type":"function","name":"getCreditScore","inputs":[{"name":"user","type":"address","internalType":"address"}],"outputs":[{"name":"score","type":"uint256","internalType":"uint256"}],"stateMutability":"view"},{"type":"function","name":"getCreditScorePerProtocol","inputs":[{"name":"user","type":"address","internalType":"address"},{"name":"protocol","type":"uint8","internalType":"enum Protocol"}],"outputs":[{"name":"score","type":"uint256","internalType":"uint256"}],"stateMutability":"view"},{"type":"function","name":"isExisted","inputs":[{"name":"","type":"address","internalType":"address"},{"name":"","type":"uint8","internalType":"enum Protocol"},{"name":"","type":"address","internalType":"address"},{"name":"","type":"uint256","internalType":"uint256"}],"outputs":[{"name":"","type":"bool","internalType":"bool"}],"stateMutability":"view"},{"type":"function","name":"owner","inputs":[],"outputs":[{"name":"","type":"address","internalType":"address"}],"stateMutability":"view"},{"type":"function","name":"pendingOwner","inputs":[],"outputs":[{"name":"","type":"address","internalType":"address"}],"stateMutability":"view"},{"type":"function","name":"priceOracle","inputs":[],"outputs":[{"name":"","type":"address","internalType":"contract IUniswapV2PriceOracle"}],"stateMutability":"view"},{"type":"function","name":"processClaim","inputs":[{"name":"claimer","type":"address","internalType":"address"},{"name":"selector","type":"bytes4","internalType":"bytes4"},{"name":"encodedData","type":"bytes","internalType":"bytes"}],"outputs":[],"stateMutability":"nonpayable"},{"type":"function","name":"registry","inputs":[],"outputs":[{"name":"","type":"address","internalType":"contract Registry"}],"stateMutability":"view"},{"type":"function","name":"renounceOwnership","inputs":[],"outputs":[],"stateMutability":"nonpayable"},{"type":"function","name":"setPriceOracle","inputs":[{"name":"newPriceOracle","type":"address","internalType":"address"}],"outputs":[],"stateMutability":"nonpayable"},{"type":"function","name":"setVerifier","inputs":[{"name":"newVerifier","type":"address","internalType":"address"}],"outputs":[],"stateMutability":"nonpayable"},{"type":"function","name":"totals","inputs":[{"name":"user","type":"address","internalType":"address"}],"outputs":[{"name":"","type":"tuple","internalType":"struct IVerifier.UserInfo","components":[{"name":"borrowedAmount","type":"uint256","internalType":"uint256"},{"name":"suppliedAmount","type":"uint256","internalType":"uint256"},{"name":"repaidAmount","type":"uint256","internalType":"uint256"},{"name":"latestBlock","type":"uint256","internalType":"uint256"},{"name":"latestBalance","type":"uint256","internalType":"uint256"},{"name":"borrowTimes","type":"uint256","internalType":"uint256"},{"name":"supplyTimes","type":"uint256","internalType":"uint256"},{"name":"repayTimes","type":"uint256","internalType":"uint256"},{"name":"firstActivityBlock","type":"uint256","internalType":"uint256"},{"name":"liquidations","type":"uint256","internalType":"uint256"}]}],"stateMutability":"view"},{"type":"function","name":"transferOwnership","inputs":[{"name":"newOwner","type":"address","internalType":"address"}],"outputs":[],"stateMutability":"nonpayable"},{"type":"function","name":"usersInfo","inputs":[{"name":"user","type":"address","internalType":"address"},{"name":"protocol","type":"uint8","internalType":"enum Protocol"}],"outputs":[{"name":"","type":"tuple","internalType":"struct IVerifier.UserInfo","components":[{"name":"borrowedAmount","type":"uint256","internalType":"uint256"},{"name":"suppliedAmount","type":"uint256","internalType":"uint256"},{"name":"repaidAmount","type":"uint256","internalType":"uint256"},{"name":"latestBlock","type":"uint256","internalType":"uint256"},{"name":"latestBalance","type":"uint256","internalType":"uint256"},{"name":"borrowTimes","type":"uint256","internalType":"uint256"},{"name":"supplyTimes","type":"uint256","internalType":"uint256"},{"name":"repayTimes","type":"uint256","internalType":"uint256"},{"name":"firstActivityBlock","type":"uint256","internalType":"uint256"},{"name":"liquidations","type":"uint256","internalType":"uint256"}]}],"stateMutability":"view"},{"type":"function","name":"verifier","inputs":[],"outputs":[{"name":"","type":"address","internalType":"address"}],"stateMutability":"view"},{"type":"event","name":"OwnershipTransferStarted","inputs":[{"name":"previousOwner","type":"address","indexed":true,"internalType":"address"},{"name":"newOwner","type":"address","indexed":true,"internalType":"address"}],"anonymous":false},{"type":"event","name":"OwnershipTransferred","inputs":[{"name":"previousOwner","type":"address","indexed":true,"internalType":"address"},{"name":"newOwner","type":"address","indexed":true,"internalType":"address"}],"anonymous":false},{"type":"event","name":"PriceOracleUpdated","inputs":[{"name":"oldPriceOracle","type":"address","indexed":true,"internalType":"address"},{"name":"newPriceOracle","type":"address","indexed":true,"internalType":"address"}],"anonymous":false},{"type":"event","name":"UserBorrowed","inputs":[{"name":"user","type":"address","indexed":true,"internalType":"address"},{"name":"protocol","type":"uint8","indexed":true,"internalType":"enum Protocol"},{"name":"amount","type":"uint256","indexed":false,"internalType":"uint256"},{"name":"newTotalBorrowed","type":"uint256","indexed":false,"internalType":"uint256"},{"name":"borrowCount","type":"uint256","indexed":false,"internalType":"uint256"}],"anonymous":false},{"type":"event","name":"UserRepaid","inputs":[{"name":"user","type":"address","indexed":true,"internalType":"address"},{"name":"protocol","type":"uint8","indexed":true,"internalType":"enum Protocol"},{"name":"amount","type":"uint256","indexed":false,"internalType":"uint256"},{"name":"newTotalRepaid","type":"uint256","indexed":false,"internalType":"uint256"},{"name":"repayCount","type":"uint256","indexed":false,"internalType":"uint256"}],"anonymous":false},{"type":"event","name":"UserSupplied","inputs":[{"name":"user","type":"address","indexed":true,"internalType":"address"},{"name":"protocol","type":"uint8","indexed":true,"internalType":"enum Protocol"},{"name":"amount","type":"uint256","indexed":false,"internalType":"uint256"},{"name":"newTotalSupplied","type":"uint256","indexed":false,"internalType":"uint256"},{"name":"supplyCount","type":"uint256","indexed":false,"internalType":"uint256"}],"anonymous":false},{"type":"event","name":"VerifierUpdated","inputs":[{"name":"oldVerifier","type":"address","indexed":true,"internalType":"address"},{"name":"newVerifier","type":"address","indexed":true,"internalType":"address"}],"anonymous":false},{"type":"error","name":"OwnableInvalidOwner","inputs":[{"name":"owner","type":"address","internalType":"address"}]},{"type":"error","name":"OwnableUnauthorizedAccount","inputs":[{"name":"account","type":"address","internalType":"address"}]}],"bytecode":{"object":"0x60803461012257601f6128bc38819003918201601f19168301916001600160401b038311848410176101265780849260a094604052833981010312610122576100478161013a565b60208201516001600160a01b038082169390918490036101225761006d6040820161013a565b938261008760806100806060860161013a565b940161013a565b1694851561010a5783918260018060a01b03199687600154166001555f549880898b16175f55826040519a167f8be0079c531659141344cd1fd0a4f28419497f9722a3daafe3b4186f6b6457e05f80a316866002541617600255856003541617600355168360045416176004551690600554161760055561276d908161014f8239f35b604051631e4fbdf760e01b81525f6004820152602490fd5b5f80fd5b634e487b7160e01b5f52604160045260245ffd5b51906001600160a01b03821682036101225756fe6080806040526004361015610012575f80fd5b5f3560e01c9081632630c12f1461167a575080632b7ac3f3146116525780634ffe34db1461160b578063530e784f1461154b5780635437988d14611497578063715018a61461143457806379ba5097146113b45780637b1039991461138c5780638da5cb5b14611365578063ab79dee5146112ed578063bb06c10e1461048c578063c9579ee8146103d8578063d242e241146103bf578063d3dd2bdf1461037b578063e30c397814610353578063ece017fb1461032b578063ee0457ff146102a2578063f1c3753a1461015a5763f2fde38b146100ed575f80fd5b346101565760203660031901126101565761010661169d565b61010e61181d565b60018060a01b0380911690816001600160601b0360a01b60015416176001555f54167f38d16b8cac22d99fc7c124b9cd0de2d3fa1faef420bfe791d8c362d765e227005f80a3005b5f80fd5b34610156576020366003190112610156576001600160a01b038061017c61169d565b165f526007602052604061021a610164825f2093600984519561019e8761172a565b80548752600181015460208801526002810154868801526003810154606088015260048101546080880152600581015460a0880152600681015460c0880152600781015460e08801526008810154610100880152015461012086015260045416938351948593849263b933466160e01b845260048401906116b3565b436101448301525afa908115610297575f905f92610265575b506004821015610251576040805191825260ff929092166020820152f35b634e487b7160e01b5f52602160045260245ffd5b9050610289915060403d604011610290575b6102818183611763565b8101906117fe565b9082610233565b503d610277565b6040513d5f823e3d90fd5b34610156576102da60406102e96101646102bb36611785565b6001600160a01b039182165f9081526006602052859020919591611714565b93600984519561019e8761172a565b436101448301525afa8015610297576020915f9161030b575b50604051908152f35b610324915060403d604011610290576102818183611763565b5082610302565b34610156575f366003190112610156576004546040516001600160a01b039091168152602090f35b34610156575f366003190112610156576001546040516001600160a01b039091168152602090f35b34610156576020366003190112610156576001600160a01b038061039d61169d565b165f52600760205260406102e9610164825f2093600984519561019e8761172a565b34610156576102da604061021a6101646102bb36611785565b34610156576101406104116103ec36611785565b906103f56117b4565b506001600160a01b03165f908152600660205260409020611714565b6009604051916104208361172a565b8054835260018101546020840152600281015460408401526003810154606084015260048101546080840152600581015460a0840152600681015460c0840152600781015460e08401526008810154610100840152015461012082015261048a60405180926116b3565bf35b34610156576060366003190112610156576104a561169d565b60243563ffffffff60e01b81168091036101565760443567ffffffffffffffff8082116101565736602383011215610156578160040135928184116112d957604051936104fc601f8201601f191660200186611763565b8085526020850193366024838301011161015657815f926024602093018737860101526002546001600160a01b0316330361128857633da2877560e11b810361054d5750505061054b91611aba565b005b9192916310dcfe7360e01b036112505781518201916020830193602082850312610156575191821161015657019180603f840112156101565760208301519161059583611830565b936105a36040519586611763565b838552604060c060208701950282010192831161015657604001925b8284106111d757505050506001600160a01b0382165f908152600660209081526040808320600184529091529020600881018054919391156111ce575b506001600160a01b0381165f908152600760205260409020600801805480159081156111c4575b506111bb575b505f5b825181101561054b576060610641828561185c565b51015190600385015482106111b2576003546040516315dfb15960e11b815246600482015292906001600160a01b031660e084602481845afa938415610297575f94611181575b5061069f60a0610698858961185c565b5101611922565b600281101561025157610e1557506003546040516351bc805560e11b81524660048201529060c090829060249082906001600160a01b03165afa80156102975761073a915f91610de6575b506001600160a01b0360206106ff868a61185c565b51015182516001600160a01b0316911614908115610db6575b8115610d86575b8115610d56575b8115610d26575b8115610cf5575b506119a9565b600460206001600160a01b0381610751868a61185c565b510151166040519283809263c55dae6360e01b82525afa908115610297575f91610cbb575b506001600160a01b038581165f908152600a60209081526040909120919061079e868a61185c565b510151165f5260205260405f205460806107b8858961185c565b51015110610aa05761080d60806107cf858961185c565b5101516001600160a01b038781165f908152600a6020908152604090912091906107f9888c61185c565b510151165f5260205260405f2054906119f5565b606085015190946001600160a01b038381169216821415919082610a88575b505061099f575b5060018361084382958954611a51565b88557fe8cc2ad0d253330825986983bb2c50a071aea72c26e8d12c57ef620521a395f26005808a01906108768254611a5e565b8255848060a01b0389165f52600760205260405f20610896858254611a51565b9055848060a01b0389165f52600760205260405f20016108b68154611a5e565b9055895490546040805194855260208501929092529083015260a083901b839003871691606090a35b60806108eb838761185c565b510151838060a01b0385165f52600a60205260405f20848060a01b036020610913868a61185c565b510151165f5260205260405f20555b806003870155828060a01b0384165f52600760205280600360405f200180548211610997575b5050600860205260405f20835f5260205260405f20838060a01b03602061096f858961185c565b510151165f5260205260405f20905f5260205260405f208260ff198254161790555b0161062c565b558087610948565b60055460408051631172801960e31b81526001600160a01b039384166004820152602481019690965291169084604481845afa908115610297576004945f92610a53575b5060209060405195868092631a12cd4760e01b82525afa938415610297575f94610a1d575b50610a166001948592611a33565b9350610833565b93506020843d602011610a4b575b81610a3860209383611763565b8101031261015657925192610a16610a08565b3d9150610a2b565b6020919250610a799060403d604011610a81575b610a718183611763565b810190611a16565b5091906109e3565b503d610a67565b608001516001600160a01b031614159050888061082c565b6001600160a01b038581165f908152600a602090815260409091209190610ac7868a61185c565b510151165f52602052610aed60405f20546080610ae4868a61185c565b510151906119f5565b606085015190946001600160a01b038381169216821415919082610ca3575b5050610bca575b50600180937f31f0599cb346617eb2bc74c0f970dd6ff140513cc0646449a2e54c23d19e401c60028901610b48838254611a51565b815560078a0190610b598254611a5e565b8255848060a01b0389165f526007602052600260405f2001610b7c858254611a51565b9055848060a01b0389165f526007602052600760405f2001610b9e8154611a5e565b90555490546040805194855260208501929092529083015260a083901b839003871691606090a36108df565b60055460408051631172801960e31b81526001600160a01b039384166004820152602481019690965291169084604481845afa908115610297576004945f92610c7e575b5060209060405195868092631a12cd4760e01b82525afa938415610297575f94610c48575b50610c416001948592611a33565b9350610b13565b93506020843d602011610c76575b81610c6360209383611763565b8101031261015657925192610c41610c33565b3d9150610c56565b6020919250610c9b9060403d604011610a8157610a718183611763565b509190610c0e565b608001516001600160a01b0316141590508880610b0c565b90506020813d602011610ced575b81610cd660209383611763565b8101031261015657610ce790611848565b87610776565b3d9150610cc9565b90506001600160a01b036020610d0b868a61185c565b51015160a0909201516001600160a01b031691161488610734565b90506001600160a01b036020610d3c868a61185c565b51015160808301516001600160a01b03169116149061072d565b90506001600160a01b036020610d6c868a61185c565b51015160608301516001600160a01b031691161490610726565b90506001600160a01b036020610d9c868a61185c565b51015160408301516001600160a01b03169116149061071f565b90506001600160a01b036020610dcc868a61185c565b51015160208301516001600160a01b031691161490610718565b610e08915060c03d60c011610e0e575b610e008183611763565b81019061192f565b886106ea565b503d610df6565b610e2460a0610698858961185c565b600281101561025157600114610e3f575b5060019250610922565b60c0602491604051928380926351bc805560e11b82524660048301525afa801561029757610e82915f91610de657506001600160a01b0360206106ff868a61185c565b6001600160a01b038481165f908152600b602090815260409091209190610ea9858961185c565b510151165f5260205260405f2060018060a01b03610ec7848861185c565b5151165f5260205260405f20546080610ee0848861185c565b510151811161117757610f01906080610ef9858961185c565b5101516119f5565b926001600160a01b03610f14848861185c565b515160608301516001600160a01b0316911614159081611148575b50611049575b600180937fcd1438edb4d66dadd7e5d7c3e91cfab2c5d6b71a3911a01d2dbb0aee82f2b6fb828901610f68838254611a51565b815560068a0190610f798254611a5e565b8255848060a01b0389165f5260076020528460405f2001610f9b858254611a51565b9055848060a01b0389165f526007602052600660405f2001610fbd8154611a5e565b90555490546040805194855260208501929092529083015260a083901b839003871691606090a35b6080610ff1838761185c565b510151838060a01b0385165f52600b60205260405f20848060a01b036020611019868a61185c565b510151165f5260205260405f20848060a01b03611036858961185c565b5151165f5260205260405f205586610e35565b60055461109c936001600160a01b03918216916040919061106a868a61185c565b51518351631172801960e31b815291166001600160a01b03166004820152602481019190915294859081906044820190565b0381845afa908115610297576004945f92611123575b5060209060405195868092631a12cd4760e01b82525afa938415610297575f946110ed575b506110e56001948592611a33565b935050610f35565b93506020843d60201161111b575b8161110860209383611763565b81010312610156579251926110e56110d7565b3d91506110fb565b60209192506111409060403d604011610a8157610a718183611763565b5091906110b2565b90506001600160a01b0361115c848861185c565b51516080909201516001600160a01b03169116141587610f2f565b5060019250610fe5565b6111a491945060e03d60e0116111ab575b61119c8183611763565b810190611884565b9287610688565b503d611192565b60019150610991565b43905583610629565b9050431085610623565b439055836105fc565b60c06020858403011261015657604051906111f182611747565b6111fa85611848565b825261120860208601611848565b602083015260408501516040830152606085015160608301526080808601519083015260a090818601519260028410156101565760c0936020938201528152019301926105bf565b60405162461bcd60e51b815260206004820152601060248201526f24b73b30b634b21039b2b632b1ba37b960811b6044820152606490fd5b60405162461bcd60e51b8152602060048201526024808201527f4f6e6c792076657269666965722063616e2063616c6c20746869732066756e636044820152633a34b7b760e11b6064820152608490fd5b634e487b7160e01b5f52604160045260245ffd5b346101565760803660031901126101565761130661169d565b602435906007821015610156576044356001600160a01b0381811693918490036101565761133f92165f52600860205260405f20611714565b905f5260205260405f206064355f52602052602060ff60405f2054166040519015158152f35b34610156575f366003190112610156575f546040516001600160a01b039091168152602090f35b34610156575f366003190112610156576003546040516001600160a01b039091168152602090f35b34610156575f366003190112610156576001546001600160a01b03338183160361141c576001600160601b0360a01b8092166001555f549133908316175f553391167f8be0079c531659141344cd1fd0a4f28419497f9722a3daafe3b4186f6b6457e05f80a3005b60405163118cdaa760e01b8152336004820152602490fd5b34610156575f3660031901126101565761144c61181d565b600180546001600160a01b03199081169091555f80549182168155906001600160a01b03167f8be0079c531659141344cd1fd0a4f28419497f9722a3daafe3b4186f6b6457e08280a3005b34610156576020366003190112610156576114b061169d565b6114b861181d565b6001600160a01b0390811690811561150657600254826001600160601b0360a01b821617600255167f0243549a92b2412f7a3caf7a2e56d65b8821b91345363faa5f57195384065fcc5f80a3005b60405162461bcd60e51b815260206004820152601f60248201527f56657269666965722063616e6e6f74206265207a65726f2061646472657373006044820152606490fd5b346101565760203660031901126101565761156461169d565b61156c61181d565b6001600160a01b039081169081156115ba57600554826001600160601b0360a01b821617600555167f56b5f80d8cac1479698aa7d01605fd6111e90b15fc4d2b377417f46034876cbd5f80a3005b60405162461bcd60e51b815260206004820152602360248201527f5072696365206f7261636c652063616e6e6f74206265207a65726f206164647260448201526265737360e81b6064820152608490fd5b346101565760203660031901126101565761162461169d565b61162c6117b4565b5060018060a01b03165f52600760205261014060405f206009604051916104208361172a565b34610156575f366003190112610156576002546040516001600160a01b039091168152602090f35b34610156575f366003190112610156576005546001600160a01b03168152602090f35b600435906001600160a01b038216820361015657565b805182526020810151602083015260408101516040830152606081015160608301526080810151608083015260a081015160a083015260c081015160c083015260e081015160e0830152610100808201519083015261012080910151910152565b906007811015610251575f5260205260405f2090565b610140810190811067ffffffffffffffff8211176112d957604052565b60c0810190811067ffffffffffffffff8211176112d957604052565b90601f8019910116810190811067ffffffffffffffff8211176112d957604052565b6040906003190112610156576004356001600160a01b0381168103610156579060243560078110156101565790565b604051906117c18261172a565b5f610120838281528260208201528260408201528260608201528260808201528260a08201528260c08201528260e0820152826101008201520152565b9190826040910312610156576020825192015160048110156101565790565b5f546001600160a01b0316330361141c57565b67ffffffffffffffff81116112d95760051b60200190565b51906001600160a01b038216820361015657565b80518210156118705760209160051b010190565b634e487b7160e01b5f52603260045260245ffd5b908160e0910312610156576040519060e0820182811067ffffffffffffffff8211176112d95761191a9160c0916040526118bd81611848565b84526118cb60208201611848565b60208501526118dc60408201611848565b60408501526118ed60608201611848565b60608501526118fe60808201611848565b608085015261190f60a08201611848565b60a085015201611848565b60c082015290565b5160028110156102515790565b908160c0910312610156576119a160a06040519261194c84611747565b61195581611848565b845261196360208201611848565b602085015261197460408201611848565b604085015261198560608201611848565b606085015261199660808201611848565b608085015201611848565b60a082015290565b156119b057565b60405162461bcd60e51b815260206004820152601760248201527f496e76616c696420436f6d706f756e642063546f6b656e0000000000000000006044820152606490fd5b91908203918211611a0257565b634e487b7160e01b5f52601160045260245ffd5b919082604091031261015657611a30602083519301611848565b90565b8115611a3d570490565b634e487b7160e01b5f52601260045260245ffd5b91908201809211611a0257565b5f198114611a025760010190565b5160038110156102515790565b15611a8057565b60405162461bcd60e51b815260206004820152601260248201527124b73b30b634b21020b0bb32903a37b5b2b760711b6044820152606490fd5b9091825183019260208401906020818603126101565760208101519067ffffffffffffffff821161015657019080603f8301121561015657602082015191611b0183611830565b95611b0f6040519788611763565b8387526020870191604060c080960282010193841161015657604001915b8383106126c057505050506001600160a01b0383165f90815260066020908152604080832083805290915290206008810180549195925090156126b7575b506001600160a01b0383165f908152600760205260409020600801805480159081156126ad575b506126a4575b505f5b815181101561269d576060611bb0828461185c565b510151600386015481106126945760a0611bd581611bce858761185c565b5101611a6c565b6003811015610251576001036122ab5750600354604051635466e24d60e01b81526001600160a01b03909116929190602081600481875afa908115610297575f91612271575b5060206001600160a01b03611c30858861185c565b51516040516301b2848560e51b81529116600482015291829060249082906001600160a01b03165afa908115610297575f9161222c575b5060249360e091611c9c906001600160a01b036020611c86888b61185c565b5101516001600160a01b03909216911614611a79565b6040516315dfb15960e11b815246600482015294859182905afa928315610297575f9361220b575b506001600160a01b038681165f9081526009602090815260409091209190611cec858861185c565b510151165f5260205260405f20546080611d06848761185c565b51015110611fe257611d476080611d1d848761185c565b5101516001600160a01b038881165f90815260096020908152604090912091906107f9878a61185c565b926001600160a01b03611d5a848761185c565b515160608301516001600160a01b0316911614159081611fb3575b50611ee6575b5f83611d8a6001958a54611a51565b89557fe8cc2ad0d253330825986983bb2c50a071aea72c26e8d12c57ef620521a395f26005808b0190611dbd8254611a5e565b8255878060a01b038b168552600760205260408520611ddd858254611a51565b9055878060a01b038b16855260076020526040852001611dfd8154611a5e565b90558a5490546040805194855260208501929092529083015260a086901b869003891691606090a35b6080611e32838661185c565b510151838060a01b0387165f52600960205260405f20848060a01b036020611e5a868961185c565b510151165f5260205260405f20555b806003880155828060a01b0386165f52600760205280600360405f200180548211611ede575b5050600860205260405f205f805260205260405f20838060a01b036020611eb6858861185c565b510151165f5260205260405f20905f5260205260405f208260ff198254161790555b01611b9b565b55805f611e8f565b600554611f07936001600160a01b03918216916040919061106a868961185c565b0381845afa908115610297576004945f92611f8e575b5060209060405195868092631a12cd4760e01b82525afa938415610297575f94611f58575b50611f506001945f92611a33565b935050611d7b565b93506020843d602011611f86575b81611f7360209383611763565b8101031261015657925192611f50611f42565b3d9150611f66565b6020919250611fab9060403d604011610a8157610a718183611763565b509190611f1d565b90506001600160a01b03611fc7848761185c565b51516080909201516001600160a01b0316911614155f611d75565b6001600160a01b038681165f9081526009602090815260409091209190612009858861185c565b510151165f5260205261202660405f20546080610ae4858861185c565b926001600160a01b03612039848761185c565b515160608301516001600160a01b03169116141590816121dc575b5061210f575b5f6001937f31f0599cb346617eb2bc74c0f970dd6ff140513cc0646449a2e54c23d19e401c6002808b0161208f848254611a51565b815560078c01916120a08354611a5e565b8355888060a01b038c168652600760205260408620016120c1858254611a51565b9055878060a01b038b1685526007602052600760408620016120e38154611a5e565b90555490546040805194855260208501929092529083015260a086901b869003891691606090a3611e26565b600554612130936001600160a01b03918216916040919061106a868961185c565b0381845afa908115610297576004945f926121b7575b5060209060405195868092631a12cd4760e01b82525afa938415610297575f94612181575b506121796001945f92611a33565b93505061205a565b93506020843d6020116121af575b8161219c60209383611763565b810103126101565792519261217961216b565b3d915061218f565b60209192506121d49060403d604011610a8157610a718183611763565b509190612146565b90506001600160a01b036121f0848761185c565b51516080909201516001600160a01b0316911614155f612054565b61222591935060e03d60e0116111ab5761119c8183611763565b915f611cc4565b90506020813d602011612269575b8161224760209383611763565b8101031261015657602493611c9c61226060e093611848565b92505093611c67565b3d915061223a565b90506020813d6020116122a3575b8161228c60209383611763565b810103126101565761229d90611848565b5f611c1b565b3d915061227f565b6122b981611bce858761185c565b6003811015610251576126655750600354604051635466e24d60e01b81526001600160a01b03909116929190602081600481875afa908115610297575f9161262b575b5060206001600160a01b03612311858861185c565b515160405163cff027d960e01b81529116600482015291829060249082906001600160a01b03165afa908115610297575f916125e6575b5060249360e091612367906001600160a01b036020611c86888b61185c565b6040516315dfb15960e11b815246600482015294859182905afa928315610297575f936125c5575b50608061239c838661185c565b510151926001600160a01b036123b2848761185c565b515160608301516001600160a01b0316911614159081612596575b506124c9575b5f6001937fcd1438edb4d66dadd7e5d7c3e91cfab2c5d6b71a3911a01d2dbb0aee82f2b6fb858a01612406838254611a51565b815560068b01906124178254611a5e565b8255878060a01b038b1685526007602052876040862001612439858254611a51565b9055878060a01b038b16855260076020526006604086200161245b8154611a5e565b90555490546040805194855260208501929092529083015260a086901b869003891691606090a3608061248e838661185c565b510151838060a01b0387165f52600960205260405f20848060a01b0360206124b6868961185c565b510151165f5260205260405f2055611e69565b6005546124ea936001600160a01b03918216916040919061106a868961185c565b0381845afa908115610297576004945f92612571575b5060209060405195868092631a12cd4760e01b82525afa938415610297575f9461253b575b506125336001945f92611a33565b9350506123d3565b93506020843d602011612569575b8161255660209383611763565b8101031261015657925192612533612525565b3d9150612549565b602091925061258e9060403d604011610a8157610a718183611763565b509190612500565b90506001600160a01b036125aa848761185c565b51516080909201516001600160a01b0316911614155f6123cd565b6125df91935060e03d60e0116111ab5761119c8183611763565b915f61238f565b90506020813d602011612623575b8161260160209383611763565b810103126101565760249361236761261a60e093611848565b92505093612348565b3d91506125f4565b90506020813d60201161265d575b8161264660209383611763565b810103126101565761265790611848565b5f6122fc565b3d9150612639565b61267390611bce848661185c565b60038110156102515760021461268c5790600191611e69565b505050915050565b50600190611ed8565b5050915050565b4390555f611b98565b905043105f611b92565b4390555f611b6b565b846020848403011261015657604051906126d982611747565b6126e284611848565b82526126f060208501611848565b602083015260408401516040830152606080850151908301526080808501519083015260a09081850151926003841015610156578793602093820152815201920191611b2d56fea2646970667358221220c0258640eecea40f4588ff9f23370b5849a5862b3fbbae958573513b4b933a4564736f6c63430008190033","linkReferences":{}},"methodIdentifiers":{"acceptOwnership()":"79ba5097","calculateCreditScore(address)":"f1c3753a","calculateCreditScorePerProtocol(address,uint8)":"d242e241","creditScoreCalculator()":"ece017fb","getCreditScore(address)":"d3dd2bdf","getCreditScorePerProtocol(address,uint8)":"ee0457ff","isExisted(address,uint8,address,uint256)":"ab79dee5","owner()":"8da5cb5b","pendingOwner()":"e30c3978","priceOracle()":"2630c12f","processClaim(address,bytes4,bytes)":"bb06c10e","registry()":"7b103999","renounceOwnership()":"715018a6","setPriceOracle(address)":"530e784f","setVerifier(address)":"5437988d","totals(address)":"4ffe34db","transferOwnership(address)":"f2fde38b","usersInfo(address,uint8)":"c9579ee8","verifier()":"2b7ac3f3"},"id":79}