{"abi":[{"type":"constructor","inputs":[],"stateMutability":"nonpayable"},{"type":"function","name":"UPGRADE_INTERFACE_VERSION","inputs":[],"outputs":[{"name":"","type":"string","internalType":"string"}],"stateMutability":"view"},{"type":"function","name":"_latestMorphoBorrowAmount","inputs":[{"name":"","type":"address","internalType":"address"},{"name":"","type":"address","internalType":"address"},{"name":"","type":"bytes32","internalType":"Id"}],"outputs":[{"name":"","type":"uint256","internalType":"uint256"}],"stateMutability":"view"},{"type":"function","name":"_latestMorphoCollateralAmount","inputs":[{"name":"","type":"address","internalType":"address"},{"name":"","type":"address","internalType":"address"},{"name":"","type":"bytes32","internalType":"Id"}],"outputs":[{"name":"","type":"uint256","internalType":"uint256"}],"stateMutability":"view"},{"type":"function","name":"calculateCreditScore","inputs":[{"name":"user","type":"address","internalType":"address"}],"outputs":[{"name":"score","type":"uint256","internalType":"uint256"},{"name":"tier","type":"uint8","internalType":"uint8"}],"stateMutability":"view"},{"type":"function","name":"calculateCreditScorePerProtocol","inputs":[{"name":"user","type":"address","internalType":"address"},{"name":"protocol","type":"uint8","internalType":"enum Protocol"}],"outputs":[{"name":"score","type":"uint256","internalType":"uint256"},{"name":"tier","type":"uint8","internalType":"uint8"}],"stateMutability":"view"},{"type":"function","name":"creditScoreCalculator","inputs":[],"outputs":[{"name":"","type":"address","internalType":"contract CreditModel"}],"stateMutability":"view"},{"type":"function","name":"getCreditScore","inputs":[{"name":"user","type":"address","internalType":"address"}],"outputs":[{"name":"score","type":"uint256","internalType":"uint256"}],"stateMutability":"view"},{"type":"function","name":"getCreditScorePerProtocol","inputs":[{"name":"user","type":"address","internalType":"address"},{"name":"protocol","type":"uint8","internalType":"enum Protocol"}],"outputs":[{"name":"score","type":"uint256","internalType":"uint256"}],"stateMutability":"view"},{"type":"function","name":"initialize","inputs":[{"name":"_verifier","type":"address","internalType":"address"},{"name":"_registry","type":"address","internalType":"contract Registry"},{"name":"_creditScoreCalculator","type":"address","internalType":"address"},{"name":"_priceOracle","type":"address","internalType":"address"},{"name":"initialOwner","type":"address","internalType":"address"}],"outputs":[],"stateMutability":"nonpayable"},{"type":"function","name":"isClaimedBlock","inputs":[{"name":"","type":"address","internalType":"address"},{"name":"","type":"uint8","internalType":"enum Protocol"},{"name":"","type":"address","internalType":"address"},{"name":"","type":"uint256","internalType":"uint256"}],"outputs":[{"name":"","type":"bool","internalType":"bool"}],"stateMutability":"view"},{"type":"function","name":"latestProtocolBlockNumbers","inputs":[{"name":"protocol","type":"uint8","internalType":"enum Protocol"}],"outputs":[{"name":"latestDebtBlock","type":"uint256","internalType":"uint256"},{"name":"latestCollateralBlock","type":"uint256","internalType":"uint256"}],"stateMutability":"view"},{"type":"function","name":"owner","inputs":[],"outputs":[{"name":"","type":"address","internalType":"address"}],"stateMutability":"view"},{"type":"function","name":"priceOracle","inputs":[],"outputs":[{"name":"","type":"address","internalType":"contract IUniswapV2PriceOracle"}],"stateMutability":"view"},{"type":"function","name":"processClaim","inputs":[{"name":"claimer","type":"address","internalType":"address"},{"name":"selector","type":"bytes4","internalType":"bytes4"},{"name":"encodedData","type":"bytes","internalType":"bytes"}],"outputs":[],"stateMutability":"nonpayable"},{"type":"function","name":"proxiableUUID","inputs":[],"outputs":[{"name":"","type":"bytes32","internalType":"bytes32"}],"stateMutability":"view"},{"type":"function","name":"registry","inputs":[],"outputs":[{"name":"","type":"address","internalType":"contract Registry"}],"stateMutability":"view"},{"type":"function","name":"renounceOwnership","inputs":[],"outputs":[],"stateMutability":"nonpayable"},{"type":"function","name":"setPriceOracle","inputs":[{"name":"newPriceOracle","type":"address","internalType":"address"}],"outputs":[],"stateMutability":"nonpayable"},{"type":"function","name":"setVerifier","inputs":[{"name":"newVerifier","type":"address","internalType":"address"}],"outputs":[],"stateMutability":"nonpayable"},{"type":"function","name":"totals","inputs":[{"name":"user","type":"address","internalType":"address"}],"outputs":[{"name":"","type":"tuple","internalType":"struct IVerifier.UserInfo","components":[{"name":"borrowedAmount","type":"uint256","internalType":"uint256"},{"name":"suppliedAmount","type":"uint256","internalType":"uint256"},{"name":"repaidAmount","type":"uint256","internalType":"uint256"},{"name":"latestBlock","type":"uint256","internalType":"uint256"},{"name":"latestBalance","type":"uint256","internalType":"uint256"},{"name":"borrowTimes","type":"uint256","internalType":"uint256"},{"name":"supplyTimes","type":"uint256","internalType":"uint256"},{"name":"repayTimes","type":"uint256","internalType":"uint256"},{"name":"firstActivityBlock","type":"uint256","internalType":"uint256"},{"name":"liquidations","type":"uint256","internalType":"uint256"}]}],"stateMutability":"view"},{"type":"function","name":"transferOwnership","inputs":[{"name":"newOwner","type":"address","internalType":"address"}],"outputs":[],"stateMutability":"nonpayable"},{"type":"function","name":"upgradeToAndCall","inputs":[{"name":"newImplementation","type":"address","internalType":"address"},{"name":"data","type":"bytes","internalType":"bytes"}],"outputs":[],"stateMutability":"payable"},{"type":"function","name":"usersInfo","inputs":[{"name":"user","type":"address","internalType":"address"},{"name":"protocol","type":"uint8","internalType":"enum Protocol"}],"outputs":[{"name":"","type":"tuple","internalType":"struct IVerifier.UserInfo","components":[{"name":"borrowedAmount","type":"uint256","internalType":"uint256"},{"name":"suppliedAmount","type":"uint256","internalType":"uint256"},{"name":"repaidAmount","type":"uint256","internalType":"uint256"},{"name":"latestBlock","type":"uint256","internalType":"uint256"},{"name":"latestBalance","type":"uint256","internalType":"uint256"},{"name":"borrowTimes","type":"uint256","internalType":"uint256"},{"name":"supplyTimes","type":"uint256","internalType":"uint256"},{"name":"repayTimes","type":"uint256","internalType":"uint256"},{"name":"firstActivityBlock","type":"uint256","internalType":"uint256"},{"name":"liquidations","type":"uint256","internalType":"uint256"}]}],"stateMutability":"view"},{"type":"function","name":"verifier","inputs":[],"outputs":[{"name":"","type":"address","internalType":"address"}],"stateMutability":"view"},{"type":"event","name":"Initialized","inputs":[{"name":"version","type":"uint64","indexed":false,"internalType":"uint64"}],"anonymous":false},{"type":"event","name":"OwnershipTransferred","inputs":[{"name":"previousOwner","type":"address","indexed":true,"internalType":"address"},{"name":"newOwner","type":"address","indexed":true,"internalType":"address"}],"anonymous":false},{"type":"event","name":"PriceOracleUpdated","inputs":[{"name":"oldPriceOracle","type":"address","indexed":true,"internalType":"address"},{"name":"newPriceOracle","type":"address","indexed":true,"internalType":"address"}],"anonymous":false},{"type":"event","name":"Upgraded","inputs":[{"name":"implementation","type":"address","indexed":true,"internalType":"address"}],"anonymous":false},{"type":"event","name":"UserBorrowed","inputs":[{"name":"user","type":"address","indexed":true,"internalType":"address"},{"name":"protocol","type":"uint8","indexed":true,"internalType":"enum Protocol"},{"name":"amount","type":"uint256","indexed":false,"internalType":"uint256"},{"name":"newTotalBorrowed","type":"uint256","indexed":false,"internalType":"uint256"},{"name":"borrowCount","type":"uint256","indexed":false,"internalType":"uint256"}],"anonymous":false},{"type":"event","name":"UserRepaid","inputs":[{"name":"user","type":"address","indexed":true,"internalType":"address"},{"name":"protocol","type":"uint8","indexed":true,"internalType":"enum Protocol"},{"name":"amount","type":"uint256","indexed":false,"internalType":"uint256"},{"name":"newTotalRepaid","type":"uint256","indexed":false,"internalType":"uint256"},{"name":"repayCount","type":"uint256","indexed":false,"internalType":"uint256"}],"anonymous":false},{"type":"event","name":"UserSupplied","inputs":[{"name":"user","type":"address","indexed":true,"internalType":"address"},{"name":"protocol","type":"uint8","indexed":true,"internalType":"enum Protocol"},{"name":"amount","type":"uint256","indexed":false,"internalType":"uint256"},{"name":"newTotalSupplied","type":"uint256","indexed":false,"internalType":"uint256"},{"name":"supplyCount","type":"uint256","indexed":false,"internalType":"uint256"}],"anonymous":false},{"type":"event","name":"VerifierUpdated","inputs":[{"name":"oldVerifier","type":"address","indexed":true,"internalType":"address"},{"name":"newVerifier","type":"address","indexed":true,"internalType":"address"}],"anonymous":false},{"type":"error","name":"AddressEmptyCode","inputs":[{"name":"target","type":"address","internalType":"address"}]},{"type":"error","name":"ERC1967InvalidImplementation","inputs":[{"name":"implementation","type":"address","internalType":"address"}]},{"type":"error","name":"ERC1967NonPayable","inputs":[]},{"type":"error","name":"FailedInnerCall","inputs":[]},{"type":"error","name":"InvalidInitialization","inputs":[]},{"type":"error","name":"NotInitializing","inputs":[]},{"type":"error","name":"OwnableInvalidOwner","inputs":[{"name":"owner","type":"address","internalType":"address"}]},{"type":"error","name":"OwnableUnauthorizedAccount","inputs":[{"name":"account","type":"address","internalType":"address"}]},{"type":"error","name":"UUPSUnauthorizedCallContext","inputs":[]},{"type":"error","name":"UUPSUnsupportedProxiableUUID","inputs":[{"name":"slot","type":"bytes32","internalType":"bytes32"}]}],"bytecode":{"object":"0x60a0806040523460c857306080527ff0c57e16840df040f15088dc2f81fe391c3923bec73e23a9662efc9c229c6a009081549060ff8260401c1660b957506001600160401b036002600160401b0319828216016075575b604051613ad890816100cd823960805181818161235201526124410152f35b6001600160401b031990911681179091556040519081527fc7f505b2f371ae2175ee4913f4499e1f2633a7b5936321eed1cdaeb6115181d290602090a15f80806056565b63f92ee8a960e01b8152600490fd5b5f80fdfe6080806040526004361015610012575f80fd5b5f3560e01c9081631459457a146126b25750806322d7091c1461266e5780632630c12f146126465780632b7ac3f31461261e5780634f1ef286146124035780634ffe34db146123bc57806352d1902d14612340578063530e784f1461227d5780635437988d146121c65780636ae9abe914612192578063715018a61461213957806374132f0d146120c65780637b1039991461209e5780638da5cb5b14612077578063ad3cb1cc1461200a578063bb06c10e146104e4578063c9579ee814610430578063caf65793146103ec578063d242e241146103d3578063d3dd2bdf1461038f578063ece017fb14610367578063ee0457ff146102de578063f1c3753a146101965763f2fde38b14610124575f80fd5b346101925760203660031901126101925761013d612845565b5f546001600160a01b03908116330361017a578116156101625761016090612abc565b005b604051631e4fbdf760e01b81525f6004820152602490fd5b60405163118cdaa760e01b8152336004820152602490fd5b5f80fd5b34610192576020366003190112610192576001600160a01b03806101b8612845565b165f5260066020526040610256610164825f209360098451956101da876128a6565b80548752600181015460208801526002810154868801526003810154606088015260048101546080880152600581015460a0880152600681015460c0880152600781015460e08801526008810154610100880152015461012086015260035416938351948593849263b933466160e01b8452600484019061295f565b436101448301525afa9081156102d3575f905f926102a1575b50600482101561028d576040805191825260ff929092166020820152f35b634e487b7160e01b5f52602160045260245ffd5b90506102c5915060403d6040116102cc575b6102bd81836128dd565b810190612a9d565b908261026f565b503d6102b3565b6040513d5f823e3d90fd5b346101925761031660406103256101646102f7366129d6565b6001600160a01b039182165f90815260056020528590209195916129c0565b9360098451956101da876128a6565b436101448301525afa80156102d3576020915f91610347575b50604051908152f35b610360915060403d6040116102cc576102bd81836128dd565b508261033e565b34610192575f366003190112610192576003546040516001600160a01b039091168152602090f35b34610192576020366003190112610192576001600160a01b03806103b1612845565b165f5260066020526040610325610164825f209360098451956101da876128a6565b346101925761031660406102566101646102f7366129d6565b34610192576103fa36612871565b9160018060a01b038091165f52601260205260405f2091165f5260205260405f20905f52602052602060405f2054604051908152f35b3461019257610140610469610444366129d6565b9061044d612a05565b506001600160a01b03165f9081526005602052604090206129c0565b600960405191610478836128a6565b8054835260018101546020840152600281015460408401526003810154606084015260048101546080840152600581015460a0840152600681015460c0840152600781015460e0840152600881015461010084015201546101208201526104e2604051809261295f565bf35b34610192576060366003190112610192576104fd612845565b6024359063ffffffff60e01b8216809203610192576044356001600160401b03811161019257610531903690600401612919565b6001549092906001600160a01b03163303611fb957633da2877560e11b810361055f57509061016091612db1565b6310dcfe7360e01b8103611294575090805181016020810191602081830312610192576020810151906001600160401b03821161019257019180603f84011215610192576020830151916105b283612b02565b936105c060405195866128dd565b838552604060c060208701950282010192831161019257604001925b82841061121b57505050506001600160a01b0382165f90815260056020908152604080832060018452909152902060088101805491939115611212575b506001600160a01b0381165f90815260066020526040902060080180548015908115611208575b506111ff575b505f5b825181101561016057606061065e8285612b41565b5101516002546040516315dfb15960e11b81524660048201529291906001600160a01b031660e084602481845afa9384156102d3575f946111ce575b506106b160a06106aa8589612b41565b5101612c90565b600281101561028d57610e495750600d54811115610e3f576002546040516351bc805560e11b81524660048201529060c090829060249082906001600160a01b03165afa80156102d357610756915f91610e10575b506001600160a01b03602061071b868a612b41565b51015182516001600160a01b0316911614908115610de0575b8115610db0575b8115610d80575b8115610d50575b8115610d1f575b50612d17565b600460206001600160a01b038161076d868a612b41565b510151166040519283809263c55dae6360e01b82525afa9081156102d3575f91610ce5575b506001600160a01b038581165f90815260096020908152604090912091906107ba868a612b41565b510151165f5260205260405f205460806107d48589612b41565b51015110610ac55761082960806107eb8589612b41565b5101516001600160a01b038781165f9081526009602090815260409091209190610815888c612b41565b510151165f5260205260405f205490612c06565b606085015190946001600160a01b038381169216821415919082610aad575b50506109bf575b5060018361085f82958954612c75565b88557fe8cc2ad0d253330825986983bb2c50a071aea72c26e8d12c57ef620521a395f2600589016108908154612c82565b8155838060a01b0388165f52600660205260405f206108b0848254612c75565b9055838060a01b0388165f526006602052600560405f20016108d28154612c82565b9055895490546040805194855260208501929092529083015260a083901b839003871691606090a35b60806109078387612b41565b510151838060a01b0385165f52600960205260405f20848060a01b03602061092f868a612b41565b510151165f5260205260405f205580600d555b806003870155828060a01b0384165f52600660205280600360405f2001805482116109b7575b5050600760205260405f20835f5260205260405f20838060a01b03602061098f8589612b41565b510151165f5260205260405f20905f5260205260405f208260ff198254161790555b01610649565b558087610968565b6004805460408051631172801960e31b81526001600160a01b03948516938101939093526024830196909652909491169084604481845afa9081156102d3576004945f92610a78575b5060209060405195868092631a12cd4760e01b82525afa9384156102d3575f94610a42575b50610a3b6001948592612c3a565b935061084f565b93506020843d602011610a70575b81610a5d602093836128dd565b8101031261019257925192610a3b610a2d565b3d9150610a50565b6020919250610a9e9060403d604011610aa6575b610a9681836128dd565b810190612c58565b509190610a08565b503d610a8c565b608001516001600160a01b0316141590508880610848565b6001600160a01b038581165f9081526009602090815260409091209190610aec868a612b41565b510151165f52602052610b1260405f20546080610b09868a612b41565b51015190612c06565b606085015190946001600160a01b038381169216821415919082610ccd575b5050610bef575b50600180937f31f0599cb346617eb2bc74c0f970dd6ff140513cc0646449a2e54c23d19e401c60028901610b6d838254612c75565b8155600790818b0191610b808354612c82565b8355858060a01b038a165f526006602052600260405f2001610ba3868254612c75565b9055858060a01b038a165f52600660205260405f2001610bc38154612c82565b90555490546040805194855260208501929092529083015260a083901b839003871691606090a36108fb565b6004805460408051631172801960e31b81526001600160a01b03948516938101939093526024830196909652909491169084604481845afa9081156102d3576004945f92610ca8575b5060209060405195868092631a12cd4760e01b82525afa9384156102d3575f94610c72575b50610c6b6001948592612c3a565b9350610b38565b93506020843d602011610ca0575b81610c8d602093836128dd565b8101031261019257925192610c6b610c5d565b3d9150610c80565b6020919250610cc59060403d604011610aa657610a9681836128dd565b509190610c38565b608001516001600160a01b0316141590508880610b31565b90506020813d602011610d17575b81610d00602093836128dd565b8101031261019257610d1190612b19565b87610792565b3d9150610cf3565b90506001600160a01b036020610d35868a612b41565b51015160a0909201516001600160a01b031691161488610750565b90506001600160a01b036020610d66868a612b41565b51015160808301516001600160a01b031691161490610749565b90506001600160a01b036020610d96868a612b41565b51015160608301516001600160a01b031691161490610742565b90506001600160a01b036020610dc6868a612b41565b51015160408301516001600160a01b03169116149061073b565b90506001600160a01b036020610df6868a612b41565b51015160208301516001600160a01b031691161490610734565b610e32915060c03d60c011610e38575b610e2a81836128dd565b810190612c9d565b88610706565b503d610e20565b50600191506109b1565b610e5860a06106aa8589612b41565b600281101561028d57600114610e73575b5060019250610942565b600e548211156111c35760c0602491604051928380926351bc805560e11b82524660048301525afa80156102d357610ec0915f91610e1057506001600160a01b03602061071b868a612b41565b6001600160a01b038481165f908152600a602090815260409091209190610ee78589612b41565b510151165f5260205260405f2060018060a01b03610f058488612b41565b5151165f5260205260405f20546080610f1e8488612b41565b51015181116111b957610f3f906080610f378589612b41565b510151612c06565b926001600160a01b03610f528488612b41565b515160608301516001600160a01b031691161415908161118a575b5061108b575b600180937fcd1438edb4d66dadd7e5d7c3e91cfab2c5d6b71a3911a01d2dbb0aee82f2b6fb828901610fa6838254612c75565b815560068a0190610fb78254612c82565b8255848060a01b0389165f5260066020528460405f2001610fd9858254612c75565b9055848060a01b0389165f526006602052600660405f2001610ffb8154612c82565b90555490546040805194855260208501929092529083015260a083901b839003871691606090a35b608061102f8387612b41565b510151838060a01b0385165f52600a60205260405f20848060a01b036020611057868a612b41565b510151165f5260205260405f20848060a01b036110748589612b41565b5151165f5260205260405f205580600e5586610e69565b6004546110de936001600160a01b0391821691604091906110ac868a612b41565b51518351631172801960e31b815291166001600160a01b03166004820152602481019190915294859081906044820190565b0381845afa9081156102d3576004945f92611165575b5060209060405195868092631a12cd4760e01b82525afa9384156102d3575f9461112f575b506111276001948592612c3a565b935050610f73565b93506020843d60201161115d575b8161114a602093836128dd565b8101031261019257925192611127611119565b3d915061113d565b60209192506111829060403d604011610aa657610a9681836128dd565b5091906110f4565b90506001600160a01b0361119e8488612b41565b51516080909201516001600160a01b03169116141587610f6d565b5060019250611023565b5050600191506109b1565b6111f191945060e03d60e0116111f8575b6111e981836128dd565b810190612b69565b928761069a565b503d6111df565b43905583610646565b9050431085610640565b43905583610619565b60c0602085840301126101925760405190611235826128c2565b61123e85612b19565b825261124c60208601612b19565b602083015260408501516040830152606085015160608301526080808601519083015260a090818601519260028410156101925760c0936020938201528152019301926105dc565b6344b2176f60e11b03611f815781518201916020830190602081850312610192576020810151906001600160401b03821161019257019080603f83011215610192576020820151906112e582612b02565b926112f360405194856128dd565b8284526020840190604061016080950282010192831161019257604001905b828210611eae57505050506001600160a01b0382165f9081526005602090815260408083206003845290915290206008810180549194509192919015611ea5575b506001600160a01b0381165f90815260066020526040902060080180548015908115611e9b575b50611e92575b505f5b82518110156101605780606061139b60249386612b41565b5101516002546040516315dfb15960e11b81524660048201529360e09185919082906001600160a01b03165afa9283156102d3575f93611e71575b506001600160a01b0360206113eb8488612b41565b510151169260a06113fc8488612b41565b5151602460405180978193632c3c915760e01b835260048301525afa9384156102d3575f94611dbf575b506001600160801b0360a061143b8589612b41565b510151166117c9575b6001600160801b0360c06114588589612b41565b510151166114e4575b5060019250806003870155828060a01b0384165f52600660205280600360405f2001805482116114dc575b5050600760205260405f2060035f5260205260405f20838060a01b0360206114b48589612b41565b510151165f5260205260405f20905f5260205260405f208260ff198254161790555b01611383565b55808761148c565b6010548211156117be576001600160a01b038581165f9081526012602090815260409091209190611515868a612b41565b510151165f5260205260405f2061152c8488612b41565b51515f5260205260405f20546001600160801b0360c061154c868a612b41565b5101511681116117b357611577906001600160801b0360c061156e878b612b41565b51015116612c06565b60209094015160608201516001600160a01b03918216929116821415908161179b575b506116bc575b5060036001937fcd1438edb4d66dadd7e5d7c3e91cfab2c5d6b71a3911a01d2dbb0aee82f2b6fb8589016115d5838254612c75565b815560068a01906115e68254612c82565b8255878060a01b0389165f5260066020528760405f2001611608858254612c75565b9055878060a01b0389165f526006602052600660405f200161162a8154612c82565b90555490546040805194855260208501929092529083015260a086901b869003871691606090a35b6001600160801b0360c06116668488612b41565b51015116838060a01b0385165f52601260205260405f20848060a01b03602061168f868a612b41565b510151165f5260205260405f206116a68488612b41565b51515f5260205260405f20558060105586611461565b6004805460408051631172801960e31b81526001600160a01b03948516938101939093526024830196909652909491169084604481845afa9081156102d3576004945f92611776575b5060209060405195868092631a12cd4760e01b82525afa9384156102d3575f94611740575b50611739600194600392612c3a565b93506115a0565b93506020843d60201161176e575b8161175b602093836128dd565b810103126101925792519261173961172a565b3d915061174e565b60209192506117939060403d604011610aa657610a9681836128dd565b509190611705565b608001516001600160a01b031682141590508861159a565b505060019250611652565b5050600191506114d6565b600f548211156117be576001600160a01b038581165f90815260116020908152604090912091906117fa868a612b41565b510151165f5260205260405f206118118488612b41565b51515f5260205260405f20546001600160801b0360a0611831868a612b41565b5101511610611b3c576118a56001600160801b0360a0611851868a612b41565b5101511660018060a01b0387165f52601160205260405f2060018060a01b03602061187c888c612b41565b510151165f5260205260405f20611893868a612b41565b51515f5260205260405f205490612c06565b61014087856001600160801b03836118bd8385612b41565b5101511615611b3257611902936001600160801b036101206118e36118ed948396612b41565b5101511690612c27565b916118f8878b612b41565b5101511690612c3a565b845160608301516001600160a01b03918216911681141580611b1b575b611a40575b50806119336003928a54612c75565b89557fe8cc2ad0d253330825986983bb2c50a071aea72c26e8d12c57ef620521a395f260058a016119648154612c82565b815560018060a01b0389165f52600660205260405f20611985848254612c75565b90556001600160a01b0389165f90815260066020526040902060050180546119ac90612c82565b90558a549054604080519485526020850192909252908301526001600160a01b03881691606090a35b6001600160801b0360a06119e98589612b41565b5101511660018060a01b0386165f52601160205260405f2060018060a01b036020611a14878b612b41565b510151165f5260205260405f20611a2b8589612b41565b51515f5260205260405f205581600f55611444565b6004805460408051631172801960e31b81526001600160a01b03948516938101939093526024830194909452909291169082604481845afa9182156102d3575f92611af3575b50602060049160405192838092631a12cd4760e01b82525afa9081156102d3575f91611ac0575b50611aba90600392612c3a565b90611924565b90506020813d602011611aeb575b81611adb602093836128dd565b8101031261019257516003611aad565b3d9150611ace565b6004919250611b1260209160403d604011610aa657610a9681836128dd565b50929150611a86565b5060808301516001600160a01b031681141561191f565b505050505f611902565b6001600160a01b038581165f9081526011602090815260409091209190611b63868a612b41565b510151165f5260205260405f20611b7a8488612b41565b51515f52602052611ba760405f20546001600160801b0360a0611b9d878b612b41565b5101511690612c06565b61014087856001600160801b0383611bbf8385612b41565b5101511615611db557611be5936001600160801b036101206118e36118ed948396612b41565b845160608301516001600160a01b03918216911681141580611d9e575b611cc3575b506003907f31f0599cb346617eb2bc74c0f970dd6ff140513cc0646449a2e54c23d19e401c60028a01611c3b838254612c75565b8155600790818c0191611c4e8354612c82565b835560018060a01b038b165f526006602052600260405f2001611c72868254612c75565b90556001600160a01b038b165f908152600660205260409020018054611c9790612c82565b9055549054604080519485526020850192909252908301526001600160a01b03881691606090a36119d5565b6004805460408051631172801960e31b81526001600160a01b03948516938101939093526024830194909452909291169082604481845afa9182156102d3575f92611d76575b50602060049160405192838092631a12cd4760e01b82525afa9081156102d3575f91611d43575b50611d3d90600392612c3a565b90611c07565b90506020813d602011611d6e575b81611d5e602093836128dd565b8101031261019257516003611d30565b3d9150611d51565b6004919250611d9560209160403d604011610aa657610a9681836128dd565b50929150611d09565b5060808301516001600160a01b0316811415611c02565b505050505f611be5565b90935060a0813d60a011611e69575b81611ddb60a093836128dd565b8101031261019257604051908160a08101106001600160401b0360a084011117611e555760a08201604052611e0f81612b19565b8252611e1d60208201612b19565b6020830152611e2e60408201612b19565b6040830152611e3f60608201612b19565b6060830152608080910151908201529287611426565b634e487b7160e01b5f52604160045260245ffd5b3d9150611dce565b611e8b91935060e03d60e0116111f8576111e981836128dd565b91866113d6565b43905583611380565b905043108561137a565b43905583611353565b83602083890301126101925760405190848201908282106001600160401b03831117611e5557859260209260405284518152611eeb838601612b19565b8382015260408501516040820152606085015160608201526080808601519082015260a0611f1a818701612b2d565b9082015260c0611f2b818701612b2d565b90820152611f3b60e08601612b2d565b60e0820152610100611f4e818701612b2d565b90820152610120611f60818701612b2d565b90820152610140611f72818701612b2d565b90820152815201910190611312565b60405162461bcd60e51b815260206004820152601060248201526f24b73b30b634b21039b2b632b1ba37b960811b6044820152606490fd5b60405162461bcd60e51b8152602060048201526024808201527f4f6e6c792076657269666965722063616e2063616c6c20746869732066756e636044820152633a34b7b760e11b6064820152608490fd5b34610192575f36600319011261019257604051604081018181106001600160401b03821117611e55576040526005815260406020820191640352e302e360dc1b83528151928391602083525180918160208501528484015e5f828201840152601f01601f19168101030190f35b34610192575f366003190112610192575f546040516001600160a01b039091168152602090f35b34610192575f366003190112610192576002546040516001600160a01b039091168152602090f35b34610192576080366003190112610192576120df612845565b602435906007821015610192576121126120f761285b565b9260018060a01b038093165f52600760205260405f206129c0565b91165f5260205260405f206064355f52602052602060ff60405f2054166040519015158152f35b34610192575f366003190112610192575f546001600160a01b03811633810361017a575f916001600160601b0360a01b1682557f8be0079c531659141344cd1fd0a4f28419497f9722a3daafe3b4186f6b6457e08280a3005b34610192576020366003190112610192576004356007811015610192576121ba604091612a4f565b82519182526020820152f35b34610192576020366003190112610192576121df612845565b5f546001600160a01b0391908216330361017a57811690811561223857600154826001600160601b0360a01b821617600155167f0243549a92b2412f7a3caf7a2e56d65b8821b91345363faa5f57195384065fcc5f80a3005b60405162461bcd60e51b815260206004820152601f60248201527f56657269666965722063616e6e6f74206265207a65726f2061646472657373006044820152606490fd5b3461019257602036600319011261019257612296612845565b5f546001600160a01b0391908216330361017a5781169081156122ef57600454826001600160601b0360a01b821617600455167f56b5f80d8cac1479698aa7d01605fd6111e90b15fc4d2b377417f46034876cbd5f80a3005b60405162461bcd60e51b815260206004820152602360248201527f5072696365206f7261636c652063616e6e6f74206265207a65726f206164647260448201526265737360e81b6064820152608490fd5b34610192575f366003190112610192577f00000000000000000000000000000000000000000000000000000000000000006001600160a01b031630036123aa5760206040517f360894a13ba1a3210667c828492db98dca3e2076cc3735a920a3ca505d382bbc8152f35b60405163703e46dd60e11b8152600490fd5b34610192576020366003190112610192576123d5612845565b6123dd612a05565b5060018060a01b03165f52600660205261014060405f20600960405191610478836128a6565b604036600319011261019257612417612845565b6024356001600160401b03811161019257612436903690600401612919565b906001600160a01b037f000000000000000000000000000000000000000000000000000000000000000081163081149081156125f0575b506123aa57805f5416330361017a576040516352d1902d60e01b8152908216916020918281600481875afa5f91816125c1575b506124be57604051634c9c8ce360e01b815260048101859052602490fd5b9284937f360894a13ba1a3210667c828492db98dca3e2076cc3735a920a3ca505d382bbc908181036125a95750823b156125905780546001600160a01b03191682179055604051907fbc7cd75a20ee27fd9adebab32041f755214dbc6bffa90cc0225b39da2e5c2d3b5f80a283511561257657505f80848461016096519101845af4903d1561256d573d612551816128fe565b9061255f60405192836128dd565b81525f81943d92013e613a3f565b60609250613a3f565b925050503461258157005b63b398979f60e01b8152600490fd5b604051634c9c8ce360e01b815260048101839052602490fd5b60249060405190632a87526960e21b82526004820152fd5b9091508381813d83116125e9575b6125d981836128dd565b81010312610192575190866124a0565b503d6125cf565b9050817f360894a13ba1a3210667c828492db98dca3e2076cc3735a920a3ca505d382bbc541614158461246d565b34610192575f366003190112610192576001546040516001600160a01b039091168152602090f35b34610192575f366003190112610192576004546040516001600160a01b039091168152602090f35b346101925761267c36612871565b9160018060a01b038091165f52601160205260405f2091165f5260205260405f20905f52602052602060405f2054604051908152f35b346101925760a0366003190112610192576126cb612845565b6001600160a01b03602435818116939290849003610192576126eb61285b565b9160643592818416809403610192576084359582871696878103610192577ff0c57e16840df040f15088dc2f81fe391c3923bec73e23a9662efc9c229c6a0097885460ff8160401c1615986001600160401b0382168015908161283d575b6001149081612833575b15908161282a575b5061281b575067ffffffffffffffff1981166001178a55886127fc575b50156101625761278790612abc565b826001600160601b0360a01b94168460015416176001558360025416176002551681600354161760035560045416176004556127bf57005b68ff00000000000000001981541690557fc7f505b2f371ae2175ee4913f4499e1f2633a7b5936321eed1cdaeb6115181d2602060405160018152a1005b68ffffffffffffffffff19166801000000000000000117895589612778565b63f92ee8a960e01b8152600490fd5b9050158c61275b565b303b159150612753565b8b9150612749565b600435906001600160a01b038216820361019257565b604435906001600160a01b038216820361019257565b6060906003190112610192576001600160a01b0390600435828116810361019257916024359081168103610192579060443590565b61014081019081106001600160401b03821117611e5557604052565b60c081019081106001600160401b03821117611e5557604052565b90601f801991011681019081106001600160401b03821117611e5557604052565b6001600160401b038111611e5557601f01601f191660200190565b81601f8201121561019257803590612930826128fe565b9261293e60405194856128dd565b8284526020838301011161019257815f926020809301838601378301015290565b805182526020810151602083015260408101516040830152606081015160608301526080810151608083015260a081015160a083015260c081015160c083015260e081015160e0830152610100808201519083015261012080910151910152565b90600781101561028d575f5260205260405f2090565b6040906003190112610192576004356001600160a01b0381168103610192579060243560078110156101925790565b60405190612a12826128a6565b5f610120838281528260208201528260408201528260608201528260808201528260a08201528260c08201528260e0820152826101008201520152565b5f905f90600781101561028d5780612a6e57505050600b5490600c5490565b60018103612a8357505050600d5490600e5490565b91929091600314612a9057565b915050600f549060105490565b9190826040910312610192576020825192015160048110156101925790565b5f80546001600160a01b039283166001600160a01b03198216811783559216907f8be0079c531659141344cd1fd0a4f28419497f9722a3daafe3b4186f6b6457e09080a3565b6001600160401b038111611e555760051b60200190565b51906001600160a01b038216820361019257565b51906001600160801b038216820361019257565b8051821015612b555760209160051b010190565b634e487b7160e01b5f52603260045260245ffd5b908160e0910312610192576040519060e082018281106001600160401b03821117611e5557612bfe9160c091604052612ba181612b19565b8452612baf60208201612b19565b6020850152612bc060408201612b19565b6040850152612bd160608201612b19565b6060850152612be260808201612b19565b6080850152612bf360a08201612b19565b60a085015201612b19565b60c082015290565b91908203918211612c1357565b634e487b7160e01b5f52601160045260245ffd5b81810292918115918404141715612c1357565b8115612c44570490565b634e487b7160e01b5f52601260045260245ffd5b919082604091031261019257612c72602083519301612b19565b90565b91908201809211612c1357565b5f198114612c135760010190565b51600281101561028d5790565b908160c091031261019257612d0f60a060405192612cba846128c2565b612cc381612b19565b8452612cd160208201612b19565b6020850152612ce260408201612b19565b6040850152612cf360608201612b19565b6060850152612d0460808201612b19565b608085015201612b19565b60a082015290565b15612d1e57565b60405162461bcd60e51b815260206004820152601760248201527f496e76616c696420436f6d706f756e642063546f6b656e0000000000000000006044820152606490fd5b51600381101561028d5790565b15612d7757565b60405162461bcd60e51b815260206004820152601260248201527124b73b30b634b21020b0bb32903a37b5b2b760711b6044820152606490fd5b909182518301926020840190602081860312610192576020810151906001600160401b03821161019257019080603f8301121561019257602082015191612df783612b02565b95612e0560405197886128dd565b8387526020870191604060c080960282010193841161019257604001915b8383106139c857505050506001600160a01b0383165f90815260056020908152604080832083805290915290206008810180549195925090156139bf575b506001600160a01b0383165f908152600660205260409020600801805480159081156139b5575b506139ac575b505f5b81518110156139a5576060612ea68284612b41565b51015160a0612ec081612eb98587612b41565b5101612d63565b600381101561028d576001036135ae575090600b548211156135a557600254604051635466e24d60e01b81526001600160a01b039091169290602081600481875afa9081156102d3575f9161356b575b5060206001600160a01b03612f258588612b41565b51516040516301b2848560e51b81529116600482015291829060249082906001600160a01b03165afa9081156102d3575f91613526575b5060249360e091612f91906001600160a01b036020612f7b888b612b41565b5101516001600160a01b03909216911614612d70565b6040516315dfb15960e11b815246600482015294859182905afa9283156102d3575f93613505575b506001600160a01b038681165f9081526008602090815260409091209190612fe18588612b41565b510151165f5260205260405f20546080612ffb8487612b41565b510151106132db5761303c60806130128487612b41565b5101516001600160a01b038881165f9081526008602090815260409091209190610815878a612b41565b926001600160a01b0361304f8487612b41565b515160608301516001600160a01b03169116141590816132ac575b506131df575b5f8361307f6001958a54612c75565b89557fe8cc2ad0d253330825986983bb2c50a071aea72c26e8d12c57ef620521a395f260058a016130b08154612c82565b8155868060a01b038a1684526006602052604084206130d0848254612c75565b9055868060a01b038a1684526006602052600560408520016130f28154612c82565b90558a5490546040805194855260208501929092529083015260a086901b869003891691606090a35b60806131278386612b41565b510151838060a01b0387165f52600860205260405f20848060a01b03602061314f8689612b41565b510151165f5260205260405f205580600b555b806003880155828060a01b0386165f52600660205280600360405f2001805482116131d7575b5050600760205260405f205f805260205260405f20838060a01b0360206131af8588612b41565b510151165f5260205260405f20905f5260205260405f208260ff198254161790555b01612e91565b55805f613188565b600454613200936001600160a01b0391821691604091906110ac8689612b41565b0381845afa9081156102d3576004945f92613287575b5060209060405195868092631a12cd4760e01b82525afa9384156102d3575f94613251575b506132496001945f92612c3a565b935050613070565b93506020843d60201161327f575b8161326c602093836128dd565b810103126101925792519261324961323b565b3d915061325f565b60209192506132a49060403d604011610aa657610a9681836128dd565b509190613216565b90506001600160a01b036132c08487612b41565b51516080909201516001600160a01b0316911614155f61306a565b6001600160a01b038681165f90815260086020908152604090912091906133028588612b41565b510151165f5260205261331f60405f20546080610b098588612b41565b926001600160a01b036133328487612b41565b515160608301516001600160a01b03169116141590816134d6575b50613409575b5f6001937f31f0599cb346617eb2bc74c0f970dd6ff140513cc0646449a2e54c23d19e401c60028a01613387838254612c75565b8155600790818c019161339a8354612c82565b8355888060a01b038c1686526006602052600260408720016133bd868254612c75565b9055888060a01b038c168652600660205260408620016133dd8154612c82565b90555490546040805194855260208501929092529083015260a086901b869003891691606090a361311b565b60045461342a936001600160a01b0391821691604091906110ac8689612b41565b0381845afa9081156102d3576004945f926134b1575b5060209060405195868092631a12cd4760e01b82525afa9384156102d3575f9461347b575b506134736001945f92612c3a565b935050613353565b93506020843d6020116134a9575b81613496602093836128dd565b8101031261019257925192613473613465565b3d9150613489565b60209192506134ce9060403d604011610aa657610a9681836128dd565b509190613440565b90506001600160a01b036134ea8487612b41565b51516080909201516001600160a01b0316911614155f61334d565b61351f91935060e03d60e0116111f8576111e981836128dd565b915f612fb9565b90506020813d602011613563575b81613541602093836128dd565b8101031261019257602493612f9161355a60e093612b19565b92505093612f5c565b3d9150613534565b90506020813d60201161359d575b81613586602093836128dd565b810103126101925761359790612b19565b5f612f10565b3d9150613579565b600191506131d1565b6135bc81612eb98587612b41565b600381101561028d57613976575090600c548211156135a557600254604051635466e24d60e01b81526001600160a01b039091169290602081600481875afa9081156102d3575f9161393c575b5060206001600160a01b0361361e8588612b41565b515160405163cff027d960e01b81529116600482015291829060249082906001600160a01b03165afa9081156102d3575f916138f7575b5060249360e091613674906001600160a01b036020612f7b888b612b41565b6040516315dfb15960e11b815246600482015294859182905afa9283156102d3575f936138d6575b5060806136a98386612b41565b510151926001600160a01b036136bf8487612b41565b515160608301516001600160a01b03169116141590816138a7575b506137da575b5f6001937fcd1438edb4d66dadd7e5d7c3e91cfab2c5d6b71a3911a01d2dbb0aee82f2b6fb858a01613713838254612c75565b815560068b01906137248254612c82565b8255878060a01b038b1685526006602052876040862001613746858254612c75565b9055878060a01b038b1685526006602052600660408620016137688154612c82565b90555490546040805194855260208501929092529083015260a086901b869003891691606090a3608061379b8386612b41565b510151838060a01b0387165f52600860205260405f20848060a01b0360206137c38689612b41565b510151165f5260205260405f205580600c55613162565b6004546137fb936001600160a01b0391821691604091906110ac8689612b41565b0381845afa9081156102d3576004945f92613882575b5060209060405195868092631a12cd4760e01b82525afa9384156102d3575f9461384c575b506138446001945f92612c3a565b9350506136e0565b93506020843d60201161387a575b81613867602093836128dd565b8101031261019257925192613844613836565b3d915061385a565b602091925061389f9060403d604011610aa657610a9681836128dd565b509190613811565b90506001600160a01b036138bb8487612b41565b51516080909201516001600160a01b0316911614155f6136da565b6138f091935060e03d60e0116111f8576111e981836128dd565b915f61369c565b90506020813d602011613934575b81613912602093836128dd565b810103126101925760249361367461392b60e093612b19565b92505093613655565b3d9150613905565b90506020813d60201161396e575b81613957602093836128dd565b810103126101925761396890612b19565b5f613609565b3d915061394a565b61398490612eb98486612b41565b600381101561028d5760021461399d5790600191613162565b505050915050565b5050915050565b4390555f612e8e565b905043105f612e88565b4390555f612e61565b846020848403011261019257604051906139e1826128c2565b6139ea84612b19565b82526139f860208501612b19565b602083015260408401516040830152606080850151908301526080808501519083015260a09081850151926003841015610192578793602093820152815201920191612e23565b90613a665750805115613a5457805190602001fd5b604051630a12f52160e11b8152600490fd5b81511580613a99575b613a77575090565b604051639996b31560e01b81526001600160a01b039091166004820152602490fd5b50803b15613a6f56fea264697066735822122079e97acdbcc26e333751bd00092bf5e9b0c9c0c54891239fad8afe364a09f24764736f6c63430008190033","linkReferences":{}},"methodIdentifiers":{"UPGRADE_INTERFACE_VERSION()":"ad3cb1cc","_latestMorphoBorrowAmount(address,address,bytes32)":"22d7091c","_latestMorphoCollateralAmount(address,address,bytes32)":"caf65793","calculateCreditScore(address)":"f1c3753a","calculateCreditScorePerProtocol(address,uint8)":"d242e241","creditScoreCalculator()":"ece017fb","getCreditScore(address)":"d3dd2bdf","getCreditScorePerProtocol(address,uint8)":"ee0457ff","initialize(address,address,address,address,address)":"1459457a","isClaimedBlock(address,uint8,address,uint256)":"74132f0d","latestProtocolBlockNumbers(uint8)":"6ae9abe9","owner()":"8da5cb5b","priceOracle()":"2630c12f","processClaim(address,bytes4,bytes)":"bb06c10e","proxiableUUID()":"52d1902d","registry()":"7b103999","renounceOwnership()":"715018a6","setPriceOracle(address)":"530e784f","setVerifier(address)":"5437988d","totals(address)":"4ffe34db","transferOwnership(address)":"f2fde38b","upgradeToAndCall(address,bytes)":"4f1ef286","usersInfo(address,uint8)":"c9579ee8","verifier()":"2b7ac3f3"},"id":81}