{"abi":[{"type":"function","name":"crossChainBalanceOf","inputs":[{"name":"_owner","type":"address","internalType":"address"},{"name":"tokens","type":"tuple[]","internalType":"struct Erc20Token[]","components":[{"name":"underlingTokenAddress","type":"address","internalType":"address"},{"name":"aTokenAddress","type":"address","internalType":"address"},{"name":"chainId","type":"uint256","internalType":"uint256"},{"name":"blockNumber","type":"uint256","internalType":"uint256"},{"name":"balance","type":"uint256","internalType":"uint256"},{"name":"tokenType","type":"uint8","internalType":"enum TokenType"}]}],"outputs":[{"name":"","type":"tuple","internalType":"struct Proof","components":[{"name":"seal","type":"tuple","internalType":"struct Seal","components":[{"name":"verifierSelector","type":"bytes4","internalType":"bytes4"},{"name":"seal","type":"bytes32[8]","internalType":"bytes32[8]"},{"name":"mode","type":"uint8","internalType":"enum ProofMode"}]},{"name":"callGuestId","type":"bytes32","internalType":"bytes32"},{"name":"length","type":"uint256","internalType":"uint256"},{"name":"callAssumptions","type":"tuple","internalType":"struct CallAssumptions","components":[{"name":"proverContractAddress","type":"address","internalType":"address"},{"name":"functionSelector","type":"bytes4","internalType":"bytes4"},{"name":"settleChainId","type":"uint256","internalType":"uint256"},{"name":"settleBlockNumber","type":"uint256","internalType":"uint256"},{"name":"settleBlockHash","type":"bytes32","internalType":"bytes32"}]}]},{"name":"","type":"address","internalType":"address"},{"name":"","type":"tuple[]","internalType":"struct Erc20Token[]","components":[{"name":"underlingTokenAddress","type":"address","internalType":"address"},{"name":"aTokenAddress","type":"address","internalType":"address"},{"name":"chainId","type":"uint256","internalType":"uint256"},{"name":"blockNumber","type":"uint256","internalType":"uint256"},{"name":"balance","type":"uint256","internalType":"uint256"},{"name":"tokenType","type":"uint8","internalType":"enum TokenType"}]}],"stateMutability":"nonpayable"},{"type":"function","name":"proof","inputs":[],"outputs":[{"name":"","type":"tuple","internalType":"struct Proof","components":[{"name":"seal","type":"tuple","internalType":"struct Seal","components":[{"name":"verifierSelector","type":"bytes4","internalType":"bytes4"},{"name":"seal","type":"bytes32[8]","internalType":"bytes32[8]"},{"name":"mode","type":"uint8","internalType":"enum ProofMode"}]},{"name":"callGuestId","type":"bytes32","internalType":"bytes32"},{"name":"length","type":"uint256","internalType":"uint256"},{"name":"callAssumptions","type":"tuple","internalType":"struct CallAssumptions","components":[{"name":"proverContractAddress","type":"address","internalType":"address"},{"name":"functionSelector","type":"bytes4","internalType":"bytes4"},{"name":"settleChainId","type":"uint256","internalType":"uint256"},{"name":"settleBlockNumber","type":"uint256","internalType":"uint256"},{"name":"settleBlockHash","type":"bytes32","internalType":"bytes32"}]}]}],"stateMutability":"pure"},{"type":"function","name":"proveAaveData","inputs":[{"name":"_owner","type":"address","internalType":"address"},{"name":"tokens","type":"tuple[]","internalType":"struct Erc20Token[]","components":[{"name":"underlingTokenAddress","type":"address","internalType":"address"},{"name":"aTokenAddress","type":"address","internalType":"address"},{"name":"chainId","type":"uint256","internalType":"uint256"},{"name":"blockNumber","type":"uint256","internalType":"uint256"},{"name":"balance","type":"uint256","internalType":"uint256"},{"name":"tokenType","type":"uint8","internalType":"enum TokenType"}]}],"outputs":[{"name":"","type":"tuple","internalType":"struct Proof","components":[{"name":"seal","type":"tuple","internalType":"struct Seal","components":[{"name":"verifierSelector","type":"bytes4","internalType":"bytes4"},{"name":"seal","type":"bytes32[8]","internalType":"bytes32[8]"},{"name":"mode","type":"uint8","internalType":"enum ProofMode"}]},{"name":"callGuestId","type":"bytes32","internalType":"bytes32"},{"name":"length","type":"uint256","internalType":"uint256"},{"name":"callAssumptions","type":"tuple","internalType":"struct CallAssumptions","components":[{"name":"proverContractAddress","type":"address","internalType":"address"},{"name":"functionSelector","type":"bytes4","internalType":"bytes4"},{"name":"settleChainId","type":"uint256","internalType":"uint256"},{"name":"settleBlockNumber","type":"uint256","internalType":"uint256"},{"name":"settleBlockHash","type":"bytes32","internalType":"bytes32"}]}]},{"name":"","type":"address","internalType":"address"},{"name":"","type":"tuple[]","internalType":"struct Erc20Token[]","components":[{"name":"underlingTokenAddress","type":"address","internalType":"address"},{"name":"aTokenAddress","type":"address","internalType":"address"},{"name":"chainId","type":"uint256","internalType":"uint256"},{"name":"blockNumber","type":"uint256","internalType":"uint256"},{"name":"balance","type":"uint256","internalType":"uint256"},{"name":"tokenType","type":"uint8","internalType":"enum TokenType"}]}],"stateMutability":"nonpayable"},{"type":"function","name":"proveCompoundData","inputs":[{"name":"_owner","type":"address","internalType":"address"},{"name":"tokens","type":"tuple[]","internalType":"struct CToken[]","components":[{"name":"collateralAddress","type":"address","internalType":"address"},{"name":"cTokenAddress","type":"address","internalType":"address"},{"name":"chainId","type":"uint256","internalType":"uint256"},{"name":"blockNumber","type":"uint256","internalType":"uint256"},{"name":"balance","type":"uint256","internalType":"uint256"},{"name":"tokenType","type":"uint8","internalType":"enum CTokenType"}]}],"outputs":[{"name":"","type":"tuple","internalType":"struct Proof","components":[{"name":"seal","type":"tuple","internalType":"struct Seal","components":[{"name":"verifierSelector","type":"bytes4","internalType":"bytes4"},{"name":"seal","type":"bytes32[8]","internalType":"bytes32[8]"},{"name":"mode","type":"uint8","internalType":"enum ProofMode"}]},{"name":"callGuestId","type":"bytes32","internalType":"bytes32"},{"name":"length","type":"uint256","internalType":"uint256"},{"name":"callAssumptions","type":"tuple","internalType":"struct CallAssumptions","components":[{"name":"proverContractAddress","type":"address","internalType":"address"},{"name":"functionSelector","type":"bytes4","internalType":"bytes4"},{"name":"settleChainId","type":"uint256","internalType":"uint256"},{"name":"settleBlockNumber","type":"uint256","internalType":"uint256"},{"name":"settleBlockHash","type":"bytes32","internalType":"bytes32"}]}]},{"name":"","type":"address","internalType":"address"},{"name":"","type":"tuple[]","internalType":"struct CToken[]","components":[{"name":"collateralAddress","type":"address","internalType":"address"},{"name":"cTokenAddress","type":"address","internalType":"address"},{"name":"chainId","type":"uint256","internalType":"uint256"},{"name":"blockNumber","type":"uint256","internalType":"uint256"},{"name":"balance","type":"uint256","internalType":"uint256"},{"name":"tokenType","type":"uint8","internalType":"enum CTokenType"}]}],"stateMutability":"nonpayable"},{"type":"function","name":"proveFluidIOData","inputs":[{"name":"_owner","type":"address","internalType":"address"},{"name":"tokens","type":"tuple[]","internalType":"struct Erc20Token[]","components":[{"name":"underlingTokenAddress","type":"address","internalType":"address"},{"name":"aTokenAddress","type":"address","internalType":"address"},{"name":"chainId","type":"uint256","internalType":"uint256"},{"name":"blockNumber","type":"uint256","internalType":"uint256"},{"name":"balance","type":"uint256","internalType":"uint256"},{"name":"tokenType","type":"uint8","internalType":"enum TokenType"}]}],"outputs":[{"name":"","type":"tuple","internalType":"struct Proof","components":[{"name":"seal","type":"tuple","internalType":"struct Seal","components":[{"name":"verifierSelector","type":"bytes4","internalType":"bytes4"},{"name":"seal","type":"bytes32[8]","internalType":"bytes32[8]"},{"name":"mode","type":"uint8","internalType":"enum ProofMode"}]},{"name":"callGuestId","type":"bytes32","internalType":"bytes32"},{"name":"length","type":"uint256","internalType":"uint256"},{"name":"callAssumptions","type":"tuple","internalType":"struct CallAssumptions","components":[{"name":"proverContractAddress","type":"address","internalType":"address"},{"name":"functionSelector","type":"bytes4","internalType":"bytes4"},{"name":"settleChainId","type":"uint256","internalType":"uint256"},{"name":"settleBlockNumber","type":"uint256","internalType":"uint256"},{"name":"settleBlockHash","type":"bytes32","internalType":"bytes32"}]}]},{"name":"","type":"address","internalType":"address"},{"name":"","type":"tuple[]","internalType":"struct Erc20Token[]","components":[{"name":"underlingTokenAddress","type":"address","internalType":"address"},{"name":"aTokenAddress","type":"address","internalType":"address"},{"name":"chainId","type":"uint256","internalType":"uint256"},{"name":"blockNumber","type":"uint256","internalType":"uint256"},{"name":"balance","type":"uint256","internalType":"uint256"},{"name":"tokenType","type":"uint8","internalType":"enum TokenType"}]}],"stateMutability":"nonpayable"},{"type":"function","name":"proveMorphoData","inputs":[{"name":"_owner","type":"address","internalType":"address"},{"name":"tokens","type":"tuple[]","internalType":"struct Erc20Token[]","components":[{"name":"underlingTokenAddress","type":"address","internalType":"address"},{"name":"aTokenAddress","type":"address","internalType":"address"},{"name":"chainId","type":"uint256","internalType":"uint256"},{"name":"blockNumber","type":"uint256","internalType":"uint256"},{"name":"balance","type":"uint256","internalType":"uint256"},{"name":"tokenType","type":"uint8","internalType":"enum TokenType"}]}],"outputs":[{"name":"","type":"tuple","internalType":"struct Proof","components":[{"name":"seal","type":"tuple","internalType":"struct Seal","components":[{"name":"verifierSelector","type":"bytes4","internalType":"bytes4"},{"name":"seal","type":"bytes32[8]","internalType":"bytes32[8]"},{"name":"mode","type":"uint8","internalType":"enum ProofMode"}]},{"name":"callGuestId","type":"bytes32","internalType":"bytes32"},{"name":"length","type":"uint256","internalType":"uint256"},{"name":"callAssumptions","type":"tuple","internalType":"struct CallAssumptions","components":[{"name":"proverContractAddress","type":"address","internalType":"address"},{"name":"functionSelector","type":"bytes4","internalType":"bytes4"},{"name":"settleChainId","type":"uint256","internalType":"uint256"},{"name":"settleBlockNumber","type":"uint256","internalType":"uint256"},{"name":"settleBlockHash","type":"bytes32","internalType":"bytes32"}]}]},{"name":"","type":"address","internalType":"address"},{"name":"","type":"tuple[]","internalType":"struct Erc20Token[]","components":[{"name":"underlingTokenAddress","type":"address","internalType":"address"},{"name":"aTokenAddress","type":"address","internalType":"address"},{"name":"chainId","type":"uint256","internalType":"uint256"},{"name":"blockNumber","type":"uint256","internalType":"uint256"},{"name":"balance","type":"uint256","internalType":"uint256"},{"name":"tokenType","type":"uint8","internalType":"enum TokenType"}]}],"stateMutability":"nonpayable"},{"type":"function","name":"setBlock","inputs":[{"name":"blockNo","type":"uint256","internalType":"uint256"}],"outputs":[],"stateMutability":"nonpayable"},{"type":"function","name":"setChain","inputs":[{"name":"chainId","type":"uint256","internalType":"uint256"},{"name":"blockNo","type":"uint256","internalType":"uint256"}],"outputs":[],"stateMutability":"nonpayable"}],"bytecode":{"object":"0x60808060405234601557610b1c908161001a8239f35b5f80fdfe60406080815260049081361015610014575f80fd5b5f3560e01c80630686662d1461016f57806310dcfe73146101745780636590f3fb146100d45780637b450eea1461016f57806387cea3ae146100d95780638c8fff05146100d4578063faf924cf146100975763ffbc563814610074575f80fd5b346100935736600319011261009357610091906024359035610a8c565b005b5f80fd5b5034610093575f36600319011261009357610220906100b4610952565b506100bd610952565b506100d26100c9610952565b915180926106e4565bf35b610940565b509034610093576020366003190112610093578151906343e751d760e11b82528035908201526020816024815f7376dc9aa45aa006a0f63942d8f9f21bd4537972a35af19081156101655761009192505f91610136575b50610a40565b610158915060203d60201161015e575b610150818361058d565b810190610a28565b5f610130565b503d610146565b82513d5f823e3d90fd5b610835565b5090346100935781600319360112610093576001600160a01b0390803582811691908290036100935760249182359067ffffffffffffffff9384831161009357366023840112156100935782840135956101cd876105af565b956101da8951978861058d565b87875260209485880190818560c0809c0283010191368311610093578601905b8282106104da5750505061020c610952565b505f5b885181101561041e578a908787878b888e6102468861022e89846109ec565b510151606061023d8a856109ec565b51015190610a8c565b60a08061025389846109ec565b51015161025f816106c6565b610268816106c6565b6102f157506102788787926109ec565b5101511695519586938492630dd3126d60e21b84528301525afa80156102e7575f906102b9575b6001925060806102af838d6109ec565b5101525b0161020f565b508782813d83116102e0575b6102cf818361058d565b81010312610093576001915161029f565b503d6102c5565b8c513d5f823e3d90fd5b8798969293945061030582986001936109ec565b510151610311816106c6565b61031a816106c6565b1461032e575b5050505050506001906102b3565b9061034c878260449594610342838b6109ec565b51015116976109ec565b5151169484519586948593632b92a07d60e01b85528401528b8301525afa9081156102e7575f916103a3575b50906001600160801b0360019251166080610393838d6109ec565b5101529050888b878a878b610320565b90508b81813d8311610417575b6103ba818361058d565b81010312610093578b51908c82018281108682111761040557916103f98a8f93600196956001600160801b0395526103f181610a14565b845201610a14565b8a820152919250610378565b8760418c634e487b7160e01b5f52525ffd5b503d6103b0565b5084839189888d8d61042e610952565b50610437610952565b50610440610952565b938251966102609061045589838101986106e4565b61022089015261024088015251809452610280860194965f925b85841061047c5787870388f35b90919293949585846001928b51868151168252868482015116848301528581015186830152606080820151908301526080808201519083015260a080910151906104c5826106c6565b8201520199019401929190979594939761046f565b8b82360312610093578c51906104ef8261055d565b6104f883610549565b82526105058a8401610549565b8a8301528d8084013590830152606080840135908301526080808401359083015260a09081840135926002841015610093578e938c938201528152019101906101fa565b35906001600160a01b038216820361009357565b60c0810190811067ffffffffffffffff82111761057957604052565b634e487b7160e01b5f52604160045260245ffd5b90601f8019910116810190811067ffffffffffffffff82111761057957604052565b67ffffffffffffffff81116105795760051b60200190565b906040916040600319820112610093576004356001600160a01b0381168103610093579260243567ffffffffffffffff8111610093578260238201121561009357806004013591610617836105af565b93610625604051958661058d565b8385526020916020860191602460c08097028601019481861161009357602401925b858410610658575050505050505090565b86848303126100935782519061066d8261055d565b61067685610549565b8252610683868601610549565b868301528385013584830152606080860135908301526080808601359083015260a090818601359260038410156100935789938893820152815201930192610647565b600211156106d057565b634e487b7160e01b5f52602160045260245ffd5b80519063ffffffff60e01b90818351168452602092838101518486015f905b6008821061077b57505050916060610200949260406080950151610726816106c6565b61012088015283810151610140880152604081015161016088015201519160018060a01b03835116610180870152820151166101a085015260408101516101c085015260608101516101e08501520151910152565b86806001928551815201930191019091610703565b610280906102606107a482828101956106e4565b6001600160a01b0394851661022083015261024082015284519283905201926020908101925f905b8382106107db57505050505090565b909192939485518281511682528285820151168583015260408082015190830152606080820151908301526080808201519083015260a0809101519060038210156106d05782015260c001948301939291600101906107cc565b3461009357610843366105c7565b61084b610952565b505f5b8151811015610911576040906108778261086883866109ec565b510151606061023d84876109ec565b6001600160a01b0391602080848161088f86896109ec565b51015184516370a0823160e01b8152968916600488015286916024918391165afa91821561090857505f916108d9575b506001925060806108d083866109ec565b5101520161084e565b905082813d8311610901575b6108ef818361058d565b8101031261009357600191515f6108bf565b503d6108e5565b513d5f823e3d90fd5b5061091a610952565b50610923610952565b5061093c61092f610952565b9160405193849384610790565b0390f35b346100935761094e366105c7565b6109115b6040908151608081019267ffffffffffffffff918085108386111761057957809460e08201818110858211176105795783525f815282516101008082018281108782111761057957855236823760a08301525f60c083015281525f60208201525f8282015281519260a08401908482109082111761057957825f91606094528185528160208601528401525f828401525f60808401520152565b8051821015610a005760209160051b010190565b634e487b7160e01b5f52603260045260245ffd5b51906001600160801b038216820361009357565b90816020910312610093575180151581036100935790565b15610a4757565b60405162461bcd60e51b815260206004820152601b60248201527f4661696c6564206368656174636f646520696e766f636174696f6e00000000006044820152606490fd5b9060405191631ff78ac760e31b8352600483015260248201526020816044815f7376dc9aa45aa006a0f63942d8f9f21bd4537972a35af18015610adb57610ad9915f916101365750610a40565b565b6040513d5f823e3d90fdfea26469706673582212202d9bc02a36699f324730411f661585ab2343fa1aa9006da762455fe9f6d5b93564736f6c63430008190033","linkReferences":{}},"methodIdentifiers":{"crossChainBalanceOf(address,(address,address,uint256,uint256,uint256,uint8)[])":"0686662d","proof()":"faf924cf","proveAaveData(address,(address,address,uint256,uint256,uint256,uint8)[])":"7b450eea","proveCompoundData(address,(address,address,uint256,uint256,uint256,uint8)[])":"10dcfe73","proveFluidIOData(address,(address,address,uint256,uint256,uint256,uint8)[])":"6590f3fb","proveMorphoData(address,(address,address,uint256,uint256,uint256,uint8)[])":"8c8fff05","setBlock(uint256)":"87cea3ae","setChain(uint256,uint256)":"ffbc5638"},"id":84}