{"abi":[{"type":"function","name":"proof","inputs":[],"outputs":[{"name":"","type":"tuple","internalType":"struct Proof","components":[{"name":"seal","type":"tuple","internalType":"struct Seal","components":[{"name":"verifierSelector","type":"bytes4","internalType":"bytes4"},{"name":"seal","type":"bytes32[8]","internalType":"bytes32[8]"},{"name":"mode","type":"uint8","internalType":"enum ProofMode"}]},{"name":"callGuestId","type":"bytes32","internalType":"bytes32"},{"name":"length","type":"uint256","internalType":"uint256"},{"name":"callAssumptions","type":"tuple","internalType":"struct CallAssumptions","components":[{"name":"proverContractAddress","type":"address","internalType":"address"},{"name":"functionSelector","type":"bytes4","internalType":"bytes4"},{"name":"settleChainId","type":"uint256","internalType":"uint256"},{"name":"settleBlockNumber","type":"uint256","internalType":"uint256"},{"name":"settleBlockHash","type":"bytes32","internalType":"bytes32"}]}]}],"stateMutability":"pure"},{"type":"function","name":"proveAaveData","inputs":[{"name":"_owner","type":"address","internalType":"address"},{"name":"tokens","type":"tuple[]","internalType":"struct Erc20Token[]","components":[{"name":"underlingTokenAddress","type":"address","internalType":"address"},{"name":"aTokenAddress","type":"address","internalType":"address"},{"name":"chainId","type":"uint256","internalType":"uint256"},{"name":"blockNumber","type":"uint256","internalType":"uint256"},{"name":"balance","type":"uint256","internalType":"uint256"},{"name":"tokenType","type":"uint8","internalType":"enum TokenType"}]}],"outputs":[{"name":"","type":"tuple","internalType":"struct Proof","components":[{"name":"seal","type":"tuple","internalType":"struct Seal","components":[{"name":"verifierSelector","type":"bytes4","internalType":"bytes4"},{"name":"seal","type":"bytes32[8]","internalType":"bytes32[8]"},{"name":"mode","type":"uint8","internalType":"enum ProofMode"}]},{"name":"callGuestId","type":"bytes32","internalType":"bytes32"},{"name":"length","type":"uint256","internalType":"uint256"},{"name":"callAssumptions","type":"tuple","internalType":"struct CallAssumptions","components":[{"name":"proverContractAddress","type":"address","internalType":"address"},{"name":"functionSelector","type":"bytes4","internalType":"bytes4"},{"name":"settleChainId","type":"uint256","internalType":"uint256"},{"name":"settleBlockNumber","type":"uint256","internalType":"uint256"},{"name":"settleBlockHash","type":"bytes32","internalType":"bytes32"}]}]},{"name":"","type":"address","internalType":"address"},{"name":"","type":"bytes4","internalType":"bytes4"},{"name":"","type":"bytes","internalType":"bytes"}],"stateMutability":"nonpayable"},{"type":"function","name":"proveCompoundData","inputs":[{"name":"_owner","type":"address","internalType":"address"},{"name":"tokens","type":"tuple[]","internalType":"struct CToken[]","components":[{"name":"collateralAddress","type":"address","internalType":"address"},{"name":"cTokenAddress","type":"address","internalType":"address"},{"name":"chainId","type":"uint256","internalType":"uint256"},{"name":"blockNumber","type":"uint256","internalType":"uint256"},{"name":"balance","type":"uint256","internalType":"uint256"},{"name":"tokenType","type":"uint8","internalType":"enum CTokenType"}]}],"outputs":[{"name":"","type":"tuple","internalType":"struct Proof","components":[{"name":"seal","type":"tuple","internalType":"struct Seal","components":[{"name":"verifierSelector","type":"bytes4","internalType":"bytes4"},{"name":"seal","type":"bytes32[8]","internalType":"bytes32[8]"},{"name":"mode","type":"uint8","internalType":"enum ProofMode"}]},{"name":"callGuestId","type":"bytes32","internalType":"bytes32"},{"name":"length","type":"uint256","internalType":"uint256"},{"name":"callAssumptions","type":"tuple","internalType":"struct CallAssumptions","components":[{"name":"proverContractAddress","type":"address","internalType":"address"},{"name":"functionSelector","type":"bytes4","internalType":"bytes4"},{"name":"settleChainId","type":"uint256","internalType":"uint256"},{"name":"settleBlockNumber","type":"uint256","internalType":"uint256"},{"name":"settleBlockHash","type":"bytes32","internalType":"bytes32"}]}]},{"name":"","type":"address","internalType":"address"},{"name":"","type":"bytes4","internalType":"bytes4"},{"name":"","type":"bytes","internalType":"bytes"}],"stateMutability":"nonpayable"},{"type":"function","name":"proveFluidIOData","inputs":[{"name":"_owner","type":"address","internalType":"address"},{"name":"tokens","type":"tuple[]","internalType":"struct Erc20Token[]","components":[{"name":"underlingTokenAddress","type":"address","internalType":"address"},{"name":"aTokenAddress","type":"address","internalType":"address"},{"name":"chainId","type":"uint256","internalType":"uint256"},{"name":"blockNumber","type":"uint256","internalType":"uint256"},{"name":"balance","type":"uint256","internalType":"uint256"},{"name":"tokenType","type":"uint8","internalType":"enum TokenType"}]}],"outputs":[{"name":"","type":"tuple","internalType":"struct Proof","components":[{"name":"seal","type":"tuple","internalType":"struct Seal","components":[{"name":"verifierSelector","type":"bytes4","internalType":"bytes4"},{"name":"seal","type":"bytes32[8]","internalType":"bytes32[8]"},{"name":"mode","type":"uint8","internalType":"enum ProofMode"}]},{"name":"callGuestId","type":"bytes32","internalType":"bytes32"},{"name":"length","type":"uint256","internalType":"uint256"},{"name":"callAssumptions","type":"tuple","internalType":"struct CallAssumptions","components":[{"name":"proverContractAddress","type":"address","internalType":"address"},{"name":"functionSelector","type":"bytes4","internalType":"bytes4"},{"name":"settleChainId","type":"uint256","internalType":"uint256"},{"name":"settleBlockNumber","type":"uint256","internalType":"uint256"},{"name":"settleBlockHash","type":"bytes32","internalType":"bytes32"}]}]},{"name":"","type":"address","internalType":"address"},{"name":"","type":"tuple[]","internalType":"struct Erc20Token[]","components":[{"name":"underlingTokenAddress","type":"address","internalType":"address"},{"name":"aTokenAddress","type":"address","internalType":"address"},{"name":"chainId","type":"uint256","internalType":"uint256"},{"name":"blockNumber","type":"uint256","internalType":"uint256"},{"name":"balance","type":"uint256","internalType":"uint256"},{"name":"tokenType","type":"uint8","internalType":"enum TokenType"}]}],"stateMutability":"nonpayable"},{"type":"function","name":"proveMorphoData","inputs":[{"name":"_owner","type":"address","internalType":"address"},{"name":"tokens","type":"tuple[]","internalType":"struct Erc20Token[]","components":[{"name":"underlingTokenAddress","type":"address","internalType":"address"},{"name":"aTokenAddress","type":"address","internalType":"address"},{"name":"chainId","type":"uint256","internalType":"uint256"},{"name":"blockNumber","type":"uint256","internalType":"uint256"},{"name":"balance","type":"uint256","internalType":"uint256"},{"name":"tokenType","type":"uint8","internalType":"enum TokenType"}]}],"outputs":[{"name":"","type":"tuple","internalType":"struct Proof","components":[{"name":"seal","type":"tuple","internalType":"struct Seal","components":[{"name":"verifierSelector","type":"bytes4","internalType":"bytes4"},{"name":"seal","type":"bytes32[8]","internalType":"bytes32[8]"},{"name":"mode","type":"uint8","internalType":"enum ProofMode"}]},{"name":"callGuestId","type":"bytes32","internalType":"bytes32"},{"name":"length","type":"uint256","internalType":"uint256"},{"name":"callAssumptions","type":"tuple","internalType":"struct CallAssumptions","components":[{"name":"proverContractAddress","type":"address","internalType":"address"},{"name":"functionSelector","type":"bytes4","internalType":"bytes4"},{"name":"settleChainId","type":"uint256","internalType":"uint256"},{"name":"settleBlockNumber","type":"uint256","internalType":"uint256"},{"name":"settleBlockHash","type":"bytes32","internalType":"bytes32"}]}]},{"name":"","type":"address","internalType":"address"},{"name":"","type":"tuple[]","internalType":"struct Erc20Token[]","components":[{"name":"underlingTokenAddress","type":"address","internalType":"address"},{"name":"aTokenAddress","type":"address","internalType":"address"},{"name":"chainId","type":"uint256","internalType":"uint256"},{"name":"blockNumber","type":"uint256","internalType":"uint256"},{"name":"balance","type":"uint256","internalType":"uint256"},{"name":"tokenType","type":"uint8","internalType":"enum TokenType"}]}],"stateMutability":"nonpayable"},{"type":"function","name":"setBlock","inputs":[{"name":"blockNo","type":"uint256","internalType":"uint256"}],"outputs":[],"stateMutability":"nonpayable"},{"type":"function","name":"setChain","inputs":[{"name":"chainId","type":"uint256","internalType":"uint256"},{"name":"blockNo","type":"uint256","internalType":"uint256"}],"outputs":[],"stateMutability":"nonpayable"}],"bytecode":{"object":"0x60808060405234601557610c03908161001a8239f35b5f80fdfe60406080815260049081361015610014575f80fd5b5f3560e01c806310dcfe73146102ec5780636590f3fb146100c95780637b450eea1461016457806387cea3ae146100ce5780638c8fff05146100c9578063faf924cf1461008c5763ffbc563814610069575f80fd5b346100885736600319011261008857610086906024359035610b73565b005b5f80fd5b5034610088575f36600319011261008857610220906100a9610a39565b506100b2610a39565b506100c76100be610a39565b915180926107a5565bf35b6109cd565b509034610088576020366003190112610088578151906343e751d760e11b82528035908201526020816024815f7376dc9aa45aa006a0f63942d8f9f21bd4537972a35af190811561015a5761008692505f9161012b575b50610b27565b61014d915060203d602011610153575b610145818361074d565b810190610b0f565b5f610125565b503d61013b565b82513d5f823e3d90fd5b5090346100885761017436610851565b909161017e610a39565b505f5b8251811015610249576101b0856101988386610ad3565b51015160606101a78487610ad3565b51015190610b73565b6001600160a01b039060208083816101c88589610ad3565b51015189516370a0823160e01b81529589168787015285916024918391165afa90811561023f575f91610210575b506001925060806102078387610ad3565b51015201610181565b905082813d8311610238575b610226818361074d565b8101031261008857600191515f6101f6565b503d61021c565b87513d5f823e3d90fd5b505090825192601f8461026760208201956020875284830190610950565b039161027a82199384810188528761074d565b610282610a39565b5061028b610a39565b50610294610a39565b90519586946102a686610280946107a5565b6001600160a01b0316610220860152633da2877560e11b6102408601526102608501829052519084018190526102a09481908686015e5f85828601015201168101030190f35b5090346100885781600319360112610088576001600160a01b03813581811692908390036100885760249182359367ffffffffffffffff9384861161008857366023870112156100885785840135926103448461076f565b956103518951978861074d565b84875260209485880198898560c080940283010191368311610088578601905b82821061069a57505050610383610a39565b505f5b885181101561058c578a908787878b888e6103b4886103a58984610ad3565b51015160606101a78a85610ad3565b60a0806103c18984610ad3565b5101516103cd81610787565b6103d681610787565b61045f57506103e6878792610ad3565b5101511695519586938492630dd3126d60e21b84528301525afa8015610455575f90610427575b60019250608061041d838d610ad3565b5101525b01610386565b508782813d831161044e575b61043d818361074d565b81010312610088576001915161040d565b503d610433565b8c513d5f823e3d90fd5b879896929394506104738298600193610ad3565b51015161047f81610787565b61048881610787565b1461049c575b505050505050600190610421565b906104ba8782604495946104b0838b610ad3565b5101511697610ad3565b5151169484519586948593632b92a07d60e01b85528401528b8301525afa908115610455575f91610511575b50906001600160801b0360019251166080610501838d610ad3565b5101529050888b878a878b61048e565b90508b81813d8311610585575b610528818361074d565b81010312610088578b51908c82018281108682111761057357916105678a8f93600196956001600160801b03955261055f81610afb565b845201610afb565b8a8201529192506104e6565b8760418c634e487b7160e01b5f52525ffd5b503d61051e565b8882878d878b8f83519682889384019786850192828a52518093526060906060860194965f925b85841061063d57505050505050601f925003916105d782199384810188528761074d565b6105df610a39565b506105e8610a39565b506105f1610a39565b905195869461060386610280946107a5565b6102208601526310dcfe7360e01b61024086015281610260860152518091850152806102a0958686015e5f85828601015201168101030190f35b9193600191939597508481978a51868151168252868482015116848301528c8101518d83015285810151868301526080808201519083015260a0809101519061068582610787565b8201520198019401918b9694979593916105b3565b8382360312610088578c51906106af8261071d565b6106b883610709565b82526106c58a8401610709565b8a8301528d8084013590830152606080840135908301526080808401359083015260a090818401359260028410156100885786938c93820152815201910190610371565b35906001600160a01b038216820361008857565b60c0810190811067ffffffffffffffff82111761073957604052565b634e487b7160e01b5f52604160045260245ffd5b90601f8019910116810190811067ffffffffffffffff82111761073957604052565b67ffffffffffffffff81116107395760051b60200190565b6002111561079157565b634e487b7160e01b5f52602160045260245ffd5b80519063ffffffff60e01b90818351168452602092838101518486015f905b6008821061083c575050509160606102009492604060809501516107e781610787565b61012088015283810151610140880152604081015161016088015201519160018060a01b03835116610180870152820151166101a085015260408101516101c085015260608101516101e08501520151910152565b868060019285518152019301910190916107c4565b906040916040600319820112610088576004356001600160a01b0381168103610088579260243567ffffffffffffffff81116100885782602382011215610088578060040135916108a18361076f565b936108af604051958661074d565b8385526020916020860191602460c08097028601019481861161008857602401925b8584106108e2575050505050505090565b8684830312610088578251906108f78261071d565b61090085610709565b825261090d868601610709565b868301528385013584830152606080860135908301526080808601359083015260a0908186013592600384101561008857899388938201528152019301926108d1565b9081518082526020808093019301915f5b82811061096f575050505090565b90919293845160018060a01b0380825116835284820151168483015260408082015190830152606080820151908301526080808201519083015260a0809101519060038210156107915782015260c001938201929190600101610961565b34610088576109db36610851565b906109e4610a39565b506109ed610a39565b506109f6610a39565b50610a35610a02610a39565b92604051938493610a1685610260936107a5565b6001600160a01b03166102208501526102408401819052830190610950565b0390f35b6040908151608081019267ffffffffffffffff918085108386111761073957809460e08201818110858211176107395783525f815282516101008082018281108782111761073957855236823760a08301525f60c083015281525f60208201525f8282015281519260a08401908482109082111761073957825f91606094528185528160208601528401525f828401525f60808401520152565b8051821015610ae75760209160051b010190565b634e487b7160e01b5f52603260045260245ffd5b51906001600160801b038216820361008857565b90816020910312610088575180151581036100885790565b15610b2e57565b60405162461bcd60e51b815260206004820152601b60248201527f4661696c6564206368656174636f646520696e766f636174696f6e00000000006044820152606490fd5b9060405191631ff78ac760e31b8352600483015260248201526020816044815f7376dc9aa45aa006a0f63942d8f9f21bd4537972a35af18015610bc257610bc0915f9161012b5750610b27565b565b6040513d5f823e3d90fdfea2646970667358221220c92d85501f996d42862ed40f943df193278959f76cdf8bbbca85af9480e1261e64736f6c63430008190033","linkReferences":{}},"methodIdentifiers":{"proof()":"faf924cf","proveAaveData(address,(address,address,uint256,uint256,uint256,uint8)[])":"7b450eea","proveCompoundData(address,(address,address,uint256,uint256,uint256,uint8)[])":"10dcfe73","proveFluidIOData(address,(address,address,uint256,uint256,uint256,uint8)[])":"6590f3fb","proveMorphoData(address,(address,address,uint256,uint256,uint256,uint8)[])":"8c8fff05","setBlock(uint256)":"87cea3ae","setChain(uint256,uint256)":"ffbc5638"},"id":83}