{"abi":[{"type":"function","name":"crossChainBalanceOf","inputs":[{"name":"_owner","type":"address","internalType":"address"},{"name":"tokens","type":"tuple[]","internalType":"struct Erc20Token[]","components":[{"name":"underlingTokenAddress","type":"address","internalType":"address"},{"name":"aTokenAddress","type":"address","internalType":"address"},{"name":"chainId","type":"uint256","internalType":"uint256"},{"name":"blockNumber","type":"uint256","internalType":"uint256"},{"name":"balance","type":"uint256","internalType":"uint256"},{"name":"tokenType","type":"uint8","internalType":"enum TokenType"}]}],"outputs":[{"name":"","type":"tuple","internalType":"struct Proof","components":[{"name":"seal","type":"tuple","internalType":"struct Seal","components":[{"name":"verifierSelector","type":"bytes4","internalType":"bytes4"},{"name":"seal","type":"bytes32[8]","internalType":"bytes32[8]"},{"name":"mode","type":"uint8","internalType":"enum ProofMode"}]},{"name":"callGuestId","type":"bytes32","internalType":"bytes32"},{"name":"length","type":"uint256","internalType":"uint256"},{"name":"callAssumptions","type":"tuple","internalType":"struct CallAssumptions","components":[{"name":"proverContractAddress","type":"address","internalType":"address"},{"name":"functionSelector","type":"bytes4","internalType":"bytes4"},{"name":"settleChainId","type":"uint256","internalType":"uint256"},{"name":"settleBlockNumber","type":"uint256","internalType":"uint256"},{"name":"settleBlockHash","type":"bytes32","internalType":"bytes32"}]}]},{"name":"","type":"address","internalType":"address"},{"name":"","type":"tuple[]","internalType":"struct Erc20Token[]","components":[{"name":"underlingTokenAddress","type":"address","internalType":"address"},{"name":"aTokenAddress","type":"address","internalType":"address"},{"name":"chainId","type":"uint256","internalType":"uint256"},{"name":"blockNumber","type":"uint256","internalType":"uint256"},{"name":"balance","type":"uint256","internalType":"uint256"},{"name":"tokenType","type":"uint8","internalType":"enum TokenType"}]}],"stateMutability":"nonpayable"},{"type":"function","name":"proof","inputs":[],"outputs":[{"name":"","type":"tuple","internalType":"struct Proof","components":[{"name":"seal","type":"tuple","internalType":"struct Seal","components":[{"name":"verifierSelector","type":"bytes4","internalType":"bytes4"},{"name":"seal","type":"bytes32[8]","internalType":"bytes32[8]"},{"name":"mode","type":"uint8","internalType":"enum ProofMode"}]},{"name":"callGuestId","type":"bytes32","internalType":"bytes32"},{"name":"length","type":"uint256","internalType":"uint256"},{"name":"callAssumptions","type":"tuple","internalType":"struct CallAssumptions","components":[{"name":"proverContractAddress","type":"address","internalType":"address"},{"name":"functionSelector","type":"bytes4","internalType":"bytes4"},{"name":"settleChainId","type":"uint256","internalType":"uint256"},{"name":"settleBlockNumber","type":"uint256","internalType":"uint256"},{"name":"settleBlockHash","type":"bytes32","internalType":"bytes32"}]}]}],"stateMutability":"pure"},{"type":"function","name":"proveAaveData","inputs":[{"name":"_owner","type":"address","internalType":"address"},{"name":"tokens","type":"tuple[]","internalType":"struct Erc20Token[]","components":[{"name":"underlingTokenAddress","type":"address","internalType":"address"},{"name":"aTokenAddress","type":"address","internalType":"address"},{"name":"chainId","type":"uint256","internalType":"uint256"},{"name":"blockNumber","type":"uint256","internalType":"uint256"},{"name":"balance","type":"uint256","internalType":"uint256"},{"name":"tokenType","type":"uint8","internalType":"enum TokenType"}]}],"outputs":[{"name":"","type":"tuple","internalType":"struct Proof","components":[{"name":"seal","type":"tuple","internalType":"struct Seal","components":[{"name":"verifierSelector","type":"bytes4","internalType":"bytes4"},{"name":"seal","type":"bytes32[8]","internalType":"bytes32[8]"},{"name":"mode","type":"uint8","internalType":"enum ProofMode"}]},{"name":"callGuestId","type":"bytes32","internalType":"bytes32"},{"name":"length","type":"uint256","internalType":"uint256"},{"name":"callAssumptions","type":"tuple","internalType":"struct CallAssumptions","components":[{"name":"proverContractAddress","type":"address","internalType":"address"},{"name":"functionSelector","type":"bytes4","internalType":"bytes4"},{"name":"settleChainId","type":"uint256","internalType":"uint256"},{"name":"settleBlockNumber","type":"uint256","internalType":"uint256"},{"name":"settleBlockHash","type":"bytes32","internalType":"bytes32"}]}]},{"name":"","type":"address","internalType":"address"},{"name":"","type":"tuple[]","internalType":"struct Erc20Token[]","components":[{"name":"underlingTokenAddress","type":"address","internalType":"address"},{"name":"aTokenAddress","type":"address","internalType":"address"},{"name":"chainId","type":"uint256","internalType":"uint256"},{"name":"blockNumber","type":"uint256","internalType":"uint256"},{"name":"balance","type":"uint256","internalType":"uint256"},{"name":"tokenType","type":"uint8","internalType":"enum TokenType"}]}],"stateMutability":"nonpayable"},{"type":"function","name":"proveCompoundData","inputs":[{"name":"_owner","type":"address","internalType":"address"},{"name":"tokens","type":"tuple[]","internalType":"struct Erc20Token[]","components":[{"name":"underlingTokenAddress","type":"address","internalType":"address"},{"name":"aTokenAddress","type":"address","internalType":"address"},{"name":"chainId","type":"uint256","internalType":"uint256"},{"name":"blockNumber","type":"uint256","internalType":"uint256"},{"name":"balance","type":"uint256","internalType":"uint256"},{"name":"tokenType","type":"uint8","internalType":"enum TokenType"}]}],"outputs":[{"name":"","type":"tuple","internalType":"struct Proof","components":[{"name":"seal","type":"tuple","internalType":"struct Seal","components":[{"name":"verifierSelector","type":"bytes4","internalType":"bytes4"},{"name":"seal","type":"bytes32[8]","internalType":"bytes32[8]"},{"name":"mode","type":"uint8","internalType":"enum ProofMode"}]},{"name":"callGuestId","type":"bytes32","internalType":"bytes32"},{"name":"length","type":"uint256","internalType":"uint256"},{"name":"callAssumptions","type":"tuple","internalType":"struct CallAssumptions","components":[{"name":"proverContractAddress","type":"address","internalType":"address"},{"name":"functionSelector","type":"bytes4","internalType":"bytes4"},{"name":"settleChainId","type":"uint256","internalType":"uint256"},{"name":"settleBlockNumber","type":"uint256","internalType":"uint256"},{"name":"settleBlockHash","type":"bytes32","internalType":"bytes32"}]}]},{"name":"","type":"address","internalType":"address"},{"name":"","type":"tuple[]","internalType":"struct Erc20Token[]","components":[{"name":"underlingTokenAddress","type":"address","internalType":"address"},{"name":"aTokenAddress","type":"address","internalType":"address"},{"name":"chainId","type":"uint256","internalType":"uint256"},{"name":"blockNumber","type":"uint256","internalType":"uint256"},{"name":"balance","type":"uint256","internalType":"uint256"},{"name":"tokenType","type":"uint8","internalType":"enum TokenType"}]}],"stateMutability":"nonpayable"},{"type":"function","name":"proveMorphoData","inputs":[{"name":"_owner","type":"address","internalType":"address"},{"name":"tokens","type":"tuple[]","internalType":"struct Erc20Token[]","components":[{"name":"underlingTokenAddress","type":"address","internalType":"address"},{"name":"aTokenAddress","type":"address","internalType":"address"},{"name":"chainId","type":"uint256","internalType":"uint256"},{"name":"blockNumber","type":"uint256","internalType":"uint256"},{"name":"balance","type":"uint256","internalType":"uint256"},{"name":"tokenType","type":"uint8","internalType":"enum TokenType"}]}],"outputs":[{"name":"","type":"tuple","internalType":"struct Proof","components":[{"name":"seal","type":"tuple","internalType":"struct Seal","components":[{"name":"verifierSelector","type":"bytes4","internalType":"bytes4"},{"name":"seal","type":"bytes32[8]","internalType":"bytes32[8]"},{"name":"mode","type":"uint8","internalType":"enum ProofMode"}]},{"name":"callGuestId","type":"bytes32","internalType":"bytes32"},{"name":"length","type":"uint256","internalType":"uint256"},{"name":"callAssumptions","type":"tuple","internalType":"struct CallAssumptions","components":[{"name":"proverContractAddress","type":"address","internalType":"address"},{"name":"functionSelector","type":"bytes4","internalType":"bytes4"},{"name":"settleChainId","type":"uint256","internalType":"uint256"},{"name":"settleBlockNumber","type":"uint256","internalType":"uint256"},{"name":"settleBlockHash","type":"bytes32","internalType":"bytes32"}]}]},{"name":"","type":"address","internalType":"address"},{"name":"","type":"tuple[]","internalType":"struct Erc20Token[]","components":[{"name":"underlingTokenAddress","type":"address","internalType":"address"},{"name":"aTokenAddress","type":"address","internalType":"address"},{"name":"chainId","type":"uint256","internalType":"uint256"},{"name":"blockNumber","type":"uint256","internalType":"uint256"},{"name":"balance","type":"uint256","internalType":"uint256"},{"name":"tokenType","type":"uint8","internalType":"enum TokenType"}]}],"stateMutability":"nonpayable"},{"type":"function","name":"setBlock","inputs":[{"name":"blockNo","type":"uint256","internalType":"uint256"}],"outputs":[],"stateMutability":"nonpayable"},{"type":"function","name":"setChain","inputs":[{"name":"chainId","type":"uint256","internalType":"uint256"},{"name":"blockNo","type":"uint256","internalType":"uint256"}],"outputs":[],"stateMutability":"nonpayable"}],"bytecode":{"object":"0x608080604052346015576108c6908161001a8239f35b5f80fdfe60806040526004361015610011575f80fd5b5f3560e01c80630686662d1461016157806310dcfe73146100c75780637b450eea1461016157806387cea3ae146100cc5780638c8fff05146100c7578063faf924cf1461008b5763ffbc563814610066575f80fd5b3461008757604036600319011261008757610085602435600435610822565b005b5f80fd5b34610087575f366003190112610087576100a36106fc565b506100ac6106fc565b506102206100b86106fc565b6100c560405180926101cc565bf35b610533565b34610087576020366003190112610087576040516343e751d760e11b815260048035908201526020816024815f7376dc9aa45aa006a0f63942d8f9f21bd4537972a35af1801561015657610085915f91610127575b506107d6565b610149915060203d60201161014f575b61014181836101aa565b8101906107be565b82610121565b503d610137565b6040513d5f823e3d90fd5b61028f565b35906001600160a01b038216820361008757565b60c0810190811067ffffffffffffffff82111761019657604052565b634e487b7160e01b5f52604160045260245ffd5b90601f8019910116810190811067ffffffffffffffff82111761019657604052565b80519063ffffffff60e01b9182815116845260209081810151828601835f915b600883106102785750505050604001519260028410156102645760606080936102009561012088015283810151610140880152604081015161016088015201519160018060a01b03835116610180870152820151166101a085015260408101516101c085015260608101516101e08501520151910152565b634e487b7160e01b5f52602160045260245ffd5b9080600192855181520193019101909184906101ec565b3461008757604080600319360112610087576001600160a01b036004803582811691908290036100875760249283359267ffffffffffffffff948585116100875736602386011215610087578460040135958611610520576020928751956102fc858960051b01886101aa565b87875284870190818460c0809b0283010191368311610087578501905b8282106104b25750505061032b6106fc565b505f5b87518110156103e5578061035f8b61034787948c610796565b5101516060610356848d610796565b51015190610822565b86848161036c848d610796565b510151168c51938480926370a0823160e01b82528a8d8301525afa80156103db575f906103ad575b6001925060806103a4838c610796565b5101520161032e565b508682813d83116103d4575b6103c381836101aa565b810103126100875760019151610394565b503d6103b9565b8b513d5f823e3d90fd5b50919386908989886103f56106fc565b506103fe6106fc565b506104076106fc565b948351986102609061041c8b838101996101cc565b6102208b01526102408a015251809552610280880196955f935b868510610443578989038af35b90919293949596978851838151168252838882015116888301528281015183830152606080820151908301526080808201519083015260a0809101519060038210156104a057820152840197860196959460010193929190610436565b8c602187634e487b7160e01b5f52525ffd5b8a82360312610087578b51906104c78261017a565b6104d083610166565b82526104dd898401610166565b898301528c8301358d830152606080840135908301526080808401359083015260a09081840135926003841015610087578d938b93820152815201910190610319565b634e487b7160e01b5f9081526041600452fd5b34610087576040806003193601126100875760046001600160a01b038135818116036100875760249260243567ffffffffffffffff9182821161008757366023830112156100875781600401359283116101965760209182825161059c828760051b01826101aa565b85815201602460c08096028301019136831161008757949694929392602401905b828210610682575050506105cf6106fc565b918051956102606105e388828101966101cc565b5f610220890152610240880152606094606051809552610280880196608080975f955b888710610613578b8b038cf35b909192939495969798998a51858151168252858a820151168a83015282810151838301528381015184830152848101518583015260a080910151906003821015610670578201528601998801989796600101959493929190610606565b8e602189634e487b7160e01b5f52525ffd5b87829896989594953603126100875783519061069d8261017a565b6106a683610166565b82526106b3868401610166565b868301528483013585830152606080840135908301526080808401359083015260a0908184013592600384101561008757889388938201528152019101909694969392936105bd565b6040908151608081019267ffffffffffffffff918085108386111761019657809460e08201818110858211176101965783525f815282516101008082018281108782111761019657855236823760a08301525f60c083015281525f60208201525f8282015281519260a08401908482109082111761019657825f91606094528185528160208601528401525f828401525f60808401520152565b80518210156107aa5760209160051b010190565b634e487b7160e01b5f52603260045260245ffd5b90816020910312610087575180151581036100875790565b156107dd57565b60405162461bcd60e51b815260206004820152601b60248201527f4661696c6564206368656174636f646520696e766f636174696f6e00000000006044820152606490fd5b9060405191631ff78ac760e31b8352600483015260248201526020816044815f7376dc9aa45aa006a0f63942d8f9f21bd4537972a35af180156101565761086f915f9161087157506107d6565b565b61088a915060203d60201161014f5761014181836101aa565b5f61012156fea26469706673582212209477a78b36c0fbf5f04b945b0e62df977fe7dee396169507fd2091ff1729776d64736f6c63430008190033","linkReferences":{}},"methodIdentifiers":{"crossChainBalanceOf(address,(address,address,uint256,uint256,uint256,uint8)[])":"0686662d","proof()":"faf924cf","proveAaveData(address,(address,address,uint256,uint256,uint256,uint8)[])":"7b450eea","proveCompoundData(address,(address,address,uint256,uint256,uint256,uint8)[])":"10dcfe73","proveMorphoData(address,(address,address,uint256,uint256,uint256,uint8)[])":"8c8fff05","setBlock(uint256)":"87cea3ae","setChain(uint256,uint256)":"ffbc5638"},"id":77}