{"abi":[{"type":"constructor","inputs":[{"name":"_prover","type":"address","internalType":"address"},{"name":"_registry","type":"address","internalType":"contract Registry"},{"name":"_creditScoreCalculator","type":"address","internalType":"address"},{"name":"_priceOracle","type":"address","internalType":"address"},{"name":"initialOwner","type":"address","internalType":"address"}],"stateMutability":"nonpayable"},{"type":"function","name":"_setTestVerifier","inputs":[{"name":"newVerifier","type":"address","internalType":"contract IProofVerifier"}],"outputs":[],"stateMutability":"nonpayable"},{"type":"function","name":"acceptOwnership","inputs":[],"outputs":[],"stateMutability":"nonpayable"},{"type":"function","name":"calculateCreditScore","inputs":[{"name":"user","type":"address","internalType":"address"}],"outputs":[{"name":"score","type":"uint256","internalType":"uint256"},{"name":"tier","type":"uint8","internalType":"uint8"}],"stateMutability":"view"},{"type":"function","name":"claim","inputs":[{"name":"","type":"tuple","internalType":"struct Proof","components":[{"name":"seal","type":"tuple","internalType":"struct Seal","components":[{"name":"verifierSelector","type":"bytes4","internalType":"bytes4"},{"name":"seal","type":"bytes32[8]","internalType":"bytes32[8]"},{"name":"mode","type":"uint8","internalType":"enum ProofMode"}]},{"name":"callGuestId","type":"bytes32","internalType":"bytes32"},{"name":"length","type":"uint256","internalType":"uint256"},{"name":"callAssumptions","type":"tuple","internalType":"struct CallAssumptions","components":[{"name":"proverContractAddress","type":"address","internalType":"address"},{"name":"functionSelector","type":"bytes4","internalType":"bytes4"},{"name":"settleChainId","type":"uint256","internalType":"uint256"},{"name":"settleBlockNumber","type":"uint256","internalType":"uint256"},{"name":"settleBlockHash","type":"bytes32","internalType":"bytes32"}]}]},{"name":"claimer","type":"address","internalType":"address"},{"name":"tokens","type":"tuple[]","internalType":"struct Erc20Token[]","components":[{"name":"underlingTokenAddress","type":"address","internalType":"address"},{"name":"aTokenAddress","type":"address","internalType":"address"},{"name":"chainId","type":"uint256","internalType":"uint256"},{"name":"blockNumber","type":"uint256","internalType":"uint256"},{"name":"balance","type":"uint256","internalType":"uint256"},{"name":"tokenType","type":"uint8","internalType":"enum TokenType"}]}],"outputs":[],"stateMutability":"nonpayable"},{"type":"function","name":"claimCompoundData","inputs":[{"name":"","type":"tuple","internalType":"struct Proof","components":[{"name":"seal","type":"tuple","internalType":"struct Seal","components":[{"name":"verifierSelector","type":"bytes4","internalType":"bytes4"},{"name":"seal","type":"bytes32[8]","internalType":"bytes32[8]"},{"name":"mode","type":"uint8","internalType":"enum ProofMode"}]},{"name":"callGuestId","type":"bytes32","internalType":"bytes32"},{"name":"length","type":"uint256","internalType":"uint256"},{"name":"callAssumptions","type":"tuple","internalType":"struct CallAssumptions","components":[{"name":"proverContractAddress","type":"address","internalType":"address"},{"name":"functionSelector","type":"bytes4","internalType":"bytes4"},{"name":"settleChainId","type":"uint256","internalType":"uint256"},{"name":"settleBlockNumber","type":"uint256","internalType":"uint256"},{"name":"settleBlockHash","type":"bytes32","internalType":"bytes32"}]}]},{"name":"claimer","type":"address","internalType":"address"},{"name":"tokens","type":"tuple[]","internalType":"struct CToken[]","components":[{"name":"collateralAddress","type":"address","internalType":"address"},{"name":"cTokenAddress","type":"address","internalType":"address"},{"name":"chainId","type":"uint256","internalType":"uint256"},{"name":"blockNumber","type":"uint256","internalType":"uint256"},{"name":"balance","type":"uint256","internalType":"uint256"},{"name":"tokenType","type":"uint8","internalType":"enum CTokenType"}]}],"outputs":[],"stateMutability":"nonpayable"},{"type":"function","name":"creditScoreCalculator","inputs":[],"outputs":[{"name":"","type":"address","internalType":"contract CreditModel"}],"stateMutability":"view"},{"type":"function","name":"getCreditScore","inputs":[{"name":"user","type":"address","internalType":"address"}],"outputs":[{"name":"score","type":"uint256","internalType":"uint256"}],"stateMutability":"view"},{"type":"function","name":"owner","inputs":[],"outputs":[{"name":"","type":"address","internalType":"address"}],"stateMutability":"view"},{"type":"function","name":"pendingOwner","inputs":[],"outputs":[{"name":"","type":"address","internalType":"address"}],"stateMutability":"view"},{"type":"function","name":"priceOracle","inputs":[],"outputs":[{"name":"","type":"address","internalType":"contract IUniswapV2PriceOracle"}],"stateMutability":"view"},{"type":"function","name":"prover","inputs":[],"outputs":[{"name":"","type":"address","internalType":"address"}],"stateMutability":"view"},{"type":"function","name":"registry","inputs":[],"outputs":[{"name":"","type":"address","internalType":"contract Registry"}],"stateMutability":"view"},{"type":"function","name":"renounceOwnership","inputs":[],"outputs":[],"stateMutability":"nonpayable"},{"type":"function","name":"setPriceOracle","inputs":[{"name":"newPriceOracle","type":"address","internalType":"address"}],"outputs":[],"stateMutability":"nonpayable"},{"type":"function","name":"totals","inputs":[{"name":"","type":"address","internalType":"address"}],"outputs":[{"name":"borrowedAmount","type":"uint256","internalType":"uint256"},{"name":"suppliedAmount","type":"uint256","internalType":"uint256"},{"name":"repaidAmount","type":"uint256","internalType":"uint256"},{"name":"latestBlock","type":"uint256","internalType":"uint256"},{"name":"latestBalance","type":"uint256","internalType":"uint256"},{"name":"borrowTimes","type":"uint256","internalType":"uint256"},{"name":"supplyTimes","type":"uint256","internalType":"uint256"},{"name":"repayTimes","type":"uint256","internalType":"uint256"},{"name":"firstActivityBlock","type":"uint256","internalType":"uint256"},{"name":"liquidations","type":"uint256","internalType":"uint256"}],"stateMutability":"view"},{"type":"function","name":"transferOwnership","inputs":[{"name":"newOwner","type":"address","internalType":"address"}],"outputs":[],"stateMutability":"nonpayable"},{"type":"function","name":"usersInfo","inputs":[{"name":"user","type":"address","internalType":"address"},{"name":"protocol","type":"uint8","internalType":"enum Protocol"}],"outputs":[{"name":"","type":"tuple","internalType":"struct IVerifier.UserInfo","components":[{"name":"borrowedAmount","type":"uint256","internalType":"uint256"},{"name":"suppliedAmount","type":"uint256","internalType":"uint256"},{"name":"repaidAmount","type":"uint256","internalType":"uint256"},{"name":"latestBlock","type":"uint256","internalType":"uint256"},{"name":"latestBalance","type":"uint256","internalType":"uint256"},{"name":"borrowTimes","type":"uint256","internalType":"uint256"},{"name":"supplyTimes","type":"uint256","internalType":"uint256"},{"name":"repayTimes","type":"uint256","internalType":"uint256"},{"name":"firstActivityBlock","type":"uint256","internalType":"uint256"},{"name":"liquidations","type":"uint256","internalType":"uint256"}]}],"stateMutability":"view"},{"type":"function","name":"verifier","inputs":[],"outputs":[{"name":"","type":"address","internalType":"contract IProofVerifier"}],"stateMutability":"view"},{"type":"event","name":"OwnershipTransferStarted","inputs":[{"name":"previousOwner","type":"address","indexed":true,"internalType":"address"},{"name":"newOwner","type":"address","indexed":true,"internalType":"address"}],"anonymous":false},{"type":"event","name":"OwnershipTransferred","inputs":[{"name":"previousOwner","type":"address","indexed":true,"internalType":"address"},{"name":"newOwner","type":"address","indexed":true,"internalType":"address"}],"anonymous":false},{"type":"event","name":"PriceOracleUpdated","inputs":[{"name":"oldPriceOracle","type":"address","indexed":true,"internalType":"address"},{"name":"newPriceOracle","type":"address","indexed":true,"internalType":"address"}],"anonymous":false},{"type":"event","name":"UserBorrowed","inputs":[{"name":"user","type":"address","indexed":true,"internalType":"address"},{"name":"protocol","type":"uint8","indexed":true,"internalType":"enum Protocol"},{"name":"amount","type":"uint256","indexed":false,"internalType":"uint256"},{"name":"newTotalBorrowed","type":"uint256","indexed":false,"internalType":"uint256"},{"name":"borrowCount","type":"uint256","indexed":false,"internalType":"uint256"}],"anonymous":false},{"type":"event","name":"UserRepaid","inputs":[{"name":"user","type":"address","indexed":true,"internalType":"address"},{"name":"protocol","type":"uint8","indexed":true,"internalType":"enum Protocol"},{"name":"amount","type":"uint256","indexed":false,"internalType":"uint256"},{"name":"newTotalRepaid","type":"uint256","indexed":false,"internalType":"uint256"},{"name":"repayCount","type":"uint256","indexed":false,"internalType":"uint256"}],"anonymous":false},{"type":"event","name":"UserSupplied","inputs":[{"name":"user","type":"address","indexed":true,"internalType":"address"},{"name":"protocol","type":"uint8","indexed":true,"internalType":"enum Protocol"},{"name":"amount","type":"uint256","indexed":false,"internalType":"uint256"},{"name":"newTotalSupplied","type":"uint256","indexed":false,"internalType":"uint256"},{"name":"supplyCount","type":"uint256","indexed":false,"internalType":"uint256"}],"anonymous":false},{"type":"error","name":"InvalidChainId","inputs":[]},{"type":"error","name":"OwnableInvalidOwner","inputs":[{"name":"owner","type":"address","internalType":"address"}]},{"type":"error","name":"OwnableUnauthorizedAccount","inputs":[{"name":"account","type":"address","internalType":"address"}]}],"bytecode":{"object":"0x60a0806040523461012f5760a0816158f7803803809161001f8285610133565b83398101031261012f576100328161016a565b60208201516001600160a01b0380821693909184900361012f576100586040820161016a565b92610071608061006a6060850161016a565b930161016a565b93838061007c61017e565b169560018060a01b031996875f5416175f5533608052169586156101175784809387600254166002556001549880898b1617600155826040519a167f8be0079c531659141344cd1fd0a4f28419497f9722a3daafe3b4186f6b6457e05f80a3168660035416176003558560045416176004551683600554161760055516906006541617600655612fbd90816104df8239608051816117550152f35b604051631e4fbdf760e01b81525f6004820152602490fd5b5f80fd5b601f909101601f19168101906001600160401b0382119082101761015657604052565b634e487b7160e01b5f52604160045260245ffd5b51906001600160a01b038216820361012f57565b5f617a6946148015610440575b8015610432575b156102a857604080516001600160401b0392906112f18082019085821183831017610156578491839161349c83393081523060208201520301905ff092831561029e576001600160a01b0393841690813b1561012f5783516384cf84e160e01b81527fb4248e4b5d3298922937afd56d86ac391f3ac2ea06f9764b30e92d377afaf51d60048201525f8160248183875af1801561029457610280575b5083519161116a8084019283118484101761026c5791839160209361478d8439815203019082f09182156102625750501690565b51903d90823e3d90fd5b634e487b7160e01b85526041600452602485fd5b9080935081116101565783525f915f61022e565b85513d5f823e3d90fd5b82513d5f823e3d90fd5b50600146148015610428575b801561041e575b8015610413575b8015610408575b80156103fd575b80156103f2575b80156103e7575b80156103dc575b80156103d1575b1561030957731ee8a3b907ebcdfc33f76e3c7aae6ffd2efa5b7390565b62aa36a7461480156103c6575b80156103bb575b80156103b0575b80156103a5575b8015610399575b801561038d575b8015610381575b8015610375575b61035d57604051633d23e4d160e11b8152600490fd5b737925a78734fc7f2cb69d7e03d81467bb851f9eb890565b5062aa37dc4614610347565b5062066eee4614610340565b5062014a344614610339565b50620138824614610332565b5061e705461461032b565b506112c14614610324565b50610221461461031d565b5061012c4614610316565b5061e70846146102ec565b5061a4ba46146102e5565b5061a4b146146102de565b5061210546146102d7565b506102eb46146102d0565b506101e046146102c9565b5061014446146102c2565b50608946146102bb565b50600a46146102b4565b5061043b61044c565b610192565b5062049919461461018b565b5f80808073f4e4fdca9d5d55e64525e314391996a15f7ec61e5afa3d156104d6573d906001600160401b0382116101565760405191610495601f8201601f191660200184610133565b82523d5f602084013e5b1580156104cd575b6104c85760208180518101031261012f5760200151801515810361012f5790565b505f90565b508051156104a7565b60609061049f56fe6080806040526004361015610012575f80fd5b5f3560e01c9081632630c12f14611cb4575080632b7ac3f314611c8d57806332a8f30f14611c655780634ffe34db14611bc9578063530e784f14611b09578063715018a614611aa457806379ba509714611a225780637b103999146119fa5780638da5cb5b146119d25780639b8b30c8146117295780639ca6ce2f1461140e578063ac6dca9014610476578063c9579ee81461036e578063d3dd2bdf146102e8578063e30c3978146102c0578063ece017fb14610298578063f1c3753a146101525763f2fde38b146100e2575f80fd5b3461014e57602036600319011261014e576100fb611cd7565b610103612d24565b600280546001600160a01b0319166001600160a01b039283169081179091556001549091167f38d16b8cac22d99fc7c124b9cd0de2d3fa1faef420bfe791d8c362d765e227005f80a3005b5f80fd5b3461014e57602036600319011261014e576001600160a01b0380610174611cd7565b165f5260086020526040610212610164825f2093600984519561019687611d5e565b80548752600181015460208801526002810154868801526003810154606088015260048101546080880152600581015460a0880152600681015460c0880152600781015460e08801526008810154610100880152015461012086015260055416938351948593849263b933466160e01b84526004840190611e4e565b436101448301525afa90811561028d575f905f9261025b575b5060048210156102475760ff6040928351928352166020820152f35b634e487b7160e01b5f52602160045260245ffd5b905061027f915060403d604011610286575b6102778183611e16565b810190612d05565b908261022b565b503d61026d565b6040513d5f823e3d90fd5b3461014e575f36600319011261014e576005546040516001600160a01b039091168152602090f35b3461014e575f36600319011261014e576002546040516001600160a01b039091168152602090f35b3461014e57602036600319011261014e576001600160a01b038061030a611cd7565b165f526008602052604061032c610164825f2093600984519561019687611d5e565b436101448301525afa801561028d576020915f9161034e575b50604051908152f35b610367915060403d604011610286576102778183611e16565b5082610345565b3461014e57604036600319011261014e57610387611cd7565b60243590600782101561014e57604051610140926103a482611d5e565b5f82525f60208301525f60408301525f60608301525f60808301525f60a08301525f60c08301525f60e0830152610100925f848401525f6101208094015260018060a01b03165f52600760205260405f20905f52602052600960405f206040519361040e85611d5e565b8154855260018201546020860152600282015460408601526003820154606086015260048201546080860152600582015460a0860152600682015460c0860152600782015460e08601526008820154908501520154908201526104746040518092611e4e565bf35b3461014e573660031901610260811261014e57610220811261014e5761049a611ced565b9061024435906001600160401b03821161014e573660238301121561014e5781600401356104c781611e37565b926104d56040519485611e16565b818452602460c06020860193028201019036821161014e57602401915b8183106113985750506003546001600160a01b0316919050610512612e82565b503660041161014e576101406040519161052b83611d7a565b1261014e5760405161053c81611d95565b610544612ef2565b8152366043121561014e5760405161055b81611dde565b806101249136831161014e576024905b838210611388575050602083015235600281101561014e57604082015281526101443560208201526040810161016435815260a06101831936011261014e576105f7906040516105ba81611db0565b6105c2611d04565b81526105cc612f09565b60208201526101c43560408201526101e435606082015261020435608082015260608401525161209b565b609f1981019081116113745761060c90612070565b366102241161014e5761061e36612f21565b90806102241161014e5736811161014e576020916106435f9236906102231901612f4e565b61064b612e82565b506106bc84610658612e82565b92816040519161066b8284018097612d38565b610220835261067983611dfa565b60405195869383808601998051918291018b5e850190848201908b8252519283915e0190828201898152815193849201905e018683820152038084520182611e16565b604051918291518091835e8101838152039060025afa1561028d575f519160018060a01b035f541690813b1561014e575f926107129261028492604051968795869463c4fa74e560e01b86526004860190612d38565b6102248401526102448301526310dcfe7360e01b6102648301525afa801561028d57611365575b5061074e336001600160a01b03841614611eaf565b6001600160a01b0382165f9081526007602090815260408083206001845290915290206008810180549193911561135c575b5060018060a01b0381165f526008602052600860405f200180548015908115611352575b50611349575b505f5b82518110156113475760606107c28285611f0e565b510151906003850154821061133e57600480546040516315dfb15960e11b815246928101929092529092906001600160a01b031660e084602481845afa93841561028d575f9461130d575b5060a061081a8488611f0e565b51015161082681612c35565b61082f81612c35565b610f985750602460c060018060a01b0360045416604051928380926351bc805560e11b82524660048301525afa801561028d576108bd915f91610f69575b506001600160a01b036020610882868a611f0e565b51015182516001600160a01b0316911614908115610f39575b8115610f09575b8115610ed9575b8115610ea9575b8115610e78575b50612cb9565b600460206001600160a01b03816108d4868a611f0e565b510151166040519283809263c55dae6360e01b82525afa90811561028d575f91610e3e575b506001600160a01b038581165f908152600b602090815260409091209190610921868a611f0e565b510151165f5260205260405f2054608061093b8589611f0e565b51015110610c235761099060806109528589611f0e565b5101516001600160a01b038781165f908152600b60209081526040909120919061097c888c611f0e565b510151165f5260205260405f2054906120ab565b606085015190946001600160a01b038381169216821415919082610c0b575b5050610b22575b506001836109c682958954612080565b88557fe8cc2ad0d253330825986983bb2c50a071aea72c26e8d12c57ef620521a395f26005808a01906109f9825461208d565b8255848060a01b0389165f52600860205260405f20610a19858254612080565b9055848060a01b0389165f52600860205260405f2001610a39815461208d565b9055895490546040805194855260208501929092529083015260a083901b839003871691606090a35b6080610a6e8387611f0e565b510151838060a01b0385165f52600b60205260405f20848060a01b036020610a96868a611f0e565b510151165f5260205260405f20555b806003870155828060a01b0384165f52600860205280600360405f200180548211610b1a575b5050600960205260405f20835f5260205260405f20838060a01b036020610af28589611f0e565b510151165f5260205260405f20905f5260205260405f208260ff198254161790555b016107ad565b558087610acb565b60065460408051631172801960e31b81526001600160a01b039384166004820152602481019690965291169084604481845afa90811561028d576004945f92610bd6575b5060209060405195868092631a12cd4760e01b82525afa93841561028d575f94610ba0575b50610b996001948592612052565b93506109b6565b93506020843d602011610bce575b81610bbb60209383611e16565b8101031261014e57925192610b99610b8b565b3d9150610bae565b6020919250610bfc9060403d604011610c04575b610bf48183611e16565b810190612035565b509190610b66565b503d610bea565b608001516001600160a01b03161415905088806109af565b6001600160a01b038581165f908152600b602090815260409091209190610c4a868a611f0e565b510151165f52602052610c7060405f20546080610c67868a611f0e565b510151906120ab565b606085015190946001600160a01b038381169216821415919082610e26575b5050610d4d575b50600180937f31f0599cb346617eb2bc74c0f970dd6ff140513cc0646449a2e54c23d19e401c60028901610ccb838254612080565b815560078a0190610cdc825461208d565b8255848060a01b0389165f526008602052600260405f2001610cff858254612080565b9055848060a01b0389165f526008602052600760405f2001610d21815461208d565b90555490546040805194855260208501929092529083015260a083901b839003871691606090a3610a62565b60065460408051631172801960e31b81526001600160a01b039384166004820152602481019690965291169084604481845afa90811561028d576004945f92610e01575b5060209060405195868092631a12cd4760e01b82525afa93841561028d575f94610dcb575b50610dc46001948592612052565b9350610c96565b93506020843d602011610df9575b81610de660209383611e16565b8101031261014e57925192610dc4610db6565b3d9150610dd9565b6020919250610e1e9060403d604011610c0457610bf48183611e16565b509190610d91565b608001516001600160a01b0316141590508880610c8f565b90506020813d602011610e70575b81610e5960209383611e16565b8101031261014e57610e6a90611f43565b876108f9565b3d9150610e4c565b90506001600160a01b036020610e8e868a611f0e565b51015160a0909201516001600160a01b0316911614886108b7565b90506001600160a01b036020610ebf868a611f0e565b51015160808301516001600160a01b0316911614906108b0565b90506001600160a01b036020610eef868a611f0e565b51015160608301516001600160a01b0316911614906108a9565b90506001600160a01b036020610f1f868a611f0e565b51015160408301516001600160a01b0316911614906108a2565b90506001600160a01b036020610f4f868a611f0e565b51015160208301516001600160a01b03169116149061089b565b610f8b915060c03d60c011610f91575b610f838183611e16565b810190612c3f565b8861086d565b503d610f79565b600160a0610fa68589611f0e565b510151610fb281612c35565b610fbb81612c35565b14610fcb575b5060019250610aa5565b60c0602491604051928380926351bc805560e11b82524660048301525afa801561028d5761100e915f91610f6957506001600160a01b036020610882868a611f0e565b6001600160a01b038481165f908152600c6020908152604090912091906110358589611f0e565b510151165f5260205260405f2060018060a01b036110538488611f0e565b5151165f5260205260405f2054608061106c8488611f0e565b51015181116113035761108d9060806110858589611f0e565b5101516120ab565b926001600160a01b036110a08488611f0e565b515160608301516001600160a01b03169116141590816112d4575b506111d5575b600180937fcd1438edb4d66dadd7e5d7c3e91cfab2c5d6b71a3911a01d2dbb0aee82f2b6fb8289016110f4838254612080565b8155600690818b0191611107835461208d565b8355858060a01b038a165f5260086020528560405f2001611129868254612080565b9055858060a01b038a165f52600860205260405f2001611149815461208d565b90555490546040805194855260208501929092529083015260a083901b839003871691606090a35b608061117d8387611f0e565b510151838060a01b0385165f52600c60205260405f20848060a01b0360206111a5868a611f0e565b510151165f5260205260405f20848060a01b036111c28589611f0e565b5151165f5260205260405f205586610fc1565b600654611228936001600160a01b0391821691604091906111f6868a611f0e565b51518351631172801960e31b815291166001600160a01b03166004820152602481019190915294859081906044820190565b0381845afa90811561028d576004945f926112af575b5060209060405195868092631a12cd4760e01b82525afa93841561028d575f94611279575b506112716001948592612052565b9350506110c1565b93506020843d6020116112a7575b8161129460209383611e16565b8101031261014e57925192611271611263565b3d9150611287565b60209192506112cc9060403d604011610c0457610bf48183611e16565b50919061123e565b90506001600160a01b036112e88488611f0e565b51516080909201516001600160a01b031691161415876110bb565b5060019250611171565b61133091945060e03d60e011611337575b6113288183611e16565b810190611f98565b928761080d565b503d61131e565b60019150610b14565b005b439055836107aa565b90504310856107a4565b43905583610780565b61136e90611dcb565b82610739565b634e487b7160e01b5f52601160045260245ffd5b813581526020918201910161056b565b60c08336031261014e57604051906113af82611d2f565b6113b884611d1b565b82526113c660208501611d1b565b602083015260408401356040830152606080850135908301526080808501359083015260a0908185013592600284101561014e5760c0936020938201528152019201916104f2565b3461014e573660031901610260811261014e576102209081811261014e57611434611ced565b6102449182356001600160401b03811161014e573660238201121561014e5780600401359361146285611e37565b946114706040519687611e16565b808652602092838701602460c08094028301019136831161014e57602401905b8282106116b8575050505060018060a01b03928360035416926114b1612e82565b503660041161014e57610140604051926114ca84611d7a565b1261014e576040516114db81611d95565b6114e3612ef2565b8152366043121561014e576040516114fa81611dde565b806101249136831161014e57846024915b8483106116a85750905083015235600281101561014e576040820152825261014435818301526040820161016435815260a06101831936011261014e576115949060405161155881611db0565b611560611d04565b815261156a612f09565b848201526101c43560408201526101e435606082015261020435608082015260608501525161209b565b609f198101908111611374576115a990612070565b61022498368a1161014e576115bd36612f21565b90828b1161014e5736831161014e57611611846115e15f9536906102231901612f4e565b926115ea612e82565b50816115f4612e82565b94604051926116068385018098612d38565b835261067983611dfa565b604051918291518091835e8101838152039060025afa1561028d575f5190845f5416803b1561014e575f9461166094610284946040519b8c97889663c4fa74e560e01b88526004880190612d38565b850152830152633da2877560e11b6102648301525afa90811561028d576113479461169492611699575b5082163314611eaf565b6120b8565b6116a290611dcb565b8561168a565b823581529181019186910161150b565b838236031261014e57604051906116ce82611d2f565b6116d783611d1b565b82526116e4878401611d1b565b8783015260408301356040830152606080840135908301526080808401359083015260a0908184013592600384101561014e5786938993820152815201910190611490565b3461014e5760208060031936011261014e576004356001600160a01b03818116929183900361014e57807f000000000000000000000000000000000000000000000000000000000000000016330361198357617a6946148015611977575b8015611969575b80156118d0575b1561186557604051631feb379160e11b81528281600481875afa90811561028d575f9161182f575b5016156117da57506001600160601b0360a01b5f5416175f555f80f35b6084906040519062461bcd60e51b82526004820152602860248201527f56657269666965722773207265706f7369746f72792061646472657373206973604482015267081b9bdd081cd95d60c21b6064820152fd5b90508281813d831161185e575b6118468183611e16565b8101031261014e5751818116810361014e57846117bd565b503d61183c565b60405162461bcd60e51b815260048101839052603760248201527f4368616e67696e6720766572696669657273206973206f6e6c7920616c6c6f7760448201527f6564206f6e206465766e6574206f7220746573746e65740000000000000000006064820152608490fd5b5062aa36a74614801561195e575b8015611953575b8015611948575b801561193d575b8015611931575b8015611925575b8015611919575b80611795575062aa37dc4614611795565b5062066eee4614611908565b5062014a344614611901565b506201388246146118fa565b5061e70546146118f3565b506112c146146118ec565b5061022146146118e5565b5061012c46146118de565b50611972612dff565b61178e565b50620499194614611787565b60405162461bcd60e51b815260048101839052602160248201527f4f6e6c79206465706c6f7965722063616e206368616e676520766572696669656044820152603960f91b6064820152608490fd5b3461014e575f36600319011261014e576001546040516001600160a01b039091168152602090f35b3461014e575f36600319011261014e576004546040516001600160a01b039091168152602090f35b3461014e575f36600319011261014e576002546001600160a01b033381831603611a8c576001600160601b0360a01b8092166002556001549133908316176001553391167f8be0079c531659141344cd1fd0a4f28419497f9722a3daafe3b4186f6b6457e05f80a3005b60405163118cdaa760e01b8152336004820152602490fd5b3461014e575f36600319011261014e57611abc612d24565b600280546001600160a01b03199081169091556001805491821690555f906001600160a01b03167f8be0079c531659141344cd1fd0a4f28419497f9722a3daafe3b4186f6b6457e08280a3005b3461014e57602036600319011261014e57611b22611cd7565b611b2a612d24565b6001600160a01b03908116908115611b7857600654826001600160601b0360a01b821617600655167f56b5f80d8cac1479698aa7d01605fd6111e90b15fc4d2b377417f46034876cbd5f80a3005b60405162461bcd60e51b815260206004820152602360248201527f5072696365206f7261636c652063616e6e6f74206265207a65726f206164647260448201526265737360e81b6064820152608490fd5b3461014e57602036600319011261014e576001600160a01b03611bea611cd7565b165f52600860205261014060405f208054906001810154906002810154600382015460048301546005840154906006850154926007860154946009600888015497015497604051998a5260208a015260408901526060880152608087015260a086015260c085015260e0840152610100830152610120820152f35b3461014e575f36600319011261014e576003546040516001600160a01b039091168152602090f35b3461014e575f36600319011261014e575f546040516001600160a01b039091168152602090f35b3461014e575f36600319011261014e576006546001600160a01b03168152602090f35b600435906001600160a01b038216820361014e57565b61022435906001600160a01b038216820361014e57565b61018435906001600160a01b038216820361014e57565b35906001600160a01b038216820361014e57565b60c081019081106001600160401b03821117611d4a57604052565b634e487b7160e01b5f52604160045260245ffd5b61014081019081106001600160401b03821117611d4a57604052565b608081019081106001600160401b03821117611d4a57604052565b606081019081106001600160401b03821117611d4a57604052565b60a081019081106001600160401b03821117611d4a57604052565b6001600160401b038111611d4a57604052565b61010081019081106001600160401b03821117611d4a57604052565b61024081019081106001600160401b03821117611d4a57604052565b90601f801991011681019081106001600160401b03821117611d4a57604052565b6001600160401b038111611d4a5760051b60200190565b805182526020810151602083015260408101516040830152606081015160608301526080810151608083015260a081015160a083015260c081015160c083015260e081015160e0830152610100808201519083015261012080910151910152565b15611eb657565b60405162461bcd60e51b815260206004820152602a60248201527f4f6e6c792074686520636c61696d65722063616e20757064617465207468656960448201526972206f776e206461746160b01b6064820152608490fd5b8051821015611f225760209160051b010190565b634e487b7160e01b5f52603260045260245ffd5b5160038110156102475790565b51906001600160a01b038216820361014e57565b15611f5e57565b60405162461bcd60e51b815260206004820152601260248201527124b73b30b634b21020b0bb32903a37b5b2b760711b6044820152606490fd5b908160e091031261014e576040519060e082018281106001600160401b03821117611d4a5761202d9160c091604052611fd081611f43565b8452611fde60208201611f43565b6020850152611fef60408201611f43565b604085015261200060608201611f43565b606085015261201160808201611f43565b608085015261202260a08201611f43565b60a085015201611f43565b60c082015290565b919082604091031261014e5761204f602083519301611f43565b90565b811561205c570490565b634e487b7160e01b5f52601260045260245ffd5b9061022491820180921161137457565b9190820180921161137457565b5f1981146113745760010190565b61021f1981019190821161137457565b9190820391821161137457565b6001600160a01b0381165f9081526007602090815260408083208380529091529020600881018054919492939115612c2c575b5060018060a01b0383165f526008602052600860405f200180548015908115612c22575b50612c19575b505f5b8151811015612c1257606061212d8284611f0e565b51015160038601548110612c095760a06121528161214b8587611f0e565b5101611f36565b60038110156102475760010361282457509060018060a01b03600454169160405192635466e24d60e01b8452602084600481845afa93841561028d575f946127e8575b506001600160a01b036121a88487611f0e565b51516040516301b2848560e51b8152911660048201526024949091906020908390879082906001600160a01b03165afa91821561028d575f926127a8575b5060e091612218906001600160a01b036020612202888b611f0e565b5101516001600160a01b03909216911614611f57565b6040516315dfb15960e11b815246600482015294859182905afa92831561028d575f93612787575b506001600160a01b038681165f908152600a6020908152604090912091906122688588611f0e565b510151165f5260205260405f205460806122828487611f0e565b5101511061255e576122c360806122998487611f0e565b5101516001600160a01b038881165f908152600a60209081526040909120919061097c878a611f0e565b926001600160a01b036122d68487611f0e565b515160608301516001600160a01b031691161415908161252f575b50612462575b5f836123066001958a54612080565b89557fe8cc2ad0d253330825986983bb2c50a071aea72c26e8d12c57ef620521a395f26005808b0190612339825461208d565b8255878060a01b038b168552600860205260408520612359858254612080565b9055878060a01b038b16855260086020526040852001612379815461208d565b90558a5490546040805194855260208501929092529083015260a086901b869003891691606090a35b60806123ae8386611f0e565b510151838060a01b0387165f52600a60205260405f20848060a01b0360206123d68689611f0e565b510151165f5260205260405f20555b806003880155828060a01b0386165f52600860205280600360405f20018054821161245a575b5050600960205260405f205f805260205260405f20838060a01b0360206124328588611f0e565b510151165f5260205260405f20905f5260205260405f208260ff198254161790555b01612118565b55805f61240b565b600654612483936001600160a01b0391821691604091906111f68689611f0e565b0381845afa90811561028d576004945f9261250a575b5060209060405195868092631a12cd4760e01b82525afa93841561028d575f946124d4575b506124cc6001945f92612052565b9350506122f7565b93506020843d602011612502575b816124ef60209383611e16565b8101031261014e579251926124cc6124be565b3d91506124e2565b60209192506125279060403d604011610c0457610bf48183611e16565b509190612499565b90506001600160a01b036125438487611f0e565b51516080909201516001600160a01b0316911614155f6122f1565b6001600160a01b038681165f908152600a6020908152604090912091906125858588611f0e565b510151165f526020526125a260405f20546080610c678588611f0e565b926001600160a01b036125b58487611f0e565b515160608301516001600160a01b0316911614159081612758575b5061268b575b5f6001937f31f0599cb346617eb2bc74c0f970dd6ff140513cc0646449a2e54c23d19e401c6002808b0161260b848254612080565b815560078c019161261c835461208d565b8355888060a01b038c1686526008602052604086200161263d858254612080565b9055878060a01b038b16855260086020526007604086200161265f815461208d565b90555490546040805194855260208501929092529083015260a086901b869003891691606090a36123a2565b6006546126ac936001600160a01b0391821691604091906111f68689611f0e565b0381845afa90811561028d576004945f92612733575b5060209060405195868092631a12cd4760e01b82525afa93841561028d575f946126fd575b506126f56001945f92612052565b9350506125d6565b93506020843d60201161272b575b8161271860209383611e16565b8101031261014e579251926126f56126e7565b3d915061270b565b60209192506127509060403d604011610c0457610bf48183611e16565b5091906126c2565b90506001600160a01b0361276c8487611f0e565b51516080909201516001600160a01b0316911614155f6125d0565b6127a191935060e03d60e011611337576113288183611e16565b915f612240565b91506020823d6020116127e0575b816127c360209383611e16565b8101031261014e576122186127d960e093611f43565b92506121e6565b3d91506127b6565b9093506020813d60201161281c575b8161280460209383611e16565b8101031261014e5761281590611f43565b925f612195565b3d91506127f7565b6128328161214b8587611f0e565b600381101561024757612bda57509060018060a01b036004541691604051635466e24d60e01b8152602081600481875afa90811561028d575f91612ba0575b5060206001600160a01b036128868588611f0e565b515160405163cff027d960e01b81529116600482015291829060249082906001600160a01b03165afa90811561028d575f91612b5b575b5060249360e0916128dc906001600160a01b036020612202888b611f0e565b6040516315dfb15960e11b815246600482015294859182905afa92831561028d575f93612b3a575b5060806129118386611f0e565b510151926001600160a01b036129278487611f0e565b515160608301516001600160a01b0316911614159081612b0b575b50612a3e575b5f6001937fcd1438edb4d66dadd7e5d7c3e91cfab2c5d6b71a3911a01d2dbb0aee82f2b6fb858a0161297b838254612080565b8155600690818c019161298e835461208d565b8355888060a01b038c16865260086020528860408720016129b0868254612080565b9055888060a01b038c168652600860205260408620016129d0815461208d565b90555490546040805194855260208501929092529083015260a086901b869003891691606090a36080612a038386611f0e565b510151838060a01b0387165f52600a60205260405f20848060a01b036020612a2b8689611f0e565b510151165f5260205260405f20556123e5565b600654612a5f936001600160a01b0391821691604091906111f68689611f0e565b0381845afa90811561028d576004945f92612ae6575b5060209060405195868092631a12cd4760e01b82525afa93841561028d575f94612ab0575b50612aa86001945f92612052565b935050612948565b93506020843d602011612ade575b81612acb60209383611e16565b8101031261014e57925192612aa8612a9a565b3d9150612abe565b6020919250612b039060403d604011610c0457610bf48183611e16565b509190612a75565b90506001600160a01b03612b1f8487611f0e565b51516080909201516001600160a01b0316911614155f612942565b612b5491935060e03d60e011611337576113288183611e16565b915f612904565b90506020813d602011612b98575b81612b7660209383611e16565b8101031261014e576024936128dc612b8f60e093611f43565b925050936128bd565b3d9150612b69565b90506020813d602011612bd2575b81612bbb60209383611e16565b8101031261014e57612bcc90611f43565b5f612871565b3d9150612bae565b612be89061214b8486611f0e565b600381101561024757600214612c0157906001916123e5565b505050915050565b50600190612454565b5050915050565b4390555f612115565b905043105f61210f565b4390555f6120eb565b6002111561024757565b908160c091031261014e57612cb160a060405192612c5c84611d2f565b612c6581611f43565b8452612c7360208201611f43565b6020850152612c8460408201611f43565b6040850152612c9560608201611f43565b6060850152612ca660808201611f43565b608085015201611f43565b60a082015290565b15612cc057565b60405162461bcd60e51b815260206004820152601760248201527f496e76616c696420436f6d706f756e642063546f6b656e0000000000000000006044820152606490fd5b919082604091031261014e5760208251920151600481101561014e5790565b6001546001600160a01b03163303611a8c57565b80519063ffffffff60e01b90818351168452602092838101518486015f905b60088210612dcf57505050916060610200949260406080950151612d7a81612c35565b61012088015283810151610140880152604081015161016088015201519160018060a01b03835116610180870152820151166101a085015260408101516101c085015260608101516101e08501520151910152565b86806001928551815201930191019091612d57565b6001600160401b038111611d4a57601f01601f191660200190565b5f80808073f4e4fdca9d5d55e64525e314391996a15f7ec61e5afa3d15612e7a573d90612e2b82612de4565b91612e396040519384611e16565b82523d5f602084013e5b158015612e71575b612e6c5760208180518101031261014e5760200151801515810361014e5790565b505f90565b50805115612e4b565b606090612e43565b604090815191612e9183611d7a565b6060838251612e9f81611d95565b5f81528351612ead81611dde565b61010036823760208201525f8482015281525f60208201525f838201525f835193612ed785611db0565b8185528160208601528401525f828401525f60808401520152565b600435906001600160e01b03198216820361014e57565b6101a435906001600160e01b03198216820361014e57565b90604051612f2e81611d2f565b809260a082526102241161014e5760c08160a061018460205f9501370152565b9190612f5983612de4565b90612f676040519283611e16565b8193808352610224918183011161014e578281602093845f96013701015256fea2646970667358221220a381c122a3a034c07b26982d80f482194609a446b6f2eeb065211e0667cd554c64736f6c6343000819003360803461011057601f6112f138819003918201601f19168301916001600160401b0383118484101761011457808492604094855283398101031261011057610052602061004b83610128565b9201610128565b9061005c8161013c565b6100ce575b5061006b816101a8565b61007f575b604051610fed90816102a48239f35b5f805160206112b18339815191525f5260016020526100c7906001600160a01b03167fe05121899e4c04c40b7e0a2a39dcba2d093af16d5fdca78c38e106d157d2aad3610233565b505f610070565b5f80526001602052610109906001600160a01b03167fa6eef7e35abe7026729641147f7915573c7e97b47efa546f5f6e3230263bcb49610233565b505f610061565b5f80fd5b634e487b7160e01b5f52604160045260245ffd5b51906001600160a01b038216820361011057565b6001600160a01b03165f8181525f805160206112d1833981519152602052604090205460ff166101a3575f8181525f805160206112d183398151915260205260408120805460ff191660011790553391905f805160206112918339815191528180a4600190565b505f90565b6001600160a01b03165f8181527fd329ff8a035c3ce5df2b0dae604d660c0d8783bf7e64be00c1d10db96c0b87b460205260409020545f805160206112b1833981519152919060ff1661022d57815f525f60205260405f20815f5260205260405f20600160ff1982541617905533915f805160206112918339815191525f80a4600190565b50505f90565b6001810190825f528160205260405f2054155f1461029c578054680100000000000000008110156101145760018101808355811015610288578390825f5260205f20015554915f5260205260405f2055600190565b634e487b7160e01b5f52603260045260245ffd5b5050505f9056fe6080604081815260049182361015610015575f80fd5b5f3560e01c90816301ffc9a714610857575080631af6c4311461082b578063248a9ca3146108025780632505a3bd146107d65780632ad82eea146107565780632f2ff15d146106f457806336568abe146106b0578063755e936f1461063257806381e4c9a31461060457806384cf84e11461054f578063853b5d19146104cd5780639010d07c1461048e57806391d148541461044b578063a217fddf14610431578063ada8f919146103a8578063c5df91b5146102eb578063ca0d53581461026a578063ca15c87314610243578063d547741f1461020a578063e58378bb146101e35763f2fde38b14610106575f80fd5b346101df57602091826003193601126101df57610121610969565b915f80516020610f7883398151915291825f5260018552815f20908154156101cc57505f5260018060a01b039182855f205416815f525f86526101696001845f200154610a98565b61017281610cfe565b6101b2575b50805f525f855261018d6001835f200154610a98565b61019684610b72565b61019c57005b6101b0946001915f52525f20911690610e2f565b005b6101c590825f5260018752835f20610e9e565b505f610177565b603290634e487b7160e01b5f525260245ffd5b5f80fd5b50346101df575f3660031901126101df57602090515f80516020610f788339815191528152f35b50346101df57806003193601126101df576101b0913561023e600161022d610953565b93835f525f6020525f200154610a98565b610ab9565b50346101df5760203660031901126101df57602091355f5260018252805f20549051908152f35b50346101df577f69c40cdda8ad6e074bf320a4a76804a6652eb5231bda91b690dcb98010b270799061029b366108c3565b926102a4610a32565b83516020850120805f52816020526102c160ff845f2054166109e6565b5f52602052805f2060ff1981541690555160208152806102e6339460208301906109c2565b0390a2005b5090346101df5760203660031901126101df57803590610309610a32565b815f52600360205260ff835f2054161561035b577f4072861add20da436ef0a8274b90d102aea17b603f972cc8196d51f1a5d5617960208385815f5260038352805f2060ff19815416905551908152a1005b608490602084519162461bcd60e51b8352820152602160248201527f43616e6e6f74207265766f6b6520756e737570706f7274656420496d616765496044820152601160fa1b6064820152fd5b50346101df5760203660031901126101df576103c2610969565b5f80525f6020526103d86001835f200154610a98565b6103e181610af3565b61040b575b506103f033610c86565b6103f657005b6101b0905f8052600160205233905f20610e9e565b5f808052600160205282902061042a916001600160a01b031690610e2f565b50816103e6565b50346101df575f3660031901126101df57602090515f8152f35b50346101df57806003193601126101df57602091610467610953565b90355f525f8352815f209060018060a01b03165f52825260ff815f20541690519015158152f35b50346101df57806003193601126101df57602091355f52600182526104b7602435825f20610e06565b905491519160018060a01b039160031b1c168152f35b50346101df577f0a249d4766726d36cb6d6ac22cf998dc9fc02bb4ff9fda73ec1e3061c8a1db096104fd366108c3565b91610506610a32565b82516020840120805f52600260205261052560ff835f2054161561097f565b5f526002602052805f20600160ff198254161790555160208152806102e6339460208301906109c2565b5090346101df5760203660031901126101df5780359061056d610a32565b815f52600360205260ff835f2054166105c1577f010120d82c0c66b257c0ea628d405b1d3c2d37bb8dd9141f6c5c12cb0375c57260208385815f5260038352805f20600160ff1982541617905551908152a1005b606490602084519162461bcd60e51b8352820152601c60248201527f496d616765494420697320616c726561647920737570706f72746564000000006044820152fd5b50346101df57602090610616366108c3565b8281519101205f526002825260ff815f20541690519015158152f35b50346101df577f66e43f8252a3257fe010a4fd6ae50f57624762cc64a6eceadb04b18cfdefac7d610662366108c3565b9161066b610a32565b82516020840120805f52600260205261068960ff835f2054166109e6565b5f526002602052805f2060ff1981541690555160208152806102e6339460208301906109c2565b50346101df57806003193601126101df576106c9610953565b90336001600160a01b038316036106e557506101b09135610ab9565b5163334bd91960e11b81529050fd5b5090346101df57816003193601126101df573590610710610953565b90825f525f6020526107276001825f200154610a98565b6107318284610c10565b61073757005b5f92835260016020529091206101b0916001600160a01b031690610e2f565b50346101df577fcbfa55581c230aeb174d969838d927cdd297755dfb967a33134312f1377ee71d90610787366108c3565b92610790610a32565b83516020850120805f52816020526107ae60ff845f2054161561097f565b5f52602052805f20600160ff198254161790555160208152806102e6339460208301906109c2565b50346101df576020916107e8366108c3565b8381519101205f52825260ff815f20541690519015158152f35b50346101df5760203660031901126101df57602091355f525f82526001815f2001549051908152f35b50346101df5760203660031901126101df57602091355f526003825260ff815f20541690519015158152f35b83346101df5760203660031901126101df57359063ffffffff60e01b82168092036101df57602091635a05180f60e01b8114908115610898575b5015158152f35b637965db0b60e01b8114915081156108b2575b5083610891565b6301ffc9a760e01b149050836108ab565b60206003198201126101df5767ffffffffffffffff906004358281116101df57816023820112156101df5780600401359183831161093f5760405193601f8401601f19908116603f011685019081118582101761093f57604052828452602483830101116101df57815f92602460209301838601378301015290565b634e487b7160e01b5f52604160045260245ffd5b602435906001600160a01b03821682036101df57565b600435906001600160a01b03821682036101df57565b1561098657565b60405162461bcd60e51b815260206004820152601460248201527312d95e481a5cc8185b1c9958591e481d985b1a5960621b6044820152606490fd5b805180835260209291819084018484015e5f828201840152601f01601f1916010190565b156109ed57565b60405162461bcd60e51b815260206004820152601960248201527f43616e6e6f74207265766f6b6520696e76616c6964206b6579000000000000006044820152606490fd5b335f9081527fd329ff8a035c3ce5df2b0dae604d660c0d8783bf7e64be00c1d10db96c0b87b460205260409020545f80516020610f788339815191529060ff1615610a7a5750565b6044906040519063e2517d3f60e01b82523360048301526024820152fd5b805f525f60205260405f20335f5260205260ff60405f20541615610a7a5750565b610ac38282610d94565b9182610ace57505090565b5f91825260016020526040909120610aef916001600160a01b031690610e9e565b5090565b6001600160a01b03165f8181525f80516020610f98833981519152602052604090205460ff16610b6d575f8181525f80516020610f9883398151915260205260408120805460ff191660011790553391907f2f8788117e7eff1d82e926ec794901d17c78024a50270940304540a733656f0d8180a4600190565b505f90565b6001600160a01b03165f8181527fd329ff8a035c3ce5df2b0dae604d660c0d8783bf7e64be00c1d10db96c0b87b460205260409020545f80516020610f78833981519152919060ff16610c0a57815f525f60205260405f20815f5260205260405f20600160ff1982541617905533917f2f8788117e7eff1d82e926ec794901d17c78024a50270940304540a733656f0d5f80a4600190565b50505f90565b90815f525f60205260405f209060018060a01b031690815f5260205260ff60405f205416155f14610c0a57815f525f60205260405f20815f5260205260405f20600160ff1982541617905533917f2f8788117e7eff1d82e926ec794901d17c78024a50270940304540a733656f0d5f80a4600190565b6001600160a01b03165f8181525f80516020610f98833981519152602052604090205460ff1615610b6d575f8181525f80516020610f9883398151915260205260408120805460ff191690553391907ff6391f5c32d9c69d2a47ea670b442974b53935d1edc7fd64eb21e047a839171b8180a4600190565b6001600160a01b03165f8181527fd329ff8a035c3ce5df2b0dae604d660c0d8783bf7e64be00c1d10db96c0b87b460205260409020545f80516020610f78833981519152919060ff1615610c0a57815f525f60205260405f20815f5260205260405f2060ff19815416905533917ff6391f5c32d9c69d2a47ea670b442974b53935d1edc7fd64eb21e047a839171b5f80a4600190565b90815f525f60205260405f209060018060a01b031690815f5260205260ff60405f2054165f14610c0a57815f525f60205260405f20815f5260205260405f2060ff19815416905533917ff6391f5c32d9c69d2a47ea670b442974b53935d1edc7fd64eb21e047a839171b5f80a4600190565b8054821015610e1b575f5260205f2001905f90565b634e487b7160e01b5f52603260045260245ffd5b6001810190825f528160205260405f2054155f14610e975780546801000000000000000081101561093f57610e84610e6e826001879401855584610e06565b819391549060031b91821b915f19901b19161790565b905554915f5260205260405f2055600190565b5050505f90565b906001820191815f528260205260405f2054908115155f14610f6f575f1991808301818111610f5b57825490848201918211610f5b57818103610f26575b50505080548015610f1257820191610ef48383610e06565b909182549160031b1b19169055555f526020525f6040812055600190565b634e487b7160e01b5f52603160045260245ffd5b610f46610f36610e6e9386610e06565b90549060031b1c92839286610e06565b90555f528460205260405f20555f8080610edc565b634e487b7160e01b5f52601160045260245ffd5b505050505f9056feb19546dff01e856fb3f010c267a7b1c60363cf8a4664e21cc89c26224620214ead3228b676f7d3cd4284a5443f17f1962b36e491b30a40b2405849e597ba5fb5a26469706673582212201f4d9318373924bcd6e34b8af4bfcc6a9d267068497146be0a9bea71c4accfa064736f6c634300081900332f8788117e7eff1d82e926ec794901d17c78024a50270940304540a733656f0db19546dff01e856fb3f010c267a7b1c60363cf8a4664e21cc89c26224620214ead3228b676f7d3cd4284a5443f17f1962b36e491b30a40b2405849e597ba5fb560e0346101ab576001600160401b0390601f61116a38819003918201601f191683019184831184841017610124578084926020946040528339810103126101ab57516001600160a01b03919082811681036101ab5760c0526001461480156101a1575b8015610197575b801561018c575b8015610181575b8015610176575b801561016b575b8015610160575b8015610155575b801561014a575b61013857604051906106e880830191821183831017610124576020918391610a82833963deafbeef60e01b81520301905ff08015610119571660a05260016080526040516108d290816101b0823960805181818160c5015261059a015260a0518181816101b701526105ef015260c05181818161017b01526106330152f35b6040513d5f823e3d90fd5b634e487b7160e01b5f52604160045260245ffd5b604051633d23e4d160e11b8152600490fd5b5061e708461461009a565b5061a4ba4614610093565b5061a4b1461461008c565b506121054614610085565b506102eb461461007e565b506101e04614610077565b506101444614610070565b5060894614610069565b50600a4614610062565b5f80fdfe60806040818152600480361015610014575f80fd5b5f915f3560e01c93846308c84e70146105dd575083633fd66f221461005a5783639a44ea8414610587578363c4fa74e51461005f5750505063f4cbae941461005a575f80fd5b61061e565b346102dd5736600319019161028083126102dd5761022083126102dd576001600160a01b039061024435828116908190036102dd576001600160e01b03196102643581811692908390036102dd57856100b7366106af565b5101516002811015610574577f00000000000000000000000000000000000000000000000000000000000000009060028210156105615703610529576100fc366106af565b9060608201908682515116036104f55760209383858351015116036104bf5786815101514603610489576060815101514311156104365760608151015161010081018091116104235743116103d4575160606080820151910151400361039c5782015193855194631af6c43160e01b86528486015260249483818781857f0000000000000000000000000000000000000000000000000000000000000000165afa908115610392575f91610333575b50156102f157610140907f00000000000000000000000000000000000000000000000000000000000000001696126102dd578451906101e982610662565b833590811681036102dd57815236604312156102dd57845161020a81610692565b80610124913683116102dd578487915b8483106102e157509050830152359060028210156102dd5761023f91868201526107d9565b90853b156102dd576084955f92865197888094819363ab750e7560e01b83526060898401528051918291826064860152018484015e81810183018790526101443589830152610224356044830152601f01601f191681010301915afa80156102d3576102a9578480f35b909192935067ffffffffffffffff84116102c257505052005b604190634e487b7160e01b5f52525ffd5b83513d5f823e3d90fd5b5f80fd5b823581529181019186910161021a565b855162461bcd60e51b81528085018490526017818701527f556e737570706f727465642043616c6c477565737449640000000000000000006044820152606490fd5b9050833d851161038b575b601f8101601f1916820167ffffffffffffffff81118382101761037957859183918a52810103126102dd575180151581036102dd57896101ab565b87604188634e487b7160e01b5f52525ffd5b503d61033e565b87513d5f823e3d90fd5b855162461bcd60e51b81528085018490526012602482015271092dcecc2d8d2c840c4d8dec6d640d0c2e6d60731b6044820152606490fd5b865162461bcd60e51b8152808601859052602360248201527f496e76616c696420626c6f636b206e756d6265723a20626c6f636b20746f6f206044820152621bdb1960ea1b6064820152608490fd5b601186634e487b7160e01b5f525260245ffd5b865162461bcd60e51b8152808601859052602760248201527f496e76616c696420626c6f636b206e756d6265723a20626c6f636b2066726f6d6044820152662066757475726560c81b6064820152608490fd5b865162461bcd60e51b8152808601859052601060248201526f125b9d985b1a590818da185a5b881a5960821b6044820152606490fd5b865162461bcd60e51b8152808601859052601060248201526f24b73b30b634b21039b2b632b1ba37b960811b6044820152606490fd5b865162461bcd60e51b8152602081870152600e60248201526d24b73b30b634b210383937bb32b960911b6044820152606490fd5b855162461bcd60e51b81526020818601526012602482015271496e76616c69642070726f6f66206d6f646560701b6044820152606490fd5b602186634e487b7160e01b5f525260245ffd5b602185634e487b7160e01b5f525260245ffd5b346102dd575f3660031901126102dd57517f000000000000000000000000000000000000000000000000000000000000000060028110156105ca57602092508152f35b602183634e487b7160e01b5f525260245ffd5b346102dd575f3660031901126102dd577f00000000000000000000000000000000000000000000000000000000000000006001600160a01b03168152602090f35b346102dd575f3660031901126102dd576040517f00000000000000000000000000000000000000000000000000000000000000006001600160a01b03168152602090f35b6060810190811067ffffffffffffffff82111761067e57604052565b634e487b7160e01b5f52604160045260245ffd5b610100810190811067ffffffffffffffff82111761067e57604052565b6003198101919061022083126102dd576040805167ffffffffffffffff9291608082018481118382101761067e578082526101408397126102dd576106f381610662565b6001600160e01b03199360043585811681036102dd57825280604312156102dd57825161071f81610692565b80610124918383116102dd576024905b8382106107c957505060a0860152359160028310156102dd5760a09260c0860152845261014435602085015261016435838501526101831901126102dd5780519360a085019081118582101761067e578152610184356001600160a01b03811681036102dd5784526101a43592831683036102dd5760609260208501526101c435908401526101e435828401526102043560808401520152565b813581526020918201910161072f565b6040810151600281101561088857600190810361082257506020810151519063ffffffff60e01b9051169060405191602083015260248201526024815261081f81610662565b90565b81516020928301516040516001600160e01b03199092168285015290925f602485015b600882106108755750505050506101048152610140810181811067ffffffffffffffff82111761067e5760405290565b8351815292820192908401908201610845565b634e487b7160e01b5f52602160045260245ffdfea26469706673582212203853dfda968a756d3809b64b1b521f7db2d1668a21d922a28d35ecf6fe959f0664736f6c6343000819003360a034607557601f6106e838819003918201601f19168301916001600160401b03831184841017607957808492602094604052833981010312607557516001600160e01b03198116810360755760805260405161065a908161008e82396080518181816101a60152818161028401526103040152f35b5f80fd5b634e487b7160e01b5f52604160045260245ffdfe60808060405260049081361015610014575f80fd5b5f3560e01c908163053c238d14610194575080631599ead5146101285780633a115bb11461010957806366cf0e4b146100c25763ab750e7514610055575f80fd5b346100be5760603660031901126100be57803567ffffffffffffffff918282116100be57366023830112156100be578101359182116100be5736602483830101116100be576100bc9160246100b56100b06044358335610400565b61052c565b92016102ed565b005b5f80fd5b50346100be5760403660031901126100be576100f96100f46100b0610105936100e961025d565b506024359035610400565b610276565b604051918291826101d6565b0390f35b50346100be5760203660031901126100be576100f96101059135610276565b50346100be576003196020368201126100be5781359167ffffffffffffffff918284116100be576040843603918201126100be578184013590602219018112156100be578301908101359182116100be576024019080360382136100be5760246100bc930135916102ed565b346100be575f3660031901126100be577f00000000000000000000000000000000000000000000000000000000000000006001600160e01b0319168152602090f35b60208060809381845280516040838601528051938491826060880152018686015e5f84840186015201516040830152601f01601f1916010190565b6040810190811067ffffffffffffffff82111761022d57604052565b634e487b7160e01b5f52604160045260245ffd5b60a0810190811067ffffffffffffffff82111761022d57604052565b6040519061026a82610211565b5f602083606081520152565b61027e61025d565b506040517f00000000000000000000000000000000000000000000000000000000000000006001600160e01b03191660208201526024808201839052815260608101919067ffffffffffffffff83118184101761022d57608090836040526102e584610211565b808452015290565b91906004928184116100be576001600160e01b03197f00000000000000000000000000000000000000000000000000000000000000008116908235168082036103e3575050600319820167ffffffffffffffff918282116103d05760405192601b8501601f19908116603f01168401908111848210176103bd57604052818352602083019336818301116100be575f9287601c93018637830101525190209060405160208101918252602081526103a381610211565b519020036103ae5750565b60405163439cc0cd60e01b8152fd5b604187634e487b7160e01b5f525260245ffd5b604186634e487b7160e01b5f525260245ffd5b604491869160405192632e2ce35360e21b84528301526024820152fd5b9060409081519161041083610241565b5f83525f60806020948286820152835161042981610211565b838152838782015284820152826060820152015280519161044983610211565b5f83525f8484015281519061045d82610211565b81528381015f8152845f600c85516b1c9a5cd8cc0b93dd5d1c1d5d60a21b815260025afa156105225784915f91825191519051855191858301938452868301526060820152600160f91b6080820152606281526104b981610241565b8451918291518091835e8101838152039060025afa15610519577fa3acc27117418996340b84e5a90f3ef4c49d22c79e44aad822ec9c313e1eb8e25f519382519561050387610241565b86528501528301525f6060830152608082015290565b513d5f823e3d90fd5b82513d5f823e3d90fd5b60409060205f601284517172697363302e52656365697074436c61696d60701b815260025afa1561061a575f516060820151918051602082015191856080820151910192835151936003851015610606576020905101519287519660208801968752888801526060870152608086015260a085015260ff60f81b809260f81b1660c085015260f81b1660c4830152600160fa1b60c883015260aa825260e0820182811067ffffffffffffffff82111761022d576020925f9282865281518091845e81018360e0820152039060025afa1561051957505f5190565b634e487b7160e01b5f52602160045260245ffd5b50513d5f823e3d90fdfea26469706673582212206c9fb2eb22390b1b5e8d9eeefcc43b18c02d539b1e1f6c237ef9254655d5131b64736f6c63430008190033","linkReferences":{}},"methodIdentifiers":{"_setTestVerifier(address)":"9b8b30c8","acceptOwnership()":"79ba5097","calculateCreditScore(address)":"f1c3753a","claim(((bytes4,bytes32[8],uint8),bytes32,uint256,(address,bytes4,uint256,uint256,bytes32)),address,(address,address,uint256,uint256,uint256,uint8)[])":"9ca6ce2f","claimCompoundData(((bytes4,bytes32[8],uint8),bytes32,uint256,(address,bytes4,uint256,uint256,bytes32)),address,(address,address,uint256,uint256,uint256,uint8)[])":"ac6dca90","creditScoreCalculator()":"ece017fb","getCreditScore(address)":"d3dd2bdf","owner()":"8da5cb5b","pendingOwner()":"e30c3978","priceOracle()":"2630c12f","prover()":"32a8f30f","registry()":"7b103999","renounceOwnership()":"715018a6","setPriceOracle(address)":"530e784f","totals(address)":"4ffe34db","transferOwnership(address)":"f2fde38b","usersInfo(address,uint8)":"c9579ee8","verifier()":"2b7ac3f3"},"id":85}