{"abi":[{"type":"constructor","inputs":[{"name":"_prover","type":"address","internalType":"address"},{"name":"_registry","type":"address","internalType":"contract Registry"},{"name":"_creditScoreCalculator","type":"address","internalType":"address"},{"name":"_priceOracle","type":"address","internalType":"address"}],"stateMutability":"nonpayable"},{"type":"function","name":"_setTestVerifier","inputs":[{"name":"newVerifier","type":"address","internalType":"contract IProofVerifier"}],"outputs":[],"stateMutability":"nonpayable"},{"type":"function","name":"calculateCreditScore","inputs":[{"name":"user","type":"address","internalType":"address"},{"name":"protocol","type":"uint8","internalType":"enum Protocol"}],"outputs":[{"name":"score","type":"uint256","internalType":"uint256"},{"name":"tier","type":"uint8","internalType":"uint8"}],"stateMutability":"view"},{"type":"function","name":"claim","inputs":[{"name":"","type":"tuple","internalType":"struct Proof","components":[{"name":"seal","type":"tuple","internalType":"struct Seal","components":[{"name":"verifierSelector","type":"bytes4","internalType":"bytes4"},{"name":"seal","type":"bytes32[8]","internalType":"bytes32[8]"},{"name":"mode","type":"uint8","internalType":"enum ProofMode"}]},{"name":"callGuestId","type":"bytes32","internalType":"bytes32"},{"name":"length","type":"uint256","internalType":"uint256"},{"name":"callAssumptions","type":"tuple","internalType":"struct CallAssumptions","components":[{"name":"proverContractAddress","type":"address","internalType":"address"},{"name":"functionSelector","type":"bytes4","internalType":"bytes4"},{"name":"settleChainId","type":"uint256","internalType":"uint256"},{"name":"settleBlockNumber","type":"uint256","internalType":"uint256"},{"name":"settleBlockHash","type":"bytes32","internalType":"bytes32"}]}]},{"name":"claimer","type":"address","internalType":"address"},{"name":"tokens","type":"tuple[]","internalType":"struct Erc20Token[]","components":[{"name":"underlingTokenAddress","type":"address","internalType":"address"},{"name":"aTokenAddress","type":"address","internalType":"address"},{"name":"chainId","type":"uint256","internalType":"uint256"},{"name":"blockNumber","type":"uint256","internalType":"uint256"},{"name":"balance","type":"uint256","internalType":"uint256"},{"name":"tokenType","type":"uint8","internalType":"enum TokenType"}]}],"outputs":[],"stateMutability":"nonpayable"},{"type":"function","name":"creditScoreCalculator","inputs":[],"outputs":[{"name":"","type":"address","internalType":"contract CreditModel"}],"stateMutability":"view"},{"type":"function","name":"getCreditScore","inputs":[{"name":"user","type":"address","internalType":"address"},{"name":"protocol","type":"uint8","internalType":"enum Protocol"}],"outputs":[{"name":"score","type":"uint256","internalType":"uint256"}],"stateMutability":"view"},{"type":"function","name":"priceOracle","inputs":[],"outputs":[{"name":"","type":"address","internalType":"contract IUniswapV2PriceOracle"}],"stateMutability":"view"},{"type":"function","name":"prover","inputs":[],"outputs":[{"name":"","type":"address","internalType":"address"}],"stateMutability":"view"},{"type":"function","name":"recordLiquidation","inputs":[{"name":"user","type":"address","internalType":"address"},{"name":"protocol","type":"uint8","internalType":"enum Protocol"}],"outputs":[],"stateMutability":"nonpayable"},{"type":"function","name":"registry","inputs":[],"outputs":[{"name":"","type":"address","internalType":"contract Registry"}],"stateMutability":"view"},{"type":"function","name":"usersInfo","inputs":[{"name":"user","type":"address","internalType":"address"},{"name":"protocol","type":"uint8","internalType":"enum Protocol"}],"outputs":[{"name":"","type":"tuple","internalType":"struct IVerifier.UserInfo","components":[{"name":"borrowedAmount","type":"uint256","internalType":"uint256"},{"name":"suppliedAmount","type":"uint256","internalType":"uint256"},{"name":"repaidAmount","type":"uint256","internalType":"uint256"},{"name":"latestBlock","type":"uint256","internalType":"uint256"},{"name":"latestBalance","type":"uint256","internalType":"uint256"},{"name":"borrowTimes","type":"uint256","internalType":"uint256"},{"name":"supplyTimes","type":"uint256","internalType":"uint256"},{"name":"repayTimes","type":"uint256","internalType":"uint256"},{"name":"firstActivityBlock","type":"uint256","internalType":"uint256"},{"name":"liquidations","type":"uint256","internalType":"uint256"}]}],"stateMutability":"view"},{"type":"function","name":"verifier","inputs":[],"outputs":[{"name":"","type":"address","internalType":"contract IProofVerifier"}],"stateMutability":"view"},{"type":"event","name":"UserBorrowed","inputs":[{"name":"user","type":"address","indexed":true,"internalType":"address"},{"name":"protocol","type":"uint8","indexed":true,"internalType":"enum Protocol"},{"name":"amount","type":"uint256","indexed":false,"internalType":"uint256"},{"name":"newTotalBorrowed","type":"uint256","indexed":false,"internalType":"uint256"},{"name":"borrowCount","type":"uint256","indexed":false,"internalType":"uint256"}],"anonymous":false},{"type":"event","name":"UserRepaid","inputs":[{"name":"user","type":"address","indexed":true,"internalType":"address"},{"name":"protocol","type":"uint8","indexed":true,"internalType":"enum Protocol"},{"name":"amount","type":"uint256","indexed":false,"internalType":"uint256"},{"name":"newTotalRepaid","type":"uint256","indexed":false,"internalType":"uint256"},{"name":"repayCount","type":"uint256","indexed":false,"internalType":"uint256"}],"anonymous":false},{"type":"event","name":"UserSupplied","inputs":[{"name":"user","type":"address","indexed":true,"internalType":"address"},{"name":"protocol","type":"uint8","indexed":true,"internalType":"enum Protocol"},{"name":"amount","type":"uint256","indexed":false,"internalType":"uint256"},{"name":"newTotalSupplied","type":"uint256","indexed":false,"internalType":"uint256"},{"name":"supplyCount","type":"uint256","indexed":false,"internalType":"uint256"}],"anonymous":false},{"type":"error","name":"InvalidChainId","inputs":[]}],"bytecode":{"object":"0x60a080604052346100c8576080816142ca803803809161001f82856100cc565b8339810103126100c85761003281610103565b602082015190916001600160a01b039182811691908290036100c8578061006860606100616040879501610103565b9201610103565b928280610073610117565b169660018060a01b031997885f5416175f55336080521686600154161760015585600254161760025516836003541617600355169060045416176004556040516119f7908161047882396080518161070f0152f35b5f80fd5b601f909101601f19168101906001600160401b038211908210176100ef57604052565b634e487b7160e01b5f52604160045260245ffd5b51906001600160a01b03821682036100c857565b5f617a69461480156103d9575b80156103cb575b1561024157604080516001600160401b0392906112f180820190858211838310176100ef5784918391611e6f83393081523060208201520301905ff0928315610237576001600160a01b0393841690813b156100c85783516384cf84e160e01b81527fb4248e4b5d3298922937afd56d86ac391f3ac2ea06f9764b30e92d377afaf51d60048201525f8160248183875af1801561022d57610219575b5083519161116a80840192831184841017610205579183916020936131608439815203019082f09182156101fb5750501690565b51903d90823e3d90fd5b634e487b7160e01b85526041600452602485fd5b9080935081116100ef5783525f915f6101c7565b85513d5f823e3d90fd5b82513d5f823e3d90fd5b506001461480156103c1575b80156103b7575b80156103ac575b80156103a1575b8015610396575b801561038b575b8015610380575b8015610375575b801561036a575b156102a257731ee8a3b907ebcdfc33f76e3c7aae6ffd2efa5b7390565b62aa36a74614801561035f575b8015610354575b8015610349575b801561033e575b8015610332575b8015610326575b801561031a575b801561030e575b6102f657604051633d23e4d160e11b8152600490fd5b737925a78734fc7f2cb69d7e03d81467bb851f9eb890565b5062aa37dc46146102e0565b5062066eee46146102d9565b5062014a3446146102d2565b506201388246146102cb565b5061e70546146102c4565b506112c146146102bd565b5061022146146102b6565b5061012c46146102af565b5061e7084614610285565b5061a4ba461461027e565b5061a4b14614610277565b506121054614610270565b506102eb4614610269565b506101e04614610262565b50610144461461025b565b5060894614610254565b50600a461461024d565b506103d46103e5565b61012b565b50620499194614610124565b5f80808073f4e4fdca9d5d55e64525e314391996a15f7ec61e5afa3d1561046f573d906001600160401b0382116100ef576040519161042e601f8201601f1916602001846100cc565b82523d5f602084013e5b158015610466575b610461576020818051810103126100c8576020015180151581036100c85790565b505f90565b50805115610440565b60609061043856fe6080806040526004361015610012575f80fd5b5f905f3560e01c9081632630c12f14610ba1575080632b7ac3f314610b7a57806332a8f30f14610b525780636b275f7e14610ace5780637b10399914610aa657806385eec73e146109915780639b8b30c8146106e35780639ca6ce2f146101f15780639e210447146101b2578063c9579ee8146100c25763ece017fb14610097575f80fd5b346100bf57806003193601126100bf576003546040516001600160a01b039091168152602090f35b80fd5b50346100bf5761013d6101409160096100da36610bd8565b60408095929551946100eb86610c07565b80865280602087015280828701528060608701528060808701528060a08701528060c08701528060e0870152610100968188880152816101208098015260018060a01b03168152600560205220610d12565b6040519361014a85610c07565b8154855260018201546020860152600282015460408601526003820154606086015260048201546080860152600582015460a0860152600682015460c0860152600782015460e08601526008820154908501520154908201526101b06040518092610cb1565bf35b50346100bf5760096101e16101c636610bd8565b6001600160a01b039091168452600560205260408420610d12565b016101ec8154610e98565b905580f35b5034610634576102603660031901126106345761022036600319011261063457610224356001600160a01b038116900361063457610244356001600160401b0381116106345736602382011215610634578060040135906001600160401b038211610615576040519161026a60208260051b0184610c90565b808352602083019136602460c0840283010111610634579160248301925b602460c08402820101841061065c57600154869086906001600160a01b03166102af611951565b5036600411610634576040516102c481610c23565b610140366003190112610634576040516102dd81610c3e565b6004356001600160e01b03198116810361063457815236604312156106345760405161030881610c74565b803661012411610634576024905b610124821061064c575050602082015261012435600281101561063457604082015281526101443560208201526040810161016435815260a0610183193601126106345760405161036681610c59565b610184356001600160a01b03811681036106345781526101a4356001600160e01b0319811681036106345760208201526101c43560408201526101e435606082015261020435608082015260608301525161021f198101818111610638576102bf1982011161063857609b19810161022411610638573661022411610634576040518060c08101106001600160401b0360c0830111176106155760c0810160405260a0815260a061018460208301375f60c082015236609b19830111610634575f6104356102bf1984016118b3565b926104436040519485610c90565b6102bf1981018085526102246020860137830161029f190152610464611951565b5061046d611951565b9161047f604051936020850190611804565b6102208352826102408101106001600160401b036102408501111761061557825f926104ff602083816102409687829a0160405281610260840196805191829101885e83016102608101908a825284518092858701905e019061026082018a8152815193849201905e018761026082015203808686015201848401610c90565b60405192839201518091835e8101838152039060025afa15610629575f519160018060a01b035f541690813b15610634575f926105569261028492604051968795869463c4fa74e560e01b86526004860190611804565b610224840152610244830152633da2877560e11b6102648301525afa8015610629576105f9575b50610224356001600160a01b031633036105a15761059e9061022435610eb3565b80f35b60405162461bcd60e51b815260206004820152602a60248201527f4f6e6c792074686520636c61696d65722063616e20757064617465207468656960448201526972206f776e206461746160b01b6064820152608490fd5b9091506001600160401b038111610615576040525f908261057d565b634e487b7160e01b5f52604160045260245ffd5b6040513d5f823e3d90fd5b5f80fd5b634e487b7160e01b5f52601160045260245ffd5b8135815260209182019101610316565b60c0843603126106345760405160c081018181106001600160401b038211176106155760405261068b85610bc4565b815261069960208601610bc4565b602082015260408501356040820152606080860135908201526080808601359082015260a08086013590600382101561063457820152825260c09390930192602090910190610288565b3461063457602080600319360112610634576004356001600160a01b03818116929183900361063457807f000000000000000000000000000000000000000000000000000000000000000016330361094257617a6946148015610936575b8015610928575b801561088f575b1561082457604051631feb379160e11b81528281600481875afa908115610629575f916107ee575b50161561079957506bffffffffffffffffffffffff60a01b5f5416175f555f80f35b6084906040519062461bcd60e51b82526004820152602860248201527f56657269666965722773207265706f7369746f72792061646472657373206973604482015267081b9bdd081cd95d60c21b6064820152fd5b90508281813d831161081d575b6108058183610c90565b81010312610634575181811681036106345784610777565b503d6107fb565b60405162461bcd60e51b815260048101839052603760248201527f4368616e67696e6720766572696669657273206973206f6e6c7920616c6c6f7760448201527f6564206f6e206465766e6574206f7220746573746e65740000000000000000006064820152608490fd5b5062aa36a74614801561091d575b8015610912575b8015610907575b80156108fc575b80156108f0575b80156108e4575b80156108d8575b8061074f575062aa37dc461461074f565b5062066eee46146108c7565b5062014a3446146108c0565b506201388246146108b9565b5061e70546146108b2565b506112c146146108ab565b5061022146146108a4565b5061012c461461089d565b506109316118ce565b610748565b50620499194614610741565b60405162461bcd60e51b815260048101839052602160248201527f4f6e6c79206465706c6f7965722063616e206368616e676520766572696669656044820152603960f91b6064820152608490fd5b34610634576109c96040610a546101646109aa36610bd8565b6001600160a01b039182165f9081526005602052859020919591610d12565b9360098451956109d887610c07565b80548752600181015460208801526002810154868801526003810154606088015260048101546080880152600581015460a0880152600681015460c0880152600781015460e08801526008810154610100880152015461012086015260035416938351948593849263b933466160e01b84526004840190610cb1565b436101448301525afa8015610629576020915f91610a76575b50604051908152f35b610a98915060403d604011610a9f575b610a908183610c90565b810190610d28565b5082610a6d565b503d610a86565b34610634575f366003190112610634576002546040516001600160a01b039091168152602090f35b34610634576109c96040610ae76101646109aa36610bd8565b436101448301525afa908115610629575f905f92610b30575b506004821015610b1c5760ff6040928351928352166020820152f35b634e487b7160e01b5f52602160045260245ffd5b9050610b4b915060403d604011610a9f57610a908183610c90565b9082610b00565b34610634575f366003190112610634576001546040516001600160a01b039091168152602090f35b34610634575f366003190112610634575f546040516001600160a01b039091168152602090f35b34610634575f366003190112610634576004546001600160a01b03168152602090f35b35906001600160a01b038216820361063457565b6040906003190112610634576004356001600160a01b0381168103610634579060243560078110156106345790565b61014081019081106001600160401b0382111761061557604052565b608081019081106001600160401b0382111761061557604052565b606081019081106001600160401b0382111761061557604052565b60a081019081106001600160401b0382111761061557604052565b61010081019081106001600160401b0382111761061557604052565b90601f801991011681019081106001600160401b0382111761061557604052565b805182526020810151602083015260408101516040830152606081015160608301526080810151608083015260a081015160a083015260c081015160c083015260e081015160e0830152610100808201519083015261012080910151910152565b906007811015610b1c575f5260205260405f2090565b9190826040910312610634576020825192015160048110156106345790565b8051821015610d5b5760209160051b010190565b634e487b7160e01b5f52603260045260245ffd5b516003811015610b1c5790565b51906001600160a01b038216820361063457565b15610d9757565b60405162461bcd60e51b815260206004820152601260248201527124b73b30b634b21020b0bb32903a37b5b2b760711b6044820152606490fd5b908160e0910312610634576040519060e082018281106001600160401b0382111761061557610e669160c091604052610e0981610d7c565b8452610e1760208201610d7c565b6020850152610e2860408201610d7c565b6040850152610e3960608201610d7c565b6060850152610e4a60808201610d7c565b6080850152610e5b60a08201610d7c565b60a085015201610d7c565b60c082015290565b919082604091031261063457610e88602083519301610d7c565b90565b9190820180921161063857565b5f1981146106385760010190565b9190820391821161063857565b6001600160a01b0381165f90815260056020908152604080832083805290915290206008810180549194929391156117fb575b505f5b81518110156117f4576060610efe8284610d47565b5101516001600160a01b038581165f90815260066020908152604080832083805282529091209190610f308587610d47565b510151165f5260205260405f20815f5260205260ff60405f20541661179657600386015481111561178d5760a0610f7281610f6b8587610d47565b5101610d6f565b6003811015610b1c5760010361148a5750600254604051635466e24d60e01b81526001600160a01b03909116929190602081600481875afa908115610629575f91611450575b5060206001600160a01b03610fcd8588610d47565b51516040516301b2848560e51b81529116600482015291829060249082906001600160a01b03165afa908115610629575f9161140b575b5060249360e091611039906001600160a01b036020611023888b610d47565b5101516001600160a01b03909216911614610d90565b6040516315dfb15960e11b815246600482015294859182905afa928315610629575f936113da575b50600487015460806110738487610d47565b5101518111611284575061109a608061108c8487610d47565b510151600489015490610ea6565b926001600160a01b036110ad8487610d47565b515160608301516001600160a01b0316911614159081611255575b506111b2575b5f837fe8cc2ad0d253330825986983bb2c50a071aea72c26e8d12c57ef620521a395f26110fe6001968b54610e8b565b808b5560058b01906111108254610e98565b80925561113c6040519283928d8b8060a01b031696846040919493926060820195825260208201520152565b0390a35b608061114c8386610d47565b51015160048801555b806003880155828060a01b0386165f52600660205260405f205f805260205260405f20838060a01b03602061118a8588610d47565b510151165f5260205260405f20905f5260205260405f208260ff198254161790555b01610ee9565b600454611205936040916001600160a01b03908116906111d28689610d47565b5151168351809781948293633d72885960e11b84526004840160209093929193604081019460018060a01b031681520152565b03915afa928315610629576001935f918291611225575b509350506110ce565b611247915060403d60401161124e575b61123f8183610c90565b810190610e6e565b505f61121c565b503d611235565b90506001600160a01b036112698487610d47565b51516080909201516001600160a01b0316911614155f6110c8565b61129d9060806112948588610d47565b51015190610ea6565b926001600160a01b036112b08487610d47565b515160608301516001600160a01b03169116141590816113ab575b5061134b575b5f6001937f31f0599cb346617eb2bc74c0f970dd6ff140513cc0646449a2e54c23d19e401c60028a01611305838254610e8b565b80915560078b01906113178254610e98565b8092556113436040519283928d8b8060a01b031696846040919493926060820195825260208201520152565b0390a3611140565b60045461136b936040916001600160a01b03908116906111d28689610d47565b03915afa928315610629576001935f91829161138b575b509350506112d1565b6113a4915060403d60401161124e5761123f8183610c90565b505f611382565b90506001600160a01b036113bf8487610d47565b51516080909201516001600160a01b0316911614155f6112cb565b6113fd91935060e03d60e011611404575b6113f58183610c90565b810190610dd1565b915f611061565b503d6113eb565b90506020813d602011611448575b8161142660209383610c90565b810103126106345760249361103961143f60e093610d7c565b92505093611004565b3d9150611419565b90506020813d602011611482575b8161146b60209383610c90565b810103126106345761147c90610d7c565b5f610fb8565b3d915061145e565b61149881610f6b8587610d47565b6003811015610b1c5761175e5750600254604051635466e24d60e01b81526001600160a01b03909116929190602081600481875afa908115610629575f91611724575b5060206001600160a01b036114f08588610d47565b515160405163cff027d960e01b81529116600482015291829060249082906001600160a01b03165afa908115610629575f916116df575b5060249360e091611546906001600160a01b036020611023888b610d47565b6040516315dfb15960e11b815246600482015294859182905afa928315610629575f936116be575b506080928361157d8487610d47565b510151936001600160a01b036115938588610d47565b515160608401516001600160a01b031691161415918261168e575b505061162e575b5f6001937fcd1438edb4d66dadd7e5d7c3e91cfab2c5d6b71a3911a01d2dbb0aee82f2b6fb858a016115e8838254610e8b565b80915560068b01906115fa8254610e98565b8092556116266040519283928d8b8060a01b031696846040919493926060820195825260208201520152565b0390a3611155565b60045461164e936040916001600160a01b03908116906111d28689610d47565b03915afa928315610629576001935f91829161166e575b509350506115b5565b611687915060403d60401161124e5761123f8183610c90565b505f611665565b9091506001600160a01b036116a38588610d47565b515191909201516001600160a01b0316911614155f806115ae565b6116d891935060e03d60e011611404576113f58183610c90565b915f61156e565b90506020813d60201161171c575b816116fa60209383610c90565b810103126106345760249361154661171360e093610d7c565b92505093611527565b3d91506116ed565b90506020813d602011611756575b8161173f60209383610c90565b810103126106345761175090610d7c565b5f6114db565b3d9150611732565b61176c90610f6b8486610d47565b6003811015610b1c576002146117855790600191611155565b505050915050565b506001906111ac565b60405162461bcd60e51b815260206004820152603060248201527f4461746120616c72656164792065786973747320666f72207468697320746f6b60448201526f656e206174207468697320626c6f636b60801b6064820152608490fd5b5050915050565b4390555f610ee6565b80519063ffffffff60e01b9182815116845260209081810151828601835f915b6008831061189c575050505060400151926002841015610b1c5760606080936102009561012088015283810151610140880152604081015161016088015201519160018060a01b03835116610180870152820151166101a085015260408101516101c085015260608101516101e08501520151910152565b908060019285518152019301910190918490611824565b6001600160401b03811161061557601f01601f191660200190565b5f80808073f4e4fdca9d5d55e64525e314391996a15f7ec61e5afa3d15611949573d906118fa826118b3565b916119086040519384610c90565b82523d5f602084013e5b158015611940575b61193b57602081805181010312610634576020015180151581036106345790565b505f90565b5080511561191a565b606090611912565b60409081519161196083610c23565b606083825161196e81610c3e565b5f8152835161197c81610c74565b61010036823760208201525f8482015281525f60208201525f838201525f8351936119a685610c59565b8185528160208601528401525f828401525f6080840152015256fea2646970667358221220c273849627a765e2c3097f9bcb72dc235a5a8f567306bceb4d87f3a251dcb37064736f6c6343000819003360803461011057601f6112f138819003918201601f19168301916001600160401b0383118484101761011457808492604094855283398101031261011057610052602061004b83610128565b9201610128565b9061005c8161013c565b6100ce575b5061006b816101a8565b61007f575b604051610fed90816102a48239f35b5f805160206112b18339815191525f5260016020526100c7906001600160a01b03167fe05121899e4c04c40b7e0a2a39dcba2d093af16d5fdca78c38e106d157d2aad3610233565b505f610070565b5f80526001602052610109906001600160a01b03167fa6eef7e35abe7026729641147f7915573c7e97b47efa546f5f6e3230263bcb49610233565b505f610061565b5f80fd5b634e487b7160e01b5f52604160045260245ffd5b51906001600160a01b038216820361011057565b6001600160a01b03165f8181525f805160206112d1833981519152602052604090205460ff166101a3575f8181525f805160206112d183398151915260205260408120805460ff191660011790553391905f805160206112918339815191528180a4600190565b505f90565b6001600160a01b03165f8181527fd329ff8a035c3ce5df2b0dae604d660c0d8783bf7e64be00c1d10db96c0b87b460205260409020545f805160206112b1833981519152919060ff1661022d57815f525f60205260405f20815f5260205260405f20600160ff1982541617905533915f805160206112918339815191525f80a4600190565b50505f90565b6001810190825f528160205260405f2054155f1461029c578054680100000000000000008110156101145760018101808355811015610288578390825f5260205f20015554915f5260205260405f2055600190565b634e487b7160e01b5f52603260045260245ffd5b5050505f9056fe6080604081815260049182361015610015575f80fd5b5f3560e01c90816301ffc9a714610857575080631af6c4311461082b578063248a9ca3146108025780632505a3bd146107d65780632ad82eea146107565780632f2ff15d146106f457806336568abe146106b0578063755e936f1461063257806381e4c9a31461060457806384cf84e11461054f578063853b5d19146104cd5780639010d07c1461048e57806391d148541461044b578063a217fddf14610431578063ada8f919146103a8578063c5df91b5146102eb578063ca0d53581461026a578063ca15c87314610243578063d547741f1461020a578063e58378bb146101e35763f2fde38b14610106575f80fd5b346101df57602091826003193601126101df57610121610969565b915f80516020610f7883398151915291825f5260018552815f20908154156101cc57505f5260018060a01b039182855f205416815f525f86526101696001845f200154610a98565b61017281610cfe565b6101b2575b50805f525f855261018d6001835f200154610a98565b61019684610b72565b61019c57005b6101b0946001915f52525f20911690610e2f565b005b6101c590825f5260018752835f20610e9e565b505f610177565b603290634e487b7160e01b5f525260245ffd5b5f80fd5b50346101df575f3660031901126101df57602090515f80516020610f788339815191528152f35b50346101df57806003193601126101df576101b0913561023e600161022d610953565b93835f525f6020525f200154610a98565b610ab9565b50346101df5760203660031901126101df57602091355f5260018252805f20549051908152f35b50346101df577f69c40cdda8ad6e074bf320a4a76804a6652eb5231bda91b690dcb98010b270799061029b366108c3565b926102a4610a32565b83516020850120805f52816020526102c160ff845f2054166109e6565b5f52602052805f2060ff1981541690555160208152806102e6339460208301906109c2565b0390a2005b5090346101df5760203660031901126101df57803590610309610a32565b815f52600360205260ff835f2054161561035b577f4072861add20da436ef0a8274b90d102aea17b603f972cc8196d51f1a5d5617960208385815f5260038352805f2060ff19815416905551908152a1005b608490602084519162461bcd60e51b8352820152602160248201527f43616e6e6f74207265766f6b6520756e737570706f7274656420496d616765496044820152601160fa1b6064820152fd5b50346101df5760203660031901126101df576103c2610969565b5f80525f6020526103d86001835f200154610a98565b6103e181610af3565b61040b575b506103f033610c86565b6103f657005b6101b0905f8052600160205233905f20610e9e565b5f808052600160205282902061042a916001600160a01b031690610e2f565b50816103e6565b50346101df575f3660031901126101df57602090515f8152f35b50346101df57806003193601126101df57602091610467610953565b90355f525f8352815f209060018060a01b03165f52825260ff815f20541690519015158152f35b50346101df57806003193601126101df57602091355f52600182526104b7602435825f20610e06565b905491519160018060a01b039160031b1c168152f35b50346101df577f0a249d4766726d36cb6d6ac22cf998dc9fc02bb4ff9fda73ec1e3061c8a1db096104fd366108c3565b91610506610a32565b82516020840120805f52600260205261052560ff835f2054161561097f565b5f526002602052805f20600160ff198254161790555160208152806102e6339460208301906109c2565b5090346101df5760203660031901126101df5780359061056d610a32565b815f52600360205260ff835f2054166105c1577f010120d82c0c66b257c0ea628d405b1d3c2d37bb8dd9141f6c5c12cb0375c57260208385815f5260038352805f20600160ff1982541617905551908152a1005b606490602084519162461bcd60e51b8352820152601c60248201527f496d616765494420697320616c726561647920737570706f72746564000000006044820152fd5b50346101df57602090610616366108c3565b8281519101205f526002825260ff815f20541690519015158152f35b50346101df577f66e43f8252a3257fe010a4fd6ae50f57624762cc64a6eceadb04b18cfdefac7d610662366108c3565b9161066b610a32565b82516020840120805f52600260205261068960ff835f2054166109e6565b5f526002602052805f2060ff1981541690555160208152806102e6339460208301906109c2565b50346101df57806003193601126101df576106c9610953565b90336001600160a01b038316036106e557506101b09135610ab9565b5163334bd91960e11b81529050fd5b5090346101df57816003193601126101df573590610710610953565b90825f525f6020526107276001825f200154610a98565b6107318284610c10565b61073757005b5f92835260016020529091206101b0916001600160a01b031690610e2f565b50346101df577fcbfa55581c230aeb174d969838d927cdd297755dfb967a33134312f1377ee71d90610787366108c3565b92610790610a32565b83516020850120805f52816020526107ae60ff845f2054161561097f565b5f52602052805f20600160ff198254161790555160208152806102e6339460208301906109c2565b50346101df576020916107e8366108c3565b8381519101205f52825260ff815f20541690519015158152f35b50346101df5760203660031901126101df57602091355f525f82526001815f2001549051908152f35b50346101df5760203660031901126101df57602091355f526003825260ff815f20541690519015158152f35b83346101df5760203660031901126101df57359063ffffffff60e01b82168092036101df57602091635a05180f60e01b8114908115610898575b5015158152f35b637965db0b60e01b8114915081156108b2575b5083610891565b6301ffc9a760e01b149050836108ab565b60206003198201126101df5767ffffffffffffffff906004358281116101df57816023820112156101df5780600401359183831161093f5760405193601f8401601f19908116603f011685019081118582101761093f57604052828452602483830101116101df57815f92602460209301838601378301015290565b634e487b7160e01b5f52604160045260245ffd5b602435906001600160a01b03821682036101df57565b600435906001600160a01b03821682036101df57565b1561098657565b60405162461bcd60e51b815260206004820152601460248201527312d95e481a5cc8185b1c9958591e481d985b1a5960621b6044820152606490fd5b805180835260209291819084018484015e5f828201840152601f01601f1916010190565b156109ed57565b60405162461bcd60e51b815260206004820152601960248201527f43616e6e6f74207265766f6b6520696e76616c6964206b6579000000000000006044820152606490fd5b335f9081527fd329ff8a035c3ce5df2b0dae604d660c0d8783bf7e64be00c1d10db96c0b87b460205260409020545f80516020610f788339815191529060ff1615610a7a5750565b6044906040519063e2517d3f60e01b82523360048301526024820152fd5b805f525f60205260405f20335f5260205260ff60405f20541615610a7a5750565b610ac38282610d94565b9182610ace57505090565b5f91825260016020526040909120610aef916001600160a01b031690610e9e565b5090565b6001600160a01b03165f8181525f80516020610f98833981519152602052604090205460ff16610b6d575f8181525f80516020610f9883398151915260205260408120805460ff191660011790553391907f2f8788117e7eff1d82e926ec794901d17c78024a50270940304540a733656f0d8180a4600190565b505f90565b6001600160a01b03165f8181527fd329ff8a035c3ce5df2b0dae604d660c0d8783bf7e64be00c1d10db96c0b87b460205260409020545f80516020610f78833981519152919060ff16610c0a57815f525f60205260405f20815f5260205260405f20600160ff1982541617905533917f2f8788117e7eff1d82e926ec794901d17c78024a50270940304540a733656f0d5f80a4600190565b50505f90565b90815f525f60205260405f209060018060a01b031690815f5260205260ff60405f205416155f14610c0a57815f525f60205260405f20815f5260205260405f20600160ff1982541617905533917f2f8788117e7eff1d82e926ec794901d17c78024a50270940304540a733656f0d5f80a4600190565b6001600160a01b03165f8181525f80516020610f98833981519152602052604090205460ff1615610b6d575f8181525f80516020610f9883398151915260205260408120805460ff191690553391907ff6391f5c32d9c69d2a47ea670b442974b53935d1edc7fd64eb21e047a839171b8180a4600190565b6001600160a01b03165f8181527fd329ff8a035c3ce5df2b0dae604d660c0d8783bf7e64be00c1d10db96c0b87b460205260409020545f80516020610f78833981519152919060ff1615610c0a57815f525f60205260405f20815f5260205260405f2060ff19815416905533917ff6391f5c32d9c69d2a47ea670b442974b53935d1edc7fd64eb21e047a839171b5f80a4600190565b90815f525f60205260405f209060018060a01b031690815f5260205260ff60405f2054165f14610c0a57815f525f60205260405f20815f5260205260405f2060ff19815416905533917ff6391f5c32d9c69d2a47ea670b442974b53935d1edc7fd64eb21e047a839171b5f80a4600190565b8054821015610e1b575f5260205f2001905f90565b634e487b7160e01b5f52603260045260245ffd5b6001810190825f528160205260405f2054155f14610e975780546801000000000000000081101561093f57610e84610e6e826001879401855584610e06565b819391549060031b91821b915f19901b19161790565b905554915f5260205260405f2055600190565b5050505f90565b906001820191815f528260205260405f2054908115155f14610f6f575f1991808301818111610f5b57825490848201918211610f5b57818103610f26575b50505080548015610f1257820191610ef48383610e06565b909182549160031b1b19169055555f526020525f6040812055600190565b634e487b7160e01b5f52603160045260245ffd5b610f46610f36610e6e9386610e06565b90549060031b1c92839286610e06565b90555f528460205260405f20555f8080610edc565b634e487b7160e01b5f52601160045260245ffd5b505050505f9056feb19546dff01e856fb3f010c267a7b1c60363cf8a4664e21cc89c26224620214ead3228b676f7d3cd4284a5443f17f1962b36e491b30a40b2405849e597ba5fb5a26469706673582212201f4d9318373924bcd6e34b8af4bfcc6a9d267068497146be0a9bea71c4accfa064736f6c634300081900332f8788117e7eff1d82e926ec794901d17c78024a50270940304540a733656f0db19546dff01e856fb3f010c267a7b1c60363cf8a4664e21cc89c26224620214ead3228b676f7d3cd4284a5443f17f1962b36e491b30a40b2405849e597ba5fb560e0346101ab576001600160401b0390601f61116a38819003918201601f191683019184831184841017610124578084926020946040528339810103126101ab57516001600160a01b03919082811681036101ab5760c0526001461480156101a1575b8015610197575b801561018c575b8015610181575b8015610176575b801561016b575b8015610160575b8015610155575b801561014a575b61013857604051906106e880830191821183831017610124576020918391610a82833963deafbeef60e01b81520301905ff08015610119571660a05260016080526040516108d290816101b0823960805181818160c5015261059a015260a0518181816101b701526105ef015260c05181818161017b01526106330152f35b6040513d5f823e3d90fd5b634e487b7160e01b5f52604160045260245ffd5b604051633d23e4d160e11b8152600490fd5b5061e708461461009a565b5061a4ba4614610093565b5061a4b1461461008c565b506121054614610085565b506102eb461461007e565b506101e04614610077565b506101444614610070565b5060894614610069565b50600a4614610062565b5f80fdfe60806040818152600480361015610014575f80fd5b5f915f3560e01c93846308c84e70146105dd575083633fd66f221461005a5783639a44ea8414610587578363c4fa74e51461005f5750505063f4cbae941461005a575f80fd5b61061e565b346102dd5736600319019161028083126102dd5761022083126102dd576001600160a01b039061024435828116908190036102dd576001600160e01b03196102643581811692908390036102dd57856100b7366106af565b5101516002811015610574577f00000000000000000000000000000000000000000000000000000000000000009060028210156105615703610529576100fc366106af565b9060608201908682515116036104f55760209383858351015116036104bf5786815101514603610489576060815101514311156104365760608151015161010081018091116104235743116103d4575160606080820151910151400361039c5782015193855194631af6c43160e01b86528486015260249483818781857f0000000000000000000000000000000000000000000000000000000000000000165afa908115610392575f91610333575b50156102f157610140907f00000000000000000000000000000000000000000000000000000000000000001696126102dd578451906101e982610662565b833590811681036102dd57815236604312156102dd57845161020a81610692565b80610124913683116102dd578487915b8483106102e157509050830152359060028210156102dd5761023f91868201526107d9565b90853b156102dd576084955f92865197888094819363ab750e7560e01b83526060898401528051918291826064860152018484015e81810183018790526101443589830152610224356044830152601f01601f191681010301915afa80156102d3576102a9578480f35b909192935067ffffffffffffffff84116102c257505052005b604190634e487b7160e01b5f52525ffd5b83513d5f823e3d90fd5b5f80fd5b823581529181019186910161021a565b855162461bcd60e51b81528085018490526017818701527f556e737570706f727465642043616c6c477565737449640000000000000000006044820152606490fd5b9050833d851161038b575b601f8101601f1916820167ffffffffffffffff81118382101761037957859183918a52810103126102dd575180151581036102dd57896101ab565b87604188634e487b7160e01b5f52525ffd5b503d61033e565b87513d5f823e3d90fd5b855162461bcd60e51b81528085018490526012602482015271092dcecc2d8d2c840c4d8dec6d640d0c2e6d60731b6044820152606490fd5b865162461bcd60e51b8152808601859052602360248201527f496e76616c696420626c6f636b206e756d6265723a20626c6f636b20746f6f206044820152621bdb1960ea1b6064820152608490fd5b601186634e487b7160e01b5f525260245ffd5b865162461bcd60e51b8152808601859052602760248201527f496e76616c696420626c6f636b206e756d6265723a20626c6f636b2066726f6d6044820152662066757475726560c81b6064820152608490fd5b865162461bcd60e51b8152808601859052601060248201526f125b9d985b1a590818da185a5b881a5960821b6044820152606490fd5b865162461bcd60e51b8152808601859052601060248201526f24b73b30b634b21039b2b632b1ba37b960811b6044820152606490fd5b865162461bcd60e51b8152602081870152600e60248201526d24b73b30b634b210383937bb32b960911b6044820152606490fd5b855162461bcd60e51b81526020818601526012602482015271496e76616c69642070726f6f66206d6f646560701b6044820152606490fd5b602186634e487b7160e01b5f525260245ffd5b602185634e487b7160e01b5f525260245ffd5b346102dd575f3660031901126102dd57517f000000000000000000000000000000000000000000000000000000000000000060028110156105ca57602092508152f35b602183634e487b7160e01b5f525260245ffd5b346102dd575f3660031901126102dd577f00000000000000000000000000000000000000000000000000000000000000006001600160a01b03168152602090f35b346102dd575f3660031901126102dd576040517f00000000000000000000000000000000000000000000000000000000000000006001600160a01b03168152602090f35b6060810190811067ffffffffffffffff82111761067e57604052565b634e487b7160e01b5f52604160045260245ffd5b610100810190811067ffffffffffffffff82111761067e57604052565b6003198101919061022083126102dd576040805167ffffffffffffffff9291608082018481118382101761067e578082526101408397126102dd576106f381610662565b6001600160e01b03199360043585811681036102dd57825280604312156102dd57825161071f81610692565b80610124918383116102dd576024905b8382106107c957505060a0860152359160028310156102dd5760a09260c0860152845261014435602085015261016435838501526101831901126102dd5780519360a085019081118582101761067e578152610184356001600160a01b03811681036102dd5784526101a43592831683036102dd5760609260208501526101c435908401526101e435828401526102043560808401520152565b813581526020918201910161072f565b6040810151600281101561088857600190810361082257506020810151519063ffffffff60e01b9051169060405191602083015260248201526024815261081f81610662565b90565b81516020928301516040516001600160e01b03199092168285015290925f602485015b600882106108755750505050506101048152610140810181811067ffffffffffffffff82111761067e5760405290565b8351815292820192908401908201610845565b634e487b7160e01b5f52602160045260245ffdfea26469706673582212203853dfda968a756d3809b64b1b521f7db2d1668a21d922a28d35ecf6fe959f0664736f6c6343000819003360a034607557601f6106e838819003918201601f19168301916001600160401b03831184841017607957808492602094604052833981010312607557516001600160e01b03198116810360755760805260405161065a908161008e82396080518181816101a60152818161028401526103040152f35b5f80fd5b634e487b7160e01b5f52604160045260245ffdfe60808060405260049081361015610014575f80fd5b5f3560e01c908163053c238d14610194575080631599ead5146101285780633a115bb11461010957806366cf0e4b146100c25763ab750e7514610055575f80fd5b346100be5760603660031901126100be57803567ffffffffffffffff918282116100be57366023830112156100be578101359182116100be5736602483830101116100be576100bc9160246100b56100b06044358335610400565b61052c565b92016102ed565b005b5f80fd5b50346100be5760403660031901126100be576100f96100f46100b0610105936100e961025d565b506024359035610400565b610276565b604051918291826101d6565b0390f35b50346100be5760203660031901126100be576100f96101059135610276565b50346100be576003196020368201126100be5781359167ffffffffffffffff918284116100be576040843603918201126100be578184013590602219018112156100be578301908101359182116100be576024019080360382136100be5760246100bc930135916102ed565b346100be575f3660031901126100be577f00000000000000000000000000000000000000000000000000000000000000006001600160e01b0319168152602090f35b60208060809381845280516040838601528051938491826060880152018686015e5f84840186015201516040830152601f01601f1916010190565b6040810190811067ffffffffffffffff82111761022d57604052565b634e487b7160e01b5f52604160045260245ffd5b60a0810190811067ffffffffffffffff82111761022d57604052565b6040519061026a82610211565b5f602083606081520152565b61027e61025d565b506040517f00000000000000000000000000000000000000000000000000000000000000006001600160e01b03191660208201526024808201839052815260608101919067ffffffffffffffff83118184101761022d57608090836040526102e584610211565b808452015290565b91906004928184116100be576001600160e01b03197f00000000000000000000000000000000000000000000000000000000000000008116908235168082036103e3575050600319820167ffffffffffffffff918282116103d05760405192601b8501601f19908116603f01168401908111848210176103bd57604052818352602083019336818301116100be575f9287601c93018637830101525190209060405160208101918252602081526103a381610211565b519020036103ae5750565b60405163439cc0cd60e01b8152fd5b604187634e487b7160e01b5f525260245ffd5b604186634e487b7160e01b5f525260245ffd5b604491869160405192632e2ce35360e21b84528301526024820152fd5b9060409081519161041083610241565b5f83525f60806020948286820152835161042981610211565b838152838782015284820152826060820152015280519161044983610211565b5f83525f8484015281519061045d82610211565b81528381015f8152845f600c85516b1c9a5cd8cc0b93dd5d1c1d5d60a21b815260025afa156105225784915f91825191519051855191858301938452868301526060820152600160f91b6080820152606281526104b981610241565b8451918291518091835e8101838152039060025afa15610519577fa3acc27117418996340b84e5a90f3ef4c49d22c79e44aad822ec9c313e1eb8e25f519382519561050387610241565b86528501528301525f6060830152608082015290565b513d5f823e3d90fd5b82513d5f823e3d90fd5b60409060205f601284517172697363302e52656365697074436c61696d60701b815260025afa1561061a575f516060820151918051602082015191856080820151910192835151936003851015610606576020905101519287519660208801968752888801526060870152608086015260a085015260ff60f81b809260f81b1660c085015260f81b1660c4830152600160fa1b60c883015260aa825260e0820182811067ffffffffffffffff82111761022d576020925f9282865281518091845e81018360e0820152039060025afa1561051957505f5190565b634e487b7160e01b5f52602160045260245ffd5b50513d5f823e3d90fdfea26469706673582212206c9fb2eb22390b1b5e8d9eeefcc43b18c02d539b1e1f6c237ef9254655d5131b64736f6c63430008190033","linkReferences":{}},"methodIdentifiers":{"_setTestVerifier(address)":"9b8b30c8","calculateCreditScore(address,uint8)":"6b275f7e","claim(((bytes4,bytes32[8],uint8),bytes32,uint256,(address,bytes4,uint256,uint256,bytes32)),address,(address,address,uint256,uint256,uint256,uint8)[])":"9ca6ce2f","creditScoreCalculator()":"ece017fb","getCreditScore(address,uint8)":"85eec73e","priceOracle()":"2630c12f","prover()":"32a8f30f","recordLiquidation(address,uint8)":"9e210447","registry()":"7b103999","usersInfo(address,uint8)":"c9579ee8","verifier()":"2b7ac3f3"},"id":74}