{"abi":[{"type":"constructor","inputs":[],"stateMutability":"nonpayable"},{"type":"function","name":"TRAVELER","inputs":[],"outputs":[{"name":"","type":"address","internalType":"contract ITraveler"}],"stateMutability":"view"},{"type":"function","name":"UPGRADE_INTERFACE_VERSION","inputs":[],"outputs":[{"name":"","type":"string","internalType":"string"}],"stateMutability":"view"},{"type":"function","name":"initialize","inputs":[{"name":"initialOwner","type":"address","internalType":"address"}],"outputs":[],"stateMutability":"nonpayable"},{"type":"function","name":"owner","inputs":[],"outputs":[{"name":"","type":"address","internalType":"address"}],"stateMutability":"view"},{"type":"function","name":"proof","inputs":[],"outputs":[{"name":"","type":"tuple","internalType":"struct Proof","components":[{"name":"seal","type":"tuple","internalType":"struct Seal","components":[{"name":"verifierSelector","type":"bytes4","internalType":"bytes4"},{"name":"seal","type":"bytes32[8]","internalType":"bytes32[8]"},{"name":"mode","type":"uint8","internalType":"enum ProofMode"}]},{"name":"callGuestId","type":"bytes32","internalType":"bytes32"},{"name":"length","type":"uint256","internalType":"uint256"},{"name":"callAssumptions","type":"tuple","internalType":"struct CallAssumptions","components":[{"name":"proverContractAddress","type":"address","internalType":"address"},{"name":"functionSelector","type":"bytes4","internalType":"bytes4"},{"name":"settleChainId","type":"uint256","internalType":"uint256"},{"name":"settleBlockNumber","type":"uint256","internalType":"uint256"},{"name":"settleBlockHash","type":"bytes32","internalType":"bytes32"}]}]}],"stateMutability":"pure"},{"type":"function","name":"proveAaveData","inputs":[{"name":"_owner","type":"address","internalType":"address"},{"name":"tokens","type":"tuple[]","internalType":"struct Erc20Token[]","components":[{"name":"underlingTokenAddress","type":"address","internalType":"address"},{"name":"aTokenAddress","type":"address","internalType":"address"},{"name":"chainId","type":"uint256","internalType":"uint256"},{"name":"blockNumber","type":"uint256","internalType":"uint256"},{"name":"balance","type":"uint256","internalType":"uint256"},{"name":"tokenType","type":"uint8","internalType":"enum TokenType"}]}],"outputs":[{"name":"","type":"tuple","internalType":"struct Proof","components":[{"name":"seal","type":"tuple","internalType":"struct Seal","components":[{"name":"verifierSelector","type":"bytes4","internalType":"bytes4"},{"name":"seal","type":"bytes32[8]","internalType":"bytes32[8]"},{"name":"mode","type":"uint8","internalType":"enum ProofMode"}]},{"name":"callGuestId","type":"bytes32","internalType":"bytes32"},{"name":"length","type":"uint256","internalType":"uint256"},{"name":"callAssumptions","type":"tuple","internalType":"struct CallAssumptions","components":[{"name":"proverContractAddress","type":"address","internalType":"address"},{"name":"functionSelector","type":"bytes4","internalType":"bytes4"},{"name":"settleChainId","type":"uint256","internalType":"uint256"},{"name":"settleBlockNumber","type":"uint256","internalType":"uint256"},{"name":"settleBlockHash","type":"bytes32","internalType":"bytes32"}]}]},{"name":"","type":"address","internalType":"address"},{"name":"","type":"bytes4","internalType":"bytes4"},{"name":"","type":"bytes","internalType":"bytes"}],"stateMutability":"nonpayable"},{"type":"function","name":"proveCompoundData","inputs":[{"name":"_owner","type":"address","internalType":"address"},{"name":"tokens","type":"tuple[]","internalType":"struct CToken[]","components":[{"name":"collateralAddress","type":"address","internalType":"address"},{"name":"cTokenAddress","type":"address","internalType":"address"},{"name":"chainId","type":"uint256","internalType":"uint256"},{"name":"blockNumber","type":"uint256","internalType":"uint256"},{"name":"balance","type":"uint256","internalType":"uint256"},{"name":"tokenType","type":"uint8","internalType":"enum CTokenType"}]}],"outputs":[{"name":"","type":"tuple","internalType":"struct Proof","components":[{"name":"seal","type":"tuple","internalType":"struct Seal","components":[{"name":"verifierSelector","type":"bytes4","internalType":"bytes4"},{"name":"seal","type":"bytes32[8]","internalType":"bytes32[8]"},{"name":"mode","type":"uint8","internalType":"enum ProofMode"}]},{"name":"callGuestId","type":"bytes32","internalType":"bytes32"},{"name":"length","type":"uint256","internalType":"uint256"},{"name":"callAssumptions","type":"tuple","internalType":"struct CallAssumptions","components":[{"name":"proverContractAddress","type":"address","internalType":"address"},{"name":"functionSelector","type":"bytes4","internalType":"bytes4"},{"name":"settleChainId","type":"uint256","internalType":"uint256"},{"name":"settleBlockNumber","type":"uint256","internalType":"uint256"},{"name":"settleBlockHash","type":"bytes32","internalType":"bytes32"}]}]},{"name":"","type":"address","internalType":"address"},{"name":"","type":"bytes4","internalType":"bytes4"},{"name":"","type":"bytes","internalType":"bytes"}],"stateMutability":"nonpayable"},{"type":"function","name":"proveFluidIOData","inputs":[{"name":"_owner","type":"address","internalType":"address"},{"name":"tokens","type":"tuple[]","internalType":"struct Erc20Token[]","components":[{"name":"underlingTokenAddress","type":"address","internalType":"address"},{"name":"aTokenAddress","type":"address","internalType":"address"},{"name":"chainId","type":"uint256","internalType":"uint256"},{"name":"blockNumber","type":"uint256","internalType":"uint256"},{"name":"balance","type":"uint256","internalType":"uint256"},{"name":"tokenType","type":"uint8","internalType":"enum TokenType"}]}],"outputs":[{"name":"","type":"tuple","internalType":"struct Proof","components":[{"name":"seal","type":"tuple","internalType":"struct Seal","components":[{"name":"verifierSelector","type":"bytes4","internalType":"bytes4"},{"name":"seal","type":"bytes32[8]","internalType":"bytes32[8]"},{"name":"mode","type":"uint8","internalType":"enum ProofMode"}]},{"name":"callGuestId","type":"bytes32","internalType":"bytes32"},{"name":"length","type":"uint256","internalType":"uint256"},{"name":"callAssumptions","type":"tuple","internalType":"struct CallAssumptions","components":[{"name":"proverContractAddress","type":"address","internalType":"address"},{"name":"functionSelector","type":"bytes4","internalType":"bytes4"},{"name":"settleChainId","type":"uint256","internalType":"uint256"},{"name":"settleBlockNumber","type":"uint256","internalType":"uint256"},{"name":"settleBlockHash","type":"bytes32","internalType":"bytes32"}]}]},{"name":"","type":"address","internalType":"address"},{"name":"","type":"tuple[]","internalType":"struct Erc20Token[]","components":[{"name":"underlingTokenAddress","type":"address","internalType":"address"},{"name":"aTokenAddress","type":"address","internalType":"address"},{"name":"chainId","type":"uint256","internalType":"uint256"},{"name":"blockNumber","type":"uint256","internalType":"uint256"},{"name":"balance","type":"uint256","internalType":"uint256"},{"name":"tokenType","type":"uint8","internalType":"enum TokenType"}]}],"stateMutability":"nonpayable"},{"type":"function","name":"proveMorphoData","inputs":[{"name":"_owner","type":"address","internalType":"address"},{"name":"tokens","type":"tuple[]","internalType":"struct MToken[]","components":[{"name":"marketId","type":"bytes32","internalType":"Id"},{"name":"morphoAddress","type":"address","internalType":"address"},{"name":"chainId","type":"uint256","internalType":"uint256"},{"name":"blockNumber","type":"uint256","internalType":"uint256"},{"name":"supplyShares","type":"uint256","internalType":"uint256"},{"name":"borrowShares","type":"uint128","internalType":"uint128"},{"name":"collateral","type":"uint128","internalType":"uint128"},{"name":"totalSupplyAssets","type":"uint128","internalType":"uint128"},{"name":"totalSupplyShares","type":"uint128","internalType":"uint128"},{"name":"totalBorrowAssets","type":"uint128","internalType":"uint128"},{"name":"totalBorrowShares","type":"uint128","internalType":"uint128"}]}],"outputs":[{"name":"","type":"tuple","internalType":"struct Proof","components":[{"name":"seal","type":"tuple","internalType":"struct Seal","components":[{"name":"verifierSelector","type":"bytes4","internalType":"bytes4"},{"name":"seal","type":"bytes32[8]","internalType":"bytes32[8]"},{"name":"mode","type":"uint8","internalType":"enum ProofMode"}]},{"name":"callGuestId","type":"bytes32","internalType":"bytes32"},{"name":"length","type":"uint256","internalType":"uint256"},{"name":"callAssumptions","type":"tuple","internalType":"struct CallAssumptions","components":[{"name":"proverContractAddress","type":"address","internalType":"address"},{"name":"functionSelector","type":"bytes4","internalType":"bytes4"},{"name":"settleChainId","type":"uint256","internalType":"uint256"},{"name":"settleBlockNumber","type":"uint256","internalType":"uint256"},{"name":"settleBlockHash","type":"bytes32","internalType":"bytes32"}]}]},{"name":"","type":"address","internalType":"address"},{"name":"","type":"bytes4","internalType":"bytes4"},{"name":"","type":"bytes","internalType":"bytes"}],"stateMutability":"nonpayable"},{"type":"function","name":"proxiableUUID","inputs":[],"outputs":[{"name":"","type":"bytes32","internalType":"bytes32"}],"stateMutability":"view"},{"type":"function","name":"renounceOwnership","inputs":[],"outputs":[],"stateMutability":"nonpayable"},{"type":"function","name":"setBlock","inputs":[{"name":"blockNo","type":"uint256","internalType":"uint256"}],"outputs":[],"stateMutability":"nonpayable"},{"type":"function","name":"setChain","inputs":[{"name":"chainId","type":"uint256","internalType":"uint256"},{"name":"blockNo","type":"uint256","internalType":"uint256"}],"outputs":[],"stateMutability":"nonpayable"},{"type":"function","name":"transferOwnership","inputs":[{"name":"newOwner","type":"address","internalType":"address"}],"outputs":[],"stateMutability":"nonpayable"},{"type":"function","name":"upgradeToAndCall","inputs":[{"name":"newImplementation","type":"address","internalType":"address"},{"name":"data","type":"bytes","internalType":"bytes"}],"outputs":[],"stateMutability":"payable"},{"type":"event","name":"Initialized","inputs":[{"name":"version","type":"uint64","indexed":false,"internalType":"uint64"}],"anonymous":false},{"type":"event","name":"OwnershipTransferred","inputs":[{"name":"previousOwner","type":"address","indexed":true,"internalType":"address"},{"name":"newOwner","type":"address","indexed":true,"internalType":"address"}],"anonymous":false},{"type":"event","name":"Upgraded","inputs":[{"name":"implementation","type":"address","indexed":true,"internalType":"address"}],"anonymous":false},{"type":"error","name":"AddressEmptyCode","inputs":[{"name":"target","type":"address","internalType":"address"}]},{"type":"error","name":"ERC1967InvalidImplementation","inputs":[{"name":"implementation","type":"address","internalType":"address"}]},{"type":"error","name":"ERC1967NonPayable","inputs":[]},{"type":"error","name":"FailedInnerCall","inputs":[]},{"type":"error","name":"InvalidInitialization","inputs":[]},{"type":"error","name":"NotInitializing","inputs":[]},{"type":"error","name":"OwnableInvalidOwner","inputs":[{"name":"owner","type":"address","internalType":"address"}]},{"type":"error","name":"OwnableUnauthorizedAccount","inputs":[{"name":"account","type":"address","internalType":"address"}]},{"type":"error","name":"UUPSUnauthorizedCallContext","inputs":[]},{"type":"error","name":"UUPSUnsupportedProxiableUUID","inputs":[{"name":"slot","type":"bytes32","internalType":"bytes32"}]}],"bytecode":{"object":"0x60a0806040523460c857306080527ff0c57e16840df040f15088dc2f81fe391c3923bec73e23a9662efc9c229c6a009081549060ff8260401c1660b957506001600160401b036002600160401b0319828216016075575b604051611a8590816100cd8239608051818181610cec0152610dd10152f35b6001600160401b031990911681179091556040519081527fc7f505b2f371ae2175ee4913f4499e1f2633a7b5936321eed1cdaeb6115181d290602090a15f80806056565b63f92ee8a960e01b8152600490fd5b5f80fdfe60806040526004361015610011575f80fd5b5f3560e01c806310dcfe7314610fe85780631d9cd68614610fba5780634f1ef28614610d5657806352d1902d14610cda5780636590f3fb14610c72578063715018a614610c145780637b450eea14610ab957806387cea3ae14610a2f57806389642ede146103225780638da5cb5b146102fb578063ad3cb1cc1461028b578063c4d66de81461016a578063f2fde38b1461011f578063faf924cf146100e35763ffbc5638146100be575f80fd5b346100df5760403660031901126100df576100dd60243560043561197e565b005b5f80fd5b346100df575f3660031901126100df576100fb611727565b50610104611727565b50610220610110611727565b61011d60405180926114ab565bf35b346100df5760203660031901126100df576101386113f1565b5f546001600160a01b03163303610152576100dd90611915565b60405163118cdaa760e01b8152336004820152602490fd5b346100df5760203660031901126100df576101836113f1565b7ff0c57e16840df040f15088dc2f81fe391c3923bec73e23a9662efc9c229c6a0090815460ff8160401c16159167ffffffffffffffff821680159081610283575b6001149081610279575b159081610270575b5061025e5767ffffffffffffffff19821660011784556101fc918361023f575b50611915565b61020257005b68ff00000000000000001981541690557fc7f505b2f371ae2175ee4913f4499e1f2633a7b5936321eed1cdaeb6115181d2602060405160018152a1005b68ffffffffffffffffff191668010000000000000001178455846101f6565b60405163f92ee8a960e01b8152600490fd5b905015856101d6565b303b1591506101ce565b8491506101c4565b346100df575f3660031901126100df57604051604081019080821067ffffffffffffffff8311176102e7576102e39160405260058152640352e302e360dc1b6020820152604051918291602083526020830190611557565b0390f35b634e487b7160e01b5f52604160045260245ffd5b346100df575f3660031901126100df575f546040516001600160a01b039091168152602090f35b346100df5760403660031901126100df5761033b6113f1565b6024359067ffffffffffffffff908183116100df57366023840112156100df5782600401359161036a83611475565b936103786040519586611453565b83855260208501916024610160849602830101913683116100df57602401925b82841061096057505050506103ab611727565b505f5b8351811015610821576103de60406103c683876117bc565b51015160606103d584886117bc565b5101519061197e565b6001600160a01b0360206103f283876117bc565b5101511661040082866117bc565b51516040516349e2903160e11b80825260048201929092526001600160a01b03851660248201529091606090829060449082905afa90811561074e575f91610802575b5051608061045184886117bc565b5101526104ac6060846001600160a01b03602061046e878b6117bc565b5101511661047c868a6117bc565b515160405186815260048101919091526001600160a01b0390921660248301529092839190829081906044820190565b03915afa90811561074e57610534926001600160801b03602060609488945f916107e5575b5001511660a06104e1878b6117bc565b5101526001600160a01b0360206104f8878b6117bc565b5101511690610507868a6117bc565b515160405191825260048201526001600160a01b0390921660248301529092839190829081906044820190565b03915afa90811561074e576001600160801b03916040915f916107b6575b5001511660c061056283876117bc565b5101526001600160a01b03602061057983876117bc565b5101511660c061058983876117bc565b5151602460405180948193632e3071cd60e11b835260048301525afa801561074e576001600160801b03915f91610797575b50511660e06105ca83876117bc565b5101526001600160a01b0360206105e183876117bc565b5101511660c06105f183876117bc565b5151602460405180948193632e3071cd60e11b835260048301525afa90811561074e576001600160801b03916020915f91610778575b5001511661010061063883876117bc565b5101526001600160a01b03602061064f83876117bc565b5101511660c061065f83876117bc565b5151602460405180948193632e3071cd60e11b835260048301525afa90811561074e576001600160801b03916040915f91610759575b500151166101206106a683876117bc565b5101526001600160a01b0360206106bd83876117bc565b510151169060c06106ce82876117bc565b5151602460405180958193632e3071cd60e11b835260048301525afa801561074e5760606001600160801b03916001945f9161071f575b5001511661014061071683886117bc565b510152016103ae565b610741915060c03d60c011610747575b6107398183611453565b81019061189b565b88610705565b503d61072f565b6040513d5f823e3d90fd5b610772915060c03d60c011610747576107398183611453565b87610695565b610791915060c03d60c011610747576107398183611453565b87610627565b6107b0915060c03d60c011610747576107398183611453565b866105bb565b6107d8915060603d6060116107de575b6107d08183611453565b81019061185c565b87610552565b503d6107c6565b6107fc9150863d88116107de576107d08183611453565b8b6104d1565b61081b915060603d6060116107de576107d08183611453565b86610443565b50909160405180936040820192602080840152518093526060926060830191935f905b8282106108bf57505050610861925003601f198101845283611453565b610869611727565b50610872611727565b506102e361087e611727565b9260405193849361089285610280936114ab565b6001600160a01b03166102208501526344b2176f60e11b6102408501526102608401819052830190611557565b919350916020610160600192875180518252848060a01b038482015116848301526040810151604083015285810151868301526080808201519083015260a080820151906001600160801b038092169084015260c0818184015116908401528060e08301511660e084015261010081818401511690840152610120818184015116908401526101408092015116908201520195019201869391949294610844565b610160843603126100df5760405190610160820190828210848311176102e7576101609260209260405286358152610999838801611407565b8382015260408701356040820152606080880135908201526080808801359082015260a06109c8818901611713565b9082015260c06109d9818901611713565b908201526109e960e08801611713565b60e08201526101006109fc818901611713565b90820152610120610a0e818901611713565b90820152610140610a20818901611713565b90820152815201930192610398565b346100df5760203660031901126100df576040516343e751d760e11b815260048035908201526020816024815f7376dc9aa45aa006a0f63942d8f9f21bd4537972a35af1801561074e576100dd915f91610a8a575b50611810565b610aac915060203d602011610ab2575b610aa48183611453565b8101906117f8565b82610a84565b503d610a9a565b346100df57610ac736611597565b610acf611727565b505f5b8151811015610b8a57610af96040610aea83856117bc565b51015160606103d584866117bc565b6001600160a01b03906020808381610b1185886117bc565b5101516040516370a0823160e01b8152958816600487015285916024918391165afa90811561074e575f91610b5b575b50600192506080610b5283866117bc565b51015201610ad2565b905082813d8311610b83575b610b718183611453565b810103126100df576001915185610b41565b503d610b67565b610ba883610bb6846040519384916020808401526040830190611696565b03601f198101845283611453565b610bbe611727565b50610bc7611727565b506102e3610bd3611727565b92604051938493610be785610280936114ab565b6001600160a01b0316610220850152633da2877560e11b6102408501526102608401819052830190611557565b346100df575f3660031901126100df575f546001600160a01b038116338103610152575f916bffffffffffffffffffffffff60a01b1682557f8be0079c531659141344cd1fd0a4f28419497f9722a3daafe3b4186f6b6457e08280a3005b346100df57610c8036611597565b90610c89611727565b50610c92611727565b50610c9b611727565b506102e3610ca7611727565b92604051938493610cbb85610260936114ab565b6001600160a01b03166102208501526102408401819052830190611696565b346100df575f3660031901126100df577f00000000000000000000000000000000000000000000000000000000000000006001600160a01b03163003610d445760206040517f360894a13ba1a3210667c828492db98dca3e2076cc3735a920a3ca505d382bbc8152f35b60405163703e46dd60e11b8152600490fd5b60403660031901126100df57610d6a6113f1565b602490813567ffffffffffffffff81116100df57366023820112156100df578060040135610d978161157b565b92610da56040519485611453565b81845260209182850193368783830101116100df57815f92888693018737860101526001600160a01b037f00000000000000000000000000000000000000000000000000000000000000008116308114908115610f8c575b50610d4457805f54163303610f75578116936040516352d1902d60e01b81528381600481895afa5f9181610f46575b50610e4957604051634c9c8ce360e01b8152600481018790528790fd5b8590877f360894a13ba1a3210667c828492db98dca3e2076cc3735a920a3ca505d382bbc91828103610f315750843b15610f1b575080546001600160a01b03191682179055604051907fbc7cd75a20ee27fd9adebab32041f755214dbc6bffa90cc0225b39da2e5c2d3b5f80a2815115610f0057505f6100dd9481925190845af4903d15610ef7573d610edb8161157b565b90610ee96040519283611453565b81525f81943d92013e6119ec565b606092506119ec565b935050505034610f0c57005b63b398979f60e01b8152600490fd5b604051634c9c8ce360e01b815260048101849052fd5b60405190632a87526960e21b82526004820152fd5b9091508481813d8311610f6e575b610f5e8183611453565b810103126100df57519088610e2c565b503d610f54565b60405163118cdaa760e01b81523360048201528690fd5b9050817f360894a13ba1a3210667c828492db98dca3e2076cc3735a920a3ca505d382bbc5416141587610dfd565b346100df575f3660031901126100df5760206040517376dc9aa45aa006a0f63942d8f9f21bd4537972a38152f35b346100df5760403660031901126100df576110016113f1565b60249081359067ffffffffffffffff908183116100df57366023840112156100df5782600401359361103285611475565b926110406040519485611453565b85845260209586850195868460c0809402830101913683116100df578501905b82821061138057505050611072611727565b505f5b855181101561127f5761109c604061108d83896117bc565b51015160606103d5848a6117bc565b60a0806110a983896117bc565b5101516110b58161148d565b6110be8161148d565b61114f57506001600160a01b03908882816110d9848b6117bc565b510151604051630dd3126d60e21b81529489166004860152849188918391165afa801561074e575f90611121575b600192506080611117838a6117bc565b5101525b01611075565b508882813d8311611148575b6111378183611453565b810103126100df5760019151611107565b503d61112d565b60019061115c83896117bc565b5101516111688161148d565b6111718161148d565b1461117f575b60019061111b565b6001600160a01b036040818a611195858b6117bc565b51015116916044816111a7868c6117bc565b5151169183519485938492632b92a07d60e01b84528c1660048401528a8301525afa90811561074e575f916111fc575b50906001600160801b03600192511660806111f2838a6117bc565b5101529050611177565b90506040813d604011611277575b8161121760409383611453565b810103126100df5760405190604082018281108682111761126457916112588b6001600160801b039360019695604052611250816117e4565b8452016117e4565b8b8201529192506111d7565b86634e487b7160e01b5f5260416004525ffd5b3d915061120a565b5083859188886040519485926040840191818086015251809252606080850193955f915b84831061131d5786896112bf828903601f198101845283611453565b6112c7611727565b506112d0611727565b506102e36112dc611727565b926040519384936112f085610280936114ab565b6001600160a01b03166102208501526310dcfe7360e01b6102408501526102608401819052830190611557565b91939550919384836001928951848060a01b038082511683528482015116848301526040810151604083015285810151868301526080808201519083015260a0809101519061136b8261148d565b820152019701930190918895939694926112a3565b83823603126100df57604051906113968261141b565b61139f83611407565b82526113ac8b8401611407565b8b83015260408301356040830152606080840135908301526080808401359083015260a090818401359260028410156100df5786938d93820152815201910190611060565b600435906001600160a01b03821682036100df57565b35906001600160a01b03821682036100df57565b60c0810190811067ffffffffffffffff8211176102e757604052565b6060810190811067ffffffffffffffff8211176102e757604052565b90601f8019910116810190811067ffffffffffffffff8211176102e757604052565b67ffffffffffffffff81116102e75760051b60200190565b6002111561149757565b634e487b7160e01b5f52602160045260245ffd5b80519063ffffffff60e01b90818351168452602092838101518486015f905b60088210611542575050509160606102009492604060809501516114ed8161148d565b61012088015283810151610140880152604081015161016088015201519160018060a01b03835116610180870152820151166101a085015260408101516101c085015260608101516101e08501520151910152565b868060019285518152019301910190916114ca565b805180835260209291819084018484015e5f828201840152601f01601f1916010190565b67ffffffffffffffff81116102e757601f01601f191660200190565b9060409160406003198201126100df576004356001600160a01b03811681036100df579260243567ffffffffffffffff81116100df57826023820112156100df578060040135916115e783611475565b936115f56040519586611453565b8385526020916020860191602460c0809702860101948186116100df57602401925b858410611628575050505050505090565b86848303126100df5782519061163d8261141b565b61164685611407565b8252611653868601611407565b868301528385013584830152606080860135908301526080808601359083015260a090818601359260038410156100df5789938893820152815201930192611617565b9081518082526020808093019301915f5b8281106116b5575050505090565b90919293845160018060a01b0380825116835284820151168483015260408082015190830152606080820151908301526080808201519083015260a0809101519060038210156114975782015260c0019382019291906001016116a7565b35906001600160801b03821682036100df57565b6040908151608081019267ffffffffffffffff91808510838611176102e757848252809461175481611437565b5f81528251610100808201828110878211176102e757855236823760a08301525f60c083015281525f60208201525f8282015281519260a0840190848210908211176102e757825f91606094528185528160208601528401525f828401525f60808401520152565b80518210156117d05760209160051b010190565b634e487b7160e01b5f52603260045260245ffd5b51906001600160801b03821682036100df57565b908160209103126100df575180151581036100df5790565b1561181757565b60405162461bcd60e51b815260206004820152601b60248201527f4661696c6564206368656174636f646520696e766f636174696f6e00000000006044820152606490fd5b908160609103126100df57611893604080519261187884611437565b80518452611888602082016117e4565b6020850152016117e4565b604082015290565b908160c09103126100df5761190d60a0604051926118b88461141b565b6118c1816117e4565b84526118cf602082016117e4565b60208501526118e0604082016117e4565b60408501526118f1606082016117e4565b6060850152611902608082016117e4565b6080850152016117e4565b60a082015290565b6001600160a01b03908116908115611966575f54826bffffffffffffffffffffffff60a01b8216175f55167f8be0079c531659141344cd1fd0a4f28419497f9722a3daafe3b4186f6b6457e05f80a3565b604051631e4fbdf760e01b81525f6004820152602490fd5b9060405191631ff78ac760e31b8352600483015260248201526020816044815f7376dc9aa45aa006a0f63942d8f9f21bd4537972a35af1801561074e576119cb915f916119cd5750611810565b565b6119e6915060203d602011610ab257610aa48183611453565b5f610a84565b90611a135750805115611a0157805190602001fd5b604051630a12f52160e11b8152600490fd5b81511580611a46575b611a24575090565b604051639996b31560e01b81526001600160a01b039091166004820152602490fd5b50803b15611a1c56fea2646970667358221220c6364bee14b9ad593517a768dfde2f1638ed08ccc1467bd8bdd9717d305f401964736f6c63430008190033","linkReferences":{}},"methodIdentifiers":{"TRAVELER()":"1d9cd686","UPGRADE_INTERFACE_VERSION()":"ad3cb1cc","initialize(address)":"c4d66de8","owner()":"8da5cb5b","proof()":"faf924cf","proveAaveData(address,(address,address,uint256,uint256,uint256,uint8)[])":"7b450eea","proveCompoundData(address,(address,address,uint256,uint256,uint256,uint8)[])":"10dcfe73","proveFluidIOData(address,(address,address,uint256,uint256,uint256,uint8)[])":"6590f3fb","proveMorphoData(address,(bytes32,address,uint256,uint256,uint256,uint128,uint128,uint128,uint128,uint128,uint128)[])":"89642ede","proxiableUUID()":"52d1902d","renounceOwnership()":"715018a6","setBlock(uint256)":"87cea3ae","setChain(uint256,uint256)":"ffbc5638","transferOwnership(address)":"f2fde38b","upgradeToAndCall(address,bytes)":"4f1ef286"},"id":85}