{"abi":[{"type":"function","name":"verifyProof","inputs":[{"name":"_pA","type":"uint256[2]","internalType":"uint256[2]"},{"name":"_pB","type":"uint256[2][2]","internalType":"uint256[2][2]"},{"name":"_pC","type":"uint256[2]","internalType":"uint256[2]"},{"name":"_pubSignals","type":"uint256[5]","internalType":"uint256[5]"}],"outputs":[{"name":"","type":"bool","internalType":"bool"}],"stateMutability":"view"}],"bytecode":{"object":"0x608080604052346015576106d6908161001a8239f35b5f80fdfe60806040526004361015610011575f80fd5b5f3560e01c6334baeab914610024575f80fd5b3461039e576101a08060031936011261039e57610040366103a2565b3660c41161039e57610051366103af565b90366101a41161039e5760209161040060405261011761010435610074816103bd565b61011261012435610084816103bd565b61010d61014435610094816103bd565b61010861016435936100a5856103bd565b61010361018435976100b6896103bd565b7f12ac9a25dcd5e1a832a9061a082c15dd1d61aa9c4d553505739d0f5d65dc3be46080527f025aa744581ebe7ad91731911c898569106ff5a2d30f3eee2b23c60ee980acd460a0526103ee565b610478565b610502565b61058c565b610616565b61010093828593358452847f30644e72e131a029b85045b68181585d97816a916871ca8d3c208c16d87cfd479101358103066101205260443561014052606435610160526084356101805260a43590527f2d4d9aa7e302d9df41749d5507949d05dbea33fbb16c643b22f599a2be6df2e26101c0527f14bedd503c37ceb061d8ec60209fe345ce89830a19230301f076caff004d19266101e0527f0967032fcbf776d1afc985f88877f182d38480a653f2decaa9794cbc3bf3060c610200527f0e187847ad4c798374d0d6732bf501847dd68bc0e071241e0213bc7fc13db7ab610220527f304cfbd1e08a704a99f5e847d93f8c3caafddec46b7a0d379da69a4d112346a7610240527f1739c1b1a457a8c7313123d24d2f9192f896b7c63eea05a9d57f06547ad0cec8610260526080516102805260a0516102a0527f198e9393920d483a7260bfb731fb5d25f1aa493335a9e71297e485b7aef312c26102c0527f1800deef121f1e76426a00665e5c4479674322d4f75edadd46debd5cd992f6ed6102e05282610300917f090689d0585ff075ec9e99ad690c3395bc4b313370b38ef355acdadcd122975b83527f12c85ea5db8c6deb4aab71808dcb408fe3d1e7690c43d37b4ce6cc0166fa7daa610320528035610340520135610360527f03b03cd5effa95ac9bee94f1f5ef907157bda4812ccf0b4c91f42bb629f83a1c610380527f1aa085ff28179a12d922dba0547057ccaae94b9d69cfaa4e60401fea7f3e03336103a0527f110c10134f200b19f6490846d518c9aea868366efb7228ca5c91d2940d0307626103c0527f1e60f31fcbf757e837e867178318832d0b2d74d59e2fea1c7142df187d3fc6d36103e0528160086107cf195a01fa9051165f5260205ff35b5f80fd5b9060049160441161039e57565b9060c4916101041161039e57565b7f30644e72e131a029b85045b68181585d2833e84879b9709143e1f593f000000111156103e657565b5f805260205ff35b604051907f0707b920bc978c02f292fae2036e057be54294114ccc3c8769d883f688a1423f82527f2e32a094b7589554f7bc357bf63481acd2d55555c203383782a4650787ff66426020830152604082019081526107cf196040836060816007855a01fa156103e65760409260066080939284938451905260a05160608401525a01fa156103e657565b604051907f0bca36e2cbe6394b3e249751853f961511011c7148e336f4fd974644850fc34782527f2ede7c9acf48cf3a3729fa3d68714e2a8435d4fa6db8f7f409c153b1fcdf9b8b6020830152604082019081526107cf196040836060816007855a01fa156103e65760409260066080939284938451905260a05160608401525a01fa156103e657565b604051907f1b8af999dbfbb3927c091cc2aaf201e488cbacc3e2c6b6fb5a25f9112e04f2a782527f2b91a26aa92e1b6f5722949f192a81c850d586d81a60157f3e9cf04f679cccd66020830152604082019081526107cf196040836060816007855a01fa156103e65760409260066080939284938451905260a05160608401525a01fa156103e657565b604051907f2b5f494ed674235b8ac1750bdfd5a7615f002d4a1dcefeddd06eda5a076ccd0d82527f2fe520ad2020aab9cbba817fcbb9a863b8a76ff88f14f912c5e71665b2ad5e826020830152604082019081526107cf196040836060816007855a01fa156103e65760409260066080939284938451905260a05160608401525a01fa156103e657565b604051907f0f1c3c0d5d9da0fa03666843cde4e82e869ba5252fce3c25d5940320b1c4d49382527f214bfcff74f425f6fe8c0d07b307482d8bc8bb2f3608f68287aa01bd0b69e8096020830152604082019081526107cf196040836060816007855a01fa156103e65760409260066080939284938451905260a05160608401525a01fa156103e65756fea2646970667358221220adecd6c4af5557dcea8379587c35c62e56b6ea6a1a9b3801762a263105b9d34164736f6c63430008190033","linkReferences":{}},"methodIdentifiers":{"verifyProof(uint256[2],uint256[2][2],uint256[2],uint256[5])":"34baeab9"},"id":49}