{"abi":[{"type":"function","name":"computeScoreAndTier","inputs":[{"name":"userInfo","type":"tuple","internalType":"struct IVerifier.UserInfo","components":[{"name":"borrowedAmount","type":"uint256","internalType":"uint256"},{"name":"suppliedAmount","type":"uint256","internalType":"uint256"},{"name":"repaidAmount","type":"uint256","internalType":"uint256"},{"name":"latestBlock","type":"uint256","internalType":"uint256"},{"name":"latestBalance","type":"uint256","internalType":"uint256"},{"name":"borrowTimes","type":"uint256","internalType":"uint256"},{"name":"supplyTimes","type":"uint256","internalType":"uint256"},{"name":"repayTimes","type":"uint256","internalType":"uint256"},{"name":"firstActivityBlock","type":"uint256","internalType":"uint256"},{"name":"liquidations","type":"uint256","internalType":"uint256"}]},{"name":"currentBlock","type":"uint256","internalType":"uint256"}],"outputs":[{"name":"score100","type":"uint256","internalType":"uint256"},{"name":"tier","type":"uint8","internalType":"enum CreditModel.Tier"}],"stateMutability":"pure"},{"type":"function","name":"scoreToTier","inputs":[{"name":"score100","type":"uint256","internalType":"uint256"}],"outputs":[{"name":"tier","type":"uint8","internalType":"enum CreditModel.Tier"}],"stateMutability":"pure"}],"bytecode":{"object":"0x6080806040523460155761041e908161001a8239f35b5f80fdfe60806040908082526004361015610014575f80fd5b5f3560e01c908163826a406d14610155575063b933466114610034575f80fd5b346101515736600319016101608112610151576101408091126101515781519081019080821067ffffffffffffffff83111761013d576100ef918352600435815260208101906024358252838101604435815260608201916064358352608435608082015260a43560a082015260c43560c082015260e43560e0820152610104359182610100830152610120820191610124358352610144355f9480610125575b505f9551908161010c575b50505194519051915194610214565b61010a6100fb82610199565b83519283526020830190610178565bf35b61a8c09296509061011c916101c8565b04935f806100e0565b8195506101359061a8c0926101c8565b04935f6100d5565b634e487b7160e01b5f52604160045260245ffd5b5f80fd5b34610151576020366003190112610151578061010a602092610178600435610199565b9060048210156101855752565b634e487b7160e01b5f52602160045260245ffd5b60558110156101c25760468110156101bc57603211156101b7575f90565b600190565b50600290565b50600390565b919082039182116101d557565b634e487b7160e01b5f52601160045260245ffd5b81156101f3570490565b634e487b7160e01b5f52601260045260245ffd5b919082018092116101d557565b949291926103de5784159283156103a957506064905b6102348187610207565b95600187018097116101d5576064968782029082820489148717156101d55761025c916101e9565b948786116103a1575b1561036e57505084915b61016d9081811061035657505084935b605a811061033257505f925b610dac918281029281840414901517156101d557808603908682116101d557610bb88083029283041490871417156101d5576102c691610207565b906105dc908181029181830414901517156101d5576102e491610207565b6103e892838102908082048514901517156101d55761030291610207565b908281029281840414901517156101d5576127109161032091610207565b049080821161032d575090565b905090565b858102908082048714901517156101d557605a900485038581116101d5579261028b565b868102908082048814901517156101d557049361027f565b868202918083048814901517156101d557610388916101e9565b60c881106103985750849161026f565b60011c9161026f565b879550610265565b6064810290808204606414901517156101d557856103c6916101e9565b60648111156103d9575060645b9061022a565b6103d3565b5050505050600a9056fea2646970667358221220a4f79138baa9af1a50e73fb6362d89fe02a288d77b47c3929c96492ade184c4164736f6c63430008190033","linkReferences":{}},"methodIdentifiers":{"computeScoreAndTier((uint256,uint256,uint256,uint256,uint256,uint256,uint256,uint256,uint256,uint256),uint256)":"b9334661","scoreToTier(uint256)":"826a406d"},"id":74}