{"abi":[{"type":"function","name":"blockTimestampLast","inputs":[],"outputs":[{"name":"","type":"uint32","internalType":"uint32"}],"stateMutability":"view"},{"type":"function","name":"getReserves","inputs":[],"outputs":[{"name":"","type":"uint112","internalType":"uint112"},{"name":"","type":"uint112","internalType":"uint112"},{"name":"","type":"uint32","internalType":"uint32"}],"stateMutability":"view"},{"type":"function","name":"reserve0","inputs":[],"outputs":[{"name":"","type":"uint112","internalType":"uint112"}],"stateMutability":"view"},{"type":"function","name":"reserve1","inputs":[],"outputs":[{"name":"","type":"uint112","internalType":"uint112"}],"stateMutability":"view"},{"type":"function","name":"setReserves","inputs":[{"name":"_reserve0","type":"uint112","internalType":"uint112"},{"name":"_reserve1","type":"uint112","internalType":"uint112"},{"name":"_blockTimestamp","type":"uint32","internalType":"uint32"}],"outputs":[],"stateMutability":"nonpayable"},{"type":"function","name":"setTokens","inputs":[{"name":"_token0","type":"address","internalType":"address"},{"name":"_token1","type":"address","internalType":"address"}],"outputs":[],"stateMutability":"nonpayable"},{"type":"function","name":"token0","inputs":[],"outputs":[{"name":"","type":"address","internalType":"address"}],"stateMutability":"view"},{"type":"function","name":"token1","inputs":[],"outputs":[{"name":"","type":"address","internalType":"address"}],"stateMutability":"view"}],"bytecode":{"object":"0x60808060405234601557610272908161001a8239f35b5f80fdfe60806040908082526004361015610014575f80fd5b5f3560e01c9081630902f1ac14610204575080630dfe1681146101dd578063182432961461016a578063443cb4bc146101435780635a76f25e14610119578063c5700a02146100f8578063cbc7854e146100a15763d21220a714610076575f80fd5b3461009d575f36600319011261009d5760015490516001600160a01b039091168152602090f35b5f80fd5b503461009d5736600319011261009d576001600160a01b036004358181169081900361009d5760243591821680920361009d576bffffffffffffffffffffffff60a01b90815f5416175f5560015416176001555f80f35b503461009d575f36600319011261009d5760209060025460e01c9051908152f35b503461009d575f36600319011261009d576020906001600160701b0360025460701c169051908152f35b503461009d575f36600319011261009d576020906001600160701b03600254169051908152f35b3461009d57606036600319011261009d576004356001600160701b039081811680910361009d57602435918216820361009d5760443563ffffffff8116810361009d5760709290921b6dffffffffffffffffffffffffffff60701b161760e09190911b6001600160e01b03191617600255005b503461009d575f36600319011261009d575f5490516001600160a01b039091168152602090f35b90503461009d575f36600319011261009d576060916002546001600160701b0380821684528160701c16602084015260e01c90820152f3fea2646970667358221220d2d1ee765a09e077c435b3b6cb594a4b2de9c3bf194abd5c19295ad5f27a6d0d64736f6c63430008190033","linkReferences":{}},"methodIdentifiers":{"blockTimestampLast()":"c5700a02","getReserves()":"0902f1ac","reserve0()":"443cb4bc","reserve1()":"5a76f25e","setReserves(uint112,uint112,uint32)":"18243296","setTokens(address,address)":"cbc7854e","token0()":"0dfe1681","token1()":"d21220a7"},"id":25}