{"abi":[{"type":"function","name":"BN254_CONTROL_ID","inputs":[],"outputs":[{"name":"","type":"bytes32","internalType":"bytes32"}],"stateMutability":"view"},{"type":"function","name":"CONTROL_ROOT","inputs":[],"outputs":[{"name":"","type":"bytes32","internalType":"bytes32"}],"stateMutability":"view"}],"bytecode":{"object":"0x6080806040523460185760cf908161001d823930815050f35b5f80fdfe60808060405260043610156011575f80fd5b5f3560e01c908163258038e2146067575063d3f4ed9114602f575f80fd5b5f36600319011260635760206040517fa54dc85ac99f851c92d7c96d7318af41dbe7c0194edfcc37eb4d422a998c1f568152f35b5f80fd5b5f366003190112606357807f04446e66d300eb7fb45c9726bb53c793dda407a62e9601618bb43c5c14657ac060209252f3fea264697066735822122039a914f66d238ea04c63c1d1d76fd69ebba3b9a02d661e0296e710763c4dcb5564736f6c63430008190033","linkReferences":{}},"methodIdentifiers":{"BN254_CONTROL_ID()":"258038e2","CONTROL_ROOT()":"d3f4ed91"},"id":48}