{"abi":[{"type":"function","name":"proof","inputs":[],"outputs":[{"name":"","type":"tuple","internalType":"struct Proof","components":[{"name":"seal","type":"tuple","internalType":"struct Seal","components":[{"name":"verifierSelector","type":"bytes4","internalType":"bytes4"},{"name":"seal","type":"bytes32[8]","internalType":"bytes32[8]"},{"name":"mode","type":"uint8","internalType":"enum ProofMode"}]},{"name":"callGuestId","type":"bytes32","internalType":"bytes32"},{"name":"length","type":"uint256","internalType":"uint256"},{"name":"callAssumptions","type":"tuple","internalType":"struct CallAssumptions","components":[{"name":"proverContractAddress","type":"address","internalType":"address"},{"name":"functionSelector","type":"bytes4","internalType":"bytes4"},{"name":"settleChainId","type":"uint256","internalType":"uint256"},{"name":"settleBlockNumber","type":"uint256","internalType":"uint256"},{"name":"settleBlockHash","type":"bytes32","internalType":"bytes32"}]}]}],"stateMutability":"pure"},{"type":"function","name":"setBlock","inputs":[{"name":"blockNo","type":"uint256","internalType":"uint256"}],"outputs":[],"stateMutability":"nonpayable"},{"type":"function","name":"setChain","inputs":[{"name":"chainId","type":"uint256","internalType":"uint256"},{"name":"blockNo","type":"uint256","internalType":"uint256"}],"outputs":[],"stateMutability":"nonpayable"}],"bytecode":{"object":"0x608080604052346015576103a0908161001a8239f35b5f80fdfe608060409080825260049081361015610016575f80fd5b5f3560e01c90816387cea3ae146101dc57508063faf924cf146100e25763ffbc563814610041575f80fd5b346100de57816003193601126100de57815190631ff78ac760e31b825280359082015260243560248201526020816044815f7376dc9aa45aa006a0f63942d8f9f21bd4537972a35af19081156100d4576100a392505f916100a5575b50610284565b005b6100c7915060203d6020116100cd575b6100bf8183610236565b81019061026c565b5f61009d565b503d6100b5565b82513d5f823e3d90fd5b5f80fd5b50346100de575f3660031901126100de576100fb6102d0565b506101046102d0565b5061010d6102d0565b9180519183519363ffffffff60e01b918286511685528360209687810151888801895f915b600883106101c2575050505001519060028210156101af5750610120850152848101516101408501528083015161016085015260609081015180516001600160a01b0316610180860152948501519091166101a0840152908301516101c08301528201516101e08201526080919091015161020082015261022090f35b602190634e487b7160e01b5f525260245ffd5b8351815289955092810192600192909201918b9101610132565b919050346100de5760203660031901126100de576343e751d760e11b82528035908201526020816024815f7376dc9aa45aa006a0f63942d8f9f21bd4537972a35af19081156100d4576100a392505f916100a55750610284565b90601f8019910116810190811067ffffffffffffffff82111761025857604052565b634e487b7160e01b5f52604160045260245ffd5b908160209103126100de575180151581036100de5790565b1561028b57565b60405162461bcd60e51b815260206004820152601b60248201527f4661696c6564206368656174636f646520696e766f636174696f6e00000000006044820152606490fd5b6040908151608081019267ffffffffffffffff918085108386111761025857809460e08201818110858211176102585783525f815282516101008082018281108782111761025857855236823760a08301525f60c083015281525f60208201525f8282015281519260a08401908482109082111761025857825f91606094528185528160208601528401525f828401525f6080840152015256fea2646970667358221220e1c070d8910bccb14921fc3b3a4782797129af22d773b9e0bdcbe0a25d1919a664736f6c63430008190033","linkReferences":{}},"methodIdentifiers":{"proof()":"faf924cf","setBlock(uint256)":"87cea3ae","setChain(uint256,uint256)":"ffbc5638"},"id":57}