{"abi":[{"type":"function","name":"CALL_ASSUMPTIONS_OFFSET","inputs":[],"outputs":[{"name":"","type":"uint256","internalType":"uint256"}],"stateMutability":"view"},{"type":"function","name":"PROOF_ENCODING_LENGTH","inputs":[],"outputs":[{"name":"","type":"uint256","internalType":"uint256"}],"stateMutability":"view"}],"bytecode":{"object":"0x6080806040523460175760939081601c823930815050f35b5f80fdfe60808060405260043610156011575f80fd5b5f3560e01c908163cddf0a56146049575063e1a42c8814602f575f80fd5b5f36600319011260455760206040516102208152f35b5f80fd5b5f3660031901126045578061018060209252f3fea2646970667358221220a04ce77fb8809d7e0d2e10612516b40b2693f54b7420b1351bd3e590aafa037c64736f6c63430008190033","linkReferences":{}},"methodIdentifiers":{"CALL_ASSUMPTIONS_OFFSET()":"cddf0a56","PROOF_ENCODING_LENGTH()":"e1a42c88"},"id":56}