{"abi":[{"type":"constructor","inputs":[{"name":"_factory","type":"address","internalType":"address"},{"name":"_registry","type":"address","internalType":"address"}],"stateMutability":"nonpayable"},{"type":"function","name":"REGISTRY","inputs":[],"outputs":[{"name":"","type":"address","internalType":"address"}],"stateMutability":"view"},{"type":"function","name":"UNISWAP_V2_FACTORY","inputs":[],"outputs":[{"name":"","type":"address","internalType":"address"}],"stateMutability":"view"},{"type":"function","name":"getPriceInUSDC","inputs":[{"name":"inputToken","type":"address","internalType":"address"},{"name":"amount","type":"uint256","internalType":"uint256"}],"outputs":[{"name":"price","type":"uint256","internalType":"uint256"},{"name":"pair","type":"address","internalType":"address"}],"stateMutability":"view"},{"type":"function","name":"getPriceInUSDT","inputs":[{"name":"inputToken","type":"address","internalType":"address"},{"name":"amount","type":"uint256","internalType":"uint256"}],"outputs":[{"name":"price","type":"uint256","internalType":"uint256"},{"name":"pair","type":"address","internalType":"address"}],"stateMutability":"view"},{"type":"event","name":"PriceCalculated","inputs":[{"name":"pair","type":"address","indexed":true,"internalType":"address"},{"name":"inputToken","type":"address","indexed":true,"internalType":"address"},{"name":"amount","type":"uint256","indexed":false,"internalType":"uint256"},{"name":"price","type":"uint256","indexed":false,"internalType":"uint256"},{"name":"isToken0","type":"bool","indexed":false,"internalType":"bool"}],"anonymous":false}],"bytecode":{"object":"0x60c034608657601f6106f438819003918201601f19168301916001600160401b03831184841017608a578084926040948552833981010312608657604b6020604583609e565b9201609e565b9060805260a05260405161064290816100b28239608051818181605f0152610370015260a05181818160c60152818161019f01526101fb0152f35b5f80fd5b634e487b7160e01b5f52604160045260245ffd5b51906001600160a01b038216820360865756fe60806040908082526004361015610014575f80fd5b60e05f35811c91826306433b1b146101e9575081637ae510b21461016b5781638b9400c81461009257506399d8fae31461004c575f80fd5b3461008e575f36600319011261008e57517f00000000000000000000000000000000000000000000000000000000000000006001600160a01b03168152602090f35b5f80fd5b90503461008e576100a23661022a565b83516315dfb15960e11b815246600482015290926001600160a01b039181816024817f000000000000000000000000000000000000000000000000000000000000000087165afa918215610161576101119492610130979694926080925f92610134575b505001511690610338565b91519081526001600160a01b0390911660208201529081906040820190565b0390f35b6101539250803d1061015a575b61014b8183610250565b81019061029a565b5f80610106565b503d610141565b86513d5f823e3d90fd5b90503461008e5761017b3661022a565b83516315dfb15960e11b815246600482015290926001600160a01b039181816024817f000000000000000000000000000000000000000000000000000000000000000087165afa918215610161576101119492610130979694926060925f9261013457505001511690610338565b3461008e575f36600319011261008e577f00000000000000000000000000000000000000000000000000000000000000006001600160a01b03168152602090f35b604090600319011261008e576004356001600160a01b038116810361008e579060243590565b90601f8019910116810190811067ffffffffffffffff82111761027257604052565b634e487b7160e01b5f52604160045260245ffd5b51906001600160a01b038216820361008e57565b908160e091031261008e576040519060e0820182811067ffffffffffffffff821117610272576103309160c0916040526102d381610286565b84526102e160208201610286565b60208501526102f260408201610286565b604085015261030360608201610286565b606085015261031460808201610286565b608085015261032560a08201610286565b60a085015201610286565b60c082015290565b6040805163e6a4390560e01b81526001600160a01b0392831660048201819052938316602482015294939290916020919082876044817f000000000000000000000000000000000000000000000000000000000000000085165afa9687156105a9575f97610572575b508087168015610538578451630240bc6b60e21b815294606086600481855afa9485156104d5575f965f966104df575b508151630dfe168160e01b8152918183600481875afa9283156104d5575f9361049c575b50816004939482519485809263d21220a760e01b82525afa908115610493575061045f575b505016036104465761043a610442936001600160701b03809316906105b3565b9116906105da565b9190565b9061043a610442936001600160701b03809316906105b3565b81813d831161048c575b6104738183610250565b8101031261008e5761048490610286565b505f8061041a565b503d610469565b513d5f823e3d90fd5b92508183813d83116104ce575b6104b38183610250565b8101031261008e57816104c7600494610286565b93506103f5565b503d6104a9565b50513d5f823e3d90fd5b965094506060863d606011610530575b816104fc60609383610250565b8101031261008e5761050d866105f8565b816105198789016105f8565b97015163ffffffff81160361008e5795945f6103d1565b3d91506104ef565b845162461bcd60e51b815260048101859052601360248201527214185a5c88191bd95cc81b9bdd08195e1a5cdd606a1b6044820152606490fd5b9096508281813d83116105a2575b61058a8183610250565b8101031261008e5761059b90610286565b955f6103a1565b503d610580565b84513d5f823e3d90fd5b818102929181159184041417156105c657565b634e487b7160e01b5f52601160045260245ffd5b81156105e4570490565b634e487b7160e01b5f52601260045260245ffd5b51906001600160701b038216820361008e5756fea264697066735822122039a5461190a6816abfcb5fa6923e3001a800e852d723bc8d4809ccbe836867ae64736f6c63430008190033","linkReferences":{}},"methodIdentifiers":{"REGISTRY()":"06433b1b","UNISWAP_V2_FACTORY()":"99d8fae3","getPriceInUSDC(address,uint256)":"7ae510b2","getPriceInUSDT(address,uint256)":"8b9400c8"},"id":23}