{"abi":[{"type":"constructor","inputs":[{"name":"admin","type":"address","internalType":"address"},{"name":"owner","type":"address","internalType":"address"}],"stateMutability":"nonpayable"},{"type":"function","name":"DEFAULT_ADMIN_ROLE","inputs":[],"outputs":[{"name":"","type":"bytes32","internalType":"bytes32"}],"stateMutability":"view"},{"type":"function","name":"OWNER_ROLE","inputs":[],"outputs":[{"name":"","type":"bytes32","internalType":"bytes32"}],"stateMutability":"view"},{"type":"function","name":"addDnsKey","inputs":[{"name":"key","type":"bytes","internalType":"bytes"}],"outputs":[],"stateMutability":"nonpayable"},{"type":"function","name":"addImageIdSupport","inputs":[{"name":"imageId","type":"bytes32","internalType":"bytes32"}],"outputs":[],"stateMutability":"nonpayable"},{"type":"function","name":"addNotaryKey","inputs":[{"name":"key","type":"string","internalType":"string"}],"outputs":[],"stateMutability":"nonpayable"},{"type":"function","name":"getRoleAdmin","inputs":[{"name":"role","type":"bytes32","internalType":"bytes32"}],"outputs":[{"name":"","type":"bytes32","internalType":"bytes32"}],"stateMutability":"view"},{"type":"function","name":"getRoleMember","inputs":[{"name":"role","type":"bytes32","internalType":"bytes32"},{"name":"index","type":"uint256","internalType":"uint256"}],"outputs":[{"name":"","type":"address","internalType":"address"}],"stateMutability":"view"},{"type":"function","name":"getRoleMemberCount","inputs":[{"name":"role","type":"bytes32","internalType":"bytes32"}],"outputs":[{"name":"","type":"uint256","internalType":"uint256"}],"stateMutability":"view"},{"type":"function","name":"grantRole","inputs":[{"name":"role","type":"bytes32","internalType":"bytes32"},{"name":"account","type":"address","internalType":"address"}],"outputs":[],"stateMutability":"nonpayable"},{"type":"function","name":"hasRole","inputs":[{"name":"role","type":"bytes32","internalType":"bytes32"},{"name":"account","type":"address","internalType":"address"}],"outputs":[{"name":"","type":"bool","internalType":"bool"}],"stateMutability":"view"},{"type":"function","name":"isDnsKeyValid","inputs":[{"name":"key","type":"bytes","internalType":"bytes"}],"outputs":[{"name":"","type":"bool","internalType":"bool"}],"stateMutability":"view"},{"type":"function","name":"isImageSupported","inputs":[{"name":"imageId","type":"bytes32","internalType":"bytes32"}],"outputs":[{"name":"","type":"bool","internalType":"bool"}],"stateMutability":"view"},{"type":"function","name":"isNotaryKeyValid","inputs":[{"name":"key","type":"string","internalType":"string"}],"outputs":[{"name":"","type":"bool","internalType":"bool"}],"stateMutability":"view"},{"type":"function","name":"renounceRole","inputs":[{"name":"role","type":"bytes32","internalType":"bytes32"},{"name":"callerConfirmation","type":"address","internalType":"address"}],"outputs":[],"stateMutability":"nonpayable"},{"type":"function","name":"revokeDnsKey","inputs":[{"name":"key","type":"bytes","internalType":"bytes"}],"outputs":[],"stateMutability":"nonpayable"},{"type":"function","name":"revokeImageIdSupport","inputs":[{"name":"imageId","type":"bytes32","internalType":"bytes32"}],"outputs":[],"stateMutability":"nonpayable"},{"type":"function","name":"revokeNotaryKey","inputs":[{"name":"key","type":"string","internalType":"string"}],"outputs":[],"stateMutability":"nonpayable"},{"type":"function","name":"revokeRole","inputs":[{"name":"role","type":"bytes32","internalType":"bytes32"},{"name":"account","type":"address","internalType":"address"}],"outputs":[],"stateMutability":"nonpayable"},{"type":"function","name":"supportsInterface","inputs":[{"name":"interfaceId","type":"bytes4","internalType":"bytes4"}],"outputs":[{"name":"","type":"bool","internalType":"bool"}],"stateMutability":"view"},{"type":"function","name":"transferAdminRole","inputs":[{"name":"newAdmin","type":"address","internalType":"address"}],"outputs":[],"stateMutability":"nonpayable"},{"type":"function","name":"transferOwnership","inputs":[{"name":"newOwner","type":"address","internalType":"address"}],"outputs":[],"stateMutability":"nonpayable"},{"type":"event","name":"DnsKeyAdded","inputs":[{"name":"who","type":"address","indexed":true,"internalType":"address"},{"name":"key","type":"bytes","indexed":false,"internalType":"bytes"}],"anonymous":false},{"type":"event","name":"DnsKeyRevoked","inputs":[{"name":"who","type":"address","indexed":true,"internalType":"address"},{"name":"key","type":"bytes","indexed":false,"internalType":"bytes"}],"anonymous":false},{"type":"event","name":"ImageIDAdded","inputs":[{"name":"imageID","type":"bytes32","indexed":false,"internalType":"bytes32"}],"anonymous":false},{"type":"event","name":"ImageIDRevoked","inputs":[{"name":"imageID","type":"bytes32","indexed":false,"internalType":"bytes32"}],"anonymous":false},{"type":"event","name":"NotaryKeyAdded","inputs":[{"name":"who","type":"address","indexed":true,"internalType":"address"},{"name":"key","type":"string","indexed":false,"internalType":"string"}],"anonymous":false},{"type":"event","name":"NotaryKeyRevoked","inputs":[{"name":"who","type":"address","indexed":true,"internalType":"address"},{"name":"key","type":"string","indexed":false,"internalType":"string"}],"anonymous":false},{"type":"event","name":"RoleAdminChanged","inputs":[{"name":"role","type":"bytes32","indexed":true,"internalType":"bytes32"},{"name":"previousAdminRole","type":"bytes32","indexed":true,"internalType":"bytes32"},{"name":"newAdminRole","type":"bytes32","indexed":true,"internalType":"bytes32"}],"anonymous":false},{"type":"event","name":"RoleGranted","inputs":[{"name":"role","type":"bytes32","indexed":true,"internalType":"bytes32"},{"name":"account","type":"address","indexed":true,"internalType":"address"},{"name":"sender","type":"address","indexed":true,"internalType":"address"}],"anonymous":false},{"type":"event","name":"RoleRevoked","inputs":[{"name":"role","type":"bytes32","indexed":true,"internalType":"bytes32"},{"name":"account","type":"address","indexed":true,"internalType":"address"},{"name":"sender","type":"address","indexed":true,"internalType":"address"}],"anonymous":false},{"type":"error","name":"AccessControlBadConfirmation","inputs":[]},{"type":"error","name":"AccessControlUnauthorizedAccount","inputs":[{"name":"account","type":"address","internalType":"address"},{"name":"neededRole","type":"bytes32","internalType":"bytes32"}]}],"bytecode":{"object":"0x60803461011057601f6112f138819003918201601f19168301916001600160401b0383118484101761011457808492604094855283398101031261011057610052602061004b83610128565b9201610128565b9061005c8161013c565b6100ce575b5061006b816101a8565b61007f575b604051610fed90816102a48239f35b5f805160206112b18339815191525f5260016020526100c7906001600160a01b03167fe05121899e4c04c40b7e0a2a39dcba2d093af16d5fdca78c38e106d157d2aad3610233565b505f610070565b5f80526001602052610109906001600160a01b03167fa6eef7e35abe7026729641147f7915573c7e97b47efa546f5f6e3230263bcb49610233565b505f610061565b5f80fd5b634e487b7160e01b5f52604160045260245ffd5b51906001600160a01b038216820361011057565b6001600160a01b03165f8181525f805160206112d1833981519152602052604090205460ff166101a3575f8181525f805160206112d183398151915260205260408120805460ff191660011790553391905f805160206112918339815191528180a4600190565b505f90565b6001600160a01b03165f8181527fd329ff8a035c3ce5df2b0dae604d660c0d8783bf7e64be00c1d10db96c0b87b460205260409020545f805160206112b1833981519152919060ff1661022d57815f525f60205260405f20815f5260205260405f20600160ff1982541617905533915f805160206112918339815191525f80a4600190565b50505f90565b6001810190825f528160205260405f2054155f1461029c578054680100000000000000008110156101145760018101808355811015610288578390825f5260205f20015554915f5260205260405f2055600190565b634e487b7160e01b5f52603260045260245ffd5b5050505f9056fe6080604081815260049182361015610015575f80fd5b5f3560e01c90816301ffc9a714610857575080631af6c4311461082b578063248a9ca3146108025780632505a3bd146107d65780632ad82eea146107565780632f2ff15d146106f457806336568abe146106b0578063755e936f1461063257806381e4c9a31461060457806384cf84e11461054f578063853b5d19146104cd5780639010d07c1461048e57806391d148541461044b578063a217fddf14610431578063ada8f919146103a8578063c5df91b5146102eb578063ca0d53581461026a578063ca15c87314610243578063d547741f1461020a578063e58378bb146101e35763f2fde38b14610106575f80fd5b346101df57602091826003193601126101df57610121610969565b915f80516020610f7883398151915291825f5260018552815f20908154156101cc57505f5260018060a01b039182855f205416815f525f86526101696001845f200154610a98565b61017281610cfe565b6101b2575b50805f525f855261018d6001835f200154610a98565b61019684610b72565b61019c57005b6101b0946001915f52525f20911690610e2f565b005b6101c590825f5260018752835f20610e9e565b505f610177565b603290634e487b7160e01b5f525260245ffd5b5f80fd5b50346101df575f3660031901126101df57602090515f80516020610f788339815191528152f35b50346101df57806003193601126101df576101b0913561023e600161022d610953565b93835f525f6020525f200154610a98565b610ab9565b50346101df5760203660031901126101df57602091355f5260018252805f20549051908152f35b50346101df577f69c40cdda8ad6e074bf320a4a76804a6652eb5231bda91b690dcb98010b270799061029b366108c3565b926102a4610a32565b83516020850120805f52816020526102c160ff845f2054166109e6565b5f52602052805f2060ff1981541690555160208152806102e6339460208301906109c2565b0390a2005b5090346101df5760203660031901126101df57803590610309610a32565b815f52600360205260ff835f2054161561035b577f4072861add20da436ef0a8274b90d102aea17b603f972cc8196d51f1a5d5617960208385815f5260038352805f2060ff19815416905551908152a1005b608490602084519162461bcd60e51b8352820152602160248201527f43616e6e6f74207265766f6b6520756e737570706f7274656420496d616765496044820152601160fa1b6064820152fd5b50346101df5760203660031901126101df576103c2610969565b5f80525f6020526103d86001835f200154610a98565b6103e181610af3565b61040b575b506103f033610c86565b6103f657005b6101b0905f8052600160205233905f20610e9e565b5f808052600160205282902061042a916001600160a01b031690610e2f565b50816103e6565b50346101df575f3660031901126101df57602090515f8152f35b50346101df57806003193601126101df57602091610467610953565b90355f525f8352815f209060018060a01b03165f52825260ff815f20541690519015158152f35b50346101df57806003193601126101df57602091355f52600182526104b7602435825f20610e06565b905491519160018060a01b039160031b1c168152f35b50346101df577f0a249d4766726d36cb6d6ac22cf998dc9fc02bb4ff9fda73ec1e3061c8a1db096104fd366108c3565b91610506610a32565b82516020840120805f52600260205261052560ff835f2054161561097f565b5f526002602052805f20600160ff198254161790555160208152806102e6339460208301906109c2565b5090346101df5760203660031901126101df5780359061056d610a32565b815f52600360205260ff835f2054166105c1577f010120d82c0c66b257c0ea628d405b1d3c2d37bb8dd9141f6c5c12cb0375c57260208385815f5260038352805f20600160ff1982541617905551908152a1005b606490602084519162461bcd60e51b8352820152601c60248201527f496d616765494420697320616c726561647920737570706f72746564000000006044820152fd5b50346101df57602090610616366108c3565b8281519101205f526002825260ff815f20541690519015158152f35b50346101df577f66e43f8252a3257fe010a4fd6ae50f57624762cc64a6eceadb04b18cfdefac7d610662366108c3565b9161066b610a32565b82516020840120805f52600260205261068960ff835f2054166109e6565b5f526002602052805f2060ff1981541690555160208152806102e6339460208301906109c2565b50346101df57806003193601126101df576106c9610953565b90336001600160a01b038316036106e557506101b09135610ab9565b5163334bd91960e11b81529050fd5b5090346101df57816003193601126101df573590610710610953565b90825f525f6020526107276001825f200154610a98565b6107318284610c10565b61073757005b5f92835260016020529091206101b0916001600160a01b031690610e2f565b50346101df577fcbfa55581c230aeb174d969838d927cdd297755dfb967a33134312f1377ee71d90610787366108c3565b92610790610a32565b83516020850120805f52816020526107ae60ff845f2054161561097f565b5f52602052805f20600160ff198254161790555160208152806102e6339460208301906109c2565b50346101df576020916107e8366108c3565b8381519101205f52825260ff815f20541690519015158152f35b50346101df5760203660031901126101df57602091355f525f82526001815f2001549051908152f35b50346101df5760203660031901126101df57602091355f526003825260ff815f20541690519015158152f35b83346101df5760203660031901126101df57359063ffffffff60e01b82168092036101df57602091635a05180f60e01b8114908115610898575b5015158152f35b637965db0b60e01b8114915081156108b2575b5083610891565b6301ffc9a760e01b149050836108ab565b60206003198201126101df5767ffffffffffffffff906004358281116101df57816023820112156101df5780600401359183831161093f5760405193601f8401601f19908116603f011685019081118582101761093f57604052828452602483830101116101df57815f92602460209301838601378301015290565b634e487b7160e01b5f52604160045260245ffd5b602435906001600160a01b03821682036101df57565b600435906001600160a01b03821682036101df57565b1561098657565b60405162461bcd60e51b815260206004820152601460248201527312d95e481a5cc8185b1c9958591e481d985b1a5960621b6044820152606490fd5b805180835260209291819084018484015e5f828201840152601f01601f1916010190565b156109ed57565b60405162461bcd60e51b815260206004820152601960248201527f43616e6e6f74207265766f6b6520696e76616c6964206b6579000000000000006044820152606490fd5b335f9081527fd329ff8a035c3ce5df2b0dae604d660c0d8783bf7e64be00c1d10db96c0b87b460205260409020545f80516020610f788339815191529060ff1615610a7a5750565b6044906040519063e2517d3f60e01b82523360048301526024820152fd5b805f525f60205260405f20335f5260205260ff60405f20541615610a7a5750565b610ac38282610d94565b9182610ace57505090565b5f91825260016020526040909120610aef916001600160a01b031690610e9e565b5090565b6001600160a01b03165f8181525f80516020610f98833981519152602052604090205460ff16610b6d575f8181525f80516020610f9883398151915260205260408120805460ff191660011790553391907f2f8788117e7eff1d82e926ec794901d17c78024a50270940304540a733656f0d8180a4600190565b505f90565b6001600160a01b03165f8181527fd329ff8a035c3ce5df2b0dae604d660c0d8783bf7e64be00c1d10db96c0b87b460205260409020545f80516020610f78833981519152919060ff16610c0a57815f525f60205260405f20815f5260205260405f20600160ff1982541617905533917f2f8788117e7eff1d82e926ec794901d17c78024a50270940304540a733656f0d5f80a4600190565b50505f90565b90815f525f60205260405f209060018060a01b031690815f5260205260ff60405f205416155f14610c0a57815f525f60205260405f20815f5260205260405f20600160ff1982541617905533917f2f8788117e7eff1d82e926ec794901d17c78024a50270940304540a733656f0d5f80a4600190565b6001600160a01b03165f8181525f80516020610f98833981519152602052604090205460ff1615610b6d575f8181525f80516020610f9883398151915260205260408120805460ff191690553391907ff6391f5c32d9c69d2a47ea670b442974b53935d1edc7fd64eb21e047a839171b8180a4600190565b6001600160a01b03165f8181527fd329ff8a035c3ce5df2b0dae604d660c0d8783bf7e64be00c1d10db96c0b87b460205260409020545f80516020610f78833981519152919060ff1615610c0a57815f525f60205260405f20815f5260205260405f2060ff19815416905533917ff6391f5c32d9c69d2a47ea670b442974b53935d1edc7fd64eb21e047a839171b5f80a4600190565b90815f525f60205260405f209060018060a01b031690815f5260205260ff60405f2054165f14610c0a57815f525f60205260405f20815f5260205260405f2060ff19815416905533917ff6391f5c32d9c69d2a47ea670b442974b53935d1edc7fd64eb21e047a839171b5f80a4600190565b8054821015610e1b575f5260205f2001905f90565b634e487b7160e01b5f52603260045260245ffd5b6001810190825f528160205260405f2054155f14610e975780546801000000000000000081101561093f57610e84610e6e826001879401855584610e06565b819391549060031b91821b915f19901b19161790565b905554915f5260205260405f2055600190565b5050505f90565b906001820191815f528260205260405f2054908115155f14610f6f575f1991808301818111610f5b57825490848201918211610f5b57818103610f26575b50505080548015610f1257820191610ef48383610e06565b909182549160031b1b19169055555f526020525f6040812055600190565b634e487b7160e01b5f52603160045260245ffd5b610f46610f36610e6e9386610e06565b90549060031b1c92839286610e06565b90555f528460205260405f20555f8080610edc565b634e487b7160e01b5f52601160045260245ffd5b505050505f9056feb19546dff01e856fb3f010c267a7b1c60363cf8a4664e21cc89c26224620214ead3228b676f7d3cd4284a5443f17f1962b36e491b30a40b2405849e597ba5fb5a26469706673582212201f4d9318373924bcd6e34b8af4bfcc6a9d267068497146be0a9bea71c4accfa064736f6c634300081900332f8788117e7eff1d82e926ec794901d17c78024a50270940304540a733656f0db19546dff01e856fb3f010c267a7b1c60363cf8a4664e21cc89c26224620214ead3228b676f7d3cd4284a5443f17f1962b36e491b30a40b2405849e597ba5fb5","linkReferences":{}},"methodIdentifiers":{"DEFAULT_ADMIN_ROLE()":"a217fddf","OWNER_ROLE()":"e58378bb","addDnsKey(bytes)":"853b5d19","addImageIdSupport(bytes32)":"84cf84e1","addNotaryKey(string)":"2ad82eea","getRoleAdmin(bytes32)":"248a9ca3","getRoleMember(bytes32,uint256)":"9010d07c","getRoleMemberCount(bytes32)":"ca15c873","grantRole(bytes32,address)":"2f2ff15d","hasRole(bytes32,address)":"91d14854","isDnsKeyValid(bytes)":"81e4c9a3","isImageSupported(bytes32)":"1af6c431","isNotaryKeyValid(string)":"2505a3bd","renounceRole(bytes32,address)":"36568abe","revokeDnsKey(bytes)":"755e936f","revokeImageIdSupport(bytes32)":"c5df91b5","revokeNotaryKey(string)":"ca0d5358","revokeRole(bytes32,address)":"d547741f","supportsInterface(bytes4)":"01ffc9a7","transferAdminRole(address)":"ada8f919","transferOwnership(address)":"f2fde38b"},"id":58}