{"abi":[{"type":"constructor","inputs":[{"name":"_repository","type":"address","internalType":"contract IImageIdRepository"}],"stateMutability":"nonpayable"},{"type":"function","name":"IMAGE_ID_REPOSITORY","inputs":[],"outputs":[{"name":"","type":"address","internalType":"contract IImageIdRepository"}],"stateMutability":"view"},{"type":"function","name":"PROOF_MODE","inputs":[],"outputs":[{"name":"","type":"uint8","internalType":"enum ProofMode"}],"stateMutability":"view"},{"type":"function","name":"VERIFIER","inputs":[],"outputs":[{"name":"","type":"address","internalType":"contract IRiscZeroVerifier"}],"stateMutability":"view"},{"type":"function","name":"imageIdRepository","inputs":[],"outputs":[{"name":"","type":"address","internalType":"contract IImageIdRepository"}],"stateMutability":"view"},{"type":"function","name":"verify","inputs":[{"name":"proof","type":"tuple","internalType":"struct Proof","components":[{"name":"seal","type":"tuple","internalType":"struct Seal","components":[{"name":"verifierSelector","type":"bytes4","internalType":"bytes4"},{"name":"seal","type":"bytes32[8]","internalType":"bytes32[8]"},{"name":"mode","type":"uint8","internalType":"enum ProofMode"}]},{"name":"callGuestId","type":"bytes32","internalType":"bytes32"},{"name":"length","type":"uint256","internalType":"uint256"},{"name":"callAssumptions","type":"tuple","internalType":"struct CallAssumptions","components":[{"name":"proverContractAddress","type":"address","internalType":"address"},{"name":"functionSelector","type":"bytes4","internalType":"bytes4"},{"name":"settleChainId","type":"uint256","internalType":"uint256"},{"name":"settleBlockNumber","type":"uint256","internalType":"uint256"},{"name":"settleBlockHash","type":"bytes32","internalType":"bytes32"}]}]},{"name":"journalHash","type":"bytes32","internalType":"bytes32"},{"name":"expectedProver","type":"address","internalType":"address"},{"name":"expectedSelector","type":"bytes4","internalType":"bytes4"}],"outputs":[],"stateMutability":"view"},{"type":"error","name":"InvalidChainId","inputs":[]}],"bytecode":{"object":"0x60e0346101ab576001600160401b0390601f61116a38819003918201601f191683019184831184841017610124578084926020946040528339810103126101ab57516001600160a01b03919082811681036101ab5760c0526001461480156101a1575b8015610197575b801561018c575b8015610181575b8015610176575b801561016b575b8015610160575b8015610155575b801561014a575b61013857604051906106e880830191821183831017610124576020918391610a82833963deafbeef60e01b81520301905ff08015610119571660a05260016080526040516108d290816101b0823960805181818160c5015261059a015260a0518181816101b701526105ef015260c05181818161017b01526106330152f35b6040513d5f823e3d90fd5b634e487b7160e01b5f52604160045260245ffd5b604051633d23e4d160e11b8152600490fd5b5061e708461461009a565b5061a4ba4614610093565b5061a4b1461461008c565b506121054614610085565b506102eb461461007e565b506101e04614610077565b506101444614610070565b5060894614610069565b50600a4614610062565b5f80fdfe60806040818152600480361015610014575f80fd5b5f915f3560e01c93846308c84e70146105dd575083633fd66f221461005a5783639a44ea8414610587578363c4fa74e51461005f5750505063f4cbae941461005a575f80fd5b61061e565b346102dd5736600319019161028083126102dd5761022083126102dd576001600160a01b039061024435828116908190036102dd576001600160e01b03196102643581811692908390036102dd57856100b7366106af565b5101516002811015610574577f00000000000000000000000000000000000000000000000000000000000000009060028210156105615703610529576100fc366106af565b9060608201908682515116036104f55760209383858351015116036104bf5786815101514603610489576060815101514311156104365760608151015161010081018091116104235743116103d4575160606080820151910151400361039c5782015193855194631af6c43160e01b86528486015260249483818781857f0000000000000000000000000000000000000000000000000000000000000000165afa908115610392575f91610333575b50156102f157610140907f00000000000000000000000000000000000000000000000000000000000000001696126102dd578451906101e982610662565b833590811681036102dd57815236604312156102dd57845161020a81610692565b80610124913683116102dd578487915b8483106102e157509050830152359060028210156102dd5761023f91868201526107d9565b90853b156102dd576084955f92865197888094819363ab750e7560e01b83526060898401528051918291826064860152018484015e81810183018790526101443589830152610224356044830152601f01601f191681010301915afa80156102d3576102a9578480f35b909192935067ffffffffffffffff84116102c257505052005b604190634e487b7160e01b5f52525ffd5b83513d5f823e3d90fd5b5f80fd5b823581529181019186910161021a565b855162461bcd60e51b81528085018490526017818701527f556e737570706f727465642043616c6c477565737449640000000000000000006044820152606490fd5b9050833d851161038b575b601f8101601f1916820167ffffffffffffffff81118382101761037957859183918a52810103126102dd575180151581036102dd57896101ab565b87604188634e487b7160e01b5f52525ffd5b503d61033e565b87513d5f823e3d90fd5b855162461bcd60e51b81528085018490526012602482015271092dcecc2d8d2c840c4d8dec6d640d0c2e6d60731b6044820152606490fd5b865162461bcd60e51b8152808601859052602360248201527f496e76616c696420626c6f636b206e756d6265723a20626c6f636b20746f6f206044820152621bdb1960ea1b6064820152608490fd5b601186634e487b7160e01b5f525260245ffd5b865162461bcd60e51b8152808601859052602760248201527f496e76616c696420626c6f636b206e756d6265723a20626c6f636b2066726f6d6044820152662066757475726560c81b6064820152608490fd5b865162461bcd60e51b8152808601859052601060248201526f125b9d985b1a590818da185a5b881a5960821b6044820152606490fd5b865162461bcd60e51b8152808601859052601060248201526f24b73b30b634b21039b2b632b1ba37b960811b6044820152606490fd5b865162461bcd60e51b8152602081870152600e60248201526d24b73b30b634b210383937bb32b960911b6044820152606490fd5b855162461bcd60e51b81526020818601526012602482015271496e76616c69642070726f6f66206d6f646560701b6044820152606490fd5b602186634e487b7160e01b5f525260245ffd5b602185634e487b7160e01b5f525260245ffd5b346102dd575f3660031901126102dd57517f000000000000000000000000000000000000000000000000000000000000000060028110156105ca57602092508152f35b602183634e487b7160e01b5f525260245ffd5b346102dd575f3660031901126102dd577f00000000000000000000000000000000000000000000000000000000000000006001600160a01b03168152602090f35b346102dd575f3660031901126102dd576040517f00000000000000000000000000000000000000000000000000000000000000006001600160a01b03168152602090f35b6060810190811067ffffffffffffffff82111761067e57604052565b634e487b7160e01b5f52604160045260245ffd5b610100810190811067ffffffffffffffff82111761067e57604052565b6003198101919061022083126102dd576040805167ffffffffffffffff9291608082018481118382101761067e578082526101408397126102dd576106f381610662565b6001600160e01b03199360043585811681036102dd57825280604312156102dd57825161071f81610692565b80610124918383116102dd576024905b8382106107c957505060a0860152359160028310156102dd5760a09260c0860152845261014435602085015261016435838501526101831901126102dd5780519360a085019081118582101761067e578152610184356001600160a01b03811681036102dd5784526101a43592831683036102dd5760609260208501526101c435908401526101e435828401526102043560808401520152565b813581526020918201910161072f565b6040810151600281101561088857600190810361082257506020810151519063ffffffff60e01b9051169060405191602083015260248201526024815261081f81610662565b90565b81516020928301516040516001600160e01b03199092168285015290925f602485015b600882106108755750505050506101048152610140810181811067ffffffffffffffff82111761067e5760405290565b8351815292820192908401908201610845565b634e487b7160e01b5f52602160045260245ffdfea26469706673582212203853dfda968a756d3809b64b1b521f7db2d1668a21d922a28d35ecf6fe959f0664736f6c6343000819003360a034607557601f6106e838819003918201601f19168301916001600160401b03831184841017607957808492602094604052833981010312607557516001600160e01b03198116810360755760805260405161065a908161008e82396080518181816101a60152818161028401526103040152f35b5f80fd5b634e487b7160e01b5f52604160045260245ffdfe60808060405260049081361015610014575f80fd5b5f3560e01c908163053c238d14610194575080631599ead5146101285780633a115bb11461010957806366cf0e4b146100c25763ab750e7514610055575f80fd5b346100be5760603660031901126100be57803567ffffffffffffffff918282116100be57366023830112156100be578101359182116100be5736602483830101116100be576100bc9160246100b56100b06044358335610400565b61052c565b92016102ed565b005b5f80fd5b50346100be5760403660031901126100be576100f96100f46100b0610105936100e961025d565b506024359035610400565b610276565b604051918291826101d6565b0390f35b50346100be5760203660031901126100be576100f96101059135610276565b50346100be576003196020368201126100be5781359167ffffffffffffffff918284116100be576040843603918201126100be578184013590602219018112156100be578301908101359182116100be576024019080360382136100be5760246100bc930135916102ed565b346100be575f3660031901126100be577f00000000000000000000000000000000000000000000000000000000000000006001600160e01b0319168152602090f35b60208060809381845280516040838601528051938491826060880152018686015e5f84840186015201516040830152601f01601f1916010190565b6040810190811067ffffffffffffffff82111761022d57604052565b634e487b7160e01b5f52604160045260245ffd5b60a0810190811067ffffffffffffffff82111761022d57604052565b6040519061026a82610211565b5f602083606081520152565b61027e61025d565b506040517f00000000000000000000000000000000000000000000000000000000000000006001600160e01b03191660208201526024808201839052815260608101919067ffffffffffffffff83118184101761022d57608090836040526102e584610211565b808452015290565b91906004928184116100be576001600160e01b03197f00000000000000000000000000000000000000000000000000000000000000008116908235168082036103e3575050600319820167ffffffffffffffff918282116103d05760405192601b8501601f19908116603f01168401908111848210176103bd57604052818352602083019336818301116100be575f9287601c93018637830101525190209060405160208101918252602081526103a381610211565b519020036103ae5750565b60405163439cc0cd60e01b8152fd5b604187634e487b7160e01b5f525260245ffd5b604186634e487b7160e01b5f525260245ffd5b604491869160405192632e2ce35360e21b84528301526024820152fd5b9060409081519161041083610241565b5f83525f60806020948286820152835161042981610211565b838152838782015284820152826060820152015280519161044983610211565b5f83525f8484015281519061045d82610211565b81528381015f8152845f600c85516b1c9a5cd8cc0b93dd5d1c1d5d60a21b815260025afa156105225784915f91825191519051855191858301938452868301526060820152600160f91b6080820152606281526104b981610241565b8451918291518091835e8101838152039060025afa15610519577fa3acc27117418996340b84e5a90f3ef4c49d22c79e44aad822ec9c313e1eb8e25f519382519561050387610241565b86528501528301525f6060830152608082015290565b513d5f823e3d90fd5b82513d5f823e3d90fd5b60409060205f601284517172697363302e52656365697074436c61696d60701b815260025afa1561061a575f516060820151918051602082015191856080820151910192835151936003851015610606576020905101519287519660208801968752888801526060870152608086015260a085015260ff60f81b809260f81b1660c085015260f81b1660c4830152600160fa1b60c883015260aa825260e0820182811067ffffffffffffffff82111761022d576020925f9282865281518091845e81018360e0820152039060025afa1561051957505f5190565b634e487b7160e01b5f52602160045260245ffd5b50513d5f823e3d90fdfea26469706673582212206c9fb2eb22390b1b5e8d9eeefcc43b18c02d539b1e1f6c237ef9254655d5131b64736f6c63430008190033","linkReferences":{}},"methodIdentifiers":{"IMAGE_ID_REPOSITORY()":"f4cbae94","PROOF_MODE()":"9a44ea84","VERIFIER()":"08c84e70","imageIdRepository()":"3fd66f22","verify(((bytes4,bytes32[8],uint8),bytes32,uint256,(address,bytes4,uint256,uint256,bytes32)),bytes32,address,bytes4)":"c4fa74e5"},"id":63}